{
	"contracts/ultimate-solidity-course-for-complete-beginners-main/Exercises/18-Twitter-AddLike-Exercise.sol": {
		"Twitter": {
			"abi": [
				{
					"inputs": [],
					"stateMutability": "nonpayable",
					"type": "constructor"
				},
				{
					"inputs": [],
					"name": "MAX_TWEET_LENGTH",
					"outputs": [
						{
							"internalType": "uint16",
							"name": "",
							"type": "uint16"
						}
					],
					"stateMutability": "view",
					"type": "function"
				},
				{
					"inputs": [
						{
							"internalType": "uint16",
							"name": "newTweetLength",
							"type": "uint16"
						}
					],
					"name": "changeTweetLength",
					"outputs": [],
					"stateMutability": "nonpayable",
					"type": "function"
				},
				{
					"inputs": [
						{
							"internalType": "string",
							"name": "_tweet",
							"type": "string"
						}
					],
					"name": "createTweet",
					"outputs": [],
					"stateMutability": "nonpayable",
					"type": "function"
				},
				{
					"inputs": [
						{
							"internalType": "address",
							"name": "_owner",
							"type": "address"
						}
					],
					"name": "getAllTweets",
					"outputs": [
						{
							"components": [
								{
									"internalType": "uint256",
									"name": "id",
									"type": "uint256"
								},
								{
									"internalType": "address",
									"name": "author",
									"type": "address"
								},
								{
									"internalType": "string",
									"name": "content",
									"type": "string"
								},
								{
									"internalType": "uint256",
									"name": "timestamp",
									"type": "uint256"
								},
								{
									"internalType": "uint256",
									"name": "likes",
									"type": "uint256"
								}
							],
							"internalType": "struct Twitter.Tweet[]",
							"name": "",
							"type": "tuple[]"
						}
					],
					"stateMutability": "view",
					"type": "function"
				},
				{
					"inputs": [
						{
							"internalType": "uint256",
							"name": "_i",
							"type": "uint256"
						}
					],
					"name": "getTweet",
					"outputs": [
						{
							"components": [
								{
									"internalType": "uint256",
									"name": "id",
									"type": "uint256"
								},
								{
									"internalType": "address",
									"name": "author",
									"type": "address"
								},
								{
									"internalType": "string",
									"name": "content",
									"type": "string"
								},
								{
									"internalType": "uint256",
									"name": "timestamp",
									"type": "uint256"
								},
								{
									"internalType": "uint256",
									"name": "likes",
									"type": "uint256"
								}
							],
							"internalType": "struct Twitter.Tweet",
							"name": "",
							"type": "tuple"
						}
					],
					"stateMutability": "view",
					"type": "function"
				},
				{
					"inputs": [
						{
							"internalType": "address",
							"name": "author",
							"type": "address"
						},
						{
							"internalType": "uint256",
							"name": "id",
							"type": "uint256"
						}
					],
					"name": "likeTweet",
					"outputs": [],
					"stateMutability": "nonpayable",
					"type": "function"
				},
				{
					"inputs": [],
					"name": "owner",
					"outputs": [
						{
							"internalType": "address",
							"name": "",
							"type": "address"
						}
					],
					"stateMutability": "view",
					"type": "function"
				},
				{
					"inputs": [
						{
							"internalType": "address",
							"name": "",
							"type": "address"
						},
						{
							"internalType": "uint256",
							"name": "",
							"type": "uint256"
						}
					],
					"name": "tweets",
					"outputs": [
						{
							"internalType": "uint256",
							"name": "id",
							"type": "uint256"
						},
						{
							"internalType": "address",
							"name": "author",
							"type": "address"
						},
						{
							"internalType": "string",
							"name": "content",
							"type": "string"
						},
						{
							"internalType": "uint256",
							"name": "timestamp",
							"type": "uint256"
						},
						{
							"internalType": "uint256",
							"name": "likes",
							"type": "uint256"
						}
					],
					"stateMutability": "view",
					"type": "function"
				},
				{
					"inputs": [
						{
							"internalType": "address",
							"name": "author",
							"type": "address"
						},
						{
							"internalType": "uint256",
							"name": "id",
							"type": "uint256"
						}
					],
					"name": "unlikeTweet",
					"outputs": [],
					"stateMutability": "nonpayable",
					"type": "function"
				}
			],
			"devdoc": {
				"kind": "dev",
				"methods": {},
				"version": 1
			},
			"evm": {
				"assembly": "    /* \"contracts/ultimate-solidity-course-for-complete-beginners-main/Exercises/18-Twitter-AddLike-Exercise.sol\":470:2191  contract Twitter {... */\n  mstore(0x40, 0x80)\n    /* \"contracts/ultimate-solidity-course-for-complete-beginners-main/Exercises/18-Twitter-AddLike-Exercise.sol\":527:530  280 */\n  0x0118\n    /* \"contracts/ultimate-solidity-course-for-complete-beginners-main/Exercises/18-Twitter-AddLike-Exercise.sol\":494:530  uint16 public MAX_TWEET_LENGTH = 280 */\n  0x00\n  exp(0x0100, 0x00)\n  dup2\n  sload\n  dup2\n  0xffff\n  mul\n  not\n  and\n  swap1\n  dup4\n  0xffff\n  and\n  mul\n  or\n  swap1\n  sstore\n  pop\n    /* \"contracts/ultimate-solidity-course-for-complete-beginners-main/Exercises/18-Twitter-AddLike-Exercise.sol\":755:804  constructor() {... */\n  callvalue\n  dup1\n  iszero\n  tag_1\n  jumpi\n  revert(0x00, 0x00)\ntag_1:\n  pop\n    /* \"contracts/ultimate-solidity-course-for-complete-beginners-main/Exercises/18-Twitter-AddLike-Exercise.sol\":787:797  msg.sender */\n  caller\n    /* \"contracts/ultimate-solidity-course-for-complete-beginners-main/Exercises/18-Twitter-AddLike-Exercise.sol\":779:784  owner */\n  0x02\n  0x00\n    /* \"contracts/ultimate-solidity-course-for-complete-beginners-main/Exercises/18-Twitter-AddLike-Exercise.sol\":779:797  owner = msg.sender */\n  0x0100\n  exp\n  dup2\n  sload\n  dup2\n  0xffffffffffffffffffffffffffffffffffffffff\n  mul\n  not\n  and\n  swap1\n  dup4\n  0xffffffffffffffffffffffffffffffffffffffff\n  and\n  mul\n  or\n  swap1\n  sstore\n  pop\n    /* \"contracts/ultimate-solidity-course-for-complete-beginners-main/Exercises/18-Twitter-AddLike-Exercise.sol\":470:2191  contract Twitter {... */\n  dataSize(sub_0)\n  dup1\n  dataOffset(sub_0)\n  0x00\n  codecopy\n  0x00\n  return\nstop\n\nsub_0: assembly {\n        /* \"contracts/ultimate-solidity-course-for-complete-beginners-main/Exercises/18-Twitter-AddLike-Exercise.sol\":470:2191  contract Twitter {... */\n      mstore(0x40, 0x80)\n      callvalue\n      dup1\n      iszero\n      tag_1\n      jumpi\n      revert(0x00, 0x00)\n    tag_1:\n      pop\n      jumpi(tag_2, lt(calldatasize, 0x04))\n      shr(0xe0, calldataload(0x00))\n      dup1\n      0x63378216\n      gt\n      tag_12\n      jumpi\n      dup1\n      0x63378216\n      eq\n      tag_7\n      jumpi\n      dup1\n      0x6eb10797\n      eq\n      tag_8\n      jumpi\n      dup1\n      0x7c9cd2bc\n      eq\n      tag_9\n      jumpi\n      dup1\n      0x8da5cb5b\n      eq\n      tag_10\n      jumpi\n      dup1\n      0xc3ad5ecb\n      eq\n      tag_11\n      jumpi\n      jump(tag_2)\n    tag_12:\n      dup1\n      0x05a1b4a9\n      eq\n      tag_3\n      jumpi\n      dup1\n      0x12e7ee1c\n      eq\n      tag_4\n      jumpi\n      dup1\n      0x3d9b569f\n      eq\n      tag_5\n      jumpi\n      dup1\n      0x58bfa4ab\n      eq\n      tag_6\n      jumpi\n    tag_2:\n      revert(0x00, 0x00)\n        /* \"contracts/ultimate-solidity-course-for-complete-beginners-main/Exercises/18-Twitter-AddLike-Exercise.sol\":680:722  mapping(address => Tweet[] ) public tweets */\n    tag_3:\n      tag_13\n      0x04\n      dup1\n      calldatasize\n      sub\n      dup2\n      add\n      swap1\n      tag_14\n      swap2\n      swap1\n      tag_15\n      jump\t// in\n    tag_14:\n      tag_16\n      jump\t// in\n    tag_13:\n      mload(0x40)\n      tag_17\n      swap6\n      swap5\n      swap4\n      swap3\n      swap2\n      swap1\n      tag_18\n      jump\t// in\n    tag_17:\n      mload(0x40)\n      dup1\n      swap2\n      sub\n      swap1\n      return\n        /* \"contracts/ultimate-solidity-course-for-complete-beginners-main/Exercises/18-Twitter-AddLike-Exercise.sol\":2075:2188  function getAllTweets(address _owner) public view returns (Tweet[] memory ){... */\n    tag_4:\n      tag_19\n      0x04\n      dup1\n      calldatasize\n      sub\n      dup2\n      add\n      swap1\n      tag_20\n      swap2\n      swap1\n      tag_21\n      jump\t// in\n    tag_20:\n      tag_22\n      jump\t// in\n    tag_19:\n      mload(0x40)\n      tag_23\n      swap2\n      swap1\n      tag_24\n      jump\t// in\n    tag_23:\n      mload(0x40)\n      dup1\n      swap2\n      sub\n      swap1\n      return\n        /* \"contracts/ultimate-solidity-course-for-complete-beginners-main/Exercises/18-Twitter-AddLike-Exercise.sol\":1680:1954  function unlikeTweet(address author, uint256 id) external {... */\n    tag_5:\n      tag_25\n      0x04\n      dup1\n      calldatasize\n      sub\n      dup2\n      add\n      swap1\n      tag_26\n      swap2\n      swap1\n      tag_15\n      jump\t// in\n    tag_26:\n      tag_27\n      jump\t// in\n    tag_25:\n      stop\n        /* \"contracts/ultimate-solidity-course-for-complete-beginners-main/Exercises/18-Twitter-AddLike-Exercise.sol\":919:1036  function changeTweetLength(uint16 newTweetLength) public onlyOwner {... */\n    tag_6:\n      tag_28\n      0x04\n      dup1\n      calldatasize\n      sub\n      dup2\n      add\n      swap1\n      tag_29\n      swap2\n      swap1\n      tag_30\n      jump\t// in\n    tag_29:\n      tag_31\n      jump\t// in\n    tag_28:\n      stop\n        /* \"contracts/ultimate-solidity-course-for-complete-beginners-main/Exercises/18-Twitter-AddLike-Exercise.sol\":1494:1674  function likeTweet(address author, uint256 id) external {... */\n    tag_7:\n      tag_32\n      0x04\n      dup1\n      calldatasize\n      sub\n      dup2\n      add\n      swap1\n      tag_33\n      swap2\n      swap1\n      tag_15\n      jump\t// in\n    tag_33:\n      tag_34\n      jump\t// in\n    tag_32:\n      stop\n        /* \"contracts/ultimate-solidity-course-for-complete-beginners-main/Exercises/18-Twitter-AddLike-Exercise.sol\":494:530  uint16 public MAX_TWEET_LENGTH = 280 */\n    tag_8:\n      tag_35\n      tag_36\n      jump\t// in\n    tag_35:\n      mload(0x40)\n      tag_37\n      swap2\n      swap1\n      tag_38\n      jump\t// in\n    tag_37:\n      mload(0x40)\n      dup1\n      swap2\n      sub\n      swap1\n      return\n        /* \"contracts/ultimate-solidity-course-for-complete-beginners-main/Exercises/18-Twitter-AddLike-Exercise.sol\":1042:1447  function createTweet(string memory _tweet) public {... */\n    tag_9:\n      tag_39\n      0x04\n      dup1\n      calldatasize\n      sub\n      dup2\n      add\n      swap1\n      tag_40\n      swap2\n      swap1\n      tag_41\n      jump\t// in\n    tag_40:\n      tag_42\n      jump\t// in\n    tag_39:\n      stop\n        /* \"contracts/ultimate-solidity-course-for-complete-beginners-main/Exercises/18-Twitter-AddLike-Exercise.sol\":728:748  address public owner */\n    tag_10:\n      tag_43\n      tag_44\n      jump\t// in\n    tag_43:\n      mload(0x40)\n      tag_45\n      swap2\n      swap1\n      tag_46\n      jump\t// in\n    tag_45:\n      mload(0x40)\n      dup1\n      swap2\n      sub\n      swap1\n      return\n        /* \"contracts/ultimate-solidity-course-for-complete-beginners-main/Exercises/18-Twitter-AddLike-Exercise.sol\":1960:2069  function getTweet( uint _i) public view returns (Tweet memory) {... */\n    tag_11:\n      tag_47\n      0x04\n      dup1\n      calldatasize\n      sub\n      dup2\n      add\n      swap1\n      tag_48\n      swap2\n      swap1\n      tag_49\n      jump\t// in\n    tag_48:\n      tag_50\n      jump\t// in\n    tag_47:\n      mload(0x40)\n      tag_51\n      swap2\n      swap1\n      tag_52\n      jump\t// in\n    tag_51:\n      mload(0x40)\n      dup1\n      swap2\n      sub\n      swap1\n      return\n        /* \"contracts/ultimate-solidity-course-for-complete-beginners-main/Exercises/18-Twitter-AddLike-Exercise.sol\":680:722  mapping(address => Tweet[] ) public tweets */\n    tag_16:\n      mstore(0x20, 0x01)\n      dup2\n      0x00\n      mstore\n      keccak256(0x00, 0x40)\n      dup2\n      dup2\n      sload\n      dup2\n      lt\n      tag_53\n      jumpi\n      0x00\n      dup1\n      revert\n    tag_53:\n      swap1\n      0x00\n      mstore\n      keccak256(0x00, 0x20)\n      swap1\n      0x05\n      mul\n      add\n      0x00\n      swap2\n      pop\n      swap2\n      pop\n      pop\n      dup1\n      0x00\n      add\n      sload\n      swap1\n      dup1\n      0x01\n      add\n      0x00\n      swap1\n      sload\n      swap1\n      0x0100\n      exp\n      swap1\n      div\n      0xffffffffffffffffffffffffffffffffffffffff\n      and\n      swap1\n      dup1\n      0x02\n      add\n      dup1\n      sload\n      tag_55\n      swap1\n      tag_56\n      jump\t// in\n    tag_55:\n      dup1\n      0x1f\n      add\n      0x20\n      dup1\n      swap2\n      div\n      mul\n      0x20\n      add\n      mload(0x40)\n      swap1\n      dup2\n      add\n      0x40\n      mstore\n      dup1\n      swap3\n      swap2\n      swap1\n      dup2\n      dup2\n      mstore\n      0x20\n      add\n      dup3\n      dup1\n      sload\n      tag_57\n      swap1\n      tag_56\n      jump\t// in\n    tag_57:\n      dup1\n      iszero\n      tag_58\n      jumpi\n      dup1\n      0x1f\n      lt\n      tag_59\n      jumpi\n      0x0100\n      dup1\n      dup4\n      sload\n      div\n      mul\n      dup4\n      mstore\n      swap2\n      0x20\n      add\n      swap2\n      jump(tag_58)\n    tag_59:\n      dup3\n      add\n      swap2\n      swap1\n      0x00\n      mstore\n      keccak256(0x00, 0x20)\n      swap1\n    tag_60:\n      dup2\n      sload\n      dup2\n      mstore\n      swap1\n      0x01\n      add\n      swap1\n      0x20\n      add\n      dup1\n      dup4\n      gt\n      tag_60\n      jumpi\n      dup3\n      swap1\n      sub\n      0x1f\n      and\n      dup3\n      add\n      swap2\n    tag_58:\n      pop\n      pop\n      pop\n      pop\n      pop\n      swap1\n      dup1\n      0x03\n      add\n      sload\n      swap1\n      dup1\n      0x04\n      add\n      sload\n      swap1\n      pop\n      dup6\n      jump\t// out\n        /* \"contracts/ultimate-solidity-course-for-complete-beginners-main/Exercises/18-Twitter-AddLike-Exercise.sol\":2075:2188  function getAllTweets(address _owner) public view returns (Tweet[] memory ){... */\n    tag_22:\n        /* \"contracts/ultimate-solidity-course-for-complete-beginners-main/Exercises/18-Twitter-AddLike-Exercise.sol\":2134:2148  Tweet[] memory */\n      0x60\n        /* \"contracts/ultimate-solidity-course-for-complete-beginners-main/Exercises/18-Twitter-AddLike-Exercise.sol\":2167:2173  tweets */\n      0x01\n        /* \"contracts/ultimate-solidity-course-for-complete-beginners-main/Exercises/18-Twitter-AddLike-Exercise.sol\":2167:2181  tweets[_owner] */\n      0x00\n        /* \"contracts/ultimate-solidity-course-for-complete-beginners-main/Exercises/18-Twitter-AddLike-Exercise.sol\":2174:2180  _owner */\n      dup4\n        /* \"contracts/ultimate-solidity-course-for-complete-beginners-main/Exercises/18-Twitter-AddLike-Exercise.sol\":2167:2181  tweets[_owner] */\n      0xffffffffffffffffffffffffffffffffffffffff\n      and\n      0xffffffffffffffffffffffffffffffffffffffff\n      and\n      dup2\n      mstore\n      0x20\n      add\n      swap1\n      dup2\n      mstore\n      0x20\n      add\n      0x00\n      keccak256\n        /* \"contracts/ultimate-solidity-course-for-complete-beginners-main/Exercises/18-Twitter-AddLike-Exercise.sol\":2160:2181  return tweets[_owner] */\n      dup1\n      sload\n      dup1\n      0x20\n      mul\n      0x20\n      add\n      mload(0x40)\n      swap1\n      dup2\n      add\n      0x40\n      mstore\n      dup1\n      swap3\n      swap2\n      swap1\n      dup2\n      dup2\n      mstore\n      0x20\n      add\n      0x00\n      swap1\n    tag_62:\n      dup3\n      dup3\n      lt\n      iszero\n      tag_63\n      jumpi\n      dup4\n      dup3\n      swap1\n      0x00\n      mstore\n      keccak256(0x00, 0x20)\n      swap1\n      0x05\n      mul\n      add\n      mload(0x40)\n      dup1\n      0xa0\n      add\n      0x40\n      mstore\n      swap1\n      dup2\n      0x00\n      dup3\n      add\n      sload\n      dup2\n      mstore\n      0x20\n      add\n      0x01\n      dup3\n      add\n      0x00\n      swap1\n      sload\n      swap1\n      0x0100\n      exp\n      swap1\n      div\n      0xffffffffffffffffffffffffffffffffffffffff\n      and\n      0xffffffffffffffffffffffffffffffffffffffff\n      and\n      0xffffffffffffffffffffffffffffffffffffffff\n      and\n      dup2\n      mstore\n      0x20\n      add\n      0x02\n      dup3\n      add\n      dup1\n      sload\n      tag_65\n      swap1\n      tag_56\n      jump\t// in\n    tag_65:\n      dup1\n      0x1f\n      add\n      0x20\n      dup1\n      swap2\n      div\n      mul\n      0x20\n      add\n      mload(0x40)\n      swap1\n      dup2\n      add\n      0x40\n      mstore\n      dup1\n      swap3\n      swap2\n      swap1\n      dup2\n      dup2\n      mstore\n      0x20\n      add\n      dup3\n      dup1\n      sload\n      tag_66\n      swap1\n      tag_56\n      jump\t// in\n    tag_66:\n      dup1\n      iszero\n      tag_67\n      jumpi\n      dup1\n      0x1f\n      lt\n      tag_68\n      jumpi\n      0x0100\n      dup1\n      dup4\n      sload\n      div\n      mul\n      dup4\n      mstore\n      swap2\n      0x20\n      add\n      swap2\n      jump(tag_67)\n    tag_68:\n      dup3\n      add\n      swap2\n      swap1\n      0x00\n      mstore\n      keccak256(0x00, 0x20)\n      swap1\n    tag_69:\n      dup2\n      sload\n      dup2\n      mstore\n      swap1\n      0x01\n      add\n      swap1\n      0x20\n      add\n      dup1\n      dup4\n      gt\n      tag_69\n      jumpi\n      dup3\n      swap1\n      sub\n      0x1f\n      and\n      dup3\n      add\n      swap2\n    tag_67:\n      pop\n      pop\n      pop\n      pop\n      pop\n      dup2\n      mstore\n      0x20\n      add\n      0x03\n      dup3\n      add\n      sload\n      dup2\n      mstore\n      0x20\n      add\n      0x04\n      dup3\n      add\n      sload\n      dup2\n      mstore\n      pop\n      pop\n      dup2\n      mstore\n      0x20\n      add\n      swap1\n      0x01\n      add\n      swap1\n      jump(tag_62)\n    tag_63:\n      pop\n      pop\n      pop\n      pop\n      swap1\n      pop\n        /* \"contracts/ultimate-solidity-course-for-complete-beginners-main/Exercises/18-Twitter-AddLike-Exercise.sol\":2075:2188  function getAllTweets(address _owner) public view returns (Tweet[] memory ){... */\n      swap2\n      swap1\n      pop\n      jump\t// out\n        /* \"contracts/ultimate-solidity-course-for-complete-beginners-main/Exercises/18-Twitter-AddLike-Exercise.sol\":1680:1954  function unlikeTweet(address author, uint256 id) external {... */\n    tag_27:\n        /* \"contracts/ultimate-solidity-course-for-complete-beginners-main/Exercises/18-Twitter-AddLike-Exercise.sol\":1781:1783  id */\n      dup1\n        /* \"contracts/ultimate-solidity-course-for-complete-beginners-main/Exercises/18-Twitter-AddLike-Exercise.sol\":1756:1762  tweets */\n      0x01\n        /* \"contracts/ultimate-solidity-course-for-complete-beginners-main/Exercises/18-Twitter-AddLike-Exercise.sol\":1756:1770  tweets[author] */\n      0x00\n        /* \"contracts/ultimate-solidity-course-for-complete-beginners-main/Exercises/18-Twitter-AddLike-Exercise.sol\":1763:1769  author */\n      dup5\n        /* \"contracts/ultimate-solidity-course-for-complete-beginners-main/Exercises/18-Twitter-AddLike-Exercise.sol\":1756:1770  tweets[author] */\n      0xffffffffffffffffffffffffffffffffffffffff\n      and\n      0xffffffffffffffffffffffffffffffffffffffff\n      and\n      dup2\n      mstore\n      0x20\n      add\n      swap1\n      dup2\n      mstore\n      0x20\n      add\n      0x00\n      keccak256\n        /* \"contracts/ultimate-solidity-course-for-complete-beginners-main/Exercises/18-Twitter-AddLike-Exercise.sol\":1771:1773  id */\n      dup3\n        /* \"contracts/ultimate-solidity-course-for-complete-beginners-main/Exercises/18-Twitter-AddLike-Exercise.sol\":1756:1774  tweets[author][id] */\n      dup2\n      sload\n      dup2\n      lt\n      tag_71\n      jumpi\n      tag_72\n      tag_73\n      jump\t// in\n    tag_72:\n    tag_71:\n      swap1\n      0x00\n      mstore\n      keccak256(0x00, 0x20)\n      swap1\n      0x05\n      mul\n      add\n        /* \"contracts/ultimate-solidity-course-for-complete-beginners-main/Exercises/18-Twitter-AddLike-Exercise.sol\":1756:1777  tweets[author][id].id */\n      0x00\n      add\n      sload\n        /* \"contracts/ultimate-solidity-course-for-complete-beginners-main/Exercises/18-Twitter-AddLike-Exercise.sol\":1756:1783  tweets[author][id].id == id */\n      eq\n        /* \"contracts/ultimate-solidity-course-for-complete-beginners-main/Exercises/18-Twitter-AddLike-Exercise.sol\":1748:1819  require(tweets[author][id].id == id, \"tweet does not exist after all.\") */\n      tag_75\n      jumpi\n      mload(0x40)\n      0x08c379a000000000000000000000000000000000000000000000000000000000\n      dup2\n      mstore\n      0x04\n      add\n      tag_76\n      swap1\n      tag_77\n      jump\t// in\n    tag_76:\n      mload(0x40)\n      dup1\n      swap2\n      sub\n      swap1\n      revert\n    tag_75:\n        /* \"contracts/ultimate-solidity-course-for-complete-beginners-main/Exercises/18-Twitter-AddLike-Exercise.sol\":1864:1865  0 */\n      0x00\n        /* \"contracts/ultimate-solidity-course-for-complete-beginners-main/Exercises/18-Twitter-AddLike-Exercise.sol\":1837:1843  tweets */\n      0x01\n        /* \"contracts/ultimate-solidity-course-for-complete-beginners-main/Exercises/18-Twitter-AddLike-Exercise.sol\":1837:1851  tweets[author] */\n      0x00\n        /* \"contracts/ultimate-solidity-course-for-complete-beginners-main/Exercises/18-Twitter-AddLike-Exercise.sol\":1844:1850  author */\n      dup5\n        /* \"contracts/ultimate-solidity-course-for-complete-beginners-main/Exercises/18-Twitter-AddLike-Exercise.sol\":1837:1851  tweets[author] */\n      0xffffffffffffffffffffffffffffffffffffffff\n      and\n      0xffffffffffffffffffffffffffffffffffffffff\n      and\n      dup2\n      mstore\n      0x20\n      add\n      swap1\n      dup2\n      mstore\n      0x20\n      add\n      0x00\n      keccak256\n        /* \"contracts/ultimate-solidity-course-for-complete-beginners-main/Exercises/18-Twitter-AddLike-Exercise.sol\":1852:1854  id */\n      dup3\n        /* \"contracts/ultimate-solidity-course-for-complete-beginners-main/Exercises/18-Twitter-AddLike-Exercise.sol\":1837:1855  tweets[author][id] */\n      dup2\n      sload\n      dup2\n      lt\n      tag_78\n      jumpi\n      tag_79\n      tag_73\n      jump\t// in\n    tag_79:\n    tag_78:\n      swap1\n      0x00\n      mstore\n      keccak256(0x00, 0x20)\n      swap1\n      0x05\n      mul\n      add\n        /* \"contracts/ultimate-solidity-course-for-complete-beginners-main/Exercises/18-Twitter-AddLike-Exercise.sol\":1837:1861  tweets[author][id].likes */\n      0x04\n      add\n      sload\n        /* \"contracts/ultimate-solidity-course-for-complete-beginners-main/Exercises/18-Twitter-AddLike-Exercise.sol\":1837:1865  tweets[author][id].likes > 0 */\n      gt\n        /* \"contracts/ultimate-solidity-course-for-complete-beginners-main/Exercises/18-Twitter-AddLike-Exercise.sol\":1829:1911  require(tweets[author][id].likes > 0, \"you can't unlike a tweet that has 0 likes\") */\n      tag_81\n      jumpi\n      mload(0x40)\n      0x08c379a000000000000000000000000000000000000000000000000000000000\n      dup2\n      mstore\n      0x04\n      add\n      tag_82\n      swap1\n      tag_83\n      jump\t// in\n    tag_82:\n      mload(0x40)\n      dup1\n      swap2\n      sub\n      swap1\n      revert\n    tag_81:\n        /* \"contracts/ultimate-solidity-course-for-complete-beginners-main/Exercises/18-Twitter-AddLike-Exercise.sol\":1921:1927  tweets */\n      0x01\n        /* \"contracts/ultimate-solidity-course-for-complete-beginners-main/Exercises/18-Twitter-AddLike-Exercise.sol\":1921:1935  tweets[author] */\n      0x00\n        /* \"contracts/ultimate-solidity-course-for-complete-beginners-main/Exercises/18-Twitter-AddLike-Exercise.sol\":1928:1934  author */\n      dup4\n        /* \"contracts/ultimate-solidity-course-for-complete-beginners-main/Exercises/18-Twitter-AddLike-Exercise.sol\":1921:1935  tweets[author] */\n      0xffffffffffffffffffffffffffffffffffffffff\n      and\n      0xffffffffffffffffffffffffffffffffffffffff\n      and\n      dup2\n      mstore\n      0x20\n      add\n      swap1\n      dup2\n      mstore\n      0x20\n      add\n      0x00\n      keccak256\n        /* \"contracts/ultimate-solidity-course-for-complete-beginners-main/Exercises/18-Twitter-AddLike-Exercise.sol\":1936:1938  id */\n      dup2\n        /* \"contracts/ultimate-solidity-course-for-complete-beginners-main/Exercises/18-Twitter-AddLike-Exercise.sol\":1921:1939  tweets[author][id] */\n      dup2\n      sload\n      dup2\n      lt\n      tag_84\n      jumpi\n      tag_85\n      tag_73\n      jump\t// in\n    tag_85:\n    tag_84:\n      swap1\n      0x00\n      mstore\n      keccak256(0x00, 0x20)\n      swap1\n      0x05\n      mul\n      add\n        /* \"contracts/ultimate-solidity-course-for-complete-beginners-main/Exercises/18-Twitter-AddLike-Exercise.sol\":1921:1945  tweets[author][id].likes */\n      0x04\n      add\n      0x00\n        /* \"contracts/ultimate-solidity-course-for-complete-beginners-main/Exercises/18-Twitter-AddLike-Exercise.sol\":1921:1947  tweets[author][id].likes-- */\n      dup2\n      sload\n      dup1\n      swap3\n      swap2\n      swap1\n      tag_87\n      swap1\n      tag_88\n      jump\t// in\n    tag_87:\n      swap2\n      swap1\n      pop\n      sstore\n      pop\n        /* \"contracts/ultimate-solidity-course-for-complete-beginners-main/Exercises/18-Twitter-AddLike-Exercise.sol\":1680:1954  function unlikeTweet(address author, uint256 id) external {... */\n      pop\n      pop\n      jump\t// out\n        /* \"contracts/ultimate-solidity-course-for-complete-beginners-main/Exercises/18-Twitter-AddLike-Exercise.sol\":919:1036  function changeTweetLength(uint16 newTweetLength) public onlyOwner {... */\n    tag_31:\n        /* \"contracts/ultimate-solidity-course-for-complete-beginners-main/Exercises/18-Twitter-AddLike-Exercise.sol\":863:868  owner */\n      0x02\n      0x00\n      swap1\n      sload\n      swap1\n      0x0100\n      exp\n      swap1\n      div\n      0xffffffffffffffffffffffffffffffffffffffff\n      and\n        /* \"contracts/ultimate-solidity-course-for-complete-beginners-main/Exercises/18-Twitter-AddLike-Exercise.sol\":849:868  msg.sender == owner */\n      0xffffffffffffffffffffffffffffffffffffffff\n      and\n        /* \"contracts/ultimate-solidity-course-for-complete-beginners-main/Exercises/18-Twitter-AddLike-Exercise.sol\":849:859  msg.sender */\n      caller\n        /* \"contracts/ultimate-solidity-course-for-complete-beginners-main/Exercises/18-Twitter-AddLike-Exercise.sol\":849:868  msg.sender == owner */\n      0xffffffffffffffffffffffffffffffffffffffff\n      and\n      eq\n        /* \"contracts/ultimate-solidity-course-for-complete-beginners-main/Exercises/18-Twitter-AddLike-Exercise.sol\":841:895  require(msg.sender == owner, \"YOU ARE NOT THE OWNER!\") */\n      tag_90\n      jumpi\n      mload(0x40)\n      0x08c379a000000000000000000000000000000000000000000000000000000000\n      dup2\n      mstore\n      0x04\n      add\n      tag_91\n      swap1\n      tag_92\n      jump\t// in\n    tag_91:\n      mload(0x40)\n      dup1\n      swap2\n      sub\n      swap1\n      revert\n    tag_90:\n        /* \"contracts/ultimate-solidity-course-for-complete-beginners-main/Exercises/18-Twitter-AddLike-Exercise.sol\":1015:1029  newTweetLength */\n      dup1\n        /* \"contracts/ultimate-solidity-course-for-complete-beginners-main/Exercises/18-Twitter-AddLike-Exercise.sol\":996:1012  MAX_TWEET_LENGTH */\n      0x00\n      0x00\n        /* \"contracts/ultimate-solidity-course-for-complete-beginners-main/Exercises/18-Twitter-AddLike-Exercise.sol\":996:1029  MAX_TWEET_LENGTH = newTweetLength */\n      0x0100\n      exp\n      dup2\n      sload\n      dup2\n      0xffff\n      mul\n      not\n      and\n      swap1\n      dup4\n      0xffff\n      and\n      mul\n      or\n      swap1\n      sstore\n      pop\n        /* \"contracts/ultimate-solidity-course-for-complete-beginners-main/Exercises/18-Twitter-AddLike-Exercise.sol\":919:1036  function changeTweetLength(uint16 newTweetLength) public onlyOwner {... */\n      pop\n      jump\t// out\n        /* \"contracts/ultimate-solidity-course-for-complete-beginners-main/Exercises/18-Twitter-AddLike-Exercise.sol\":1494:1674  function likeTweet(address author, uint256 id) external {... */\n    tag_34:\n        /* \"contracts/ultimate-solidity-course-for-complete-beginners-main/Exercises/18-Twitter-AddLike-Exercise.sol\":1593:1595  id */\n      dup1\n        /* \"contracts/ultimate-solidity-course-for-complete-beginners-main/Exercises/18-Twitter-AddLike-Exercise.sol\":1568:1574  tweets */\n      0x01\n        /* \"contracts/ultimate-solidity-course-for-complete-beginners-main/Exercises/18-Twitter-AddLike-Exercise.sol\":1568:1582  tweets[author] */\n      0x00\n        /* \"contracts/ultimate-solidity-course-for-complete-beginners-main/Exercises/18-Twitter-AddLike-Exercise.sol\":1575:1581  author */\n      dup5\n        /* \"contracts/ultimate-solidity-course-for-complete-beginners-main/Exercises/18-Twitter-AddLike-Exercise.sol\":1568:1582  tweets[author] */\n      0xffffffffffffffffffffffffffffffffffffffff\n      and\n      0xffffffffffffffffffffffffffffffffffffffff\n      and\n      dup2\n      mstore\n      0x20\n      add\n      swap1\n      dup2\n      mstore\n      0x20\n      add\n      0x00\n      keccak256\n        /* \"contracts/ultimate-solidity-course-for-complete-beginners-main/Exercises/18-Twitter-AddLike-Exercise.sol\":1583:1585  id */\n      dup3\n        /* \"contracts/ultimate-solidity-course-for-complete-beginners-main/Exercises/18-Twitter-AddLike-Exercise.sol\":1568:1586  tweets[author][id] */\n      dup2\n      sload\n      dup2\n      lt\n      tag_95\n      jumpi\n      tag_96\n      tag_73\n      jump\t// in\n    tag_96:\n    tag_95:\n      swap1\n      0x00\n      mstore\n      keccak256(0x00, 0x20)\n      swap1\n      0x05\n      mul\n      add\n        /* \"contracts/ultimate-solidity-course-for-complete-beginners-main/Exercises/18-Twitter-AddLike-Exercise.sol\":1568:1589  tweets[author][id].id */\n      0x00\n      add\n      sload\n        /* \"contracts/ultimate-solidity-course-for-complete-beginners-main/Exercises/18-Twitter-AddLike-Exercise.sol\":1568:1595  tweets[author][id].id == id */\n      eq\n        /* \"contracts/ultimate-solidity-course-for-complete-beginners-main/Exercises/18-Twitter-AddLike-Exercise.sol\":1560:1631  require(tweets[author][id].id == id, \"tweet does not exist after all.\") */\n      tag_98\n      jumpi\n      mload(0x40)\n      0x08c379a000000000000000000000000000000000000000000000000000000000\n      dup2\n      mstore\n      0x04\n      add\n      tag_99\n      swap1\n      tag_77\n      jump\t// in\n    tag_99:\n      mload(0x40)\n      dup1\n      swap2\n      sub\n      swap1\n      revert\n    tag_98:\n        /* \"contracts/ultimate-solidity-course-for-complete-beginners-main/Exercises/18-Twitter-AddLike-Exercise.sol\":1641:1647  tweets */\n      0x01\n        /* \"contracts/ultimate-solidity-course-for-complete-beginners-main/Exercises/18-Twitter-AddLike-Exercise.sol\":1641:1655  tweets[author] */\n      0x00\n        /* \"contracts/ultimate-solidity-course-for-complete-beginners-main/Exercises/18-Twitter-AddLike-Exercise.sol\":1648:1654  author */\n      dup4\n        /* \"contracts/ultimate-solidity-course-for-complete-beginners-main/Exercises/18-Twitter-AddLike-Exercise.sol\":1641:1655  tweets[author] */\n      0xffffffffffffffffffffffffffffffffffffffff\n      and\n      0xffffffffffffffffffffffffffffffffffffffff\n      and\n      dup2\n      mstore\n      0x20\n      add\n      swap1\n      dup2\n      mstore\n      0x20\n      add\n      0x00\n      keccak256\n        /* \"contracts/ultimate-solidity-course-for-complete-beginners-main/Exercises/18-Twitter-AddLike-Exercise.sol\":1656:1658  id */\n      dup2\n        /* \"contracts/ultimate-solidity-course-for-complete-beginners-main/Exercises/18-Twitter-AddLike-Exercise.sol\":1641:1659  tweets[author][id] */\n      dup2\n      sload\n      dup2\n      lt\n      tag_100\n      jumpi\n      tag_101\n      tag_73\n      jump\t// in\n    tag_101:\n    tag_100:\n      swap1\n      0x00\n      mstore\n      keccak256(0x00, 0x20)\n      swap1\n      0x05\n      mul\n      add\n        /* \"contracts/ultimate-solidity-course-for-complete-beginners-main/Exercises/18-Twitter-AddLike-Exercise.sol\":1641:1665  tweets[author][id].likes */\n      0x04\n      add\n      0x00\n        /* \"contracts/ultimate-solidity-course-for-complete-beginners-main/Exercises/18-Twitter-AddLike-Exercise.sol\":1641:1667  tweets[author][id].likes++ */\n      dup2\n      sload\n      dup1\n      swap3\n      swap2\n      swap1\n      tag_103\n      swap1\n      tag_104\n      jump\t// in\n    tag_103:\n      swap2\n      swap1\n      pop\n      sstore\n      pop\n        /* \"contracts/ultimate-solidity-course-for-complete-beginners-main/Exercises/18-Twitter-AddLike-Exercise.sol\":1494:1674  function likeTweet(address author, uint256 id) external {... */\n      pop\n      pop\n      jump\t// out\n        /* \"contracts/ultimate-solidity-course-for-complete-beginners-main/Exercises/18-Twitter-AddLike-Exercise.sol\":494:530  uint16 public MAX_TWEET_LENGTH = 280 */\n    tag_36:\n      0x00\n      0x00\n      swap1\n      sload\n      swap1\n      0x0100\n      exp\n      swap1\n      div\n      0xffff\n      and\n      dup2\n      jump\t// out\n        /* \"contracts/ultimate-solidity-course-for-complete-beginners-main/Exercises/18-Twitter-AddLike-Exercise.sol\":1042:1447  function createTweet(string memory _tweet) public {... */\n    tag_42:\n        /* \"contracts/ultimate-solidity-course-for-complete-beginners-main/Exercises/18-Twitter-AddLike-Exercise.sol\":1134:1150  MAX_TWEET_LENGTH */\n      0x00\n      0x00\n      swap1\n      sload\n      swap1\n      0x0100\n      exp\n      swap1\n      div\n      0xffff\n      and\n        /* \"contracts/ultimate-solidity-course-for-complete-beginners-main/Exercises/18-Twitter-AddLike-Exercise.sol\":1110:1150  bytes(_tweet).length <= MAX_TWEET_LENGTH */\n      0xffff\n      and\n        /* \"contracts/ultimate-solidity-course-for-complete-beginners-main/Exercises/18-Twitter-AddLike-Exercise.sol\":1116:1122  _tweet */\n      dup2\n        /* \"contracts/ultimate-solidity-course-for-complete-beginners-main/Exercises/18-Twitter-AddLike-Exercise.sol\":1110:1130  bytes(_tweet).length */\n      mload\n        /* \"contracts/ultimate-solidity-course-for-complete-beginners-main/Exercises/18-Twitter-AddLike-Exercise.sol\":1110:1150  bytes(_tweet).length <= MAX_TWEET_LENGTH */\n      gt\n      iszero\n        /* \"contracts/ultimate-solidity-course-for-complete-beginners-main/Exercises/18-Twitter-AddLike-Exercise.sol\":1102:1178  require(bytes(_tweet).length <= MAX_TWEET_LENGTH, \"Tweet is too long bro!\" ) */\n      tag_106\n      jumpi\n      mload(0x40)\n      0x08c379a000000000000000000000000000000000000000000000000000000000\n      dup2\n      mstore\n      0x04\n      add\n      tag_107\n      swap1\n      tag_108\n      jump\t// in\n    tag_107:\n      mload(0x40)\n      dup1\n      swap2\n      sub\n      swap1\n      revert\n    tag_106:\n        /* \"contracts/ultimate-solidity-course-for-complete-beginners-main/Exercises/18-Twitter-AddLike-Exercise.sol\":1189:1210  Tweet memory newTweet */\n      0x00\n        /* \"contracts/ultimate-solidity-course-for-complete-beginners-main/Exercises/18-Twitter-AddLike-Exercise.sol\":1213:1396  Tweet({... */\n      mload(0x40)\n      dup1\n      0xa0\n      add\n      0x40\n      mstore\n      dup1\n        /* \"contracts/ultimate-solidity-course-for-complete-beginners-main/Exercises/18-Twitter-AddLike-Exercise.sol\":1237:1243  tweets */\n      0x01\n        /* \"contracts/ultimate-solidity-course-for-complete-beginners-main/Exercises/18-Twitter-AddLike-Exercise.sol\":1237:1255  tweets[msg.sender] */\n      0x00\n        /* \"contracts/ultimate-solidity-course-for-complete-beginners-main/Exercises/18-Twitter-AddLike-Exercise.sol\":1244:1254  msg.sender */\n      caller\n        /* \"contracts/ultimate-solidity-course-for-complete-beginners-main/Exercises/18-Twitter-AddLike-Exercise.sol\":1237:1255  tweets[msg.sender] */\n      0xffffffffffffffffffffffffffffffffffffffff\n      and\n      0xffffffffffffffffffffffffffffffffffffffff\n      and\n      dup2\n      mstore\n      0x20\n      add\n      swap1\n      dup2\n      mstore\n      0x20\n      add\n      0x00\n      keccak256\n        /* \"contracts/ultimate-solidity-course-for-complete-beginners-main/Exercises/18-Twitter-AddLike-Exercise.sol\":1237:1262  tweets[msg.sender].length */\n      dup1\n      sload\n      swap1\n      pop\n        /* \"contracts/ultimate-solidity-course-for-complete-beginners-main/Exercises/18-Twitter-AddLike-Exercise.sol\":1213:1396  Tweet({... */\n      dup2\n      mstore\n      0x20\n      add\n        /* \"contracts/ultimate-solidity-course-for-complete-beginners-main/Exercises/18-Twitter-AddLike-Exercise.sol\":1284:1294  msg.sender */\n      caller\n        /* \"contracts/ultimate-solidity-course-for-complete-beginners-main/Exercises/18-Twitter-AddLike-Exercise.sol\":1213:1396  Tweet({... */\n      0xffffffffffffffffffffffffffffffffffffffff\n      and\n      dup2\n      mstore\n      0x20\n      add\n        /* \"contracts/ultimate-solidity-course-for-complete-beginners-main/Exercises/18-Twitter-AddLike-Exercise.sol\":1317:1323  _tweet */\n      dup4\n        /* \"contracts/ultimate-solidity-course-for-complete-beginners-main/Exercises/18-Twitter-AddLike-Exercise.sol\":1213:1396  Tweet({... */\n      dup2\n      mstore\n      0x20\n      add\n        /* \"contracts/ultimate-solidity-course-for-complete-beginners-main/Exercises/18-Twitter-AddLike-Exercise.sol\":1348:1363  block.timestamp */\n      timestamp\n        /* \"contracts/ultimate-solidity-course-for-complete-beginners-main/Exercises/18-Twitter-AddLike-Exercise.sol\":1213:1396  Tweet({... */\n      dup2\n      mstore\n      0x20\n      add\n        /* \"contracts/ultimate-solidity-course-for-complete-beginners-main/Exercises/18-Twitter-AddLike-Exercise.sol\":1384:1385  0 */\n      0x00\n        /* \"contracts/ultimate-solidity-course-for-complete-beginners-main/Exercises/18-Twitter-AddLike-Exercise.sol\":1213:1396  Tweet({... */\n      dup2\n      mstore\n      pop\n        /* \"contracts/ultimate-solidity-course-for-complete-beginners-main/Exercises/18-Twitter-AddLike-Exercise.sol\":1189:1396  Tweet memory newTweet = Tweet({... */\n      swap1\n      pop\n        /* \"contracts/ultimate-solidity-course-for-complete-beginners-main/Exercises/18-Twitter-AddLike-Exercise.sol\":1407:1413  tweets */\n      0x01\n        /* \"contracts/ultimate-solidity-course-for-complete-beginners-main/Exercises/18-Twitter-AddLike-Exercise.sol\":1407:1425  tweets[msg.sender] */\n      0x00\n        /* \"contracts/ultimate-solidity-course-for-complete-beginners-main/Exercises/18-Twitter-AddLike-Exercise.sol\":1414:1424  msg.sender */\n      caller\n        /* \"contracts/ultimate-solidity-course-for-complete-beginners-main/Exercises/18-Twitter-AddLike-Exercise.sol\":1407:1425  tweets[msg.sender] */\n      0xffffffffffffffffffffffffffffffffffffffff\n      and\n      0xffffffffffffffffffffffffffffffffffffffff\n      and\n      dup2\n      mstore\n      0x20\n      add\n      swap1\n      dup2\n      mstore\n      0x20\n      add\n      0x00\n      keccak256\n        /* \"contracts/ultimate-solidity-course-for-complete-beginners-main/Exercises/18-Twitter-AddLike-Exercise.sol\":1431:1439  newTweet */\n      dup2\n        /* \"contracts/ultimate-solidity-course-for-complete-beginners-main/Exercises/18-Twitter-AddLike-Exercise.sol\":1407:1440  tweets[msg.sender].push(newTweet) */\n      swap1\n      dup1\n      0x01\n      dup2\n      sload\n      add\n      dup1\n      dup3\n      sstore\n      dup1\n      swap2\n      pop\n      pop\n      0x01\n      swap1\n      sub\n      swap1\n      0x00\n      mstore\n      keccak256(0x00, 0x20)\n      swap1\n      0x05\n      mul\n      add\n      0x00\n      swap1\n      swap2\n      swap1\n      swap2\n      swap1\n      swap2\n      pop\n      0x00\n      dup3\n      add\n      mload\n      dup2\n      0x00\n      add\n      sstore\n      0x20\n      dup3\n      add\n      mload\n      dup2\n      0x01\n      add\n      exp(0x0100, 0x00)\n      dup2\n      sload\n      dup2\n      0xffffffffffffffffffffffffffffffffffffffff\n      mul\n      not\n      and\n      swap1\n      dup4\n      0xffffffffffffffffffffffffffffffffffffffff\n      and\n      mul\n      or\n      swap1\n      sstore\n      pop\n      0x40\n      dup3\n      add\n      mload\n      dup2\n      0x02\n      add\n      swap1\n      dup2\n      tag_110\n      swap2\n      swap1\n      tag_111\n      jump\t// in\n    tag_110:\n      pop\n      0x60\n      dup3\n      add\n      mload\n      dup2\n      0x03\n      add\n      sstore\n      0x80\n      dup3\n      add\n      mload\n      dup2\n      0x04\n      add\n      sstore\n      pop\n      pop\n        /* \"contracts/ultimate-solidity-course-for-complete-beginners-main/Exercises/18-Twitter-AddLike-Exercise.sol\":1092:1447  {... */\n      pop\n        /* \"contracts/ultimate-solidity-course-for-complete-beginners-main/Exercises/18-Twitter-AddLike-Exercise.sol\":1042:1447  function createTweet(string memory _tweet) public {... */\n      pop\n      jump\t// out\n        /* \"contracts/ultimate-solidity-course-for-complete-beginners-main/Exercises/18-Twitter-AddLike-Exercise.sol\":728:748  address public owner */\n    tag_44:\n      0x02\n      0x00\n      swap1\n      sload\n      swap1\n      0x0100\n      exp\n      swap1\n      div\n      0xffffffffffffffffffffffffffffffffffffffff\n      and\n      dup2\n      jump\t// out\n        /* \"contracts/ultimate-solidity-course-for-complete-beginners-main/Exercises/18-Twitter-AddLike-Exercise.sol\":1960:2069  function getTweet( uint _i) public view returns (Tweet memory) {... */\n    tag_50:\n        /* \"contracts/ultimate-solidity-course-for-complete-beginners-main/Exercises/18-Twitter-AddLike-Exercise.sol\":2009:2021  Tweet memory */\n      tag_112\n      tag_113\n      jump\t// in\n    tag_112:\n        /* \"contracts/ultimate-solidity-course-for-complete-beginners-main/Exercises/18-Twitter-AddLike-Exercise.sol\":2040:2046  tweets */\n      0x01\n        /* \"contracts/ultimate-solidity-course-for-complete-beginners-main/Exercises/18-Twitter-AddLike-Exercise.sol\":2040:2058  tweets[msg.sender] */\n      0x00\n        /* \"contracts/ultimate-solidity-course-for-complete-beginners-main/Exercises/18-Twitter-AddLike-Exercise.sol\":2047:2057  msg.sender */\n      caller\n        /* \"contracts/ultimate-solidity-course-for-complete-beginners-main/Exercises/18-Twitter-AddLike-Exercise.sol\":2040:2058  tweets[msg.sender] */\n      0xffffffffffffffffffffffffffffffffffffffff\n      and\n      0xffffffffffffffffffffffffffffffffffffffff\n      and\n      dup2\n      mstore\n      0x20\n      add\n      swap1\n      dup2\n      mstore\n      0x20\n      add\n      0x00\n      keccak256\n        /* \"contracts/ultimate-solidity-course-for-complete-beginners-main/Exercises/18-Twitter-AddLike-Exercise.sol\":2059:2061  _i */\n      dup3\n        /* \"contracts/ultimate-solidity-course-for-complete-beginners-main/Exercises/18-Twitter-AddLike-Exercise.sol\":2040:2062  tweets[msg.sender][_i] */\n      dup2\n      sload\n      dup2\n      lt\n      tag_115\n      jumpi\n      tag_116\n      tag_73\n      jump\t// in\n    tag_116:\n    tag_115:\n      swap1\n      0x00\n      mstore\n      keccak256(0x00, 0x20)\n      swap1\n      0x05\n      mul\n      add\n        /* \"contracts/ultimate-solidity-course-for-complete-beginners-main/Exercises/18-Twitter-AddLike-Exercise.sol\":2033:2062  return tweets[msg.sender][_i] */\n      mload(0x40)\n      dup1\n      0xa0\n      add\n      0x40\n      mstore\n      swap1\n      dup2\n      0x00\n      dup3\n      add\n      sload\n      dup2\n      mstore\n      0x20\n      add\n      0x01\n      dup3\n      add\n      0x00\n      swap1\n      sload\n      swap1\n      0x0100\n      exp\n      swap1\n      div\n      0xffffffffffffffffffffffffffffffffffffffff\n      and\n      0xffffffffffffffffffffffffffffffffffffffff\n      and\n      0xffffffffffffffffffffffffffffffffffffffff\n      and\n      dup2\n      mstore\n      0x20\n      add\n      0x02\n      dup3\n      add\n      dup1\n      sload\n      tag_118\n      swap1\n      tag_56\n      jump\t// in\n    tag_118:\n      dup1\n      0x1f\n      add\n      0x20\n      dup1\n      swap2\n      div\n      mul\n      0x20\n      add\n      mload(0x40)\n      swap1\n      dup2\n      add\n      0x40\n      mstore\n      dup1\n      swap3\n      swap2\n      swap1\n      dup2\n      dup2\n      mstore\n      0x20\n      add\n      dup3\n      dup1\n      sload\n      tag_119\n      swap1\n      tag_56\n      jump\t// in\n    tag_119:\n      dup1\n      iszero\n      tag_120\n      jumpi\n      dup1\n      0x1f\n      lt\n      tag_121\n      jumpi\n      0x0100\n      dup1\n      dup4\n      sload\n      div\n      mul\n      dup4\n      mstore\n      swap2\n      0x20\n      add\n      swap2\n      jump(tag_120)\n    tag_121:\n      dup3\n      add\n      swap2\n      swap1\n      0x00\n      mstore\n      keccak256(0x00, 0x20)\n      swap1\n    tag_122:\n      dup2\n      sload\n      dup2\n      mstore\n      swap1\n      0x01\n      add\n      swap1\n      0x20\n      add\n      dup1\n      dup4\n      gt\n      tag_122\n      jumpi\n      dup3\n      swap1\n      sub\n      0x1f\n      and\n      dup3\n      add\n      swap2\n    tag_120:\n      pop\n      pop\n      pop\n      pop\n      pop\n      dup2\n      mstore\n      0x20\n      add\n      0x03\n      dup3\n      add\n      sload\n      dup2\n      mstore\n      0x20\n      add\n      0x04\n      dup3\n      add\n      sload\n      dup2\n      mstore\n      pop\n      pop\n      swap1\n      pop\n        /* \"contracts/ultimate-solidity-course-for-complete-beginners-main/Exercises/18-Twitter-AddLike-Exercise.sol\":1960:2069  function getTweet( uint _i) public view returns (Tweet memory) {... */\n      swap2\n      swap1\n      pop\n      jump\t// out\n    tag_113:\n      mload(0x40)\n      dup1\n      0xa0\n      add\n      0x40\n      mstore\n      dup1\n      0x00\n      dup2\n      mstore\n      0x20\n      add\n      and(0xffffffffffffffffffffffffffffffffffffffff, 0x00)\n      dup2\n      mstore\n      0x20\n      add\n      0x60\n      dup2\n      mstore\n      0x20\n      add\n      0x00\n      dup2\n      mstore\n      0x20\n      add\n      0x00\n      dup2\n      mstore\n      pop\n      swap1\n      jump\t// out\n        /* \"#utility.yul\":7:82   */\n    tag_123:\n        /* \"#utility.yul\":40:46   */\n      0x00\n        /* \"#utility.yul\":73:75   */\n      0x40\n        /* \"#utility.yul\":67:76   */\n      mload\n        /* \"#utility.yul\":57:76   */\n      swap1\n      pop\n        /* \"#utility.yul\":7:82   */\n      swap1\n      jump\t// out\n        /* \"#utility.yul\":88:205   */\n    tag_124:\n        /* \"#utility.yul\":197:198   */\n      0x00\n        /* \"#utility.yul\":194:195   */\n      0x00\n        /* \"#utility.yul\":187:199   */\n      revert\n        /* \"#utility.yul\":211:328   */\n    tag_125:\n        /* \"#utility.yul\":320:321   */\n      0x00\n        /* \"#utility.yul\":317:318   */\n      0x00\n        /* \"#utility.yul\":310:322   */\n      revert\n        /* \"#utility.yul\":334:460   */\n    tag_126:\n        /* \"#utility.yul\":371:378   */\n      0x00\n        /* \"#utility.yul\":411:453   */\n      0xffffffffffffffffffffffffffffffffffffffff\n        /* \"#utility.yul\":404:409   */\n      dup3\n        /* \"#utility.yul\":400:454   */\n      and\n        /* \"#utility.yul\":389:454   */\n      swap1\n      pop\n        /* \"#utility.yul\":334:460   */\n      swap2\n      swap1\n      pop\n      jump\t// out\n        /* \"#utility.yul\":466:562   */\n    tag_127:\n        /* \"#utility.yul\":503:510   */\n      0x00\n        /* \"#utility.yul\":532:556   */\n      tag_196\n        /* \"#utility.yul\":550:555   */\n      dup3\n        /* \"#utility.yul\":532:556   */\n      tag_126\n      jump\t// in\n    tag_196:\n        /* \"#utility.yul\":521:556   */\n      swap1\n      pop\n        /* \"#utility.yul\":466:562   */\n      swap2\n      swap1\n      pop\n      jump\t// out\n        /* \"#utility.yul\":568:690   */\n    tag_128:\n        /* \"#utility.yul\":641:665   */\n      tag_198\n        /* \"#utility.yul\":659:664   */\n      dup2\n        /* \"#utility.yul\":641:665   */\n      tag_127\n      jump\t// in\n    tag_198:\n        /* \"#utility.yul\":634:639   */\n      dup2\n        /* \"#utility.yul\":631:666   */\n      eq\n        /* \"#utility.yul\":621:684   */\n      tag_199\n      jumpi\n        /* \"#utility.yul\":680:681   */\n      0x00\n        /* \"#utility.yul\":677:678   */\n      0x00\n        /* \"#utility.yul\":670:682   */\n      revert\n        /* \"#utility.yul\":621:684   */\n    tag_199:\n        /* \"#utility.yul\":568:690   */\n      pop\n      jump\t// out\n        /* \"#utility.yul\":696:835   */\n    tag_129:\n        /* \"#utility.yul\":742:747   */\n      0x00\n        /* \"#utility.yul\":780:786   */\n      dup2\n        /* \"#utility.yul\":767:787   */\n      calldataload\n        /* \"#utility.yul\":758:787   */\n      swap1\n      pop\n        /* \"#utility.yul\":796:829   */\n      tag_201\n        /* \"#utility.yul\":823:828   */\n      dup2\n        /* \"#utility.yul\":796:829   */\n      tag_128\n      jump\t// in\n    tag_201:\n        /* \"#utility.yul\":696:835   */\n      swap3\n      swap2\n      pop\n      pop\n      jump\t// out\n        /* \"#utility.yul\":841:918   */\n    tag_130:\n        /* \"#utility.yul\":878:885   */\n      0x00\n        /* \"#utility.yul\":907:912   */\n      dup2\n        /* \"#utility.yul\":896:912   */\n      swap1\n      pop\n        /* \"#utility.yul\":841:918   */\n      swap2\n      swap1\n      pop\n      jump\t// out\n        /* \"#utility.yul\":924:1046   */\n    tag_131:\n        /* \"#utility.yul\":997:1021   */\n      tag_204\n        /* \"#utility.yul\":1015:1020   */\n      dup2\n        /* \"#utility.yul\":997:1021   */\n      tag_130\n      jump\t// in\n    tag_204:\n        /* \"#utility.yul\":990:995   */\n      dup2\n        /* \"#utility.yul\":987:1022   */\n      eq\n        /* \"#utility.yul\":977:1040   */\n      tag_205\n      jumpi\n        /* \"#utility.yul\":1036:1037   */\n      0x00\n        /* \"#utility.yul\":1033:1034   */\n      0x00\n        /* \"#utility.yul\":1026:1038   */\n      revert\n        /* \"#utility.yul\":977:1040   */\n    tag_205:\n        /* \"#utility.yul\":924:1046   */\n      pop\n      jump\t// out\n        /* \"#utility.yul\":1052:1191   */\n    tag_132:\n        /* \"#utility.yul\":1098:1103   */\n      0x00\n        /* \"#utility.yul\":1136:1142   */\n      dup2\n        /* \"#utility.yul\":1123:1143   */\n      calldataload\n        /* \"#utility.yul\":1114:1143   */\n      swap1\n      pop\n        /* \"#utility.yul\":1152:1185   */\n      tag_207\n        /* \"#utility.yul\":1179:1184   */\n      dup2\n        /* \"#utility.yul\":1152:1185   */\n      tag_131\n      jump\t// in\n    tag_207:\n        /* \"#utility.yul\":1052:1191   */\n      swap3\n      swap2\n      pop\n      pop\n      jump\t// out\n        /* \"#utility.yul\":1197:1671   */\n    tag_15:\n        /* \"#utility.yul\":1265:1271   */\n      0x00\n        /* \"#utility.yul\":1273:1279   */\n      0x00\n        /* \"#utility.yul\":1322:1324   */\n      0x40\n        /* \"#utility.yul\":1310:1319   */\n      dup4\n        /* \"#utility.yul\":1301:1308   */\n      dup6\n        /* \"#utility.yul\":1297:1320   */\n      sub\n        /* \"#utility.yul\":1293:1325   */\n      slt\n        /* \"#utility.yul\":1290:1409   */\n      iszero\n      tag_209\n      jumpi\n        /* \"#utility.yul\":1328:1407   */\n      tag_210\n      tag_124\n      jump\t// in\n    tag_210:\n        /* \"#utility.yul\":1290:1409   */\n    tag_209:\n        /* \"#utility.yul\":1448:1449   */\n      0x00\n        /* \"#utility.yul\":1473:1526   */\n      tag_211\n        /* \"#utility.yul\":1518:1525   */\n      dup6\n        /* \"#utility.yul\":1509:1515   */\n      dup3\n        /* \"#utility.yul\":1498:1507   */\n      dup7\n        /* \"#utility.yul\":1494:1516   */\n      add\n        /* \"#utility.yul\":1473:1526   */\n      tag_129\n      jump\t// in\n    tag_211:\n        /* \"#utility.yul\":1463:1526   */\n      swap3\n      pop\n        /* \"#utility.yul\":1419:1536   */\n      pop\n        /* \"#utility.yul\":1575:1577   */\n      0x20\n        /* \"#utility.yul\":1601:1654   */\n      tag_212\n        /* \"#utility.yul\":1646:1653   */\n      dup6\n        /* \"#utility.yul\":1637:1643   */\n      dup3\n        /* \"#utility.yul\":1626:1635   */\n      dup7\n        /* \"#utility.yul\":1622:1644   */\n      add\n        /* \"#utility.yul\":1601:1654   */\n      tag_132\n      jump\t// in\n    tag_212:\n        /* \"#utility.yul\":1591:1654   */\n      swap2\n      pop\n        /* \"#utility.yul\":1546:1664   */\n      pop\n        /* \"#utility.yul\":1197:1671   */\n      swap3\n      pop\n      swap3\n      swap1\n      pop\n      jump\t// out\n        /* \"#utility.yul\":1677:1795   */\n    tag_133:\n        /* \"#utility.yul\":1764:1788   */\n      tag_214\n        /* \"#utility.yul\":1782:1787   */\n      dup2\n        /* \"#utility.yul\":1764:1788   */\n      tag_130\n      jump\t// in\n    tag_214:\n        /* \"#utility.yul\":1759:1762   */\n      dup3\n        /* \"#utility.yul\":1752:1789   */\n      mstore\n        /* \"#utility.yul\":1677:1795   */\n      pop\n      pop\n      jump\t// out\n        /* \"#utility.yul\":1801:1919   */\n    tag_134:\n        /* \"#utility.yul\":1888:1912   */\n      tag_216\n        /* \"#utility.yul\":1906:1911   */\n      dup2\n        /* \"#utility.yul\":1888:1912   */\n      tag_127\n      jump\t// in\n    tag_216:\n        /* \"#utility.yul\":1883:1886   */\n      dup3\n        /* \"#utility.yul\":1876:1913   */\n      mstore\n        /* \"#utility.yul\":1801:1919   */\n      pop\n      pop\n      jump\t// out\n        /* \"#utility.yul\":1925:2024   */\n    tag_135:\n        /* \"#utility.yul\":1977:1983   */\n      0x00\n        /* \"#utility.yul\":2011:2016   */\n      dup2\n        /* \"#utility.yul\":2005:2017   */\n      mload\n        /* \"#utility.yul\":1995:2017   */\n      swap1\n      pop\n        /* \"#utility.yul\":1925:2024   */\n      swap2\n      swap1\n      pop\n      jump\t// out\n        /* \"#utility.yul\":2030:2199   */\n    tag_136:\n        /* \"#utility.yul\":2114:2125   */\n      0x00\n        /* \"#utility.yul\":2148:2154   */\n      dup3\n        /* \"#utility.yul\":2143:2146   */\n      dup3\n        /* \"#utility.yul\":2136:2155   */\n      mstore\n        /* \"#utility.yul\":2188:2192   */\n      0x20\n        /* \"#utility.yul\":2183:2186   */\n      dup3\n        /* \"#utility.yul\":2179:2193   */\n      add\n        /* \"#utility.yul\":2164:2193   */\n      swap1\n      pop\n        /* \"#utility.yul\":2030:2199   */\n      swap3\n      swap2\n      pop\n      pop\n      jump\t// out\n        /* \"#utility.yul\":2205:2344   */\n    tag_137:\n        /* \"#utility.yul\":2294:2300   */\n      dup3\n        /* \"#utility.yul\":2289:2292   */\n      dup2\n        /* \"#utility.yul\":2284:2287   */\n      dup4\n        /* \"#utility.yul\":2278:2301   */\n      mcopy\n        /* \"#utility.yul\":2335:2336   */\n      0x00\n        /* \"#utility.yul\":2326:2332   */\n      dup4\n        /* \"#utility.yul\":2321:2324   */\n      dup4\n        /* \"#utility.yul\":2317:2333   */\n      add\n        /* \"#utility.yul\":2310:2337   */\n      mstore\n        /* \"#utility.yul\":2205:2344   */\n      pop\n      pop\n      pop\n      jump\t// out\n        /* \"#utility.yul\":2350:2452   */\n    tag_138:\n        /* \"#utility.yul\":2391:2397   */\n      0x00\n        /* \"#utility.yul\":2442:2444   */\n      0x1f\n        /* \"#utility.yul\":2438:2445   */\n      not\n        /* \"#utility.yul\":2433:2435   */\n      0x1f\n        /* \"#utility.yul\":2426:2431   */\n      dup4\n        /* \"#utility.yul\":2422:2436   */\n      add\n        /* \"#utility.yul\":2418:2446   */\n      and\n        /* \"#utility.yul\":2408:2446   */\n      swap1\n      pop\n        /* \"#utility.yul\":2350:2452   */\n      swap2\n      swap1\n      pop\n      jump\t// out\n        /* \"#utility.yul\":2458:2835   */\n    tag_139:\n        /* \"#utility.yul\":2546:2549   */\n      0x00\n        /* \"#utility.yul\":2574:2613   */\n      tag_222\n        /* \"#utility.yul\":2607:2612   */\n      dup3\n        /* \"#utility.yul\":2574:2613   */\n      tag_135\n      jump\t// in\n    tag_222:\n        /* \"#utility.yul\":2629:2700   */\n      tag_223\n        /* \"#utility.yul\":2693:2699   */\n      dup2\n        /* \"#utility.yul\":2688:2691   */\n      dup6\n        /* \"#utility.yul\":2629:2700   */\n      tag_136\n      jump\t// in\n    tag_223:\n        /* \"#utility.yul\":2622:2700   */\n      swap4\n      pop\n        /* \"#utility.yul\":2709:2774   */\n      tag_224\n        /* \"#utility.yul\":2767:2773   */\n      dup2\n        /* \"#utility.yul\":2762:2765   */\n      dup6\n        /* \"#utility.yul\":2755:2759   */\n      0x20\n        /* \"#utility.yul\":2748:2753   */\n      dup7\n        /* \"#utility.yul\":2744:2760   */\n      add\n        /* \"#utility.yul\":2709:2774   */\n      tag_137\n      jump\t// in\n    tag_224:\n        /* \"#utility.yul\":2799:2828   */\n      tag_225\n        /* \"#utility.yul\":2821:2827   */\n      dup2\n        /* \"#utility.yul\":2799:2828   */\n      tag_138\n      jump\t// in\n    tag_225:\n        /* \"#utility.yul\":2794:2797   */\n      dup5\n        /* \"#utility.yul\":2790:2829   */\n      add\n        /* \"#utility.yul\":2783:2829   */\n      swap2\n      pop\n        /* \"#utility.yul\":2550:2835   */\n      pop\n        /* \"#utility.yul\":2458:2835   */\n      swap3\n      swap2\n      pop\n      pop\n      jump\t// out\n        /* \"#utility.yul\":2841:3596   */\n    tag_18:\n        /* \"#utility.yul\":3066:3070   */\n      0x00\n        /* \"#utility.yul\":3104:3107   */\n      0xa0\n        /* \"#utility.yul\":3093:3102   */\n      dup3\n        /* \"#utility.yul\":3089:3108   */\n      add\n        /* \"#utility.yul\":3081:3108   */\n      swap1\n      pop\n        /* \"#utility.yul\":3118:3189   */\n      tag_227\n        /* \"#utility.yul\":3186:3187   */\n      0x00\n        /* \"#utility.yul\":3175:3184   */\n      dup4\n        /* \"#utility.yul\":3171:3188   */\n      add\n        /* \"#utility.yul\":3162:3168   */\n      dup9\n        /* \"#utility.yul\":3118:3189   */\n      tag_133\n      jump\t// in\n    tag_227:\n        /* \"#utility.yul\":3199:3271   */\n      tag_228\n        /* \"#utility.yul\":3267:3269   */\n      0x20\n        /* \"#utility.yul\":3256:3265   */\n      dup4\n        /* \"#utility.yul\":3252:3270   */\n      add\n        /* \"#utility.yul\":3243:3249   */\n      dup8\n        /* \"#utility.yul\":3199:3271   */\n      tag_134\n      jump\t// in\n    tag_228:\n        /* \"#utility.yul\":3318:3327   */\n      dup2\n        /* \"#utility.yul\":3312:3316   */\n      dup2\n        /* \"#utility.yul\":3308:3328   */\n      sub\n        /* \"#utility.yul\":3303:3305   */\n      0x40\n        /* \"#utility.yul\":3292:3301   */\n      dup4\n        /* \"#utility.yul\":3288:3306   */\n      add\n        /* \"#utility.yul\":3281:3329   */\n      mstore\n        /* \"#utility.yul\":3346:3424   */\n      tag_229\n        /* \"#utility.yul\":3419:3423   */\n      dup2\n        /* \"#utility.yul\":3410:3416   */\n      dup7\n        /* \"#utility.yul\":3346:3424   */\n      tag_139\n      jump\t// in\n    tag_229:\n        /* \"#utility.yul\":3338:3424   */\n      swap1\n      pop\n        /* \"#utility.yul\":3434:3506   */\n      tag_230\n        /* \"#utility.yul\":3502:3504   */\n      0x60\n        /* \"#utility.yul\":3491:3500   */\n      dup4\n        /* \"#utility.yul\":3487:3505   */\n      add\n        /* \"#utility.yul\":3478:3484   */\n      dup6\n        /* \"#utility.yul\":3434:3506   */\n      tag_133\n      jump\t// in\n    tag_230:\n        /* \"#utility.yul\":3516:3589   */\n      tag_231\n        /* \"#utility.yul\":3584:3587   */\n      0x80\n        /* \"#utility.yul\":3573:3582   */\n      dup4\n        /* \"#utility.yul\":3569:3588   */\n      add\n        /* \"#utility.yul\":3560:3566   */\n      dup5\n        /* \"#utility.yul\":3516:3589   */\n      tag_133\n      jump\t// in\n    tag_231:\n        /* \"#utility.yul\":2841:3596   */\n      swap7\n      swap6\n      pop\n      pop\n      pop\n      pop\n      pop\n      pop\n      jump\t// out\n        /* \"#utility.yul\":3602:3931   */\n    tag_21:\n        /* \"#utility.yul\":3661:3667   */\n      0x00\n        /* \"#utility.yul\":3710:3712   */\n      0x20\n        /* \"#utility.yul\":3698:3707   */\n      dup3\n        /* \"#utility.yul\":3689:3696   */\n      dup5\n        /* \"#utility.yul\":3685:3708   */\n      sub\n        /* \"#utility.yul\":3681:3713   */\n      slt\n        /* \"#utility.yul\":3678:3797   */\n      iszero\n      tag_233\n      jumpi\n        /* \"#utility.yul\":3716:3795   */\n      tag_234\n      tag_124\n      jump\t// in\n    tag_234:\n        /* \"#utility.yul\":3678:3797   */\n    tag_233:\n        /* \"#utility.yul\":3836:3837   */\n      0x00\n        /* \"#utility.yul\":3861:3914   */\n      tag_235\n        /* \"#utility.yul\":3906:3913   */\n      dup5\n        /* \"#utility.yul\":3897:3903   */\n      dup3\n        /* \"#utility.yul\":3886:3895   */\n      dup6\n        /* \"#utility.yul\":3882:3904   */\n      add\n        /* \"#utility.yul\":3861:3914   */\n      tag_129\n      jump\t// in\n    tag_235:\n        /* \"#utility.yul\":3851:3914   */\n      swap2\n      pop\n        /* \"#utility.yul\":3807:3924   */\n      pop\n        /* \"#utility.yul\":3602:3931   */\n      swap3\n      swap2\n      pop\n      pop\n      jump\t// out\n        /* \"#utility.yul\":3937:4072   */\n    tag_140:\n        /* \"#utility.yul\":4025:4031   */\n      0x00\n        /* \"#utility.yul\":4059:4064   */\n      dup2\n        /* \"#utility.yul\":4053:4065   */\n      mload\n        /* \"#utility.yul\":4043:4065   */\n      swap1\n      pop\n        /* \"#utility.yul\":3937:4072   */\n      swap2\n      swap1\n      pop\n      jump\t// out\n        /* \"#utility.yul\":4078:4283   */\n    tag_141:\n        /* \"#utility.yul\":4198:4209   */\n      0x00\n        /* \"#utility.yul\":4232:4238   */\n      dup3\n        /* \"#utility.yul\":4227:4230   */\n      dup3\n        /* \"#utility.yul\":4220:4239   */\n      mstore\n        /* \"#utility.yul\":4272:4276   */\n      0x20\n        /* \"#utility.yul\":4267:4270   */\n      dup3\n        /* \"#utility.yul\":4263:4277   */\n      add\n        /* \"#utility.yul\":4248:4277   */\n      swap1\n      pop\n        /* \"#utility.yul\":4078:4283   */\n      swap3\n      swap2\n      pop\n      pop\n      jump\t// out\n        /* \"#utility.yul\":4289:4442   */\n    tag_142:\n        /* \"#utility.yul\":4377:4381   */\n      0x00\n        /* \"#utility.yul\":4400:4403   */\n      dup2\n        /* \"#utility.yul\":4392:4403   */\n      swap1\n      pop\n        /* \"#utility.yul\":4430:4434   */\n      0x20\n        /* \"#utility.yul\":4425:4428   */\n      dup3\n        /* \"#utility.yul\":4421:4435   */\n      add\n        /* \"#utility.yul\":4413:4435   */\n      swap1\n      pop\n        /* \"#utility.yul\":4289:4442   */\n      swap2\n      swap1\n      pop\n      jump\t// out\n        /* \"#utility.yul\":4448:4556   */\n    tag_143:\n        /* \"#utility.yul\":4525:4549   */\n      tag_240\n        /* \"#utility.yul\":4543:4548   */\n      dup2\n        /* \"#utility.yul\":4525:4549   */\n      tag_130\n      jump\t// in\n    tag_240:\n        /* \"#utility.yul\":4520:4523   */\n      dup3\n        /* \"#utility.yul\":4513:4550   */\n      mstore\n        /* \"#utility.yul\":4448:4556   */\n      pop\n      pop\n      jump\t// out\n        /* \"#utility.yul\":4562:4670   */\n    tag_144:\n        /* \"#utility.yul\":4639:4663   */\n      tag_242\n        /* \"#utility.yul\":4657:4662   */\n      dup2\n        /* \"#utility.yul\":4639:4663   */\n      tag_127\n      jump\t// in\n    tag_242:\n        /* \"#utility.yul\":4634:4637   */\n      dup3\n        /* \"#utility.yul\":4627:4664   */\n      mstore\n        /* \"#utility.yul\":4562:4670   */\n      pop\n      pop\n      jump\t// out\n        /* \"#utility.yul\":4676:4835   */\n    tag_145:\n        /* \"#utility.yul\":4750:4761   */\n      0x00\n        /* \"#utility.yul\":4784:4790   */\n      dup3\n        /* \"#utility.yul\":4779:4782   */\n      dup3\n        /* \"#utility.yul\":4772:4791   */\n      mstore\n        /* \"#utility.yul\":4824:4828   */\n      0x20\n        /* \"#utility.yul\":4819:4822   */\n      dup3\n        /* \"#utility.yul\":4815:4829   */\n      add\n        /* \"#utility.yul\":4800:4829   */\n      swap1\n      pop\n        /* \"#utility.yul\":4676:4835   */\n      swap3\n      swap2\n      pop\n      pop\n      jump\t// out\n        /* \"#utility.yul\":4841:5198   */\n    tag_146:\n        /* \"#utility.yul\":4919:4922   */\n      0x00\n        /* \"#utility.yul\":4947:4986   */\n      tag_245\n        /* \"#utility.yul\":4980:4985   */\n      dup3\n        /* \"#utility.yul\":4947:4986   */\n      tag_135\n      jump\t// in\n    tag_245:\n        /* \"#utility.yul\":5002:5063   */\n      tag_246\n        /* \"#utility.yul\":5056:5062   */\n      dup2\n        /* \"#utility.yul\":5051:5054   */\n      dup6\n        /* \"#utility.yul\":5002:5063   */\n      tag_145\n      jump\t// in\n    tag_246:\n        /* \"#utility.yul\":4995:5063   */\n      swap4\n      pop\n        /* \"#utility.yul\":5072:5137   */\n      tag_247\n        /* \"#utility.yul\":5130:5136   */\n      dup2\n        /* \"#utility.yul\":5125:5128   */\n      dup6\n        /* \"#utility.yul\":5118:5122   */\n      0x20\n        /* \"#utility.yul\":5111:5116   */\n      dup7\n        /* \"#utility.yul\":5107:5123   */\n      add\n        /* \"#utility.yul\":5072:5137   */\n      tag_137\n      jump\t// in\n    tag_247:\n        /* \"#utility.yul\":5162:5191   */\n      tag_248\n        /* \"#utility.yul\":5184:5190   */\n      dup2\n        /* \"#utility.yul\":5162:5191   */\n      tag_138\n      jump\t// in\n    tag_248:\n        /* \"#utility.yul\":5157:5160   */\n      dup5\n        /* \"#utility.yul\":5153:5192   */\n      add\n        /* \"#utility.yul\":5146:5192   */\n      swap2\n      pop\n        /* \"#utility.yul\":4923:5198   */\n      pop\n        /* \"#utility.yul\":4841:5198   */\n      swap3\n      swap2\n      pop\n      pop\n      jump\t// out\n        /* \"#utility.yul\":5256:6375   */\n    tag_147:\n        /* \"#utility.yul\":5357:5360   */\n      0x00\n        /* \"#utility.yul\":5393:5397   */\n      0xa0\n        /* \"#utility.yul\":5388:5391   */\n      dup4\n        /* \"#utility.yul\":5384:5398   */\n      add\n        /* \"#utility.yul\":5478:5482   */\n      0x00\n        /* \"#utility.yul\":5471:5476   */\n      dup4\n        /* \"#utility.yul\":5467:5483   */\n      add\n        /* \"#utility.yul\":5461:5484   */\n      mload\n        /* \"#utility.yul\":5497:5560   */\n      tag_250\n        /* \"#utility.yul\":5554:5558   */\n      0x00\n        /* \"#utility.yul\":5549:5552   */\n      dup7\n        /* \"#utility.yul\":5545:5559   */\n      add\n        /* \"#utility.yul\":5531:5543   */\n      dup3\n        /* \"#utility.yul\":5497:5560   */\n      tag_143\n      jump\t// in\n    tag_250:\n        /* \"#utility.yul\":5408:5570   */\n      pop\n        /* \"#utility.yul\":5654:5658   */\n      0x20\n        /* \"#utility.yul\":5647:5652   */\n      dup4\n        /* \"#utility.yul\":5643:5659   */\n      add\n        /* \"#utility.yul\":5637:5660   */\n      mload\n        /* \"#utility.yul\":5673:5736   */\n      tag_251\n        /* \"#utility.yul\":5730:5734   */\n      0x20\n        /* \"#utility.yul\":5725:5728   */\n      dup7\n        /* \"#utility.yul\":5721:5735   */\n      add\n        /* \"#utility.yul\":5707:5719   */\n      dup3\n        /* \"#utility.yul\":5673:5736   */\n      tag_144\n      jump\t// in\n    tag_251:\n        /* \"#utility.yul\":5580:5746   */\n      pop\n        /* \"#utility.yul\":5831:5835   */\n      0x40\n        /* \"#utility.yul\":5824:5829   */\n      dup4\n        /* \"#utility.yul\":5820:5836   */\n      add\n        /* \"#utility.yul\":5814:5837   */\n      mload\n        /* \"#utility.yul\":5884:5887   */\n      dup5\n        /* \"#utility.yul\":5878:5882   */\n      dup3\n        /* \"#utility.yul\":5874:5888   */\n      sub\n        /* \"#utility.yul\":5867:5871   */\n      0x40\n        /* \"#utility.yul\":5862:5865   */\n      dup7\n        /* \"#utility.yul\":5858:5872   */\n      add\n        /* \"#utility.yul\":5851:5889   */\n      mstore\n        /* \"#utility.yul\":5910:5983   */\n      tag_252\n        /* \"#utility.yul\":5978:5982   */\n      dup3\n        /* \"#utility.yul\":5964:5976   */\n      dup3\n        /* \"#utility.yul\":5910:5983   */\n      tag_146\n      jump\t// in\n    tag_252:\n        /* \"#utility.yul\":5902:5983   */\n      swap2\n      pop\n        /* \"#utility.yul\":5756:5994   */\n      pop\n        /* \"#utility.yul\":6081:6085   */\n      0x60\n        /* \"#utility.yul\":6074:6079   */\n      dup4\n        /* \"#utility.yul\":6070:6086   */\n      add\n        /* \"#utility.yul\":6064:6087   */\n      mload\n        /* \"#utility.yul\":6100:6163   */\n      tag_253\n        /* \"#utility.yul\":6157:6161   */\n      0x60\n        /* \"#utility.yul\":6152:6155   */\n      dup7\n        /* \"#utility.yul\":6148:6162   */\n      add\n        /* \"#utility.yul\":6134:6146   */\n      dup3\n        /* \"#utility.yul\":6100:6163   */\n      tag_143\n      jump\t// in\n    tag_253:\n        /* \"#utility.yul\":6004:6173   */\n      pop\n        /* \"#utility.yul\":6256:6260   */\n      0x80\n        /* \"#utility.yul\":6249:6254   */\n      dup4\n        /* \"#utility.yul\":6245:6261   */\n      add\n        /* \"#utility.yul\":6239:6262   */\n      mload\n        /* \"#utility.yul\":6275:6338   */\n      tag_254\n        /* \"#utility.yul\":6332:6336   */\n      0x80\n        /* \"#utility.yul\":6327:6330   */\n      dup7\n        /* \"#utility.yul\":6323:6337   */\n      add\n        /* \"#utility.yul\":6309:6321   */\n      dup3\n        /* \"#utility.yul\":6275:6338   */\n      tag_143\n      jump\t// in\n    tag_254:\n        /* \"#utility.yul\":6183:6348   */\n      pop\n        /* \"#utility.yul\":6365:6369   */\n      dup1\n        /* \"#utility.yul\":6358:6369   */\n      swap2\n      pop\n        /* \"#utility.yul\":5362:6375   */\n      pop\n        /* \"#utility.yul\":5256:6375   */\n      swap3\n      swap2\n      pop\n      pop\n      jump\t// out\n        /* \"#utility.yul\":6381:6621   */\n    tag_148:\n        /* \"#utility.yul\":6492:6502   */\n      0x00\n        /* \"#utility.yul\":6527:6615   */\n      tag_256\n        /* \"#utility.yul\":6611:6614   */\n      dup4\n        /* \"#utility.yul\":6603:6609   */\n      dup4\n        /* \"#utility.yul\":6527:6615   */\n      tag_147\n      jump\t// in\n    tag_256:\n        /* \"#utility.yul\":6513:6615   */\n      swap1\n      pop\n        /* \"#utility.yul\":6381:6621   */\n      swap3\n      swap2\n      pop\n      pop\n      jump\t// out\n        /* \"#utility.yul\":6627:6761   */\n    tag_149:\n        /* \"#utility.yul\":6718:6722   */\n      0x00\n        /* \"#utility.yul\":6750:6754   */\n      0x20\n        /* \"#utility.yul\":6745:6748   */\n      dup3\n        /* \"#utility.yul\":6741:6755   */\n      add\n        /* \"#utility.yul\":6733:6755   */\n      swap1\n      pop\n        /* \"#utility.yul\":6627:6761   */\n      swap2\n      swap1\n      pop\n      jump\t// out\n        /* \"#utility.yul\":6823:7902   */\n    tag_150:\n        /* \"#utility.yul\":6984:6987   */\n      0x00\n        /* \"#utility.yul\":7013:7088   */\n      tag_259\n        /* \"#utility.yul\":7082:7087   */\n      dup3\n        /* \"#utility.yul\":7013:7088   */\n      tag_140\n      jump\t// in\n    tag_259:\n        /* \"#utility.yul\":7104:7211   */\n      tag_260\n        /* \"#utility.yul\":7204:7210   */\n      dup2\n        /* \"#utility.yul\":7199:7202   */\n      dup6\n        /* \"#utility.yul\":7104:7211   */\n      tag_141\n      jump\t// in\n    tag_260:\n        /* \"#utility.yul\":7097:7211   */\n      swap4\n      pop\n        /* \"#utility.yul\":7237:7240   */\n      dup4\n        /* \"#utility.yul\":7282:7286   */\n      0x20\n        /* \"#utility.yul\":7274:7280   */\n      dup3\n        /* \"#utility.yul\":7270:7287   */\n      mul\n        /* \"#utility.yul\":7265:7268   */\n      dup6\n        /* \"#utility.yul\":7261:7288   */\n      add\n        /* \"#utility.yul\":7312:7389   */\n      tag_261\n        /* \"#utility.yul\":7383:7388   */\n      dup6\n        /* \"#utility.yul\":7312:7389   */\n      tag_142\n      jump\t// in\n    tag_261:\n        /* \"#utility.yul\":7412:7419   */\n      dup1\n        /* \"#utility.yul\":7443:7444   */\n      0x00\n        /* \"#utility.yul\":7428:7857   */\n    tag_262:\n        /* \"#utility.yul\":7453:7459   */\n      dup6\n        /* \"#utility.yul\":7450:7451   */\n      dup2\n        /* \"#utility.yul\":7447:7460   */\n      lt\n        /* \"#utility.yul\":7428:7857   */\n      iszero\n      tag_264\n      jumpi\n        /* \"#utility.yul\":7524:7533   */\n      dup5\n        /* \"#utility.yul\":7518:7522   */\n      dup5\n        /* \"#utility.yul\":7514:7534   */\n      sub\n        /* \"#utility.yul\":7509:7512   */\n      dup10\n        /* \"#utility.yul\":7502:7535   */\n      mstore\n        /* \"#utility.yul\":7575:7581   */\n      dup2\n        /* \"#utility.yul\":7569:7582   */\n      mload\n        /* \"#utility.yul\":7603:7709   */\n      tag_265\n        /* \"#utility.yul\":7704:7708   */\n      dup6\n        /* \"#utility.yul\":7689:7702   */\n      dup3\n        /* \"#utility.yul\":7603:7709   */\n      tag_148\n      jump\t// in\n    tag_265:\n        /* \"#utility.yul\":7595:7709   */\n      swap5\n      pop\n        /* \"#utility.yul\":7732:7813   */\n      tag_266\n        /* \"#utility.yul\":7806:7812   */\n      dup4\n        /* \"#utility.yul\":7732:7813   */\n      tag_149\n      jump\t// in\n    tag_266:\n        /* \"#utility.yul\":7722:7813   */\n      swap3\n      pop\n        /* \"#utility.yul\":7842:7846   */\n      0x20\n        /* \"#utility.yul\":7837:7840   */\n      dup11\n        /* \"#utility.yul\":7833:7847   */\n      add\n        /* \"#utility.yul\":7826:7847   */\n      swap10\n      pop\n        /* \"#utility.yul\":7488:7857   */\n      pop\n        /* \"#utility.yul\":7475:7476   */\n      0x01\n        /* \"#utility.yul\":7472:7473   */\n      dup2\n        /* \"#utility.yul\":7468:7477   */\n      add\n        /* \"#utility.yul\":7463:7477   */\n      swap1\n      pop\n        /* \"#utility.yul\":7428:7857   */\n      jump(tag_262)\n    tag_264:\n        /* \"#utility.yul\":7432:7446   */\n      pop\n        /* \"#utility.yul\":7873:7877   */\n      dup3\n        /* \"#utility.yul\":7866:7877   */\n      swap8\n      pop\n        /* \"#utility.yul\":7893:7896   */\n      dup8\n        /* \"#utility.yul\":7886:7896   */\n      swap6\n      pop\n        /* \"#utility.yul\":6989:7902   */\n      pop\n      pop\n      pop\n      pop\n      pop\n        /* \"#utility.yul\":6823:7902   */\n      swap3\n      swap2\n      pop\n      pop\n      jump\t// out\n        /* \"#utility.yul\":7908:8365   */\n    tag_24:\n        /* \"#utility.yul\":8093:8097   */\n      0x00\n        /* \"#utility.yul\":8131:8133   */\n      0x20\n        /* \"#utility.yul\":8120:8129   */\n      dup3\n        /* \"#utility.yul\":8116:8134   */\n      add\n        /* \"#utility.yul\":8108:8134   */\n      swap1\n      pop\n        /* \"#utility.yul\":8180:8189   */\n      dup2\n        /* \"#utility.yul\":8174:8178   */\n      dup2\n        /* \"#utility.yul\":8170:8190   */\n      sub\n        /* \"#utility.yul\":8166:8167   */\n      0x00\n        /* \"#utility.yul\":8155:8164   */\n      dup4\n        /* \"#utility.yul\":8151:8168   */\n      add\n        /* \"#utility.yul\":8144:8191   */\n      mstore\n        /* \"#utility.yul\":8208:8358   */\n      tag_268\n        /* \"#utility.yul\":8353:8357   */\n      dup2\n        /* \"#utility.yul\":8344:8350   */\n      dup5\n        /* \"#utility.yul\":8208:8358   */\n      tag_150\n      jump\t// in\n    tag_268:\n        /* \"#utility.yul\":8200:8358   */\n      swap1\n      pop\n        /* \"#utility.yul\":7908:8365   */\n      swap3\n      swap2\n      pop\n      pop\n      jump\t// out\n        /* \"#utility.yul\":8371:8460   */\n    tag_151:\n        /* \"#utility.yul\":8407:8414   */\n      0x00\n        /* \"#utility.yul\":8447:8453   */\n      0xffff\n        /* \"#utility.yul\":8440:8445   */\n      dup3\n        /* \"#utility.yul\":8436:8454   */\n      and\n        /* \"#utility.yul\":8425:8454   */\n      swap1\n      pop\n        /* \"#utility.yul\":8371:8460   */\n      swap2\n      swap1\n      pop\n      jump\t// out\n        /* \"#utility.yul\":8466:8586   */\n    tag_152:\n        /* \"#utility.yul\":8538:8561   */\n      tag_271\n        /* \"#utility.yul\":8555:8560   */\n      dup2\n        /* \"#utility.yul\":8538:8561   */\n      tag_151\n      jump\t// in\n    tag_271:\n        /* \"#utility.yul\":8531:8536   */\n      dup2\n        /* \"#utility.yul\":8528:8562   */\n      eq\n        /* \"#utility.yul\":8518:8580   */\n      tag_272\n      jumpi\n        /* \"#utility.yul\":8576:8577   */\n      0x00\n        /* \"#utility.yul\":8573:8574   */\n      0x00\n        /* \"#utility.yul\":8566:8578   */\n      revert\n        /* \"#utility.yul\":8518:8580   */\n    tag_272:\n        /* \"#utility.yul\":8466:8586   */\n      pop\n      jump\t// out\n        /* \"#utility.yul\":8592:8729   */\n    tag_153:\n        /* \"#utility.yul\":8637:8642   */\n      0x00\n        /* \"#utility.yul\":8675:8681   */\n      dup2\n        /* \"#utility.yul\":8662:8682   */\n      calldataload\n        /* \"#utility.yul\":8653:8682   */\n      swap1\n      pop\n        /* \"#utility.yul\":8691:8723   */\n      tag_274\n        /* \"#utility.yul\":8717:8722   */\n      dup2\n        /* \"#utility.yul\":8691:8723   */\n      tag_152\n      jump\t// in\n    tag_274:\n        /* \"#utility.yul\":8592:8729   */\n      swap3\n      swap2\n      pop\n      pop\n      jump\t// out\n        /* \"#utility.yul\":8735:9062   */\n    tag_30:\n        /* \"#utility.yul\":8793:8799   */\n      0x00\n        /* \"#utility.yul\":8842:8844   */\n      0x20\n        /* \"#utility.yul\":8830:8839   */\n      dup3\n        /* \"#utility.yul\":8821:8828   */\n      dup5\n        /* \"#utility.yul\":8817:8840   */\n      sub\n        /* \"#utility.yul\":8813:8845   */\n      slt\n        /* \"#utility.yul\":8810:8929   */\n      iszero\n      tag_276\n      jumpi\n        /* \"#utility.yul\":8848:8927   */\n      tag_277\n      tag_124\n      jump\t// in\n    tag_277:\n        /* \"#utility.yul\":8810:8929   */\n    tag_276:\n        /* \"#utility.yul\":8968:8969   */\n      0x00\n        /* \"#utility.yul\":8993:9045   */\n      tag_278\n        /* \"#utility.yul\":9037:9044   */\n      dup5\n        /* \"#utility.yul\":9028:9034   */\n      dup3\n        /* \"#utility.yul\":9017:9026   */\n      dup6\n        /* \"#utility.yul\":9013:9035   */\n      add\n        /* \"#utility.yul\":8993:9045   */\n      tag_153\n      jump\t// in\n    tag_278:\n        /* \"#utility.yul\":8983:9045   */\n      swap2\n      pop\n        /* \"#utility.yul\":8939:9055   */\n      pop\n        /* \"#utility.yul\":8735:9062   */\n      swap3\n      swap2\n      pop\n      pop\n      jump\t// out\n        /* \"#utility.yul\":9068:9183   */\n    tag_154:\n        /* \"#utility.yul\":9153:9176   */\n      tag_280\n        /* \"#utility.yul\":9170:9175   */\n      dup2\n        /* \"#utility.yul\":9153:9176   */\n      tag_151\n      jump\t// in\n    tag_280:\n        /* \"#utility.yul\":9148:9151   */\n      dup3\n        /* \"#utility.yul\":9141:9177   */\n      mstore\n        /* \"#utility.yul\":9068:9183   */\n      pop\n      pop\n      jump\t// out\n        /* \"#utility.yul\":9189:9407   */\n    tag_38:\n        /* \"#utility.yul\":9280:9284   */\n      0x00\n        /* \"#utility.yul\":9318:9320   */\n      0x20\n        /* \"#utility.yul\":9307:9316   */\n      dup3\n        /* \"#utility.yul\":9303:9321   */\n      add\n        /* \"#utility.yul\":9295:9321   */\n      swap1\n      pop\n        /* \"#utility.yul\":9331:9400   */\n      tag_282\n        /* \"#utility.yul\":9397:9398   */\n      0x00\n        /* \"#utility.yul\":9386:9395   */\n      dup4\n        /* \"#utility.yul\":9382:9399   */\n      add\n        /* \"#utility.yul\":9373:9379   */\n      dup5\n        /* \"#utility.yul\":9331:9400   */\n      tag_154\n      jump\t// in\n    tag_282:\n        /* \"#utility.yul\":9189:9407   */\n      swap3\n      swap2\n      pop\n      pop\n      jump\t// out\n        /* \"#utility.yul\":9413:9530   */\n    tag_155:\n        /* \"#utility.yul\":9522:9523   */\n      0x00\n        /* \"#utility.yul\":9519:9520   */\n      0x00\n        /* \"#utility.yul\":9512:9524   */\n      revert\n        /* \"#utility.yul\":9536:9653   */\n    tag_156:\n        /* \"#utility.yul\":9645:9646   */\n      0x00\n        /* \"#utility.yul\":9642:9643   */\n      0x00\n        /* \"#utility.yul\":9635:9647   */\n      revert\n        /* \"#utility.yul\":9659:9839   */\n    tag_157:\n        /* \"#utility.yul\":9707:9784   */\n      0x4e487b7100000000000000000000000000000000000000000000000000000000\n        /* \"#utility.yul\":9704:9705   */\n      0x00\n        /* \"#utility.yul\":9697:9785   */\n      mstore\n        /* \"#utility.yul\":9804:9808   */\n      0x41\n        /* \"#utility.yul\":9801:9802   */\n      0x04\n        /* \"#utility.yul\":9794:9809   */\n      mstore\n        /* \"#utility.yul\":9828:9832   */\n      0x24\n        /* \"#utility.yul\":9825:9826   */\n      0x00\n        /* \"#utility.yul\":9818:9833   */\n      revert\n        /* \"#utility.yul\":9845:10126   */\n    tag_158:\n        /* \"#utility.yul\":9928:9955   */\n      tag_287\n        /* \"#utility.yul\":9950:9954   */\n      dup3\n        /* \"#utility.yul\":9928:9955   */\n      tag_138\n      jump\t// in\n    tag_287:\n        /* \"#utility.yul\":9920:9926   */\n      dup2\n        /* \"#utility.yul\":9916:9956   */\n      add\n        /* \"#utility.yul\":10058:10064   */\n      dup2\n        /* \"#utility.yul\":10046:10056   */\n      dup2\n        /* \"#utility.yul\":10043:10065   */\n      lt\n        /* \"#utility.yul\":10022:10040   */\n      0xffffffffffffffff\n        /* \"#utility.yul\":10010:10020   */\n      dup3\n        /* \"#utility.yul\":10007:10041   */\n      gt\n        /* \"#utility.yul\":10004:10066   */\n      or\n        /* \"#utility.yul\":10001:10089   */\n      iszero\n      tag_288\n      jumpi\n        /* \"#utility.yul\":10069:10087   */\n      tag_289\n      tag_157\n      jump\t// in\n    tag_289:\n        /* \"#utility.yul\":10001:10089   */\n    tag_288:\n        /* \"#utility.yul\":10109:10119   */\n      dup1\n        /* \"#utility.yul\":10105:10107   */\n      0x40\n        /* \"#utility.yul\":10098:10120   */\n      mstore\n        /* \"#utility.yul\":9888:10126   */\n      pop\n        /* \"#utility.yul\":9845:10126   */\n      pop\n      pop\n      jump\t// out\n        /* \"#utility.yul\":10132:10261   */\n    tag_159:\n        /* \"#utility.yul\":10166:10172   */\n      0x00\n        /* \"#utility.yul\":10193:10213   */\n      tag_291\n      tag_123\n      jump\t// in\n    tag_291:\n        /* \"#utility.yul\":10183:10213   */\n      swap1\n      pop\n        /* \"#utility.yul\":10222:10255   */\n      tag_292\n        /* \"#utility.yul\":10250:10254   */\n      dup3\n        /* \"#utility.yul\":10242:10248   */\n      dup3\n        /* \"#utility.yul\":10222:10255   */\n      tag_158\n      jump\t// in\n    tag_292:\n        /* \"#utility.yul\":10132:10261   */\n      swap2\n      swap1\n      pop\n      jump\t// out\n        /* \"#utility.yul\":10267:10575   */\n    tag_160:\n        /* \"#utility.yul\":10329:10333   */\n      0x00\n        /* \"#utility.yul\":10419:10437   */\n      0xffffffffffffffff\n        /* \"#utility.yul\":10411:10417   */\n      dup3\n        /* \"#utility.yul\":10408:10438   */\n      gt\n        /* \"#utility.yul\":10405:10461   */\n      iszero\n      tag_294\n      jumpi\n        /* \"#utility.yul\":10441:10459   */\n      tag_295\n      tag_157\n      jump\t// in\n    tag_295:\n        /* \"#utility.yul\":10405:10461   */\n    tag_294:\n        /* \"#utility.yul\":10479:10508   */\n      tag_296\n        /* \"#utility.yul\":10501:10507   */\n      dup3\n        /* \"#utility.yul\":10479:10508   */\n      tag_138\n      jump\t// in\n    tag_296:\n        /* \"#utility.yul\":10471:10508   */\n      swap1\n      pop\n        /* \"#utility.yul\":10563:10567   */\n      0x20\n        /* \"#utility.yul\":10557:10561   */\n      dup2\n        /* \"#utility.yul\":10553:10568   */\n      add\n        /* \"#utility.yul\":10545:10568   */\n      swap1\n      pop\n        /* \"#utility.yul\":10267:10575   */\n      swap2\n      swap1\n      pop\n      jump\t// out\n        /* \"#utility.yul\":10581:10729   */\n    tag_161:\n        /* \"#utility.yul\":10679:10685   */\n      dup3\n        /* \"#utility.yul\":10674:10677   */\n      dup2\n        /* \"#utility.yul\":10669:10672   */\n      dup4\n        /* \"#utility.yul\":10656:10686   */\n      calldatacopy\n        /* \"#utility.yul\":10720:10721   */\n      0x00\n        /* \"#utility.yul\":10711:10717   */\n      dup4\n        /* \"#utility.yul\":10706:10709   */\n      dup4\n        /* \"#utility.yul\":10702:10718   */\n      add\n        /* \"#utility.yul\":10695:10722   */\n      mstore\n        /* \"#utility.yul\":10581:10729   */\n      pop\n      pop\n      pop\n      jump\t// out\n        /* \"#utility.yul\":10735:11160   */\n    tag_162:\n        /* \"#utility.yul\":10813:10818   */\n      0x00\n        /* \"#utility.yul\":10838:10904   */\n      tag_299\n        /* \"#utility.yul\":10854:10903   */\n      tag_300\n        /* \"#utility.yul\":10896:10902   */\n      dup5\n        /* \"#utility.yul\":10854:10903   */\n      tag_160\n      jump\t// in\n    tag_300:\n        /* \"#utility.yul\":10838:10904   */\n      tag_159\n      jump\t// in\n    tag_299:\n        /* \"#utility.yul\":10829:10904   */\n      swap1\n      pop\n        /* \"#utility.yul\":10927:10933   */\n      dup3\n        /* \"#utility.yul\":10920:10925   */\n      dup2\n        /* \"#utility.yul\":10913:10934   */\n      mstore\n        /* \"#utility.yul\":10965:10969   */\n      0x20\n        /* \"#utility.yul\":10958:10963   */\n      dup2\n        /* \"#utility.yul\":10954:10970   */\n      add\n        /* \"#utility.yul\":11003:11006   */\n      dup5\n        /* \"#utility.yul\":10994:11000   */\n      dup5\n        /* \"#utility.yul\":10989:10992   */\n      dup5\n        /* \"#utility.yul\":10985:11001   */\n      add\n        /* \"#utility.yul\":10982:11007   */\n      gt\n        /* \"#utility.yul\":10979:11091   */\n      iszero\n      tag_301\n      jumpi\n        /* \"#utility.yul\":11010:11089   */\n      tag_302\n      tag_156\n      jump\t// in\n    tag_302:\n        /* \"#utility.yul\":10979:11091   */\n    tag_301:\n        /* \"#utility.yul\":11100:11154   */\n      tag_303\n        /* \"#utility.yul\":11147:11153   */\n      dup5\n        /* \"#utility.yul\":11142:11145   */\n      dup3\n        /* \"#utility.yul\":11137:11140   */\n      dup6\n        /* \"#utility.yul\":11100:11154   */\n      tag_161\n      jump\t// in\n    tag_303:\n        /* \"#utility.yul\":10819:11160   */\n      pop\n        /* \"#utility.yul\":10735:11160   */\n      swap4\n      swap3\n      pop\n      pop\n      pop\n      jump\t// out\n        /* \"#utility.yul\":11180:11520   */\n    tag_163:\n        /* \"#utility.yul\":11236:11241   */\n      0x00\n        /* \"#utility.yul\":11285:11288   */\n      dup3\n        /* \"#utility.yul\":11278:11282   */\n      0x1f\n        /* \"#utility.yul\":11270:11276   */\n      dup4\n        /* \"#utility.yul\":11266:11283   */\n      add\n        /* \"#utility.yul\":11262:11289   */\n      slt\n        /* \"#utility.yul\":11252:11374   */\n      tag_305\n      jumpi\n        /* \"#utility.yul\":11293:11372   */\n      tag_306\n      tag_155\n      jump\t// in\n    tag_306:\n        /* \"#utility.yul\":11252:11374   */\n    tag_305:\n        /* \"#utility.yul\":11410:11416   */\n      dup2\n        /* \"#utility.yul\":11397:11417   */\n      calldataload\n        /* \"#utility.yul\":11435:11514   */\n      tag_307\n        /* \"#utility.yul\":11510:11513   */\n      dup5\n        /* \"#utility.yul\":11502:11508   */\n      dup3\n        /* \"#utility.yul\":11495:11499   */\n      0x20\n        /* \"#utility.yul\":11487:11493   */\n      dup7\n        /* \"#utility.yul\":11483:11500   */\n      add\n        /* \"#utility.yul\":11435:11514   */\n      tag_162\n      jump\t// in\n    tag_307:\n        /* \"#utility.yul\":11426:11514   */\n      swap2\n      pop\n        /* \"#utility.yul\":11242:11520   */\n      pop\n        /* \"#utility.yul\":11180:11520   */\n      swap3\n      swap2\n      pop\n      pop\n      jump\t// out\n        /* \"#utility.yul\":11526:12035   */\n    tag_41:\n        /* \"#utility.yul\":11595:11601   */\n      0x00\n        /* \"#utility.yul\":11644:11646   */\n      0x20\n        /* \"#utility.yul\":11632:11641   */\n      dup3\n        /* \"#utility.yul\":11623:11630   */\n      dup5\n        /* \"#utility.yul\":11619:11642   */\n      sub\n        /* \"#utility.yul\":11615:11647   */\n      slt\n        /* \"#utility.yul\":11612:11731   */\n      iszero\n      tag_309\n      jumpi\n        /* \"#utility.yul\":11650:11729   */\n      tag_310\n      tag_124\n      jump\t// in\n    tag_310:\n        /* \"#utility.yul\":11612:11731   */\n    tag_309:\n        /* \"#utility.yul\":11798:11799   */\n      0x00\n        /* \"#utility.yul\":11787:11796   */\n      dup3\n        /* \"#utility.yul\":11783:11800   */\n      add\n        /* \"#utility.yul\":11770:11801   */\n      calldataload\n        /* \"#utility.yul\":11828:11846   */\n      0xffffffffffffffff\n        /* \"#utility.yul\":11820:11826   */\n      dup2\n        /* \"#utility.yul\":11817:11847   */\n      gt\n        /* \"#utility.yul\":11814:11931   */\n      iszero\n      tag_311\n      jumpi\n        /* \"#utility.yul\":11850:11929   */\n      tag_312\n      tag_125\n      jump\t// in\n    tag_312:\n        /* \"#utility.yul\":11814:11931   */\n    tag_311:\n        /* \"#utility.yul\":11955:12018   */\n      tag_313\n        /* \"#utility.yul\":12010:12017   */\n      dup5\n        /* \"#utility.yul\":12001:12007   */\n      dup3\n        /* \"#utility.yul\":11990:11999   */\n      dup6\n        /* \"#utility.yul\":11986:12008   */\n      add\n        /* \"#utility.yul\":11955:12018   */\n      tag_163\n      jump\t// in\n    tag_313:\n        /* \"#utility.yul\":11945:12018   */\n      swap2\n      pop\n        /* \"#utility.yul\":11741:12028   */\n      pop\n        /* \"#utility.yul\":11526:12035   */\n      swap3\n      swap2\n      pop\n      pop\n      jump\t// out\n        /* \"#utility.yul\":12041:12263   */\n    tag_46:\n        /* \"#utility.yul\":12134:12138   */\n      0x00\n        /* \"#utility.yul\":12172:12174   */\n      0x20\n        /* \"#utility.yul\":12161:12170   */\n      dup3\n        /* \"#utility.yul\":12157:12175   */\n      add\n        /* \"#utility.yul\":12149:12175   */\n      swap1\n      pop\n        /* \"#utility.yul\":12185:12256   */\n      tag_315\n        /* \"#utility.yul\":12253:12254   */\n      0x00\n        /* \"#utility.yul\":12242:12251   */\n      dup4\n        /* \"#utility.yul\":12238:12255   */\n      add\n        /* \"#utility.yul\":12229:12235   */\n      dup5\n        /* \"#utility.yul\":12185:12256   */\n      tag_134\n      jump\t// in\n    tag_315:\n        /* \"#utility.yul\":12041:12263   */\n      swap3\n      swap2\n      pop\n      pop\n      jump\t// out\n        /* \"#utility.yul\":12269:12598   */\n    tag_49:\n        /* \"#utility.yul\":12328:12334   */\n      0x00\n        /* \"#utility.yul\":12377:12379   */\n      0x20\n        /* \"#utility.yul\":12365:12374   */\n      dup3\n        /* \"#utility.yul\":12356:12363   */\n      dup5\n        /* \"#utility.yul\":12352:12375   */\n      sub\n        /* \"#utility.yul\":12348:12380   */\n      slt\n        /* \"#utility.yul\":12345:12464   */\n      iszero\n      tag_317\n      jumpi\n        /* \"#utility.yul\":12383:12462   */\n      tag_318\n      tag_124\n      jump\t// in\n    tag_318:\n        /* \"#utility.yul\":12345:12464   */\n    tag_317:\n        /* \"#utility.yul\":12503:12504   */\n      0x00\n        /* \"#utility.yul\":12528:12581   */\n      tag_319\n        /* \"#utility.yul\":12573:12580   */\n      dup5\n        /* \"#utility.yul\":12564:12570   */\n      dup3\n        /* \"#utility.yul\":12553:12562   */\n      dup6\n        /* \"#utility.yul\":12549:12571   */\n      add\n        /* \"#utility.yul\":12528:12581   */\n      tag_132\n      jump\t// in\n    tag_319:\n        /* \"#utility.yul\":12518:12581   */\n      swap2\n      pop\n        /* \"#utility.yul\":12474:12591   */\n      pop\n        /* \"#utility.yul\":12269:12598   */\n      swap3\n      swap2\n      pop\n      pop\n      jump\t// out\n        /* \"#utility.yul\":12656:13785   */\n    tag_164:\n        /* \"#utility.yul\":12767:12770   */\n      0x00\n        /* \"#utility.yul\":12803:12807   */\n      0xa0\n        /* \"#utility.yul\":12798:12801   */\n      dup4\n        /* \"#utility.yul\":12794:12808   */\n      add\n        /* \"#utility.yul\":12888:12892   */\n      0x00\n        /* \"#utility.yul\":12881:12886   */\n      dup4\n        /* \"#utility.yul\":12877:12893   */\n      add\n        /* \"#utility.yul\":12871:12894   */\n      mload\n        /* \"#utility.yul\":12907:12970   */\n      tag_321\n        /* \"#utility.yul\":12964:12968   */\n      0x00\n        /* \"#utility.yul\":12959:12962   */\n      dup7\n        /* \"#utility.yul\":12955:12969   */\n      add\n        /* \"#utility.yul\":12941:12953   */\n      dup3\n        /* \"#utility.yul\":12907:12970   */\n      tag_143\n      jump\t// in\n    tag_321:\n        /* \"#utility.yul\":12818:12980   */\n      pop\n        /* \"#utility.yul\":13064:13068   */\n      0x20\n        /* \"#utility.yul\":13057:13062   */\n      dup4\n        /* \"#utility.yul\":13053:13069   */\n      add\n        /* \"#utility.yul\":13047:13070   */\n      mload\n        /* \"#utility.yul\":13083:13146   */\n      tag_322\n        /* \"#utility.yul\":13140:13144   */\n      0x20\n        /* \"#utility.yul\":13135:13138   */\n      dup7\n        /* \"#utility.yul\":13131:13145   */\n      add\n        /* \"#utility.yul\":13117:13129   */\n      dup3\n        /* \"#utility.yul\":13083:13146   */\n      tag_144\n      jump\t// in\n    tag_322:\n        /* \"#utility.yul\":12990:13156   */\n      pop\n        /* \"#utility.yul\":13241:13245   */\n      0x40\n        /* \"#utility.yul\":13234:13239   */\n      dup4\n        /* \"#utility.yul\":13230:13246   */\n      add\n        /* \"#utility.yul\":13224:13247   */\n      mload\n        /* \"#utility.yul\":13294:13297   */\n      dup5\n        /* \"#utility.yul\":13288:13292   */\n      dup3\n        /* \"#utility.yul\":13284:13298   */\n      sub\n        /* \"#utility.yul\":13277:13281   */\n      0x40\n        /* \"#utility.yul\":13272:13275   */\n      dup7\n        /* \"#utility.yul\":13268:13282   */\n      add\n        /* \"#utility.yul\":13261:13299   */\n      mstore\n        /* \"#utility.yul\":13320:13393   */\n      tag_323\n        /* \"#utility.yul\":13388:13392   */\n      dup3\n        /* \"#utility.yul\":13374:13386   */\n      dup3\n        /* \"#utility.yul\":13320:13393   */\n      tag_146\n      jump\t// in\n    tag_323:\n        /* \"#utility.yul\":13312:13393   */\n      swap2\n      pop\n        /* \"#utility.yul\":13166:13404   */\n      pop\n        /* \"#utility.yul\":13491:13495   */\n      0x60\n        /* \"#utility.yul\":13484:13489   */\n      dup4\n        /* \"#utility.yul\":13480:13496   */\n      add\n        /* \"#utility.yul\":13474:13497   */\n      mload\n        /* \"#utility.yul\":13510:13573   */\n      tag_324\n        /* \"#utility.yul\":13567:13571   */\n      0x60\n        /* \"#utility.yul\":13562:13565   */\n      dup7\n        /* \"#utility.yul\":13558:13572   */\n      add\n        /* \"#utility.yul\":13544:13556   */\n      dup3\n        /* \"#utility.yul\":13510:13573   */\n      tag_143\n      jump\t// in\n    tag_324:\n        /* \"#utility.yul\":13414:13583   */\n      pop\n        /* \"#utility.yul\":13666:13670   */\n      0x80\n        /* \"#utility.yul\":13659:13664   */\n      dup4\n        /* \"#utility.yul\":13655:13671   */\n      add\n        /* \"#utility.yul\":13649:13672   */\n      mload\n        /* \"#utility.yul\":13685:13748   */\n      tag_325\n        /* \"#utility.yul\":13742:13746   */\n      0x80\n        /* \"#utility.yul\":13737:13740   */\n      dup7\n        /* \"#utility.yul\":13733:13747   */\n      add\n        /* \"#utility.yul\":13719:13731   */\n      dup3\n        /* \"#utility.yul\":13685:13748   */\n      tag_143\n      jump\t// in\n    tag_325:\n        /* \"#utility.yul\":13593:13758   */\n      pop\n        /* \"#utility.yul\":13775:13779   */\n      dup1\n        /* \"#utility.yul\":13768:13779   */\n      swap2\n      pop\n        /* \"#utility.yul\":12772:13785   */\n      pop\n        /* \"#utility.yul\":12656:13785   */\n      swap3\n      swap2\n      pop\n      pop\n      jump\t// out\n        /* \"#utility.yul\":13791:14148   */\n    tag_52:\n        /* \"#utility.yul\":13926:13930   */\n      0x00\n        /* \"#utility.yul\":13964:13966   */\n      0x20\n        /* \"#utility.yul\":13953:13962   */\n      dup3\n        /* \"#utility.yul\":13949:13967   */\n      add\n        /* \"#utility.yul\":13941:13967   */\n      swap1\n      pop\n        /* \"#utility.yul\":14013:14022   */\n      dup2\n        /* \"#utility.yul\":14007:14011   */\n      dup2\n        /* \"#utility.yul\":14003:14023   */\n      sub\n        /* \"#utility.yul\":13999:14000   */\n      0x00\n        /* \"#utility.yul\":13988:13997   */\n      dup4\n        /* \"#utility.yul\":13984:14001   */\n      add\n        /* \"#utility.yul\":13977:14024   */\n      mstore\n        /* \"#utility.yul\":14041:14141   */\n      tag_327\n        /* \"#utility.yul\":14136:14140   */\n      dup2\n        /* \"#utility.yul\":14127:14133   */\n      dup5\n        /* \"#utility.yul\":14041:14141   */\n      tag_164\n      jump\t// in\n    tag_327:\n        /* \"#utility.yul\":14033:14141   */\n      swap1\n      pop\n        /* \"#utility.yul\":13791:14148   */\n      swap3\n      swap2\n      pop\n      pop\n      jump\t// out\n        /* \"#utility.yul\":14154:14334   */\n    tag_165:\n        /* \"#utility.yul\":14202:14279   */\n      0x4e487b7100000000000000000000000000000000000000000000000000000000\n        /* \"#utility.yul\":14199:14200   */\n      0x00\n        /* \"#utility.yul\":14192:14280   */\n      mstore\n        /* \"#utility.yul\":14299:14303   */\n      0x22\n        /* \"#utility.yul\":14296:14297   */\n      0x04\n        /* \"#utility.yul\":14289:14304   */\n      mstore\n        /* \"#utility.yul\":14323:14327   */\n      0x24\n        /* \"#utility.yul\":14320:14321   */\n      0x00\n        /* \"#utility.yul\":14313:14328   */\n      revert\n        /* \"#utility.yul\":14340:14660   */\n    tag_56:\n        /* \"#utility.yul\":14384:14390   */\n      0x00\n        /* \"#utility.yul\":14421:14422   */\n      0x02\n        /* \"#utility.yul\":14415:14419   */\n      dup3\n        /* \"#utility.yul\":14411:14423   */\n      div\n        /* \"#utility.yul\":14401:14423   */\n      swap1\n      pop\n        /* \"#utility.yul\":14468:14469   */\n      0x01\n        /* \"#utility.yul\":14462:14466   */\n      dup3\n        /* \"#utility.yul\":14458:14470   */\n      and\n        /* \"#utility.yul\":14489:14507   */\n      dup1\n        /* \"#utility.yul\":14479:14560   */\n      tag_330\n      jumpi\n        /* \"#utility.yul\":14545:14549   */\n      0x7f\n        /* \"#utility.yul\":14537:14543   */\n      dup3\n        /* \"#utility.yul\":14533:14550   */\n      and\n        /* \"#utility.yul\":14523:14550   */\n      swap2\n      pop\n        /* \"#utility.yul\":14479:14560   */\n    tag_330:\n        /* \"#utility.yul\":14607:14609   */\n      0x20\n        /* \"#utility.yul\":14599:14605   */\n      dup3\n        /* \"#utility.yul\":14596:14610   */\n      lt\n        /* \"#utility.yul\":14576:14594   */\n      dup2\n        /* \"#utility.yul\":14573:14611   */\n      sub\n        /* \"#utility.yul\":14570:14654   */\n      tag_331\n      jumpi\n        /* \"#utility.yul\":14626:14644   */\n      tag_332\n      tag_165\n      jump\t// in\n    tag_332:\n        /* \"#utility.yul\":14570:14654   */\n    tag_331:\n        /* \"#utility.yul\":14391:14660   */\n      pop\n        /* \"#utility.yul\":14340:14660   */\n      swap2\n      swap1\n      pop\n      jump\t// out\n        /* \"#utility.yul\":14666:14846   */\n    tag_73:\n        /* \"#utility.yul\":14714:14791   */\n      0x4e487b7100000000000000000000000000000000000000000000000000000000\n        /* \"#utility.yul\":14711:14712   */\n      0x00\n        /* \"#utility.yul\":14704:14792   */\n      mstore\n        /* \"#utility.yul\":14811:14815   */\n      0x32\n        /* \"#utility.yul\":14808:14809   */\n      0x04\n        /* \"#utility.yul\":14801:14816   */\n      mstore\n        /* \"#utility.yul\":14835:14839   */\n      0x24\n        /* \"#utility.yul\":14832:14833   */\n      0x00\n        /* \"#utility.yul\":14825:14840   */\n      revert\n        /* \"#utility.yul\":14852:15033   */\n    tag_166:\n        /* \"#utility.yul\":14992:15025   */\n      0x747765657420646f6573206e6f7420657869737420616674657220616c6c2e00\n        /* \"#utility.yul\":14988:14989   */\n      0x00\n        /* \"#utility.yul\":14980:14986   */\n      dup3\n        /* \"#utility.yul\":14976:14990   */\n      add\n        /* \"#utility.yul\":14969:15026   */\n      mstore\n        /* \"#utility.yul\":14852:15033   */\n      pop\n      jump\t// out\n        /* \"#utility.yul\":15039:15405   */\n    tag_167:\n        /* \"#utility.yul\":15181:15184   */\n      0x00\n        /* \"#utility.yul\":15202:15269   */\n      tag_336\n        /* \"#utility.yul\":15266:15268   */\n      0x1f\n        /* \"#utility.yul\":15261:15264   */\n      dup4\n        /* \"#utility.yul\":15202:15269   */\n      tag_136\n      jump\t// in\n    tag_336:\n        /* \"#utility.yul\":15195:15269   */\n      swap2\n      pop\n        /* \"#utility.yul\":15278:15371   */\n      tag_337\n        /* \"#utility.yul\":15367:15370   */\n      dup3\n        /* \"#utility.yul\":15278:15371   */\n      tag_166\n      jump\t// in\n    tag_337:\n        /* \"#utility.yul\":15396:15398   */\n      0x20\n        /* \"#utility.yul\":15391:15394   */\n      dup3\n        /* \"#utility.yul\":15387:15399   */\n      add\n        /* \"#utility.yul\":15380:15399   */\n      swap1\n      pop\n        /* \"#utility.yul\":15039:15405   */\n      swap2\n      swap1\n      pop\n      jump\t// out\n        /* \"#utility.yul\":15411:15830   */\n    tag_77:\n        /* \"#utility.yul\":15577:15581   */\n      0x00\n        /* \"#utility.yul\":15615:15617   */\n      0x20\n        /* \"#utility.yul\":15604:15613   */\n      dup3\n        /* \"#utility.yul\":15600:15618   */\n      add\n        /* \"#utility.yul\":15592:15618   */\n      swap1\n      pop\n        /* \"#utility.yul\":15664:15673   */\n      dup2\n        /* \"#utility.yul\":15658:15662   */\n      dup2\n        /* \"#utility.yul\":15654:15674   */\n      sub\n        /* \"#utility.yul\":15650:15651   */\n      0x00\n        /* \"#utility.yul\":15639:15648   */\n      dup4\n        /* \"#utility.yul\":15635:15652   */\n      add\n        /* \"#utility.yul\":15628:15675   */\n      mstore\n        /* \"#utility.yul\":15692:15823   */\n      tag_339\n        /* \"#utility.yul\":15818:15822   */\n      dup2\n        /* \"#utility.yul\":15692:15823   */\n      tag_167\n      jump\t// in\n    tag_339:\n        /* \"#utility.yul\":15684:15823   */\n      swap1\n      pop\n        /* \"#utility.yul\":15411:15830   */\n      swap2\n      swap1\n      pop\n      jump\t// out\n        /* \"#utility.yul\":15836:16064   */\n    tag_168:\n        /* \"#utility.yul\":15976:16010   */\n      0x796f752063616e277420756e6c696b6520612074776565742074686174206861\n        /* \"#utility.yul\":15972:15973   */\n      0x00\n        /* \"#utility.yul\":15964:15970   */\n      dup3\n        /* \"#utility.yul\":15960:15974   */\n      add\n        /* \"#utility.yul\":15953:16011   */\n      mstore\n        /* \"#utility.yul\":16045:16056   */\n      0x732030206c696b65730000000000000000000000000000000000000000000000\n        /* \"#utility.yul\":16040:16042   */\n      0x20\n        /* \"#utility.yul\":16032:16038   */\n      dup3\n        /* \"#utility.yul\":16028:16043   */\n      add\n        /* \"#utility.yul\":16021:16057   */\n      mstore\n        /* \"#utility.yul\":15836:16064   */\n      pop\n      jump\t// out\n        /* \"#utility.yul\":16070:16436   */\n    tag_169:\n        /* \"#utility.yul\":16212:16215   */\n      0x00\n        /* \"#utility.yul\":16233:16300   */\n      tag_342\n        /* \"#utility.yul\":16297:16299   */\n      0x29\n        /* \"#utility.yul\":16292:16295   */\n      dup4\n        /* \"#utility.yul\":16233:16300   */\n      tag_136\n      jump\t// in\n    tag_342:\n        /* \"#utility.yul\":16226:16300   */\n      swap2\n      pop\n        /* \"#utility.yul\":16309:16402   */\n      tag_343\n        /* \"#utility.yul\":16398:16401   */\n      dup3\n        /* \"#utility.yul\":16309:16402   */\n      tag_168\n      jump\t// in\n    tag_343:\n        /* \"#utility.yul\":16427:16429   */\n      0x40\n        /* \"#utility.yul\":16422:16425   */\n      dup3\n        /* \"#utility.yul\":16418:16430   */\n      add\n        /* \"#utility.yul\":16411:16430   */\n      swap1\n      pop\n        /* \"#utility.yul\":16070:16436   */\n      swap2\n      swap1\n      pop\n      jump\t// out\n        /* \"#utility.yul\":16442:16861   */\n    tag_83:\n        /* \"#utility.yul\":16608:16612   */\n      0x00\n        /* \"#utility.yul\":16646:16648   */\n      0x20\n        /* \"#utility.yul\":16635:16644   */\n      dup3\n        /* \"#utility.yul\":16631:16649   */\n      add\n        /* \"#utility.yul\":16623:16649   */\n      swap1\n      pop\n        /* \"#utility.yul\":16695:16704   */\n      dup2\n        /* \"#utility.yul\":16689:16693   */\n      dup2\n        /* \"#utility.yul\":16685:16705   */\n      sub\n        /* \"#utility.yul\":16681:16682   */\n      0x00\n        /* \"#utility.yul\":16670:16679   */\n      dup4\n        /* \"#utility.yul\":16666:16683   */\n      add\n        /* \"#utility.yul\":16659:16706   */\n      mstore\n        /* \"#utility.yul\":16723:16854   */\n      tag_345\n        /* \"#utility.yul\":16849:16853   */\n      dup2\n        /* \"#utility.yul\":16723:16854   */\n      tag_169\n      jump\t// in\n    tag_345:\n        /* \"#utility.yul\":16715:16854   */\n      swap1\n      pop\n        /* \"#utility.yul\":16442:16861   */\n      swap2\n      swap1\n      pop\n      jump\t// out\n        /* \"#utility.yul\":16867:17047   */\n    tag_170:\n        /* \"#utility.yul\":16915:16992   */\n      0x4e487b7100000000000000000000000000000000000000000000000000000000\n        /* \"#utility.yul\":16912:16913   */\n      0x00\n        /* \"#utility.yul\":16905:16993   */\n      mstore\n        /* \"#utility.yul\":17012:17016   */\n      0x11\n        /* \"#utility.yul\":17009:17010   */\n      0x04\n        /* \"#utility.yul\":17002:17017   */\n      mstore\n        /* \"#utility.yul\":17036:17040   */\n      0x24\n        /* \"#utility.yul\":17033:17034   */\n      0x00\n        /* \"#utility.yul\":17026:17041   */\n      revert\n        /* \"#utility.yul\":17053:17224   */\n    tag_88:\n        /* \"#utility.yul\":17092:17095   */\n      0x00\n        /* \"#utility.yul\":17115:17139   */\n      tag_348\n        /* \"#utility.yul\":17133:17138   */\n      dup3\n        /* \"#utility.yul\":17115:17139   */\n      tag_130\n      jump\t// in\n    tag_348:\n        /* \"#utility.yul\":17106:17139   */\n      swap2\n      pop\n        /* \"#utility.yul\":17161:17165   */\n      0x00\n        /* \"#utility.yul\":17154:17159   */\n      dup3\n        /* \"#utility.yul\":17151:17166   */\n      sub\n        /* \"#utility.yul\":17148:17189   */\n      tag_349\n      jumpi\n        /* \"#utility.yul\":17169:17187   */\n      tag_350\n      tag_170\n      jump\t// in\n    tag_350:\n        /* \"#utility.yul\":17148:17189   */\n    tag_349:\n        /* \"#utility.yul\":17216:17217   */\n      0x01\n        /* \"#utility.yul\":17209:17214   */\n      dup3\n        /* \"#utility.yul\":17205:17218   */\n      sub\n        /* \"#utility.yul\":17198:17218   */\n      swap1\n      pop\n        /* \"#utility.yul\":17053:17224   */\n      swap2\n      swap1\n      pop\n      jump\t// out\n        /* \"#utility.yul\":17230:17402   */\n    tag_171:\n        /* \"#utility.yul\":17370:17394   */\n      0x594f5520415245204e4f5420544845204f574e45522100000000000000000000\n        /* \"#utility.yul\":17366:17367   */\n      0x00\n        /* \"#utility.yul\":17358:17364   */\n      dup3\n        /* \"#utility.yul\":17354:17368   */\n      add\n        /* \"#utility.yul\":17347:17395   */\n      mstore\n        /* \"#utility.yul\":17230:17402   */\n      pop\n      jump\t// out\n        /* \"#utility.yul\":17408:17774   */\n    tag_172:\n        /* \"#utility.yul\":17550:17553   */\n      0x00\n        /* \"#utility.yul\":17571:17638   */\n      tag_353\n        /* \"#utility.yul\":17635:17637   */\n      0x16\n        /* \"#utility.yul\":17630:17633   */\n      dup4\n        /* \"#utility.yul\":17571:17638   */\n      tag_136\n      jump\t// in\n    tag_353:\n        /* \"#utility.yul\":17564:17638   */\n      swap2\n      pop\n        /* \"#utility.yul\":17647:17740   */\n      tag_354\n        /* \"#utility.yul\":17736:17739   */\n      dup3\n        /* \"#utility.yul\":17647:17740   */\n      tag_171\n      jump\t// in\n    tag_354:\n        /* \"#utility.yul\":17765:17767   */\n      0x20\n        /* \"#utility.yul\":17760:17763   */\n      dup3\n        /* \"#utility.yul\":17756:17768   */\n      add\n        /* \"#utility.yul\":17749:17768   */\n      swap1\n      pop\n        /* \"#utility.yul\":17408:17774   */\n      swap2\n      swap1\n      pop\n      jump\t// out\n        /* \"#utility.yul\":17780:18199   */\n    tag_92:\n        /* \"#utility.yul\":17946:17950   */\n      0x00\n        /* \"#utility.yul\":17984:17986   */\n      0x20\n        /* \"#utility.yul\":17973:17982   */\n      dup3\n        /* \"#utility.yul\":17969:17987   */\n      add\n        /* \"#utility.yul\":17961:17987   */\n      swap1\n      pop\n        /* \"#utility.yul\":18033:18042   */\n      dup2\n        /* \"#utility.yul\":18027:18031   */\n      dup2\n        /* \"#utility.yul\":18023:18043   */\n      sub\n        /* \"#utility.yul\":18019:18020   */\n      0x00\n        /* \"#utility.yul\":18008:18017   */\n      dup4\n        /* \"#utility.yul\":18004:18021   */\n      add\n        /* \"#utility.yul\":17997:18044   */\n      mstore\n        /* \"#utility.yul\":18061:18192   */\n      tag_356\n        /* \"#utility.yul\":18187:18191   */\n      dup2\n        /* \"#utility.yul\":18061:18192   */\n      tag_172\n      jump\t// in\n    tag_356:\n        /* \"#utility.yul\":18053:18192   */\n      swap1\n      pop\n        /* \"#utility.yul\":17780:18199   */\n      swap2\n      swap1\n      pop\n      jump\t// out\n        /* \"#utility.yul\":18205:18438   */\n    tag_104:\n        /* \"#utility.yul\":18244:18247   */\n      0x00\n        /* \"#utility.yul\":18267:18291   */\n      tag_358\n        /* \"#utility.yul\":18285:18290   */\n      dup3\n        /* \"#utility.yul\":18267:18291   */\n      tag_130\n      jump\t// in\n    tag_358:\n        /* \"#utility.yul\":18258:18291   */\n      swap2\n      pop\n        /* \"#utility.yul\":18313:18379   */\n      0xffffffffffffffffffffffffffffffffffffffffffffffffffffffffffffffff\n        /* \"#utility.yul\":18306:18311   */\n      dup3\n        /* \"#utility.yul\":18303:18380   */\n      sub\n        /* \"#utility.yul\":18300:18403   */\n      tag_359\n      jumpi\n        /* \"#utility.yul\":18383:18401   */\n      tag_360\n      tag_170\n      jump\t// in\n    tag_360:\n        /* \"#utility.yul\":18300:18403   */\n    tag_359:\n        /* \"#utility.yul\":18430:18431   */\n      0x01\n        /* \"#utility.yul\":18423:18428   */\n      dup3\n        /* \"#utility.yul\":18419:18432   */\n      add\n        /* \"#utility.yul\":18412:18432   */\n      swap1\n      pop\n        /* \"#utility.yul\":18205:18438   */\n      swap2\n      swap1\n      pop\n      jump\t// out\n        /* \"#utility.yul\":18444:18616   */\n    tag_173:\n        /* \"#utility.yul\":18584:18608   */\n      0x547765657420697320746f6f206c6f6e672062726f2100000000000000000000\n        /* \"#utility.yul\":18580:18581   */\n      0x00\n        /* \"#utility.yul\":18572:18578   */\n      dup3\n        /* \"#utility.yul\":18568:18582   */\n      add\n        /* \"#utility.yul\":18561:18609   */\n      mstore\n        /* \"#utility.yul\":18444:18616   */\n      pop\n      jump\t// out\n        /* \"#utility.yul\":18622:18988   */\n    tag_174:\n        /* \"#utility.yul\":18764:18767   */\n      0x00\n        /* \"#utility.yul\":18785:18852   */\n      tag_363\n        /* \"#utility.yul\":18849:18851   */\n      0x16\n        /* \"#utility.yul\":18844:18847   */\n      dup4\n        /* \"#utility.yul\":18785:18852   */\n      tag_136\n      jump\t// in\n    tag_363:\n        /* \"#utility.yul\":18778:18852   */\n      swap2\n      pop\n        /* \"#utility.yul\":18861:18954   */\n      tag_364\n        /* \"#utility.yul\":18950:18953   */\n      dup3\n        /* \"#utility.yul\":18861:18954   */\n      tag_173\n      jump\t// in\n    tag_364:\n        /* \"#utility.yul\":18979:18981   */\n      0x20\n        /* \"#utility.yul\":18974:18977   */\n      dup3\n        /* \"#utility.yul\":18970:18982   */\n      add\n        /* \"#utility.yul\":18963:18982   */\n      swap1\n      pop\n        /* \"#utility.yul\":18622:18988   */\n      swap2\n      swap1\n      pop\n      jump\t// out\n        /* \"#utility.yul\":18994:19413   */\n    tag_108:\n        /* \"#utility.yul\":19160:19164   */\n      0x00\n        /* \"#utility.yul\":19198:19200   */\n      0x20\n        /* \"#utility.yul\":19187:19196   */\n      dup3\n        /* \"#utility.yul\":19183:19201   */\n      add\n        /* \"#utility.yul\":19175:19201   */\n      swap1\n      pop\n        /* \"#utility.yul\":19247:19256   */\n      dup2\n        /* \"#utility.yul\":19241:19245   */\n      dup2\n        /* \"#utility.yul\":19237:19257   */\n      sub\n        /* \"#utility.yul\":19233:19234   */\n      0x00\n        /* \"#utility.yul\":19222:19231   */\n      dup4\n        /* \"#utility.yul\":19218:19235   */\n      add\n        /* \"#utility.yul\":19211:19258   */\n      mstore\n        /* \"#utility.yul\":19275:19406   */\n      tag_366\n        /* \"#utility.yul\":19401:19405   */\n      dup2\n        /* \"#utility.yul\":19275:19406   */\n      tag_174\n      jump\t// in\n    tag_366:\n        /* \"#utility.yul\":19267:19406   */\n      swap1\n      pop\n        /* \"#utility.yul\":18994:19413   */\n      swap2\n      swap1\n      pop\n      jump\t// out\n        /* \"#utility.yul\":19419:19560   */\n    tag_175:\n        /* \"#utility.yul\":19468:19472   */\n      0x00\n        /* \"#utility.yul\":19491:19494   */\n      dup2\n        /* \"#utility.yul\":19483:19494   */\n      swap1\n      pop\n        /* \"#utility.yul\":19514:19517   */\n      dup2\n        /* \"#utility.yul\":19511:19512   */\n      0x00\n        /* \"#utility.yul\":19504:19518   */\n      mstore\n        /* \"#utility.yul\":19548:19552   */\n      0x20\n        /* \"#utility.yul\":19545:19546   */\n      0x00\n        /* \"#utility.yul\":19535:19553   */\n      keccak256\n        /* \"#utility.yul\":19527:19553   */\n      swap1\n      pop\n        /* \"#utility.yul\":19419:19560   */\n      swap2\n      swap1\n      pop\n      jump\t// out\n        /* \"#utility.yul\":19566:19659   */\n    tag_176:\n        /* \"#utility.yul\":19603:19609   */\n      0x00\n        /* \"#utility.yul\":19650:19652   */\n      0x20\n        /* \"#utility.yul\":19645:19647   */\n      0x1f\n        /* \"#utility.yul\":19638:19643   */\n      dup4\n        /* \"#utility.yul\":19634:19648   */\n      add\n        /* \"#utility.yul\":19630:19653   */\n      div\n        /* \"#utility.yul\":19620:19653   */\n      swap1\n      pop\n        /* \"#utility.yul\":19566:19659   */\n      swap2\n      swap1\n      pop\n      jump\t// out\n        /* \"#utility.yul\":19665:19772   */\n    tag_177:\n        /* \"#utility.yul\":19709:19717   */\n      0x00\n        /* \"#utility.yul\":19759:19764   */\n      dup3\n        /* \"#utility.yul\":19753:19757   */\n      dup3\n        /* \"#utility.yul\":19749:19765   */\n      shl\n        /* \"#utility.yul\":19728:19765   */\n      swap1\n      pop\n        /* \"#utility.yul\":19665:19772   */\n      swap3\n      swap2\n      pop\n      pop\n      jump\t// out\n        /* \"#utility.yul\":19778:20171   */\n    tag_178:\n        /* \"#utility.yul\":19847:19853   */\n      0x00\n        /* \"#utility.yul\":19897:19898   */\n      0x08\n        /* \"#utility.yul\":19885:19895   */\n      dup4\n        /* \"#utility.yul\":19881:19899   */\n      mul\n        /* \"#utility.yul\":19920:20017   */\n      tag_371\n        /* \"#utility.yul\":19950:20016   */\n      0xffffffffffffffffffffffffffffffffffffffffffffffffffffffffffffffff\n        /* \"#utility.yul\":19939:19948   */\n      dup3\n        /* \"#utility.yul\":19920:20017   */\n      tag_177\n      jump\t// in\n    tag_371:\n        /* \"#utility.yul\":20038:20077   */\n      tag_372\n        /* \"#utility.yul\":20068:20076   */\n      dup7\n        /* \"#utility.yul\":20057:20066   */\n      dup4\n        /* \"#utility.yul\":20038:20077   */\n      tag_177\n      jump\t// in\n    tag_372:\n        /* \"#utility.yul\":20026:20077   */\n      swap6\n      pop\n        /* \"#utility.yul\":20110:20114   */\n      dup1\n        /* \"#utility.yul\":20106:20115   */\n      not\n        /* \"#utility.yul\":20099:20104   */\n      dup5\n        /* \"#utility.yul\":20095:20116   */\n      and\n        /* \"#utility.yul\":20086:20116   */\n      swap4\n      pop\n        /* \"#utility.yul\":20159:20163   */\n      dup1\n        /* \"#utility.yul\":20149:20157   */\n      dup7\n        /* \"#utility.yul\":20145:20164   */\n      and\n        /* \"#utility.yul\":20138:20143   */\n      dup5\n        /* \"#utility.yul\":20135:20165   */\n      or\n        /* \"#utility.yul\":20125:20165   */\n      swap3\n      pop\n        /* \"#utility.yul\":19854:20171   */\n      pop\n      pop\n        /* \"#utility.yul\":19778:20171   */\n      swap4\n      swap3\n      pop\n      pop\n      pop\n      jump\t// out\n        /* \"#utility.yul\":20177:20237   */\n    tag_179:\n        /* \"#utility.yul\":20205:20208   */\n      0x00\n        /* \"#utility.yul\":20226:20231   */\n      dup2\n        /* \"#utility.yul\":20219:20231   */\n      swap1\n      pop\n        /* \"#utility.yul\":20177:20237   */\n      swap2\n      swap1\n      pop\n      jump\t// out\n        /* \"#utility.yul\":20243:20385   */\n    tag_180:\n        /* \"#utility.yul\":20293:20302   */\n      0x00\n        /* \"#utility.yul\":20326:20379   */\n      tag_375\n        /* \"#utility.yul\":20344:20378   */\n      tag_376\n        /* \"#utility.yul\":20353:20377   */\n      tag_377\n        /* \"#utility.yul\":20371:20376   */\n      dup5\n        /* \"#utility.yul\":20353:20377   */\n      tag_130\n      jump\t// in\n    tag_377:\n        /* \"#utility.yul\":20344:20378   */\n      tag_179\n      jump\t// in\n    tag_376:\n        /* \"#utility.yul\":20326:20379   */\n      tag_130\n      jump\t// in\n    tag_375:\n        /* \"#utility.yul\":20313:20379   */\n      swap1\n      pop\n        /* \"#utility.yul\":20243:20385   */\n      swap2\n      swap1\n      pop\n      jump\t// out\n        /* \"#utility.yul\":20391:20466   */\n    tag_181:\n        /* \"#utility.yul\":20434:20437   */\n      0x00\n        /* \"#utility.yul\":20455:20460   */\n      dup2\n        /* \"#utility.yul\":20448:20460   */\n      swap1\n      pop\n        /* \"#utility.yul\":20391:20466   */\n      swap2\n      swap1\n      pop\n      jump\t// out\n        /* \"#utility.yul\":20472:20741   */\n    tag_182:\n        /* \"#utility.yul\":20582:20621   */\n      tag_380\n        /* \"#utility.yul\":20613:20620   */\n      dup4\n        /* \"#utility.yul\":20582:20621   */\n      tag_180\n      jump\t// in\n    tag_380:\n        /* \"#utility.yul\":20643:20734   */\n      tag_381\n        /* \"#utility.yul\":20692:20733   */\n      tag_382\n        /* \"#utility.yul\":20716:20732   */\n      dup3\n        /* \"#utility.yul\":20692:20733   */\n      tag_181\n      jump\t// in\n    tag_382:\n        /* \"#utility.yul\":20684:20690   */\n      dup5\n        /* \"#utility.yul\":20677:20681   */\n      dup5\n        /* \"#utility.yul\":20671:20682   */\n      sload\n        /* \"#utility.yul\":20643:20734   */\n      tag_178\n      jump\t// in\n    tag_381:\n        /* \"#utility.yul\":20637:20641   */\n      dup3\n        /* \"#utility.yul\":20630:20735   */\n      sstore\n        /* \"#utility.yul\":20548:20741   */\n      pop\n        /* \"#utility.yul\":20472:20741   */\n      pop\n      pop\n      pop\n      jump\t// out\n        /* \"#utility.yul\":20747:20820   */\n    tag_183:\n        /* \"#utility.yul\":20792:20795   */\n      0x00\n        /* \"#utility.yul\":20813:20814   */\n      0x00\n        /* \"#utility.yul\":20806:20814   */\n      swap1\n      pop\n        /* \"#utility.yul\":20747:20820   */\n      swap1\n      jump\t// out\n        /* \"#utility.yul\":20826:21015   */\n    tag_184:\n        /* \"#utility.yul\":20903:20935   */\n      tag_385\n      tag_183\n      jump\t// in\n    tag_385:\n        /* \"#utility.yul\":20944:21009   */\n      tag_386\n        /* \"#utility.yul\":21002:21008   */\n      dup2\n        /* \"#utility.yul\":20994:21000   */\n      dup5\n        /* \"#utility.yul\":20988:20992   */\n      dup5\n        /* \"#utility.yul\":20944:21009   */\n      tag_182\n      jump\t// in\n    tag_386:\n        /* \"#utility.yul\":20879:21015   */\n      pop\n        /* \"#utility.yul\":20826:21015   */\n      pop\n      pop\n      jump\t// out\n        /* \"#utility.yul\":21021:21207   */\n    tag_185:\n        /* \"#utility.yul\":21081:21201   */\n    tag_388:\n        /* \"#utility.yul\":21098:21101   */\n      dup2\n        /* \"#utility.yul\":21091:21096   */\n      dup2\n        /* \"#utility.yul\":21088:21102   */\n      lt\n        /* \"#utility.yul\":21081:21201   */\n      iszero\n      tag_390\n      jumpi\n        /* \"#utility.yul\":21152:21191   */\n      tag_391\n        /* \"#utility.yul\":21189:21190   */\n      0x00\n        /* \"#utility.yul\":21182:21187   */\n      dup3\n        /* \"#utility.yul\":21152:21191   */\n      tag_184\n      jump\t// in\n    tag_391:\n        /* \"#utility.yul\":21125:21126   */\n      0x01\n        /* \"#utility.yul\":21118:21123   */\n      dup2\n        /* \"#utility.yul\":21114:21127   */\n      add\n        /* \"#utility.yul\":21105:21127   */\n      swap1\n      pop\n        /* \"#utility.yul\":21081:21201   */\n      jump(tag_388)\n    tag_390:\n        /* \"#utility.yul\":21021:21207   */\n      pop\n      pop\n      jump\t// out\n        /* \"#utility.yul\":21213:21756   */\n    tag_186:\n        /* \"#utility.yul\":21314:21316   */\n      0x1f\n        /* \"#utility.yul\":21309:21312   */\n      dup3\n        /* \"#utility.yul\":21306:21317   */\n      gt\n        /* \"#utility.yul\":21303:21749   */\n      iszero\n      tag_393\n      jumpi\n        /* \"#utility.yul\":21348:21386   */\n      tag_394\n        /* \"#utility.yul\":21380:21385   */\n      dup2\n        /* \"#utility.yul\":21348:21386   */\n      tag_175\n      jump\t// in\n    tag_394:\n        /* \"#utility.yul\":21432:21461   */\n      tag_395\n        /* \"#utility.yul\":21450:21460   */\n      dup5\n        /* \"#utility.yul\":21432:21461   */\n      tag_176\n      jump\t// in\n    tag_395:\n        /* \"#utility.yul\":21422:21430   */\n      dup2\n        /* \"#utility.yul\":21418:21462   */\n      add\n        /* \"#utility.yul\":21615:21617   */\n      0x20\n        /* \"#utility.yul\":21603:21613   */\n      dup6\n        /* \"#utility.yul\":21600:21618   */\n      lt\n        /* \"#utility.yul\":21597:21646   */\n      iszero\n      tag_396\n      jumpi\n        /* \"#utility.yul\":21636:21644   */\n      dup2\n        /* \"#utility.yul\":21621:21644   */\n      swap1\n      pop\n        /* \"#utility.yul\":21597:21646   */\n    tag_396:\n        /* \"#utility.yul\":21659:21739   */\n      tag_397\n        /* \"#utility.yul\":21715:21737   */\n      tag_398\n        /* \"#utility.yul\":21733:21736   */\n      dup6\n        /* \"#utility.yul\":21715:21737   */\n      tag_176\n      jump\t// in\n    tag_398:\n        /* \"#utility.yul\":21705:21713   */\n      dup4\n        /* \"#utility.yul\":21701:21738   */\n      add\n        /* \"#utility.yul\":21688:21699   */\n      dup3\n        /* \"#utility.yul\":21659:21739   */\n      tag_185\n      jump\t// in\n    tag_397:\n        /* \"#utility.yul\":21318:21749   */\n      pop\n      pop\n        /* \"#utility.yul\":21303:21749   */\n    tag_393:\n        /* \"#utility.yul\":21213:21756   */\n      pop\n      pop\n      pop\n      jump\t// out\n        /* \"#utility.yul\":21762:21879   */\n    tag_187:\n        /* \"#utility.yul\":21816:21824   */\n      0x00\n        /* \"#utility.yul\":21866:21871   */\n      dup3\n        /* \"#utility.yul\":21860:21864   */\n      dup3\n        /* \"#utility.yul\":21856:21872   */\n      shr\n        /* \"#utility.yul\":21835:21872   */\n      swap1\n      pop\n        /* \"#utility.yul\":21762:21879   */\n      swap3\n      swap2\n      pop\n      pop\n      jump\t// out\n        /* \"#utility.yul\":21885:22054   */\n    tag_188:\n        /* \"#utility.yul\":21929:21935   */\n      0x00\n        /* \"#utility.yul\":21962:22013   */\n      tag_401\n        /* \"#utility.yul\":22010:22011   */\n      0x00\n        /* \"#utility.yul\":22006:22012   */\n      not\n        /* \"#utility.yul\":21998:22003   */\n      dup5\n        /* \"#utility.yul\":21995:21996   */\n      0x08\n        /* \"#utility.yul\":21991:22004   */\n      mul\n        /* \"#utility.yul\":21962:22013   */\n      tag_187\n      jump\t// in\n    tag_401:\n        /* \"#utility.yul\":21958:22014   */\n      not\n        /* \"#utility.yul\":22043:22047   */\n      dup1\n        /* \"#utility.yul\":22037:22041   */\n      dup4\n        /* \"#utility.yul\":22033:22048   */\n      and\n        /* \"#utility.yul\":22023:22048   */\n      swap2\n      pop\n        /* \"#utility.yul\":21936:22054   */\n      pop\n        /* \"#utility.yul\":21885:22054   */\n      swap3\n      swap2\n      pop\n      pop\n      jump\t// out\n        /* \"#utility.yul\":22059:22354   */\n    tag_189:\n        /* \"#utility.yul\":22135:22139   */\n      0x00\n        /* \"#utility.yul\":22281:22310   */\n      tag_403\n        /* \"#utility.yul\":22306:22309   */\n      dup4\n        /* \"#utility.yul\":22300:22304   */\n      dup4\n        /* \"#utility.yul\":22281:22310   */\n      tag_188\n      jump\t// in\n    tag_403:\n        /* \"#utility.yul\":22273:22310   */\n      swap2\n      pop\n        /* \"#utility.yul\":22343:22346   */\n      dup3\n        /* \"#utility.yul\":22340:22341   */\n      0x02\n        /* \"#utility.yul\":22336:22347   */\n      mul\n        /* \"#utility.yul\":22330:22334   */\n      dup3\n        /* \"#utility.yul\":22327:22348   */\n      or\n        /* \"#utility.yul\":22319:22348   */\n      swap1\n      pop\n        /* \"#utility.yul\":22059:22354   */\n      swap3\n      swap2\n      pop\n      pop\n      jump\t// out\n        /* \"#utility.yul\":22359:23754   */\n    tag_111:\n        /* \"#utility.yul\":22476:22513   */\n      tag_405\n        /* \"#utility.yul\":22509:22512   */\n      dup3\n        /* \"#utility.yul\":22476:22513   */\n      tag_135\n      jump\t// in\n    tag_405:\n        /* \"#utility.yul\":22578:22596   */\n      0xffffffffffffffff\n        /* \"#utility.yul\":22570:22576   */\n      dup2\n        /* \"#utility.yul\":22567:22597   */\n      gt\n        /* \"#utility.yul\":22564:22620   */\n      iszero\n      tag_406\n      jumpi\n        /* \"#utility.yul\":22600:22618   */\n      tag_407\n      tag_157\n      jump\t// in\n    tag_407:\n        /* \"#utility.yul\":22564:22620   */\n    tag_406:\n        /* \"#utility.yul\":22644:22682   */\n      tag_408\n        /* \"#utility.yul\":22676:22680   */\n      dup3\n        /* \"#utility.yul\":22670:22681   */\n      sload\n        /* \"#utility.yul\":22644:22682   */\n      tag_56\n      jump\t// in\n    tag_408:\n        /* \"#utility.yul\":22729:22796   */\n      tag_409\n        /* \"#utility.yul\":22789:22795   */\n      dup3\n        /* \"#utility.yul\":22781:22787   */\n      dup3\n        /* \"#utility.yul\":22775:22779   */\n      dup6\n        /* \"#utility.yul\":22729:22796   */\n      tag_186\n      jump\t// in\n    tag_409:\n        /* \"#utility.yul\":22823:22824   */\n      0x00\n        /* \"#utility.yul\":22847:22851   */\n      0x20\n        /* \"#utility.yul\":22834:22851   */\n      swap1\n      pop\n        /* \"#utility.yul\":22879:22881   */\n      0x1f\n        /* \"#utility.yul\":22871:22877   */\n      dup4\n        /* \"#utility.yul\":22868:22882   */\n      gt\n        /* \"#utility.yul\":22896:22897   */\n      0x01\n        /* \"#utility.yul\":22891:23509   */\n      dup2\n      eq\n      tag_411\n      jumpi\n        /* \"#utility.yul\":23553:23554   */\n      0x00\n        /* \"#utility.yul\":23570:23576   */\n      dup5\n        /* \"#utility.yul\":23567:23644   */\n      iszero\n      tag_412\n      jumpi\n        /* \"#utility.yul\":23619:23628   */\n      dup3\n        /* \"#utility.yul\":23614:23617   */\n      dup8\n        /* \"#utility.yul\":23610:23629   */\n      add\n        /* \"#utility.yul\":23604:23630   */\n      mload\n        /* \"#utility.yul\":23595:23630   */\n      swap1\n      pop\n        /* \"#utility.yul\":23567:23644   */\n    tag_412:\n        /* \"#utility.yul\":23670:23737   */\n      tag_413\n        /* \"#utility.yul\":23730:23736   */\n      dup6\n        /* \"#utility.yul\":23723:23728   */\n      dup3\n        /* \"#utility.yul\":23670:23737   */\n      tag_189\n      jump\t// in\n    tag_413:\n        /* \"#utility.yul\":23664:23668   */\n      dup7\n        /* \"#utility.yul\":23657:23738   */\n      sstore\n        /* \"#utility.yul\":23526:23748   */\n      pop\n        /* \"#utility.yul\":22861:23748   */\n      jump(tag_410)\n        /* \"#utility.yul\":22891:23509   */\n    tag_411:\n        /* \"#utility.yul\":22943:22947   */\n      0x1f\n        /* \"#utility.yul\":22939:22948   */\n      not\n        /* \"#utility.yul\":22931:22937   */\n      dup5\n        /* \"#utility.yul\":22927:22949   */\n      and\n        /* \"#utility.yul\":22977:23014   */\n      tag_414\n        /* \"#utility.yul\":23009:23013   */\n      dup7\n        /* \"#utility.yul\":22977:23014   */\n      tag_175\n      jump\t// in\n    tag_414:\n        /* \"#utility.yul\":23036:23037   */\n      0x00\n        /* \"#utility.yul\":23050:23258   */\n    tag_415:\n        /* \"#utility.yul\":23064:23071   */\n      dup3\n        /* \"#utility.yul\":23061:23062   */\n      dup2\n        /* \"#utility.yul\":23058:23072   */\n      lt\n        /* \"#utility.yul\":23050:23258   */\n      iszero\n      tag_417\n      jumpi\n        /* \"#utility.yul\":23143:23152   */\n      dup5\n        /* \"#utility.yul\":23138:23141   */\n      dup10\n        /* \"#utility.yul\":23134:23153   */\n      add\n        /* \"#utility.yul\":23128:23154   */\n      mload\n        /* \"#utility.yul\":23120:23126   */\n      dup3\n        /* \"#utility.yul\":23113:23155   */\n      sstore\n        /* \"#utility.yul\":23194:23195   */\n      0x01\n        /* \"#utility.yul\":23186:23192   */\n      dup3\n        /* \"#utility.yul\":23182:23196   */\n      add\n        /* \"#utility.yul\":23172:23196   */\n      swap2\n      pop\n        /* \"#utility.yul\":23241:23243   */\n      0x20\n        /* \"#utility.yul\":23230:23239   */\n      dup6\n        /* \"#utility.yul\":23226:23244   */\n      add\n        /* \"#utility.yul\":23213:23244   */\n      swap5\n      pop\n        /* \"#utility.yul\":23087:23091   */\n      0x20\n        /* \"#utility.yul\":23084:23085   */\n      dup2\n        /* \"#utility.yul\":23080:23092   */\n      add\n        /* \"#utility.yul\":23075:23092   */\n      swap1\n      pop\n        /* \"#utility.yul\":23050:23258   */\n      jump(tag_415)\n    tag_417:\n        /* \"#utility.yul\":23286:23292   */\n      dup7\n        /* \"#utility.yul\":23277:23284   */\n      dup4\n        /* \"#utility.yul\":23274:23293   */\n      lt\n        /* \"#utility.yul\":23271:23450   */\n      iszero\n      tag_418\n      jumpi\n        /* \"#utility.yul\":23344:23353   */\n      dup5\n        /* \"#utility.yul\":23339:23342   */\n      dup10\n        /* \"#utility.yul\":23335:23354   */\n      add\n        /* \"#utility.yul\":23329:23355   */\n      mload\n        /* \"#utility.yul\":23387:23435   */\n      tag_419\n        /* \"#utility.yul\":23429:23433   */\n      0x1f\n        /* \"#utility.yul\":23421:23427   */\n      dup10\n        /* \"#utility.yul\":23417:23434   */\n      and\n        /* \"#utility.yul\":23406:23415   */\n      dup3\n        /* \"#utility.yul\":23387:23435   */\n      tag_188\n      jump\t// in\n    tag_419:\n        /* \"#utility.yul\":23379:23385   */\n      dup4\n        /* \"#utility.yul\":23372:23436   */\n      sstore\n        /* \"#utility.yul\":23294:23450   */\n      pop\n        /* \"#utility.yul\":23271:23450   */\n    tag_418:\n        /* \"#utility.yul\":23496:23497   */\n      0x01\n        /* \"#utility.yul\":23492:23493   */\n      0x02\n        /* \"#utility.yul\":23484:23490   */\n      dup9\n        /* \"#utility.yul\":23480:23494   */\n      mul\n        /* \"#utility.yul\":23476:23498   */\n      add\n        /* \"#utility.yul\":23470:23474   */\n      dup9\n        /* \"#utility.yul\":23463:23499   */\n      sstore\n        /* \"#utility.yul\":22898:23509   */\n      pop\n      pop\n      pop\n        /* \"#utility.yul\":22861:23748   */\n    tag_410:\n      pop\n        /* \"#utility.yul\":22451:23754   */\n      pop\n      pop\n      pop\n        /* \"#utility.yul\":22359:23754   */\n      pop\n      pop\n      jump\t// out\n\n    auxdata: 0xa2646970667358221220d8b2fde1e0e40016f17df597a48ff3840759a4871360e1edaef18613e87dd7bc64736f6c634300081e0033\n}\n",
				"bytecode": {
					"linkReferences": {},
					"object": "60806040526101185f5f6101000a81548161ffff021916908361ffff160217905550348015602b575f5ffd5b503360025f6101000a81548173ffffffffffffffffffffffffffffffffffffffff021916908373ffffffffffffffffffffffffffffffffffffffff160217905550611786806100795f395ff3fe608060405234801561000f575f5ffd5b5060043610610091575f3560e01c8063633782161161006457806363378216146101315780636eb107971461014d5780637c9cd2bc1461016b5780638da5cb5b14610187578063c3ad5ecb146101a557610091565b806305a1b4a91461009557806312e7ee1c146100c95780633d9b569f146100f957806358bfa4ab14610115575b5f5ffd5b6100af60048036038101906100aa9190610c1f565b6101d5565b6040516100c0959493929190610ceb565b60405180910390f35b6100e360048036038101906100de9190610d43565b6102c6565b6040516100f09190610f02565b60405180910390f35b610113600480360381019061010e9190610c1f565b610461565b005b61012f600480360381019061012a9190610f59565b610617565b005b61014b60048036038101906101469190610c1f565b6106c4565b005b6101556107da565b6040516101629190610f93565b60405180910390f35b610185600480360381019061018091906110d8565b6107ec565b005b61018f6109a4565b60405161019c919061111f565b60405180910390f35b6101bf60048036038101906101ba9190611138565b6109c9565b6040516101cc91906111d6565b60405180910390f35b6001602052815f5260405f2081815481106101ee575f80fd5b905f5260205f2090600502015f9150915050805f015490806001015f9054906101000a900473ffffffffffffffffffffffffffffffffffffffff169080600201805461023990611223565b80601f016020809104026020016040519081016040528092919081815260200182805461026590611223565b80156102b05780601f10610287576101008083540402835291602001916102b0565b820191905f5260205f20905b81548152906001019060200180831161029357829003601f168201915b5050505050908060030154908060040154905085565b606060015f8373ffffffffffffffffffffffffffffffffffffffff1673ffffffffffffffffffffffffffffffffffffffff1681526020019081526020015f20805480602002602001604051908101604052809291908181526020015f905b82821015610456578382905f5260205f2090600502016040518060a00160405290815f8201548152602001600182015f9054906101000a900473ffffffffffffffffffffffffffffffffffffffff1673ffffffffffffffffffffffffffffffffffffffff1673ffffffffffffffffffffffffffffffffffffffff1681526020016002820180546103b390611223565b80601f01602080910402602001604051908101604052809291908181526020018280546103df90611223565b801561042a5780601f106104015761010080835404028352916020019161042a565b820191905f5260205f20905b81548152906001019060200180831161040d57829003601f168201915b505050505081526020016003820154815260200160048201548152505081526020019060010190610324565b505050509050919050565b8060015f8473ffffffffffffffffffffffffffffffffffffffff1673ffffffffffffffffffffffffffffffffffffffff1681526020019081526020015f2082815481106104b1576104b0611253565b5b905f5260205f2090600502015f015414610500576040517f08c379a00000000000000000000000000000000000000000000000000000000081526004016104f7906112ca565b60405180910390fd5b5f60015f8473ffffffffffffffffffffffffffffffffffffffff1673ffffffffffffffffffffffffffffffffffffffff1681526020019081526020015f2082815481106105505761054f611253565b5b905f5260205f20906005020160040154116105a0576040517f08c379a000000000000000000000000000000000000000000000000000000000815260040161059790611358565b60405180910390fd5b60015f8373ffffffffffffffffffffffffffffffffffffffff1673ffffffffffffffffffffffffffffffffffffffff1681526020019081526020015f2081815481106105ef576105ee611253565b5b905f5260205f2090600502016004015f81548092919061060e906113a3565b91905055505050565b60025f9054906101000a900473ffffffffffffffffffffffffffffffffffffffff1673ffffffffffffffffffffffffffffffffffffffff163373ffffffffffffffffffffffffffffffffffffffff16146106a6576040517f08c379a000000000000000000000000000000000000000000000000000000000815260040161069d90611414565b60405180910390fd5b805f5f6101000a81548161ffff021916908361ffff16021790555050565b8060015f8473ffffffffffffffffffffffffffffffffffffffff1673ffffffffffffffffffffffffffffffffffffffff1681526020019081526020015f20828154811061071457610713611253565b5b905f5260205f2090600502015f015414610763576040517f08c379a000000000000000000000000000000000000000000000000000000000815260040161075a906112ca565b60405180910390fd5b60015f8373ffffffffffffffffffffffffffffffffffffffff1673ffffffffffffffffffffffffffffffffffffffff1681526020019081526020015f2081815481106107b2576107b1611253565b5b905f5260205f2090600502016004015f8154809291906107d190611432565b91905055505050565b5f5f9054906101000a900461ffff1681565b5f5f9054906101000a900461ffff1661ffff1681511115610842576040517f08c379a0000000000000000000000000000000000000000000000000000000008152600401610839906114c3565b60405180910390fd5b5f6040518060a0016040528060015f3373ffffffffffffffffffffffffffffffffffffffff1673ffffffffffffffffffffffffffffffffffffffff1681526020019081526020015f208054905081526020013373ffffffffffffffffffffffffffffffffffffffff1681526020018381526020014281526020015f815250905060015f3373ffffffffffffffffffffffffffffffffffffffff1673ffffffffffffffffffffffffffffffffffffffff1681526020019081526020015f2081908060018154018082558091505060019003905f5260205f2090600502015f909190919091505f820151815f01556020820151816001015f6101000a81548173ffffffffffffffffffffffffffffffffffffffff021916908373ffffffffffffffffffffffffffffffffffffffff16021790555060408201518160020190816109899190611681565b50606082015181600301556080820151816004015550505050565b60025f9054906101000a900473ffffffffffffffffffffffffffffffffffffffff1681565b6109d1610b40565b60015f3373ffffffffffffffffffffffffffffffffffffffff1673ffffffffffffffffffffffffffffffffffffffff1681526020019081526020015f208281548110610a2057610a1f611253565b5b905f5260205f2090600502016040518060a00160405290815f8201548152602001600182015f9054906101000a900473ffffffffffffffffffffffffffffffffffffffff1673ffffffffffffffffffffffffffffffffffffffff1673ffffffffffffffffffffffffffffffffffffffff168152602001600282018054610aa590611223565b80601f0160208091040260200160405190810160405280929190818152602001828054610ad190611223565b8015610b1c5780601f10610af357610100808354040283529160200191610b1c565b820191905f5260205f20905b815481529060010190602001808311610aff57829003601f168201915b50505050508152602001600382015481526020016004820154815250509050919050565b6040518060a001604052805f81526020015f73ffffffffffffffffffffffffffffffffffffffff168152602001606081526020015f81526020015f81525090565b5f604051905090565b5f5ffd5b5f5ffd5b5f73ffffffffffffffffffffffffffffffffffffffff82169050919050565b5f610bbb82610b92565b9050919050565b610bcb81610bb1565b8114610bd5575f5ffd5b50565b5f81359050610be681610bc2565b92915050565b5f819050919050565b610bfe81610bec565b8114610c08575f5ffd5b50565b5f81359050610c1981610bf5565b92915050565b5f5f60408385031215610c3557610c34610b8a565b5b5f610c4285828601610bd8565b9250506020610c5385828601610c0b565b9150509250929050565b610c6681610bec565b82525050565b610c7581610bb1565b82525050565b5f81519050919050565b5f82825260208201905092915050565b8281835e5f83830152505050565b5f601f19601f8301169050919050565b5f610cbd82610c7b565b610cc78185610c85565b9350610cd7818560208601610c95565b610ce081610ca3565b840191505092915050565b5f60a082019050610cfe5f830188610c5d565b610d0b6020830187610c6c565b8181036040830152610d1d8186610cb3565b9050610d2c6060830185610c5d565b610d396080830184610c5d565b9695505050505050565b5f60208284031215610d5857610d57610b8a565b5b5f610d6584828501610bd8565b91505092915050565b5f81519050919050565b5f82825260208201905092915050565b5f819050602082019050919050565b610da081610bec565b82525050565b610daf81610bb1565b82525050565b5f82825260208201905092915050565b5f610dcf82610c7b565b610dd98185610db5565b9350610de9818560208601610c95565b610df281610ca3565b840191505092915050565b5f60a083015f830151610e125f860182610d97565b506020830151610e256020860182610da6565b5060408301518482036040860152610e3d8282610dc5565b9150506060830151610e526060860182610d97565b506080830151610e656080860182610d97565b508091505092915050565b5f610e7b8383610dfd565b905092915050565b5f602082019050919050565b5f610e9982610d6e565b610ea38185610d78565b935083602082028501610eb585610d88565b805f5b85811015610ef05784840389528151610ed18582610e70565b9450610edc83610e83565b925060208a01995050600181019050610eb8565b50829750879550505050505092915050565b5f6020820190508181035f830152610f1a8184610e8f565b905092915050565b5f61ffff82169050919050565b610f3881610f22565b8114610f42575f5ffd5b50565b5f81359050610f5381610f2f565b92915050565b5f60208284031215610f6e57610f6d610b8a565b5b5f610f7b84828501610f45565b91505092915050565b610f8d81610f22565b82525050565b5f602082019050610fa65f830184610f84565b92915050565b5f5ffd5b5f5ffd5b7f4e487b71000000000000000000000000000000000000000000000000000000005f52604160045260245ffd5b610fea82610ca3565b810181811067ffffffffffffffff8211171561100957611008610fb4565b5b80604052505050565b5f61101b610b81565b90506110278282610fe1565b919050565b5f67ffffffffffffffff82111561104657611045610fb4565b5b61104f82610ca3565b9050602081019050919050565b828183375f83830152505050565b5f61107c6110778461102c565b611012565b90508281526020810184848401111561109857611097610fb0565b5b6110a384828561105c565b509392505050565b5f82601f8301126110bf576110be610fac565b5b81356110cf84826020860161106a565b91505092915050565b5f602082840312156110ed576110ec610b8a565b5b5f82013567ffffffffffffffff81111561110a57611109610b8e565b5b611116848285016110ab565b91505092915050565b5f6020820190506111325f830184610c6c565b92915050565b5f6020828403121561114d5761114c610b8a565b5b5f61115a84828501610c0b565b91505092915050565b5f60a083015f8301516111785f860182610d97565b50602083015161118b6020860182610da6565b50604083015184820360408601526111a38282610dc5565b91505060608301516111b86060860182610d97565b5060808301516111cb6080860182610d97565b508091505092915050565b5f6020820190508181035f8301526111ee8184611163565b905092915050565b7f4e487b71000000000000000000000000000000000000000000000000000000005f52602260045260245ffd5b5f600282049050600182168061123a57607f821691505b60208210810361124d5761124c6111f6565b5b50919050565b7f4e487b71000000000000000000000000000000000000000000000000000000005f52603260045260245ffd5b7f747765657420646f6573206e6f7420657869737420616674657220616c6c2e005f82015250565b5f6112b4601f83610c85565b91506112bf82611280565b602082019050919050565b5f6020820190508181035f8301526112e1816112a8565b9050919050565b7f796f752063616e277420756e6c696b65206120747765657420746861742068615f8201527f732030206c696b65730000000000000000000000000000000000000000000000602082015250565b5f611342602983610c85565b915061134d826112e8565b604082019050919050565b5f6020820190508181035f83015261136f81611336565b9050919050565b7f4e487b71000000000000000000000000000000000000000000000000000000005f52601160045260245ffd5b5f6113ad82610bec565b91505f82036113bf576113be611376565b5b600182039050919050565b7f594f5520415245204e4f5420544845204f574e455221000000000000000000005f82015250565b5f6113fe601683610c85565b9150611409826113ca565b602082019050919050565b5f6020820190508181035f83015261142b816113f2565b9050919050565b5f61143c82610bec565b91507fffffffffffffffffffffffffffffffffffffffffffffffffffffffffffffffff820361146e5761146d611376565b5b600182019050919050565b7f547765657420697320746f6f206c6f6e672062726f21000000000000000000005f82015250565b5f6114ad601683610c85565b91506114b882611479565b602082019050919050565b5f6020820190508181035f8301526114da816114a1565b9050919050565b5f819050815f5260205f209050919050565b5f6020601f8301049050919050565b5f82821b905092915050565b5f6008830261153d7fffffffffffffffffffffffffffffffffffffffffffffffffffffffffffffffff82611502565b6115478683611502565b95508019841693508086168417925050509392505050565b5f819050919050565b5f61158261157d61157884610bec565b61155f565b610bec565b9050919050565b5f819050919050565b61159b83611568565b6115af6115a782611589565b84845461150e565b825550505050565b5f5f905090565b6115c66115b7565b6115d1818484611592565b505050565b5b818110156115f4576115e95f826115be565b6001810190506115d7565b5050565b601f8211156116395761160a816114e1565b611613846114f3565b81016020851015611622578190505b61163661162e856114f3565b8301826115d6565b50505b505050565b5f82821c905092915050565b5f6116595f198460080261163e565b1980831691505092915050565b5f611671838361164a565b9150826002028217905092915050565b61168a82610c7b565b67ffffffffffffffff8111156116a3576116a2610fb4565b5b6116ad8254611223565b6116b88282856115f8565b5f60209050601f8311600181146116e9575f84156116d7578287015190505b6116e18582611666565b865550611748565b601f1984166116f7866114e1565b5f5b8281101561171e578489015182556001820191506020850194506020810190506116f9565b8683101561173b5784890151611737601f89168261164a565b8355505b6001600288020188555050505b50505050505056fea2646970667358221220d8b2fde1e0e40016f17df597a48ff3840759a4871360e1edaef18613e87dd7bc64736f6c634300081e0033",
					"opcodes": "PUSH1 0x80 PUSH1 0x40 MSTORE PUSH2 0x118 PUSH0 PUSH0 PUSH2 0x100 EXP DUP2 SLOAD DUP2 PUSH2 0xFFFF MUL NOT AND SWAP1 DUP4 PUSH2 0xFFFF AND MUL OR SWAP1 SSTORE POP CALLVALUE DUP1 ISZERO PUSH1 0x2B JUMPI PUSH0 PUSH0 REVERT JUMPDEST POP CALLER PUSH1 0x2 PUSH0 PUSH2 0x100 EXP DUP2 SLOAD DUP2 PUSH20 0xFFFFFFFFFFFFFFFFFFFFFFFFFFFFFFFFFFFFFFFF MUL NOT AND SWAP1 DUP4 PUSH20 0xFFFFFFFFFFFFFFFFFFFFFFFFFFFFFFFFFFFFFFFF AND MUL OR SWAP1 SSTORE POP PUSH2 0x1786 DUP1 PUSH2 0x79 PUSH0 CODECOPY PUSH0 RETURN INVALID PUSH1 0x80 PUSH1 0x40 MSTORE CALLVALUE DUP1 ISZERO PUSH2 0xF JUMPI PUSH0 PUSH0 REVERT JUMPDEST POP PUSH1 0x4 CALLDATASIZE LT PUSH2 0x91 JUMPI PUSH0 CALLDATALOAD PUSH1 0xE0 SHR DUP1 PUSH4 0x63378216 GT PUSH2 0x64 JUMPI DUP1 PUSH4 0x63378216 EQ PUSH2 0x131 JUMPI DUP1 PUSH4 0x6EB10797 EQ PUSH2 0x14D JUMPI DUP1 PUSH4 0x7C9CD2BC EQ PUSH2 0x16B JUMPI DUP1 PUSH4 0x8DA5CB5B EQ PUSH2 0x187 JUMPI DUP1 PUSH4 0xC3AD5ECB EQ PUSH2 0x1A5 JUMPI PUSH2 0x91 JUMP JUMPDEST DUP1 PUSH4 0x5A1B4A9 EQ PUSH2 0x95 JUMPI DUP1 PUSH4 0x12E7EE1C EQ PUSH2 0xC9 JUMPI DUP1 PUSH4 0x3D9B569F EQ PUSH2 0xF9 JUMPI DUP1 PUSH4 0x58BFA4AB EQ PUSH2 0x115 JUMPI JUMPDEST PUSH0 PUSH0 REVERT JUMPDEST PUSH2 0xAF PUSH1 0x4 DUP1 CALLDATASIZE SUB DUP2 ADD SWAP1 PUSH2 0xAA SWAP2 SWAP1 PUSH2 0xC1F JUMP JUMPDEST PUSH2 0x1D5 JUMP JUMPDEST PUSH1 0x40 MLOAD PUSH2 0xC0 SWAP6 SWAP5 SWAP4 SWAP3 SWAP2 SWAP1 PUSH2 0xCEB JUMP JUMPDEST PUSH1 0x40 MLOAD DUP1 SWAP2 SUB SWAP1 RETURN JUMPDEST PUSH2 0xE3 PUSH1 0x4 DUP1 CALLDATASIZE SUB DUP2 ADD SWAP1 PUSH2 0xDE SWAP2 SWAP1 PUSH2 0xD43 JUMP JUMPDEST PUSH2 0x2C6 JUMP JUMPDEST PUSH1 0x40 MLOAD PUSH2 0xF0 SWAP2 SWAP1 PUSH2 0xF02 JUMP JUMPDEST PUSH1 0x40 MLOAD DUP1 SWAP2 SUB SWAP1 RETURN JUMPDEST PUSH2 0x113 PUSH1 0x4 DUP1 CALLDATASIZE SUB DUP2 ADD SWAP1 PUSH2 0x10E SWAP2 SWAP1 PUSH2 0xC1F JUMP JUMPDEST PUSH2 0x461 JUMP JUMPDEST STOP JUMPDEST PUSH2 0x12F PUSH1 0x4 DUP1 CALLDATASIZE SUB DUP2 ADD SWAP1 PUSH2 0x12A SWAP2 SWAP1 PUSH2 0xF59 JUMP JUMPDEST PUSH2 0x617 JUMP JUMPDEST STOP JUMPDEST PUSH2 0x14B PUSH1 0x4 DUP1 CALLDATASIZE SUB DUP2 ADD SWAP1 PUSH2 0x146 SWAP2 SWAP1 PUSH2 0xC1F JUMP JUMPDEST PUSH2 0x6C4 JUMP JUMPDEST STOP JUMPDEST PUSH2 0x155 PUSH2 0x7DA JUMP JUMPDEST PUSH1 0x40 MLOAD PUSH2 0x162 SWAP2 SWAP1 PUSH2 0xF93 JUMP JUMPDEST PUSH1 0x40 MLOAD DUP1 SWAP2 SUB SWAP1 RETURN JUMPDEST PUSH2 0x185 PUSH1 0x4 DUP1 CALLDATASIZE SUB DUP2 ADD SWAP1 PUSH2 0x180 SWAP2 SWAP1 PUSH2 0x10D8 JUMP JUMPDEST PUSH2 0x7EC JUMP JUMPDEST STOP JUMPDEST PUSH2 0x18F PUSH2 0x9A4 JUMP JUMPDEST PUSH1 0x40 MLOAD PUSH2 0x19C SWAP2 SWAP1 PUSH2 0x111F JUMP JUMPDEST PUSH1 0x40 MLOAD DUP1 SWAP2 SUB SWAP1 RETURN JUMPDEST PUSH2 0x1BF PUSH1 0x4 DUP1 CALLDATASIZE SUB DUP2 ADD SWAP1 PUSH2 0x1BA SWAP2 SWAP1 PUSH2 0x1138 JUMP JUMPDEST PUSH2 0x9C9 JUMP JUMPDEST PUSH1 0x40 MLOAD PUSH2 0x1CC SWAP2 SWAP1 PUSH2 0x11D6 JUMP JUMPDEST PUSH1 0x40 MLOAD DUP1 SWAP2 SUB SWAP1 RETURN JUMPDEST PUSH1 0x1 PUSH1 0x20 MSTORE DUP2 PUSH0 MSTORE PUSH1 0x40 PUSH0 KECCAK256 DUP2 DUP2 SLOAD DUP2 LT PUSH2 0x1EE JUMPI PUSH0 DUP1 REVERT JUMPDEST SWAP1 PUSH0 MSTORE PUSH1 0x20 PUSH0 KECCAK256 SWAP1 PUSH1 0x5 MUL ADD PUSH0 SWAP2 POP SWAP2 POP POP DUP1 PUSH0 ADD SLOAD SWAP1 DUP1 PUSH1 0x1 ADD PUSH0 SWAP1 SLOAD SWAP1 PUSH2 0x100 EXP SWAP1 DIV PUSH20 0xFFFFFFFFFFFFFFFFFFFFFFFFFFFFFFFFFFFFFFFF AND SWAP1 DUP1 PUSH1 0x2 ADD DUP1 SLOAD PUSH2 0x239 SWAP1 PUSH2 0x1223 JUMP JUMPDEST DUP1 PUSH1 0x1F ADD PUSH1 0x20 DUP1 SWAP2 DIV MUL PUSH1 0x20 ADD PUSH1 0x40 MLOAD SWAP1 DUP2 ADD PUSH1 0x40 MSTORE DUP1 SWAP3 SWAP2 SWAP1 DUP2 DUP2 MSTORE PUSH1 0x20 ADD DUP3 DUP1 SLOAD PUSH2 0x265 SWAP1 PUSH2 0x1223 JUMP JUMPDEST DUP1 ISZERO PUSH2 0x2B0 JUMPI DUP1 PUSH1 0x1F LT PUSH2 0x287 JUMPI PUSH2 0x100 DUP1 DUP4 SLOAD DIV MUL DUP4 MSTORE SWAP2 PUSH1 0x20 ADD SWAP2 PUSH2 0x2B0 JUMP JUMPDEST DUP3 ADD SWAP2 SWAP1 PUSH0 MSTORE PUSH1 0x20 PUSH0 KECCAK256 SWAP1 JUMPDEST DUP2 SLOAD DUP2 MSTORE SWAP1 PUSH1 0x1 ADD SWAP1 PUSH1 0x20 ADD DUP1 DUP4 GT PUSH2 0x293 JUMPI DUP3 SWAP1 SUB PUSH1 0x1F AND DUP3 ADD SWAP2 JUMPDEST POP POP POP POP POP SWAP1 DUP1 PUSH1 0x3 ADD SLOAD SWAP1 DUP1 PUSH1 0x4 ADD SLOAD SWAP1 POP DUP6 JUMP JUMPDEST PUSH1 0x60 PUSH1 0x1 PUSH0 DUP4 PUSH20 0xFFFFFFFFFFFFFFFFFFFFFFFFFFFFFFFFFFFFFFFF AND PUSH20 0xFFFFFFFFFFFFFFFFFFFFFFFFFFFFFFFFFFFFFFFF AND DUP2 MSTORE PUSH1 0x20 ADD SWAP1 DUP2 MSTORE PUSH1 0x20 ADD PUSH0 KECCAK256 DUP1 SLOAD DUP1 PUSH1 0x20 MUL PUSH1 0x20 ADD PUSH1 0x40 MLOAD SWAP1 DUP2 ADD PUSH1 0x40 MSTORE DUP1 SWAP3 SWAP2 SWAP1 DUP2 DUP2 MSTORE PUSH1 0x20 ADD PUSH0 SWAP1 JUMPDEST DUP3 DUP3 LT ISZERO PUSH2 0x456 JUMPI DUP4 DUP3 SWAP1 PUSH0 MSTORE PUSH1 0x20 PUSH0 KECCAK256 SWAP1 PUSH1 0x5 MUL ADD PUSH1 0x40 MLOAD DUP1 PUSH1 0xA0 ADD PUSH1 0x40 MSTORE SWAP1 DUP2 PUSH0 DUP3 ADD SLOAD DUP2 MSTORE PUSH1 0x20 ADD PUSH1 0x1 DUP3 ADD PUSH0 SWAP1 SLOAD SWAP1 PUSH2 0x100 EXP SWAP1 DIV PUSH20 0xFFFFFFFFFFFFFFFFFFFFFFFFFFFFFFFFFFFFFFFF AND PUSH20 0xFFFFFFFFFFFFFFFFFFFFFFFFFFFFFFFFFFFFFFFF AND PUSH20 0xFFFFFFFFFFFFFFFFFFFFFFFFFFFFFFFFFFFFFFFF AND DUP2 MSTORE PUSH1 0x20 ADD PUSH1 0x2 DUP3 ADD DUP1 SLOAD PUSH2 0x3B3 SWAP1 PUSH2 0x1223 JUMP JUMPDEST DUP1 PUSH1 0x1F ADD PUSH1 0x20 DUP1 SWAP2 DIV MUL PUSH1 0x20 ADD PUSH1 0x40 MLOAD SWAP1 DUP2 ADD PUSH1 0x40 MSTORE DUP1 SWAP3 SWAP2 SWAP1 DUP2 DUP2 MSTORE PUSH1 0x20 ADD DUP3 DUP1 SLOAD PUSH2 0x3DF SWAP1 PUSH2 0x1223 JUMP JUMPDEST DUP1 ISZERO PUSH2 0x42A JUMPI DUP1 PUSH1 0x1F LT PUSH2 0x401 JUMPI PUSH2 0x100 DUP1 DUP4 SLOAD DIV MUL DUP4 MSTORE SWAP2 PUSH1 0x20 ADD SWAP2 PUSH2 0x42A JUMP JUMPDEST DUP3 ADD SWAP2 SWAP1 PUSH0 MSTORE PUSH1 0x20 PUSH0 KECCAK256 SWAP1 JUMPDEST DUP2 SLOAD DUP2 MSTORE SWAP1 PUSH1 0x1 ADD SWAP1 PUSH1 0x20 ADD DUP1 DUP4 GT PUSH2 0x40D JUMPI DUP3 SWAP1 SUB PUSH1 0x1F AND DUP3 ADD SWAP2 JUMPDEST POP POP POP POP POP DUP2 MSTORE PUSH1 0x20 ADD PUSH1 0x3 DUP3 ADD SLOAD DUP2 MSTORE PUSH1 0x20 ADD PUSH1 0x4 DUP3 ADD SLOAD DUP2 MSTORE POP POP DUP2 MSTORE PUSH1 0x20 ADD SWAP1 PUSH1 0x1 ADD SWAP1 PUSH2 0x324 JUMP JUMPDEST POP POP POP POP SWAP1 POP SWAP2 SWAP1 POP JUMP JUMPDEST DUP1 PUSH1 0x1 PUSH0 DUP5 PUSH20 0xFFFFFFFFFFFFFFFFFFFFFFFFFFFFFFFFFFFFFFFF AND PUSH20 0xFFFFFFFFFFFFFFFFFFFFFFFFFFFFFFFFFFFFFFFF AND DUP2 MSTORE PUSH1 0x20 ADD SWAP1 DUP2 MSTORE PUSH1 0x20 ADD PUSH0 KECCAK256 DUP3 DUP2 SLOAD DUP2 LT PUSH2 0x4B1 JUMPI PUSH2 0x4B0 PUSH2 0x1253 JUMP JUMPDEST JUMPDEST SWAP1 PUSH0 MSTORE PUSH1 0x20 PUSH0 KECCAK256 SWAP1 PUSH1 0x5 MUL ADD PUSH0 ADD SLOAD EQ PUSH2 0x500 JUMPI PUSH1 0x40 MLOAD PUSH32 0x8C379A000000000000000000000000000000000000000000000000000000000 DUP2 MSTORE PUSH1 0x4 ADD PUSH2 0x4F7 SWAP1 PUSH2 0x12CA JUMP JUMPDEST PUSH1 0x40 MLOAD DUP1 SWAP2 SUB SWAP1 REVERT JUMPDEST PUSH0 PUSH1 0x1 PUSH0 DUP5 PUSH20 0xFFFFFFFFFFFFFFFFFFFFFFFFFFFFFFFFFFFFFFFF AND PUSH20 0xFFFFFFFFFFFFFFFFFFFFFFFFFFFFFFFFFFFFFFFF AND DUP2 MSTORE PUSH1 0x20 ADD SWAP1 DUP2 MSTORE PUSH1 0x20 ADD PUSH0 KECCAK256 DUP3 DUP2 SLOAD DUP2 LT PUSH2 0x550 JUMPI PUSH2 0x54F PUSH2 0x1253 JUMP JUMPDEST JUMPDEST SWAP1 PUSH0 MSTORE PUSH1 0x20 PUSH0 KECCAK256 SWAP1 PUSH1 0x5 MUL ADD PUSH1 0x4 ADD SLOAD GT PUSH2 0x5A0 JUMPI PUSH1 0x40 MLOAD PUSH32 0x8C379A000000000000000000000000000000000000000000000000000000000 DUP2 MSTORE PUSH1 0x4 ADD PUSH2 0x597 SWAP1 PUSH2 0x1358 JUMP JUMPDEST PUSH1 0x40 MLOAD DUP1 SWAP2 SUB SWAP1 REVERT JUMPDEST PUSH1 0x1 PUSH0 DUP4 PUSH20 0xFFFFFFFFFFFFFFFFFFFFFFFFFFFFFFFFFFFFFFFF AND PUSH20 0xFFFFFFFFFFFFFFFFFFFFFFFFFFFFFFFFFFFFFFFF AND DUP2 MSTORE PUSH1 0x20 ADD SWAP1 DUP2 MSTORE PUSH1 0x20 ADD PUSH0 KECCAK256 DUP2 DUP2 SLOAD DUP2 LT PUSH2 0x5EF JUMPI PUSH2 0x5EE PUSH2 0x1253 JUMP JUMPDEST JUMPDEST SWAP1 PUSH0 MSTORE PUSH1 0x20 PUSH0 KECCAK256 SWAP1 PUSH1 0x5 MUL ADD PUSH1 0x4 ADD PUSH0 DUP2 SLOAD DUP1 SWAP3 SWAP2 SWAP1 PUSH2 0x60E SWAP1 PUSH2 0x13A3 JUMP JUMPDEST SWAP2 SWAP1 POP SSTORE POP POP POP JUMP JUMPDEST PUSH1 0x2 PUSH0 SWAP1 SLOAD SWAP1 PUSH2 0x100 EXP SWAP1 DIV PUSH20 0xFFFFFFFFFFFFFFFFFFFFFFFFFFFFFFFFFFFFFFFF AND PUSH20 0xFFFFFFFFFFFFFFFFFFFFFFFFFFFFFFFFFFFFFFFF AND CALLER PUSH20 0xFFFFFFFFFFFFFFFFFFFFFFFFFFFFFFFFFFFFFFFF AND EQ PUSH2 0x6A6 JUMPI PUSH1 0x40 MLOAD PUSH32 0x8C379A000000000000000000000000000000000000000000000000000000000 DUP2 MSTORE PUSH1 0x4 ADD PUSH2 0x69D SWAP1 PUSH2 0x1414 JUMP JUMPDEST PUSH1 0x40 MLOAD DUP1 SWAP2 SUB SWAP1 REVERT JUMPDEST DUP1 PUSH0 PUSH0 PUSH2 0x100 EXP DUP2 SLOAD DUP2 PUSH2 0xFFFF MUL NOT AND SWAP1 DUP4 PUSH2 0xFFFF AND MUL OR SWAP1 SSTORE POP POP JUMP JUMPDEST DUP1 PUSH1 0x1 PUSH0 DUP5 PUSH20 0xFFFFFFFFFFFFFFFFFFFFFFFFFFFFFFFFFFFFFFFF AND PUSH20 0xFFFFFFFFFFFFFFFFFFFFFFFFFFFFFFFFFFFFFFFF AND DUP2 MSTORE PUSH1 0x20 ADD SWAP1 DUP2 MSTORE PUSH1 0x20 ADD PUSH0 KECCAK256 DUP3 DUP2 SLOAD DUP2 LT PUSH2 0x714 JUMPI PUSH2 0x713 PUSH2 0x1253 JUMP JUMPDEST JUMPDEST SWAP1 PUSH0 MSTORE PUSH1 0x20 PUSH0 KECCAK256 SWAP1 PUSH1 0x5 MUL ADD PUSH0 ADD SLOAD EQ PUSH2 0x763 JUMPI PUSH1 0x40 MLOAD PUSH32 0x8C379A000000000000000000000000000000000000000000000000000000000 DUP2 MSTORE PUSH1 0x4 ADD PUSH2 0x75A SWAP1 PUSH2 0x12CA JUMP JUMPDEST PUSH1 0x40 MLOAD DUP1 SWAP2 SUB SWAP1 REVERT JUMPDEST PUSH1 0x1 PUSH0 DUP4 PUSH20 0xFFFFFFFFFFFFFFFFFFFFFFFFFFFFFFFFFFFFFFFF AND PUSH20 0xFFFFFFFFFFFFFFFFFFFFFFFFFFFFFFFFFFFFFFFF AND DUP2 MSTORE PUSH1 0x20 ADD SWAP1 DUP2 MSTORE PUSH1 0x20 ADD PUSH0 KECCAK256 DUP2 DUP2 SLOAD DUP2 LT PUSH2 0x7B2 JUMPI PUSH2 0x7B1 PUSH2 0x1253 JUMP JUMPDEST JUMPDEST SWAP1 PUSH0 MSTORE PUSH1 0x20 PUSH0 KECCAK256 SWAP1 PUSH1 0x5 MUL ADD PUSH1 0x4 ADD PUSH0 DUP2 SLOAD DUP1 SWAP3 SWAP2 SWAP1 PUSH2 0x7D1 SWAP1 PUSH2 0x1432 JUMP JUMPDEST SWAP2 SWAP1 POP SSTORE POP POP POP JUMP JUMPDEST PUSH0 PUSH0 SWAP1 SLOAD SWAP1 PUSH2 0x100 EXP SWAP1 DIV PUSH2 0xFFFF AND DUP2 JUMP JUMPDEST PUSH0 PUSH0 SWAP1 SLOAD SWAP1 PUSH2 0x100 EXP SWAP1 DIV PUSH2 0xFFFF AND PUSH2 0xFFFF AND DUP2 MLOAD GT ISZERO PUSH2 0x842 JUMPI PUSH1 0x40 MLOAD PUSH32 0x8C379A000000000000000000000000000000000000000000000000000000000 DUP2 MSTORE PUSH1 0x4 ADD PUSH2 0x839 SWAP1 PUSH2 0x14C3 JUMP JUMPDEST PUSH1 0x40 MLOAD DUP1 SWAP2 SUB SWAP1 REVERT JUMPDEST PUSH0 PUSH1 0x40 MLOAD DUP1 PUSH1 0xA0 ADD PUSH1 0x40 MSTORE DUP1 PUSH1 0x1 PUSH0 CALLER PUSH20 0xFFFFFFFFFFFFFFFFFFFFFFFFFFFFFFFFFFFFFFFF AND PUSH20 0xFFFFFFFFFFFFFFFFFFFFFFFFFFFFFFFFFFFFFFFF AND DUP2 MSTORE PUSH1 0x20 ADD SWAP1 DUP2 MSTORE PUSH1 0x20 ADD PUSH0 KECCAK256 DUP1 SLOAD SWAP1 POP DUP2 MSTORE PUSH1 0x20 ADD CALLER PUSH20 0xFFFFFFFFFFFFFFFFFFFFFFFFFFFFFFFFFFFFFFFF AND DUP2 MSTORE PUSH1 0x20 ADD DUP4 DUP2 MSTORE PUSH1 0x20 ADD TIMESTAMP DUP2 MSTORE PUSH1 0x20 ADD PUSH0 DUP2 MSTORE POP SWAP1 POP PUSH1 0x1 PUSH0 CALLER PUSH20 0xFFFFFFFFFFFFFFFFFFFFFFFFFFFFFFFFFFFFFFFF AND PUSH20 0xFFFFFFFFFFFFFFFFFFFFFFFFFFFFFFFFFFFFFFFF AND DUP2 MSTORE PUSH1 0x20 ADD SWAP1 DUP2 MSTORE PUSH1 0x20 ADD PUSH0 KECCAK256 DUP2 SWAP1 DUP1 PUSH1 0x1 DUP2 SLOAD ADD DUP1 DUP3 SSTORE DUP1 SWAP2 POP POP PUSH1 0x1 SWAP1 SUB SWAP1 PUSH0 MSTORE PUSH1 0x20 PUSH0 KECCAK256 SWAP1 PUSH1 0x5 MUL ADD PUSH0 SWAP1 SWAP2 SWAP1 SWAP2 SWAP1 SWAP2 POP PUSH0 DUP3 ADD MLOAD DUP2 PUSH0 ADD SSTORE PUSH1 0x20 DUP3 ADD MLOAD DUP2 PUSH1 0x1 ADD PUSH0 PUSH2 0x100 EXP DUP2 SLOAD DUP2 PUSH20 0xFFFFFFFFFFFFFFFFFFFFFFFFFFFFFFFFFFFFFFFF MUL NOT AND SWAP1 DUP4 PUSH20 0xFFFFFFFFFFFFFFFFFFFFFFFFFFFFFFFFFFFFFFFF AND MUL OR SWAP1 SSTORE POP PUSH1 0x40 DUP3 ADD MLOAD DUP2 PUSH1 0x2 ADD SWAP1 DUP2 PUSH2 0x989 SWAP2 SWAP1 PUSH2 0x1681 JUMP JUMPDEST POP PUSH1 0x60 DUP3 ADD MLOAD DUP2 PUSH1 0x3 ADD SSTORE PUSH1 0x80 DUP3 ADD MLOAD DUP2 PUSH1 0x4 ADD SSTORE POP POP POP POP JUMP JUMPDEST PUSH1 0x2 PUSH0 SWAP1 SLOAD SWAP1 PUSH2 0x100 EXP SWAP1 DIV PUSH20 0xFFFFFFFFFFFFFFFFFFFFFFFFFFFFFFFFFFFFFFFF AND DUP2 JUMP JUMPDEST PUSH2 0x9D1 PUSH2 0xB40 JUMP JUMPDEST PUSH1 0x1 PUSH0 CALLER PUSH20 0xFFFFFFFFFFFFFFFFFFFFFFFFFFFFFFFFFFFFFFFF AND PUSH20 0xFFFFFFFFFFFFFFFFFFFFFFFFFFFFFFFFFFFFFFFF AND DUP2 MSTORE PUSH1 0x20 ADD SWAP1 DUP2 MSTORE PUSH1 0x20 ADD PUSH0 KECCAK256 DUP3 DUP2 SLOAD DUP2 LT PUSH2 0xA20 JUMPI PUSH2 0xA1F PUSH2 0x1253 JUMP JUMPDEST JUMPDEST SWAP1 PUSH0 MSTORE PUSH1 0x20 PUSH0 KECCAK256 SWAP1 PUSH1 0x5 MUL ADD PUSH1 0x40 MLOAD DUP1 PUSH1 0xA0 ADD PUSH1 0x40 MSTORE SWAP1 DUP2 PUSH0 DUP3 ADD SLOAD DUP2 MSTORE PUSH1 0x20 ADD PUSH1 0x1 DUP3 ADD PUSH0 SWAP1 SLOAD SWAP1 PUSH2 0x100 EXP SWAP1 DIV PUSH20 0xFFFFFFFFFFFFFFFFFFFFFFFFFFFFFFFFFFFFFFFF AND PUSH20 0xFFFFFFFFFFFFFFFFFFFFFFFFFFFFFFFFFFFFFFFF AND PUSH20 0xFFFFFFFFFFFFFFFFFFFFFFFFFFFFFFFFFFFFFFFF AND DUP2 MSTORE PUSH1 0x20 ADD PUSH1 0x2 DUP3 ADD DUP1 SLOAD PUSH2 0xAA5 SWAP1 PUSH2 0x1223 JUMP JUMPDEST DUP1 PUSH1 0x1F ADD PUSH1 0x20 DUP1 SWAP2 DIV MUL PUSH1 0x20 ADD PUSH1 0x40 MLOAD SWAP1 DUP2 ADD PUSH1 0x40 MSTORE DUP1 SWAP3 SWAP2 SWAP1 DUP2 DUP2 MSTORE PUSH1 0x20 ADD DUP3 DUP1 SLOAD PUSH2 0xAD1 SWAP1 PUSH2 0x1223 JUMP JUMPDEST DUP1 ISZERO PUSH2 0xB1C JUMPI DUP1 PUSH1 0x1F LT PUSH2 0xAF3 JUMPI PUSH2 0x100 DUP1 DUP4 SLOAD DIV MUL DUP4 MSTORE SWAP2 PUSH1 0x20 ADD SWAP2 PUSH2 0xB1C JUMP JUMPDEST DUP3 ADD SWAP2 SWAP1 PUSH0 MSTORE PUSH1 0x20 PUSH0 KECCAK256 SWAP1 JUMPDEST DUP2 SLOAD DUP2 MSTORE SWAP1 PUSH1 0x1 ADD SWAP1 PUSH1 0x20 ADD DUP1 DUP4 GT PUSH2 0xAFF JUMPI DUP3 SWAP1 SUB PUSH1 0x1F AND DUP3 ADD SWAP2 JUMPDEST POP POP POP POP POP DUP2 MSTORE PUSH1 0x20 ADD PUSH1 0x3 DUP3 ADD SLOAD DUP2 MSTORE PUSH1 0x20 ADD PUSH1 0x4 DUP3 ADD SLOAD DUP2 MSTORE POP POP SWAP1 POP SWAP2 SWAP1 POP JUMP JUMPDEST PUSH1 0x40 MLOAD DUP1 PUSH1 0xA0 ADD PUSH1 0x40 MSTORE DUP1 PUSH0 DUP2 MSTORE PUSH1 0x20 ADD PUSH0 PUSH20 0xFFFFFFFFFFFFFFFFFFFFFFFFFFFFFFFFFFFFFFFF AND DUP2 MSTORE PUSH1 0x20 ADD PUSH1 0x60 DUP2 MSTORE PUSH1 0x20 ADD PUSH0 DUP2 MSTORE PUSH1 0x20 ADD PUSH0 DUP2 MSTORE POP SWAP1 JUMP JUMPDEST PUSH0 PUSH1 0x40 MLOAD SWAP1 POP SWAP1 JUMP JUMPDEST PUSH0 PUSH0 REVERT JUMPDEST PUSH0 PUSH0 REVERT JUMPDEST PUSH0 PUSH20 0xFFFFFFFFFFFFFFFFFFFFFFFFFFFFFFFFFFFFFFFF DUP3 AND SWAP1 POP SWAP2 SWAP1 POP JUMP JUMPDEST PUSH0 PUSH2 0xBBB DUP3 PUSH2 0xB92 JUMP JUMPDEST SWAP1 POP SWAP2 SWAP1 POP JUMP JUMPDEST PUSH2 0xBCB DUP2 PUSH2 0xBB1 JUMP JUMPDEST DUP2 EQ PUSH2 0xBD5 JUMPI PUSH0 PUSH0 REVERT JUMPDEST POP JUMP JUMPDEST PUSH0 DUP2 CALLDATALOAD SWAP1 POP PUSH2 0xBE6 DUP2 PUSH2 0xBC2 JUMP JUMPDEST SWAP3 SWAP2 POP POP JUMP JUMPDEST PUSH0 DUP2 SWAP1 POP SWAP2 SWAP1 POP JUMP JUMPDEST PUSH2 0xBFE DUP2 PUSH2 0xBEC JUMP JUMPDEST DUP2 EQ PUSH2 0xC08 JUMPI PUSH0 PUSH0 REVERT JUMPDEST POP JUMP JUMPDEST PUSH0 DUP2 CALLDATALOAD SWAP1 POP PUSH2 0xC19 DUP2 PUSH2 0xBF5 JUMP JUMPDEST SWAP3 SWAP2 POP POP JUMP JUMPDEST PUSH0 PUSH0 PUSH1 0x40 DUP4 DUP6 SUB SLT ISZERO PUSH2 0xC35 JUMPI PUSH2 0xC34 PUSH2 0xB8A JUMP JUMPDEST JUMPDEST PUSH0 PUSH2 0xC42 DUP6 DUP3 DUP7 ADD PUSH2 0xBD8 JUMP JUMPDEST SWAP3 POP POP PUSH1 0x20 PUSH2 0xC53 DUP6 DUP3 DUP7 ADD PUSH2 0xC0B JUMP JUMPDEST SWAP2 POP POP SWAP3 POP SWAP3 SWAP1 POP JUMP JUMPDEST PUSH2 0xC66 DUP2 PUSH2 0xBEC JUMP JUMPDEST DUP3 MSTORE POP POP JUMP JUMPDEST PUSH2 0xC75 DUP2 PUSH2 0xBB1 JUMP JUMPDEST DUP3 MSTORE POP POP JUMP JUMPDEST PUSH0 DUP2 MLOAD SWAP1 POP SWAP2 SWAP1 POP JUMP JUMPDEST PUSH0 DUP3 DUP3 MSTORE PUSH1 0x20 DUP3 ADD SWAP1 POP SWAP3 SWAP2 POP POP JUMP JUMPDEST DUP3 DUP2 DUP4 MCOPY PUSH0 DUP4 DUP4 ADD MSTORE POP POP POP JUMP JUMPDEST PUSH0 PUSH1 0x1F NOT PUSH1 0x1F DUP4 ADD AND SWAP1 POP SWAP2 SWAP1 POP JUMP JUMPDEST PUSH0 PUSH2 0xCBD DUP3 PUSH2 0xC7B JUMP JUMPDEST PUSH2 0xCC7 DUP2 DUP6 PUSH2 0xC85 JUMP JUMPDEST SWAP4 POP PUSH2 0xCD7 DUP2 DUP6 PUSH1 0x20 DUP7 ADD PUSH2 0xC95 JUMP JUMPDEST PUSH2 0xCE0 DUP2 PUSH2 0xCA3 JUMP JUMPDEST DUP5 ADD SWAP2 POP POP SWAP3 SWAP2 POP POP JUMP JUMPDEST PUSH0 PUSH1 0xA0 DUP3 ADD SWAP1 POP PUSH2 0xCFE PUSH0 DUP4 ADD DUP9 PUSH2 0xC5D JUMP JUMPDEST PUSH2 0xD0B PUSH1 0x20 DUP4 ADD DUP8 PUSH2 0xC6C JUMP JUMPDEST DUP2 DUP2 SUB PUSH1 0x40 DUP4 ADD MSTORE PUSH2 0xD1D DUP2 DUP7 PUSH2 0xCB3 JUMP JUMPDEST SWAP1 POP PUSH2 0xD2C PUSH1 0x60 DUP4 ADD DUP6 PUSH2 0xC5D JUMP JUMPDEST PUSH2 0xD39 PUSH1 0x80 DUP4 ADD DUP5 PUSH2 0xC5D JUMP JUMPDEST SWAP7 SWAP6 POP POP POP POP POP POP JUMP JUMPDEST PUSH0 PUSH1 0x20 DUP3 DUP5 SUB SLT ISZERO PUSH2 0xD58 JUMPI PUSH2 0xD57 PUSH2 0xB8A JUMP JUMPDEST JUMPDEST PUSH0 PUSH2 0xD65 DUP5 DUP3 DUP6 ADD PUSH2 0xBD8 JUMP JUMPDEST SWAP2 POP POP SWAP3 SWAP2 POP POP JUMP JUMPDEST PUSH0 DUP2 MLOAD SWAP1 POP SWAP2 SWAP1 POP JUMP JUMPDEST PUSH0 DUP3 DUP3 MSTORE PUSH1 0x20 DUP3 ADD SWAP1 POP SWAP3 SWAP2 POP POP JUMP JUMPDEST PUSH0 DUP2 SWAP1 POP PUSH1 0x20 DUP3 ADD SWAP1 POP SWAP2 SWAP1 POP JUMP JUMPDEST PUSH2 0xDA0 DUP2 PUSH2 0xBEC JUMP JUMPDEST DUP3 MSTORE POP POP JUMP JUMPDEST PUSH2 0xDAF DUP2 PUSH2 0xBB1 JUMP JUMPDEST DUP3 MSTORE POP POP JUMP JUMPDEST PUSH0 DUP3 DUP3 MSTORE PUSH1 0x20 DUP3 ADD SWAP1 POP SWAP3 SWAP2 POP POP JUMP JUMPDEST PUSH0 PUSH2 0xDCF DUP3 PUSH2 0xC7B JUMP JUMPDEST PUSH2 0xDD9 DUP2 DUP6 PUSH2 0xDB5 JUMP JUMPDEST SWAP4 POP PUSH2 0xDE9 DUP2 DUP6 PUSH1 0x20 DUP7 ADD PUSH2 0xC95 JUMP JUMPDEST PUSH2 0xDF2 DUP2 PUSH2 0xCA3 JUMP JUMPDEST DUP5 ADD SWAP2 POP POP SWAP3 SWAP2 POP POP JUMP JUMPDEST PUSH0 PUSH1 0xA0 DUP4 ADD PUSH0 DUP4 ADD MLOAD PUSH2 0xE12 PUSH0 DUP7 ADD DUP3 PUSH2 0xD97 JUMP JUMPDEST POP PUSH1 0x20 DUP4 ADD MLOAD PUSH2 0xE25 PUSH1 0x20 DUP7 ADD DUP3 PUSH2 0xDA6 JUMP JUMPDEST POP PUSH1 0x40 DUP4 ADD MLOAD DUP5 DUP3 SUB PUSH1 0x40 DUP7 ADD MSTORE PUSH2 0xE3D DUP3 DUP3 PUSH2 0xDC5 JUMP JUMPDEST SWAP2 POP POP PUSH1 0x60 DUP4 ADD MLOAD PUSH2 0xE52 PUSH1 0x60 DUP7 ADD DUP3 PUSH2 0xD97 JUMP JUMPDEST POP PUSH1 0x80 DUP4 ADD MLOAD PUSH2 0xE65 PUSH1 0x80 DUP7 ADD DUP3 PUSH2 0xD97 JUMP JUMPDEST POP DUP1 SWAP2 POP POP SWAP3 SWAP2 POP POP JUMP JUMPDEST PUSH0 PUSH2 0xE7B DUP4 DUP4 PUSH2 0xDFD JUMP JUMPDEST SWAP1 POP SWAP3 SWAP2 POP POP JUMP JUMPDEST PUSH0 PUSH1 0x20 DUP3 ADD SWAP1 POP SWAP2 SWAP1 POP JUMP JUMPDEST PUSH0 PUSH2 0xE99 DUP3 PUSH2 0xD6E JUMP JUMPDEST PUSH2 0xEA3 DUP2 DUP6 PUSH2 0xD78 JUMP JUMPDEST SWAP4 POP DUP4 PUSH1 0x20 DUP3 MUL DUP6 ADD PUSH2 0xEB5 DUP6 PUSH2 0xD88 JUMP JUMPDEST DUP1 PUSH0 JUMPDEST DUP6 DUP2 LT ISZERO PUSH2 0xEF0 JUMPI DUP5 DUP5 SUB DUP10 MSTORE DUP2 MLOAD PUSH2 0xED1 DUP6 DUP3 PUSH2 0xE70 JUMP JUMPDEST SWAP5 POP PUSH2 0xEDC DUP4 PUSH2 0xE83 JUMP JUMPDEST SWAP3 POP PUSH1 0x20 DUP11 ADD SWAP10 POP POP PUSH1 0x1 DUP2 ADD SWAP1 POP PUSH2 0xEB8 JUMP JUMPDEST POP DUP3 SWAP8 POP DUP8 SWAP6 POP POP POP POP POP POP SWAP3 SWAP2 POP POP JUMP JUMPDEST PUSH0 PUSH1 0x20 DUP3 ADD SWAP1 POP DUP2 DUP2 SUB PUSH0 DUP4 ADD MSTORE PUSH2 0xF1A DUP2 DUP5 PUSH2 0xE8F JUMP JUMPDEST SWAP1 POP SWAP3 SWAP2 POP POP JUMP JUMPDEST PUSH0 PUSH2 0xFFFF DUP3 AND SWAP1 POP SWAP2 SWAP1 POP JUMP JUMPDEST PUSH2 0xF38 DUP2 PUSH2 0xF22 JUMP JUMPDEST DUP2 EQ PUSH2 0xF42 JUMPI PUSH0 PUSH0 REVERT JUMPDEST POP JUMP JUMPDEST PUSH0 DUP2 CALLDATALOAD SWAP1 POP PUSH2 0xF53 DUP2 PUSH2 0xF2F JUMP JUMPDEST SWAP3 SWAP2 POP POP JUMP JUMPDEST PUSH0 PUSH1 0x20 DUP3 DUP5 SUB SLT ISZERO PUSH2 0xF6E JUMPI PUSH2 0xF6D PUSH2 0xB8A JUMP JUMPDEST JUMPDEST PUSH0 PUSH2 0xF7B DUP5 DUP3 DUP6 ADD PUSH2 0xF45 JUMP JUMPDEST SWAP2 POP POP SWAP3 SWAP2 POP POP JUMP JUMPDEST PUSH2 0xF8D DUP2 PUSH2 0xF22 JUMP JUMPDEST DUP3 MSTORE POP POP JUMP JUMPDEST PUSH0 PUSH1 0x20 DUP3 ADD SWAP1 POP PUSH2 0xFA6 PUSH0 DUP4 ADD DUP5 PUSH2 0xF84 JUMP JUMPDEST SWAP3 SWAP2 POP POP JUMP JUMPDEST PUSH0 PUSH0 REVERT JUMPDEST PUSH0 PUSH0 REVERT JUMPDEST PUSH32 0x4E487B7100000000000000000000000000000000000000000000000000000000 PUSH0 MSTORE PUSH1 0x41 PUSH1 0x4 MSTORE PUSH1 0x24 PUSH0 REVERT JUMPDEST PUSH2 0xFEA DUP3 PUSH2 0xCA3 JUMP JUMPDEST DUP2 ADD DUP2 DUP2 LT PUSH8 0xFFFFFFFFFFFFFFFF DUP3 GT OR ISZERO PUSH2 0x1009 JUMPI PUSH2 0x1008 PUSH2 0xFB4 JUMP JUMPDEST JUMPDEST DUP1 PUSH1 0x40 MSTORE POP POP POP JUMP JUMPDEST PUSH0 PUSH2 0x101B PUSH2 0xB81 JUMP JUMPDEST SWAP1 POP PUSH2 0x1027 DUP3 DUP3 PUSH2 0xFE1 JUMP JUMPDEST SWAP2 SWAP1 POP JUMP JUMPDEST PUSH0 PUSH8 0xFFFFFFFFFFFFFFFF DUP3 GT ISZERO PUSH2 0x1046 JUMPI PUSH2 0x1045 PUSH2 0xFB4 JUMP JUMPDEST JUMPDEST PUSH2 0x104F DUP3 PUSH2 0xCA3 JUMP JUMPDEST SWAP1 POP PUSH1 0x20 DUP2 ADD SWAP1 POP SWAP2 SWAP1 POP JUMP JUMPDEST DUP3 DUP2 DUP4 CALLDATACOPY PUSH0 DUP4 DUP4 ADD MSTORE POP POP POP JUMP JUMPDEST PUSH0 PUSH2 0x107C PUSH2 0x1077 DUP5 PUSH2 0x102C JUMP JUMPDEST PUSH2 0x1012 JUMP JUMPDEST SWAP1 POP DUP3 DUP2 MSTORE PUSH1 0x20 DUP2 ADD DUP5 DUP5 DUP5 ADD GT ISZERO PUSH2 0x1098 JUMPI PUSH2 0x1097 PUSH2 0xFB0 JUMP JUMPDEST JUMPDEST PUSH2 0x10A3 DUP5 DUP3 DUP6 PUSH2 0x105C JUMP JUMPDEST POP SWAP4 SWAP3 POP POP POP JUMP JUMPDEST PUSH0 DUP3 PUSH1 0x1F DUP4 ADD SLT PUSH2 0x10BF JUMPI PUSH2 0x10BE PUSH2 0xFAC JUMP JUMPDEST JUMPDEST DUP2 CALLDATALOAD PUSH2 0x10CF DUP5 DUP3 PUSH1 0x20 DUP7 ADD PUSH2 0x106A JUMP JUMPDEST SWAP2 POP POP SWAP3 SWAP2 POP POP JUMP JUMPDEST PUSH0 PUSH1 0x20 DUP3 DUP5 SUB SLT ISZERO PUSH2 0x10ED JUMPI PUSH2 0x10EC PUSH2 0xB8A JUMP JUMPDEST JUMPDEST PUSH0 DUP3 ADD CALLDATALOAD PUSH8 0xFFFFFFFFFFFFFFFF DUP2 GT ISZERO PUSH2 0x110A JUMPI PUSH2 0x1109 PUSH2 0xB8E JUMP JUMPDEST JUMPDEST PUSH2 0x1116 DUP5 DUP3 DUP6 ADD PUSH2 0x10AB JUMP JUMPDEST SWAP2 POP POP SWAP3 SWAP2 POP POP JUMP JUMPDEST PUSH0 PUSH1 0x20 DUP3 ADD SWAP1 POP PUSH2 0x1132 PUSH0 DUP4 ADD DUP5 PUSH2 0xC6C JUMP JUMPDEST SWAP3 SWAP2 POP POP JUMP JUMPDEST PUSH0 PUSH1 0x20 DUP3 DUP5 SUB SLT ISZERO PUSH2 0x114D JUMPI PUSH2 0x114C PUSH2 0xB8A JUMP JUMPDEST JUMPDEST PUSH0 PUSH2 0x115A DUP5 DUP3 DUP6 ADD PUSH2 0xC0B JUMP JUMPDEST SWAP2 POP POP SWAP3 SWAP2 POP POP JUMP JUMPDEST PUSH0 PUSH1 0xA0 DUP4 ADD PUSH0 DUP4 ADD MLOAD PUSH2 0x1178 PUSH0 DUP7 ADD DUP3 PUSH2 0xD97 JUMP JUMPDEST POP PUSH1 0x20 DUP4 ADD MLOAD PUSH2 0x118B PUSH1 0x20 DUP7 ADD DUP3 PUSH2 0xDA6 JUMP JUMPDEST POP PUSH1 0x40 DUP4 ADD MLOAD DUP5 DUP3 SUB PUSH1 0x40 DUP7 ADD MSTORE PUSH2 0x11A3 DUP3 DUP3 PUSH2 0xDC5 JUMP JUMPDEST SWAP2 POP POP PUSH1 0x60 DUP4 ADD MLOAD PUSH2 0x11B8 PUSH1 0x60 DUP7 ADD DUP3 PUSH2 0xD97 JUMP JUMPDEST POP PUSH1 0x80 DUP4 ADD MLOAD PUSH2 0x11CB PUSH1 0x80 DUP7 ADD DUP3 PUSH2 0xD97 JUMP JUMPDEST POP DUP1 SWAP2 POP POP SWAP3 SWAP2 POP POP JUMP JUMPDEST PUSH0 PUSH1 0x20 DUP3 ADD SWAP1 POP DUP2 DUP2 SUB PUSH0 DUP4 ADD MSTORE PUSH2 0x11EE DUP2 DUP5 PUSH2 0x1163 JUMP JUMPDEST SWAP1 POP SWAP3 SWAP2 POP POP JUMP JUMPDEST PUSH32 0x4E487B7100000000000000000000000000000000000000000000000000000000 PUSH0 MSTORE PUSH1 0x22 PUSH1 0x4 MSTORE PUSH1 0x24 PUSH0 REVERT JUMPDEST PUSH0 PUSH1 0x2 DUP3 DIV SWAP1 POP PUSH1 0x1 DUP3 AND DUP1 PUSH2 0x123A JUMPI PUSH1 0x7F DUP3 AND SWAP2 POP JUMPDEST PUSH1 0x20 DUP3 LT DUP2 SUB PUSH2 0x124D JUMPI PUSH2 0x124C PUSH2 0x11F6 JUMP JUMPDEST JUMPDEST POP SWAP2 SWAP1 POP JUMP JUMPDEST PUSH32 0x4E487B7100000000000000000000000000000000000000000000000000000000 PUSH0 MSTORE PUSH1 0x32 PUSH1 0x4 MSTORE PUSH1 0x24 PUSH0 REVERT JUMPDEST PUSH32 0x747765657420646F6573206E6F7420657869737420616674657220616C6C2E00 PUSH0 DUP3 ADD MSTORE POP JUMP JUMPDEST PUSH0 PUSH2 0x12B4 PUSH1 0x1F DUP4 PUSH2 0xC85 JUMP JUMPDEST SWAP2 POP PUSH2 0x12BF DUP3 PUSH2 0x1280 JUMP JUMPDEST PUSH1 0x20 DUP3 ADD SWAP1 POP SWAP2 SWAP1 POP JUMP JUMPDEST PUSH0 PUSH1 0x20 DUP3 ADD SWAP1 POP DUP2 DUP2 SUB PUSH0 DUP4 ADD MSTORE PUSH2 0x12E1 DUP2 PUSH2 0x12A8 JUMP JUMPDEST SWAP1 POP SWAP2 SWAP1 POP JUMP JUMPDEST PUSH32 0x796F752063616E277420756E6C696B6520612074776565742074686174206861 PUSH0 DUP3 ADD MSTORE PUSH32 0x732030206C696B65730000000000000000000000000000000000000000000000 PUSH1 0x20 DUP3 ADD MSTORE POP JUMP JUMPDEST PUSH0 PUSH2 0x1342 PUSH1 0x29 DUP4 PUSH2 0xC85 JUMP JUMPDEST SWAP2 POP PUSH2 0x134D DUP3 PUSH2 0x12E8 JUMP JUMPDEST PUSH1 0x40 DUP3 ADD SWAP1 POP SWAP2 SWAP1 POP JUMP JUMPDEST PUSH0 PUSH1 0x20 DUP3 ADD SWAP1 POP DUP2 DUP2 SUB PUSH0 DUP4 ADD MSTORE PUSH2 0x136F DUP2 PUSH2 0x1336 JUMP JUMPDEST SWAP1 POP SWAP2 SWAP1 POP JUMP JUMPDEST PUSH32 0x4E487B7100000000000000000000000000000000000000000000000000000000 PUSH0 MSTORE PUSH1 0x11 PUSH1 0x4 MSTORE PUSH1 0x24 PUSH0 REVERT JUMPDEST PUSH0 PUSH2 0x13AD DUP3 PUSH2 0xBEC JUMP JUMPDEST SWAP2 POP PUSH0 DUP3 SUB PUSH2 0x13BF JUMPI PUSH2 0x13BE PUSH2 0x1376 JUMP JUMPDEST JUMPDEST PUSH1 0x1 DUP3 SUB SWAP1 POP SWAP2 SWAP1 POP JUMP JUMPDEST PUSH32 0x594F5520415245204E4F5420544845204F574E45522100000000000000000000 PUSH0 DUP3 ADD MSTORE POP JUMP JUMPDEST PUSH0 PUSH2 0x13FE PUSH1 0x16 DUP4 PUSH2 0xC85 JUMP JUMPDEST SWAP2 POP PUSH2 0x1409 DUP3 PUSH2 0x13CA JUMP JUMPDEST PUSH1 0x20 DUP3 ADD SWAP1 POP SWAP2 SWAP1 POP JUMP JUMPDEST PUSH0 PUSH1 0x20 DUP3 ADD SWAP1 POP DUP2 DUP2 SUB PUSH0 DUP4 ADD MSTORE PUSH2 0x142B DUP2 PUSH2 0x13F2 JUMP JUMPDEST SWAP1 POP SWAP2 SWAP1 POP JUMP JUMPDEST PUSH0 PUSH2 0x143C DUP3 PUSH2 0xBEC JUMP JUMPDEST SWAP2 POP PUSH32 0xFFFFFFFFFFFFFFFFFFFFFFFFFFFFFFFFFFFFFFFFFFFFFFFFFFFFFFFFFFFFFFFF DUP3 SUB PUSH2 0x146E JUMPI PUSH2 0x146D PUSH2 0x1376 JUMP JUMPDEST JUMPDEST PUSH1 0x1 DUP3 ADD SWAP1 POP SWAP2 SWAP1 POP JUMP JUMPDEST PUSH32 0x547765657420697320746F6F206C6F6E672062726F2100000000000000000000 PUSH0 DUP3 ADD MSTORE POP JUMP JUMPDEST PUSH0 PUSH2 0x14AD PUSH1 0x16 DUP4 PUSH2 0xC85 JUMP JUMPDEST SWAP2 POP PUSH2 0x14B8 DUP3 PUSH2 0x1479 JUMP JUMPDEST PUSH1 0x20 DUP3 ADD SWAP1 POP SWAP2 SWAP1 POP JUMP JUMPDEST PUSH0 PUSH1 0x20 DUP3 ADD SWAP1 POP DUP2 DUP2 SUB PUSH0 DUP4 ADD MSTORE PUSH2 0x14DA DUP2 PUSH2 0x14A1 JUMP JUMPDEST SWAP1 POP SWAP2 SWAP1 POP JUMP JUMPDEST PUSH0 DUP2 SWAP1 POP DUP2 PUSH0 MSTORE PUSH1 0x20 PUSH0 KECCAK256 SWAP1 POP SWAP2 SWAP1 POP JUMP JUMPDEST PUSH0 PUSH1 0x20 PUSH1 0x1F DUP4 ADD DIV SWAP1 POP SWAP2 SWAP1 POP JUMP JUMPDEST PUSH0 DUP3 DUP3 SHL SWAP1 POP SWAP3 SWAP2 POP POP JUMP JUMPDEST PUSH0 PUSH1 0x8 DUP4 MUL PUSH2 0x153D PUSH32 0xFFFFFFFFFFFFFFFFFFFFFFFFFFFFFFFFFFFFFFFFFFFFFFFFFFFFFFFFFFFFFFFF DUP3 PUSH2 0x1502 JUMP JUMPDEST PUSH2 0x1547 DUP7 DUP4 PUSH2 0x1502 JUMP JUMPDEST SWAP6 POP DUP1 NOT DUP5 AND SWAP4 POP DUP1 DUP7 AND DUP5 OR SWAP3 POP POP POP SWAP4 SWAP3 POP POP POP JUMP JUMPDEST PUSH0 DUP2 SWAP1 POP SWAP2 SWAP1 POP JUMP JUMPDEST PUSH0 PUSH2 0x1582 PUSH2 0x157D PUSH2 0x1578 DUP5 PUSH2 0xBEC JUMP JUMPDEST PUSH2 0x155F JUMP JUMPDEST PUSH2 0xBEC JUMP JUMPDEST SWAP1 POP SWAP2 SWAP1 POP JUMP JUMPDEST PUSH0 DUP2 SWAP1 POP SWAP2 SWAP1 POP JUMP JUMPDEST PUSH2 0x159B DUP4 PUSH2 0x1568 JUMP JUMPDEST PUSH2 0x15AF PUSH2 0x15A7 DUP3 PUSH2 0x1589 JUMP JUMPDEST DUP5 DUP5 SLOAD PUSH2 0x150E JUMP JUMPDEST DUP3 SSTORE POP POP POP POP JUMP JUMPDEST PUSH0 PUSH0 SWAP1 POP SWAP1 JUMP JUMPDEST PUSH2 0x15C6 PUSH2 0x15B7 JUMP JUMPDEST PUSH2 0x15D1 DUP2 DUP5 DUP5 PUSH2 0x1592 JUMP JUMPDEST POP POP POP JUMP JUMPDEST JUMPDEST DUP2 DUP2 LT ISZERO PUSH2 0x15F4 JUMPI PUSH2 0x15E9 PUSH0 DUP3 PUSH2 0x15BE JUMP JUMPDEST PUSH1 0x1 DUP2 ADD SWAP1 POP PUSH2 0x15D7 JUMP JUMPDEST POP POP JUMP JUMPDEST PUSH1 0x1F DUP3 GT ISZERO PUSH2 0x1639 JUMPI PUSH2 0x160A DUP2 PUSH2 0x14E1 JUMP JUMPDEST PUSH2 0x1613 DUP5 PUSH2 0x14F3 JUMP JUMPDEST DUP2 ADD PUSH1 0x20 DUP6 LT ISZERO PUSH2 0x1622 JUMPI DUP2 SWAP1 POP JUMPDEST PUSH2 0x1636 PUSH2 0x162E DUP6 PUSH2 0x14F3 JUMP JUMPDEST DUP4 ADD DUP3 PUSH2 0x15D6 JUMP JUMPDEST POP POP JUMPDEST POP POP POP JUMP JUMPDEST PUSH0 DUP3 DUP3 SHR SWAP1 POP SWAP3 SWAP2 POP POP JUMP JUMPDEST PUSH0 PUSH2 0x1659 PUSH0 NOT DUP5 PUSH1 0x8 MUL PUSH2 0x163E JUMP JUMPDEST NOT DUP1 DUP4 AND SWAP2 POP POP SWAP3 SWAP2 POP POP JUMP JUMPDEST PUSH0 PUSH2 0x1671 DUP4 DUP4 PUSH2 0x164A JUMP JUMPDEST SWAP2 POP DUP3 PUSH1 0x2 MUL DUP3 OR SWAP1 POP SWAP3 SWAP2 POP POP JUMP JUMPDEST PUSH2 0x168A DUP3 PUSH2 0xC7B JUMP JUMPDEST PUSH8 0xFFFFFFFFFFFFFFFF DUP2 GT ISZERO PUSH2 0x16A3 JUMPI PUSH2 0x16A2 PUSH2 0xFB4 JUMP JUMPDEST JUMPDEST PUSH2 0x16AD DUP3 SLOAD PUSH2 0x1223 JUMP JUMPDEST PUSH2 0x16B8 DUP3 DUP3 DUP6 PUSH2 0x15F8 JUMP JUMPDEST PUSH0 PUSH1 0x20 SWAP1 POP PUSH1 0x1F DUP4 GT PUSH1 0x1 DUP2 EQ PUSH2 0x16E9 JUMPI PUSH0 DUP5 ISZERO PUSH2 0x16D7 JUMPI DUP3 DUP8 ADD MLOAD SWAP1 POP JUMPDEST PUSH2 0x16E1 DUP6 DUP3 PUSH2 0x1666 JUMP JUMPDEST DUP7 SSTORE POP PUSH2 0x1748 JUMP JUMPDEST PUSH1 0x1F NOT DUP5 AND PUSH2 0x16F7 DUP7 PUSH2 0x14E1 JUMP JUMPDEST PUSH0 JUMPDEST DUP3 DUP2 LT ISZERO PUSH2 0x171E JUMPI DUP5 DUP10 ADD MLOAD DUP3 SSTORE PUSH1 0x1 DUP3 ADD SWAP2 POP PUSH1 0x20 DUP6 ADD SWAP5 POP PUSH1 0x20 DUP2 ADD SWAP1 POP PUSH2 0x16F9 JUMP JUMPDEST DUP7 DUP4 LT ISZERO PUSH2 0x173B JUMPI DUP5 DUP10 ADD MLOAD PUSH2 0x1737 PUSH1 0x1F DUP10 AND DUP3 PUSH2 0x164A JUMP JUMPDEST DUP4 SSTORE POP JUMPDEST PUSH1 0x1 PUSH1 0x2 DUP9 MUL ADD DUP9 SSTORE POP POP POP JUMPDEST POP POP POP POP POP POP JUMP INVALID LOG2 PUSH5 0x6970667358 0x22 SLT KECCAK256 0xD8 0xB2 REVERT RJUMPI 0xE0E4 STOP AND CALL PUSH30 0xF597A48FF3840759A4871360E1EDAEF18613E87DD7BC64736F6C63430008 0x1E STOP CALLER "
				},
				"gasEstimates": {
					"creation": {
						"codeDepositCost": "1204400",
						"executionCost": "49782",
						"totalCost": "1254182"
					},
					"external": {
						"MAX_TWEET_LENGTH()": "2487",
						"changeTweetLength(uint16)": "26908",
						"createTweet(string)": "infinite",
						"getAllTweets(address)": "infinite",
						"getTweet(uint256)": "infinite",
						"likeTweet(address,uint256)": "infinite",
						"owner()": "2574",
						"tweets(address,uint256)": "infinite",
						"unlikeTweet(address,uint256)": "infinite"
					}
				},
				"methodIdentifiers": {
					"MAX_TWEET_LENGTH()": "6eb10797",
					"changeTweetLength(uint16)": "58bfa4ab",
					"createTweet(string)": "7c9cd2bc",
					"getAllTweets(address)": "12e7ee1c",
					"getTweet(uint256)": "c3ad5ecb",
					"likeTweet(address,uint256)": "63378216",
					"owner()": "8da5cb5b",
					"tweets(address,uint256)": "05a1b4a9",
					"unlikeTweet(address,uint256)": "3d9b569f"
				}
			},
			"storageLayout": {
				"storage": [
					{
						"astId": 4,
						"contract": "contracts/ultimate-solidity-course-for-complete-beginners-main/Exercises/18-Twitter-AddLike-Exercise.sol:Twitter",
						"label": "MAX_TWEET_LENGTH",
						"offset": 0,
						"slot": "0",
						"type": "t_uint16"
					},
					{
						"astId": 21,
						"contract": "contracts/ultimate-solidity-course-for-complete-beginners-main/Exercises/18-Twitter-AddLike-Exercise.sol:Twitter",
						"label": "tweets",
						"offset": 0,
						"slot": "1",
						"type": "t_mapping(t_address,t_array(t_struct(Tweet)15_storage)dyn_storage)"
					},
					{
						"astId": 23,
						"contract": "contracts/ultimate-solidity-course-for-complete-beginners-main/Exercises/18-Twitter-AddLike-Exercise.sol:Twitter",
						"label": "owner",
						"offset": 0,
						"slot": "2",
						"type": "t_address"
					}
				],
				"types": {
					"t_address": {
						"encoding": "inplace",
						"label": "address",
						"numberOfBytes": "20"
					},
					"t_array(t_struct(Tweet)15_storage)dyn_storage": {
						"base": "t_struct(Tweet)15_storage",
						"encoding": "dynamic_array",
						"label": "struct Twitter.Tweet[]",
						"numberOfBytes": "32"
					},
					"t_mapping(t_address,t_array(t_struct(Tweet)15_storage)dyn_storage)": {
						"encoding": "mapping",
						"key": "t_address",
						"label": "mapping(address => struct Twitter.Tweet[])",
						"numberOfBytes": "32",
						"value": "t_array(t_struct(Tweet)15_storage)dyn_storage"
					},
					"t_string_storage": {
						"encoding": "bytes",
						"label": "string",
						"numberOfBytes": "32"
					},
					"t_struct(Tweet)15_storage": {
						"encoding": "inplace",
						"label": "struct Twitter.Tweet",
						"members": [
							{
								"astId": 6,
								"contract": "contracts/ultimate-solidity-course-for-complete-beginners-main/Exercises/18-Twitter-AddLike-Exercise.sol:Twitter",
								"label": "id",
								"offset": 0,
								"slot": "0",
								"type": "t_uint256"
							},
							{
								"astId": 8,
								"contract": "contracts/ultimate-solidity-course-for-complete-beginners-main/Exercises/18-Twitter-AddLike-Exercise.sol:Twitter",
								"label": "author",
								"offset": 0,
								"slot": "1",
								"type": "t_address"
							},
							{
								"astId": 10,
								"contract": "contracts/ultimate-solidity-course-for-complete-beginners-main/Exercises/18-Twitter-AddLike-Exercise.sol:Twitter",
								"label": "content",
								"offset": 0,
								"slot": "2",
								"type": "t_string_storage"
							},
							{
								"astId": 12,
								"contract": "contracts/ultimate-solidity-course-for-complete-beginners-main/Exercises/18-Twitter-AddLike-Exercise.sol:Twitter",
								"label": "timestamp",
								"offset": 0,
								"slot": "3",
								"type": "t_uint256"
							},
							{
								"astId": 14,
								"contract": "contracts/ultimate-solidity-course-for-complete-beginners-main/Exercises/18-Twitter-AddLike-Exercise.sol:Twitter",
								"label": "likes",
								"offset": 0,
								"slot": "4",
								"type": "t_uint256"
							}
						],
						"numberOfBytes": "160"
					},
					"t_uint16": {
						"encoding": "inplace",
						"label": "uint16",
						"numberOfBytes": "2"
					},
					"t_uint256": {
						"encoding": "inplace",
						"label": "uint256",
						"numberOfBytes": "32"
					}
				}
			},
			"userdoc": {
				"kind": "user",
				"methods": {},
				"version": 1
			}
		}
	}
}