{
	"contracts/ultimate-solidity-course-for-complete-beginners-main/Exercises/17-Twitter-Modifier-Exercise.sol": {
		"Twitter": {
			"abi": [
				{
					"inputs": [],
					"stateMutability": "nonpayable",
					"type": "constructor"
				},
				{
					"inputs": [],
					"name": "MAX_TWEET_LENGTH",
					"outputs": [
						{
							"internalType": "uint16",
							"name": "",
							"type": "uint16"
						}
					],
					"stateMutability": "view",
					"type": "function"
				},
				{
					"inputs": [
						{
							"internalType": "uint16",
							"name": "newTweetLength",
							"type": "uint16"
						}
					],
					"name": "changeTweetLength",
					"outputs": [],
					"stateMutability": "nonpayable",
					"type": "function"
				},
				{
					"inputs": [
						{
							"internalType": "string",
							"name": "_tweet",
							"type": "string"
						}
					],
					"name": "createTweet",
					"outputs": [],
					"stateMutability": "nonpayable",
					"type": "function"
				},
				{
					"inputs": [
						{
							"internalType": "address",
							"name": "_owner",
							"type": "address"
						}
					],
					"name": "getAllTweets",
					"outputs": [
						{
							"components": [
								{
									"internalType": "address",
									"name": "author",
									"type": "address"
								},
								{
									"internalType": "string",
									"name": "content",
									"type": "string"
								},
								{
									"internalType": "uint256",
									"name": "timestamp",
									"type": "uint256"
								},
								{
									"internalType": "uint256",
									"name": "likes",
									"type": "uint256"
								}
							],
							"internalType": "struct Twitter.Tweet[]",
							"name": "",
							"type": "tuple[]"
						}
					],
					"stateMutability": "view",
					"type": "function"
				},
				{
					"inputs": [
						{
							"internalType": "uint256",
							"name": "_i",
							"type": "uint256"
						}
					],
					"name": "getTweet",
					"outputs": [
						{
							"components": [
								{
									"internalType": "address",
									"name": "author",
									"type": "address"
								},
								{
									"internalType": "string",
									"name": "content",
									"type": "string"
								},
								{
									"internalType": "uint256",
									"name": "timestamp",
									"type": "uint256"
								},
								{
									"internalType": "uint256",
									"name": "likes",
									"type": "uint256"
								}
							],
							"internalType": "struct Twitter.Tweet",
							"name": "",
							"type": "tuple"
						}
					],
					"stateMutability": "view",
					"type": "function"
				},
				{
					"inputs": [],
					"name": "owner",
					"outputs": [
						{
							"internalType": "address",
							"name": "",
							"type": "address"
						}
					],
					"stateMutability": "view",
					"type": "function"
				},
				{
					"inputs": [
						{
							"internalType": "address",
							"name": "",
							"type": "address"
						},
						{
							"internalType": "uint256",
							"name": "",
							"type": "uint256"
						}
					],
					"name": "tweets",
					"outputs": [
						{
							"internalType": "address",
							"name": "author",
							"type": "address"
						},
						{
							"internalType": "string",
							"name": "content",
							"type": "string"
						},
						{
							"internalType": "uint256",
							"name": "timestamp",
							"type": "uint256"
						},
						{
							"internalType": "uint256",
							"name": "likes",
							"type": "uint256"
						}
					],
					"stateMutability": "view",
					"type": "function"
				}
			],
			"devdoc": {
				"kind": "dev",
				"methods": {},
				"version": 1
			},
			"evm": {
				"assembly": "    /* \"contracts/ultimate-solidity-course-for-complete-beginners-main/Exercises/17-Twitter-Modifier-Exercise.sol\":361:1492  contract Twitter {... */\n  mstore(0x40, 0x80)\n    /* \"contracts/ultimate-solidity-course-for-complete-beginners-main/Exercises/17-Twitter-Modifier-Exercise.sol\":419:422  280 */\n  0x0118\n    /* \"contracts/ultimate-solidity-course-for-complete-beginners-main/Exercises/17-Twitter-Modifier-Exercise.sol\":385:422  uint16 public  MAX_TWEET_LENGTH = 280 */\n  0x00\n  exp(0x0100, 0x00)\n  dup2\n  sload\n  dup2\n  0xffff\n  mul\n  not\n  and\n  swap1\n  dup4\n  0xffff\n  and\n  mul\n  or\n  swap1\n  sstore\n  pop\n    /* \"contracts/ultimate-solidity-course-for-complete-beginners-main/Exercises/17-Twitter-Modifier-Exercise.sol\":627:675  constructor(){... */\n  callvalue\n  dup1\n  iszero\n  tag_1\n  jumpi\n  revert(0x00, 0x00)\ntag_1:\n  pop\n    /* \"contracts/ultimate-solidity-course-for-complete-beginners-main/Exercises/17-Twitter-Modifier-Exercise.sol\":658:668  msg.sender */\n  caller\n    /* \"contracts/ultimate-solidity-course-for-complete-beginners-main/Exercises/17-Twitter-Modifier-Exercise.sol\":650:655  owner */\n  0x02\n  0x00\n    /* \"contracts/ultimate-solidity-course-for-complete-beginners-main/Exercises/17-Twitter-Modifier-Exercise.sol\":650:668  owner = msg.sender */\n  0x0100\n  exp\n  dup2\n  sload\n  dup2\n  0xffffffffffffffffffffffffffffffffffffffff\n  mul\n  not\n  and\n  swap1\n  dup4\n  0xffffffffffffffffffffffffffffffffffffffff\n  and\n  mul\n  or\n  swap1\n  sstore\n  pop\n    /* \"contracts/ultimate-solidity-course-for-complete-beginners-main/Exercises/17-Twitter-Modifier-Exercise.sol\":361:1492  contract Twitter {... */\n  dataSize(sub_0)\n  dup1\n  dataOffset(sub_0)\n  0x00\n  codecopy\n  0x00\n  return\nstop\n\nsub_0: assembly {\n        /* \"contracts/ultimate-solidity-course-for-complete-beginners-main/Exercises/17-Twitter-Modifier-Exercise.sol\":361:1492  contract Twitter {... */\n      mstore(0x40, 0x80)\n      callvalue\n      dup1\n      iszero\n      tag_1\n      jumpi\n      revert(0x00, 0x00)\n    tag_1:\n      pop\n      jumpi(tag_2, lt(calldatasize, 0x04))\n      shr(0xe0, calldataload(0x00))\n      dup1\n      0x6eb10797\n      gt\n      tag_10\n      jumpi\n      dup1\n      0x6eb10797\n      eq\n      tag_6\n      jumpi\n      dup1\n      0x7c9cd2bc\n      eq\n      tag_7\n      jumpi\n      dup1\n      0x8da5cb5b\n      eq\n      tag_8\n      jumpi\n      dup1\n      0xc3ad5ecb\n      eq\n      tag_9\n      jumpi\n      jump(tag_2)\n    tag_10:\n      dup1\n      0x05a1b4a9\n      eq\n      tag_3\n      jumpi\n      dup1\n      0x12e7ee1c\n      eq\n      tag_4\n      jumpi\n      dup1\n      0x58bfa4ab\n      eq\n      tag_5\n      jumpi\n    tag_2:\n      revert(0x00, 0x00)\n        /* \"contracts/ultimate-solidity-course-for-complete-beginners-main/Exercises/17-Twitter-Modifier-Exercise.sol\":552:594  mapping(address => Tweet[] ) public tweets */\n    tag_3:\n      tag_11\n      0x04\n      dup1\n      calldatasize\n      sub\n      dup2\n      add\n      swap1\n      tag_12\n      swap2\n      swap1\n      tag_13\n      jump\t// in\n    tag_12:\n      tag_14\n      jump\t// in\n    tag_11:\n      mload(0x40)\n      tag_15\n      swap5\n      swap4\n      swap3\n      swap2\n      swap1\n      tag_16\n      jump\t// in\n    tag_15:\n      mload(0x40)\n      dup1\n      swap2\n      sub\n      swap1\n      return\n        /* \"contracts/ultimate-solidity-course-for-complete-beginners-main/Exercises/17-Twitter-Modifier-Exercise.sol\":1376:1489  function getAllTweets(address _owner) public view returns (Tweet[] memory ){... */\n    tag_4:\n      tag_17\n      0x04\n      dup1\n      calldatasize\n      sub\n      dup2\n      add\n      swap1\n      tag_18\n      swap2\n      swap1\n      tag_19\n      jump\t// in\n    tag_18:\n      tag_20\n      jump\t// in\n    tag_17:\n      mload(0x40)\n      tag_21\n      swap2\n      swap1\n      tag_22\n      jump\t// in\n    tag_21:\n      mload(0x40)\n      dup1\n      swap2\n      sub\n      swap1\n      return\n        /* \"contracts/ultimate-solidity-course-for-complete-beginners-main/Exercises/17-Twitter-Modifier-Exercise.sol\":779:887  function changeTweetLength(uint16 newTweetLength) public  {... */\n    tag_5:\n      tag_23\n      0x04\n      dup1\n      calldatasize\n      sub\n      dup2\n      add\n      swap1\n      tag_24\n      swap2\n      swap1\n      tag_25\n      jump\t// in\n    tag_24:\n      tag_26\n      jump\t// in\n    tag_23:\n      stop\n        /* \"contracts/ultimate-solidity-course-for-complete-beginners-main/Exercises/17-Twitter-Modifier-Exercise.sol\":385:422  uint16 public  MAX_TWEET_LENGTH = 280 */\n    tag_6:\n      tag_27\n      tag_28\n      jump\t// in\n    tag_27:\n      mload(0x40)\n      tag_29\n      swap2\n      swap1\n      tag_30\n      jump\t// in\n    tag_29:\n      mload(0x40)\n      dup1\n      swap2\n      sub\n      swap1\n      return\n        /* \"contracts/ultimate-solidity-course-for-complete-beginners-main/Exercises/17-Twitter-Modifier-Exercise.sol\":893:1255  function createTweet(string memory _tweet) public {... */\n    tag_7:\n      tag_31\n      0x04\n      dup1\n      calldatasize\n      sub\n      dup2\n      add\n      swap1\n      tag_32\n      swap2\n      swap1\n      tag_33\n      jump\t// in\n    tag_32:\n      tag_34\n      jump\t// in\n    tag_31:\n      stop\n        /* \"contracts/ultimate-solidity-course-for-complete-beginners-main/Exercises/17-Twitter-Modifier-Exercise.sol\":600:620  address public owner */\n    tag_8:\n      tag_35\n      tag_36\n      jump\t// in\n    tag_35:\n      mload(0x40)\n      tag_37\n      swap2\n      swap1\n      tag_38\n      jump\t// in\n    tag_37:\n      mload(0x40)\n      dup1\n      swap2\n      sub\n      swap1\n      return\n        /* \"contracts/ultimate-solidity-course-for-complete-beginners-main/Exercises/17-Twitter-Modifier-Exercise.sol\":1261:1370  function getTweet( uint _i) public view returns (Tweet memory) {... */\n    tag_9:\n      tag_39\n      0x04\n      dup1\n      calldatasize\n      sub\n      dup2\n      add\n      swap1\n      tag_40\n      swap2\n      swap1\n      tag_41\n      jump\t// in\n    tag_40:\n      tag_42\n      jump\t// in\n    tag_39:\n      mload(0x40)\n      tag_43\n      swap2\n      swap1\n      tag_44\n      jump\t// in\n    tag_43:\n      mload(0x40)\n      dup1\n      swap2\n      sub\n      swap1\n      return\n        /* \"contracts/ultimate-solidity-course-for-complete-beginners-main/Exercises/17-Twitter-Modifier-Exercise.sol\":552:594  mapping(address => Tweet[] ) public tweets */\n    tag_14:\n      mstore(0x20, 0x01)\n      dup2\n      0x00\n      mstore\n      keccak256(0x00, 0x40)\n      dup2\n      dup2\n      sload\n      dup2\n      lt\n      tag_45\n      jumpi\n      0x00\n      dup1\n      revert\n    tag_45:\n      swap1\n      0x00\n      mstore\n      keccak256(0x00, 0x20)\n      swap1\n      0x04\n      mul\n      add\n      0x00\n      swap2\n      pop\n      swap2\n      pop\n      pop\n      dup1\n      0x00\n      add\n      0x00\n      swap1\n      sload\n      swap1\n      0x0100\n      exp\n      swap1\n      div\n      0xffffffffffffffffffffffffffffffffffffffff\n      and\n      swap1\n      dup1\n      0x01\n      add\n      dup1\n      sload\n      tag_47\n      swap1\n      tag_48\n      jump\t// in\n    tag_47:\n      dup1\n      0x1f\n      add\n      0x20\n      dup1\n      swap2\n      div\n      mul\n      0x20\n      add\n      mload(0x40)\n      swap1\n      dup2\n      add\n      0x40\n      mstore\n      dup1\n      swap3\n      swap2\n      swap1\n      dup2\n      dup2\n      mstore\n      0x20\n      add\n      dup3\n      dup1\n      sload\n      tag_49\n      swap1\n      tag_48\n      jump\t// in\n    tag_49:\n      dup1\n      iszero\n      tag_50\n      jumpi\n      dup1\n      0x1f\n      lt\n      tag_51\n      jumpi\n      0x0100\n      dup1\n      dup4\n      sload\n      div\n      mul\n      dup4\n      mstore\n      swap2\n      0x20\n      add\n      swap2\n      jump(tag_50)\n    tag_51:\n      dup3\n      add\n      swap2\n      swap1\n      0x00\n      mstore\n      keccak256(0x00, 0x20)\n      swap1\n    tag_52:\n      dup2\n      sload\n      dup2\n      mstore\n      swap1\n      0x01\n      add\n      swap1\n      0x20\n      add\n      dup1\n      dup4\n      gt\n      tag_52\n      jumpi\n      dup3\n      swap1\n      sub\n      0x1f\n      and\n      dup3\n      add\n      swap2\n    tag_50:\n      pop\n      pop\n      pop\n      pop\n      pop\n      swap1\n      dup1\n      0x02\n      add\n      sload\n      swap1\n      dup1\n      0x03\n      add\n      sload\n      swap1\n      pop\n      dup5\n      jump\t// out\n        /* \"contracts/ultimate-solidity-course-for-complete-beginners-main/Exercises/17-Twitter-Modifier-Exercise.sol\":1376:1489  function getAllTweets(address _owner) public view returns (Tweet[] memory ){... */\n    tag_20:\n        /* \"contracts/ultimate-solidity-course-for-complete-beginners-main/Exercises/17-Twitter-Modifier-Exercise.sol\":1435:1449  Tweet[] memory */\n      0x60\n        /* \"contracts/ultimate-solidity-course-for-complete-beginners-main/Exercises/17-Twitter-Modifier-Exercise.sol\":1468:1474  tweets */\n      0x01\n        /* \"contracts/ultimate-solidity-course-for-complete-beginners-main/Exercises/17-Twitter-Modifier-Exercise.sol\":1468:1482  tweets[_owner] */\n      0x00\n        /* \"contracts/ultimate-solidity-course-for-complete-beginners-main/Exercises/17-Twitter-Modifier-Exercise.sol\":1475:1481  _owner */\n      dup4\n        /* \"contracts/ultimate-solidity-course-for-complete-beginners-main/Exercises/17-Twitter-Modifier-Exercise.sol\":1468:1482  tweets[_owner] */\n      0xffffffffffffffffffffffffffffffffffffffff\n      and\n      0xffffffffffffffffffffffffffffffffffffffff\n      and\n      dup2\n      mstore\n      0x20\n      add\n      swap1\n      dup2\n      mstore\n      0x20\n      add\n      0x00\n      keccak256\n        /* \"contracts/ultimate-solidity-course-for-complete-beginners-main/Exercises/17-Twitter-Modifier-Exercise.sol\":1461:1482  return tweets[_owner] */\n      dup1\n      sload\n      dup1\n      0x20\n      mul\n      0x20\n      add\n      mload(0x40)\n      swap1\n      dup2\n      add\n      0x40\n      mstore\n      dup1\n      swap3\n      swap2\n      swap1\n      dup2\n      dup2\n      mstore\n      0x20\n      add\n      0x00\n      swap1\n    tag_54:\n      dup3\n      dup3\n      lt\n      iszero\n      tag_55\n      jumpi\n      dup4\n      dup3\n      swap1\n      0x00\n      mstore\n      keccak256(0x00, 0x20)\n      swap1\n      0x04\n      mul\n      add\n      mload(0x40)\n      dup1\n      0x80\n      add\n      0x40\n      mstore\n      swap1\n      dup2\n      0x00\n      dup3\n      add\n      0x00\n      swap1\n      sload\n      swap1\n      0x0100\n      exp\n      swap1\n      div\n      0xffffffffffffffffffffffffffffffffffffffff\n      and\n      0xffffffffffffffffffffffffffffffffffffffff\n      and\n      0xffffffffffffffffffffffffffffffffffffffff\n      and\n      dup2\n      mstore\n      0x20\n      add\n      0x01\n      dup3\n      add\n      dup1\n      sload\n      tag_57\n      swap1\n      tag_48\n      jump\t// in\n    tag_57:\n      dup1\n      0x1f\n      add\n      0x20\n      dup1\n      swap2\n      div\n      mul\n      0x20\n      add\n      mload(0x40)\n      swap1\n      dup2\n      add\n      0x40\n      mstore\n      dup1\n      swap3\n      swap2\n      swap1\n      dup2\n      dup2\n      mstore\n      0x20\n      add\n      dup3\n      dup1\n      sload\n      tag_58\n      swap1\n      tag_48\n      jump\t// in\n    tag_58:\n      dup1\n      iszero\n      tag_59\n      jumpi\n      dup1\n      0x1f\n      lt\n      tag_60\n      jumpi\n      0x0100\n      dup1\n      dup4\n      sload\n      div\n      mul\n      dup4\n      mstore\n      swap2\n      0x20\n      add\n      swap2\n      jump(tag_59)\n    tag_60:\n      dup3\n      add\n      swap2\n      swap1\n      0x00\n      mstore\n      keccak256(0x00, 0x20)\n      swap1\n    tag_61:\n      dup2\n      sload\n      dup2\n      mstore\n      swap1\n      0x01\n      add\n      swap1\n      0x20\n      add\n      dup1\n      dup4\n      gt\n      tag_61\n      jumpi\n      dup3\n      swap1\n      sub\n      0x1f\n      and\n      dup3\n      add\n      swap2\n    tag_59:\n      pop\n      pop\n      pop\n      pop\n      pop\n      dup2\n      mstore\n      0x20\n      add\n      0x02\n      dup3\n      add\n      sload\n      dup2\n      mstore\n      0x20\n      add\n      0x03\n      dup3\n      add\n      sload\n      dup2\n      mstore\n      pop\n      pop\n      dup2\n      mstore\n      0x20\n      add\n      swap1\n      0x01\n      add\n      swap1\n      jump(tag_54)\n    tag_55:\n      pop\n      pop\n      pop\n      pop\n      swap1\n      pop\n        /* \"contracts/ultimate-solidity-course-for-complete-beginners-main/Exercises/17-Twitter-Modifier-Exercise.sol\":1376:1489  function getAllTweets(address _owner) public view returns (Tweet[] memory ){... */\n      swap2\n      swap1\n      pop\n      jump\t// out\n        /* \"contracts/ultimate-solidity-course-for-complete-beginners-main/Exercises/17-Twitter-Modifier-Exercise.sol\":779:887  function changeTweetLength(uint16 newTweetLength) public  {... */\n    tag_26:\n        /* \"contracts/ultimate-solidity-course-for-complete-beginners-main/Exercises/17-Twitter-Modifier-Exercise.sol\":866:880  newTweetLength */\n      dup1\n        /* \"contracts/ultimate-solidity-course-for-complete-beginners-main/Exercises/17-Twitter-Modifier-Exercise.sol\":847:863  MAX_TWEET_LENGTH */\n      0x00\n      0x00\n        /* \"contracts/ultimate-solidity-course-for-complete-beginners-main/Exercises/17-Twitter-Modifier-Exercise.sol\":847:880  MAX_TWEET_LENGTH = newTweetLength */\n      0x0100\n      exp\n      dup2\n      sload\n      dup2\n      0xffff\n      mul\n      not\n      and\n      swap1\n      dup4\n      0xffff\n      and\n      mul\n      or\n      swap1\n      sstore\n      pop\n        /* \"contracts/ultimate-solidity-course-for-complete-beginners-main/Exercises/17-Twitter-Modifier-Exercise.sol\":779:887  function changeTweetLength(uint16 newTweetLength) public  {... */\n      pop\n      jump\t// out\n        /* \"contracts/ultimate-solidity-course-for-complete-beginners-main/Exercises/17-Twitter-Modifier-Exercise.sol\":385:422  uint16 public  MAX_TWEET_LENGTH = 280 */\n    tag_28:\n      0x00\n      0x00\n      swap1\n      sload\n      swap1\n      0x0100\n      exp\n      swap1\n      div\n      0xffff\n      and\n      dup2\n      jump\t// out\n        /* \"contracts/ultimate-solidity-course-for-complete-beginners-main/Exercises/17-Twitter-Modifier-Exercise.sol\":893:1255  function createTweet(string memory _tweet) public {... */\n    tag_34:\n        /* \"contracts/ultimate-solidity-course-for-complete-beginners-main/Exercises/17-Twitter-Modifier-Exercise.sol\":985:1001  MAX_TWEET_LENGTH */\n      0x00\n      0x00\n      swap1\n      sload\n      swap1\n      0x0100\n      exp\n      swap1\n      div\n      0xffff\n      and\n        /* \"contracts/ultimate-solidity-course-for-complete-beginners-main/Exercises/17-Twitter-Modifier-Exercise.sol\":961:1001  bytes(_tweet).length <= MAX_TWEET_LENGTH */\n      0xffff\n      and\n        /* \"contracts/ultimate-solidity-course-for-complete-beginners-main/Exercises/17-Twitter-Modifier-Exercise.sol\":967:973  _tweet */\n      dup2\n        /* \"contracts/ultimate-solidity-course-for-complete-beginners-main/Exercises/17-Twitter-Modifier-Exercise.sol\":961:981  bytes(_tweet).length */\n      mload\n        /* \"contracts/ultimate-solidity-course-for-complete-beginners-main/Exercises/17-Twitter-Modifier-Exercise.sol\":961:1001  bytes(_tweet).length <= MAX_TWEET_LENGTH */\n      gt\n      iszero\n        /* \"contracts/ultimate-solidity-course-for-complete-beginners-main/Exercises/17-Twitter-Modifier-Exercise.sol\":953:1029  require(bytes(_tweet).length <= MAX_TWEET_LENGTH, \"Tweet is too long bro!\" ) */\n      tag_64\n      jumpi\n      mload(0x40)\n      0x08c379a000000000000000000000000000000000000000000000000000000000\n      dup2\n      mstore\n      0x04\n      add\n      tag_65\n      swap1\n      tag_66\n      jump\t// in\n    tag_65:\n      mload(0x40)\n      dup1\n      swap2\n      sub\n      swap1\n      revert\n    tag_64:\n        /* \"contracts/ultimate-solidity-course-for-complete-beginners-main/Exercises/17-Twitter-Modifier-Exercise.sol\":1040:1061  Tweet memory newTweet */\n      0x00\n        /* \"contracts/ultimate-solidity-course-for-complete-beginners-main/Exercises/17-Twitter-Modifier-Exercise.sol\":1064:1204  Tweet({... */\n      mload(0x40)\n      dup1\n      0x80\n      add\n      0x40\n      mstore\n      dup1\n        /* \"contracts/ultimate-solidity-course-for-complete-beginners-main/Exercises/17-Twitter-Modifier-Exercise.sol\":1092:1102  msg.sender */\n      caller\n        /* \"contracts/ultimate-solidity-course-for-complete-beginners-main/Exercises/17-Twitter-Modifier-Exercise.sol\":1064:1204  Tweet({... */\n      0xffffffffffffffffffffffffffffffffffffffff\n      and\n      dup2\n      mstore\n      0x20\n      add\n        /* \"contracts/ultimate-solidity-course-for-complete-beginners-main/Exercises/17-Twitter-Modifier-Exercise.sol\":1125:1131  _tweet */\n      dup4\n        /* \"contracts/ultimate-solidity-course-for-complete-beginners-main/Exercises/17-Twitter-Modifier-Exercise.sol\":1064:1204  Tweet({... */\n      dup2\n      mstore\n      0x20\n      add\n        /* \"contracts/ultimate-solidity-course-for-complete-beginners-main/Exercises/17-Twitter-Modifier-Exercise.sol\":1156:1171  block.timestamp */\n      timestamp\n        /* \"contracts/ultimate-solidity-course-for-complete-beginners-main/Exercises/17-Twitter-Modifier-Exercise.sol\":1064:1204  Tweet({... */\n      dup2\n      mstore\n      0x20\n      add\n        /* \"contracts/ultimate-solidity-course-for-complete-beginners-main/Exercises/17-Twitter-Modifier-Exercise.sol\":1192:1193  0 */\n      0x00\n        /* \"contracts/ultimate-solidity-course-for-complete-beginners-main/Exercises/17-Twitter-Modifier-Exercise.sol\":1064:1204  Tweet({... */\n      dup2\n      mstore\n      pop\n        /* \"contracts/ultimate-solidity-course-for-complete-beginners-main/Exercises/17-Twitter-Modifier-Exercise.sol\":1040:1204  Tweet memory newTweet = Tweet({... */\n      swap1\n      pop\n        /* \"contracts/ultimate-solidity-course-for-complete-beginners-main/Exercises/17-Twitter-Modifier-Exercise.sol\":1215:1221  tweets */\n      0x01\n        /* \"contracts/ultimate-solidity-course-for-complete-beginners-main/Exercises/17-Twitter-Modifier-Exercise.sol\":1215:1233  tweets[msg.sender] */\n      0x00\n        /* \"contracts/ultimate-solidity-course-for-complete-beginners-main/Exercises/17-Twitter-Modifier-Exercise.sol\":1222:1232  msg.sender */\n      caller\n        /* \"contracts/ultimate-solidity-course-for-complete-beginners-main/Exercises/17-Twitter-Modifier-Exercise.sol\":1215:1233  tweets[msg.sender] */\n      0xffffffffffffffffffffffffffffffffffffffff\n      and\n      0xffffffffffffffffffffffffffffffffffffffff\n      and\n      dup2\n      mstore\n      0x20\n      add\n      swap1\n      dup2\n      mstore\n      0x20\n      add\n      0x00\n      keccak256\n        /* \"contracts/ultimate-solidity-course-for-complete-beginners-main/Exercises/17-Twitter-Modifier-Exercise.sol\":1239:1247  newTweet */\n      dup2\n        /* \"contracts/ultimate-solidity-course-for-complete-beginners-main/Exercises/17-Twitter-Modifier-Exercise.sol\":1215:1248  tweets[msg.sender].push(newTweet) */\n      swap1\n      dup1\n      0x01\n      dup2\n      sload\n      add\n      dup1\n      dup3\n      sstore\n      dup1\n      swap2\n      pop\n      pop\n      0x01\n      swap1\n      sub\n      swap1\n      0x00\n      mstore\n      keccak256(0x00, 0x20)\n      swap1\n      0x04\n      mul\n      add\n      0x00\n      swap1\n      swap2\n      swap1\n      swap2\n      swap1\n      swap2\n      pop\n      0x00\n      dup3\n      add\n      mload\n      dup2\n      0x00\n      add\n      exp(0x0100, 0x00)\n      dup2\n      sload\n      dup2\n      0xffffffffffffffffffffffffffffffffffffffff\n      mul\n      not\n      and\n      swap1\n      dup4\n      0xffffffffffffffffffffffffffffffffffffffff\n      and\n      mul\n      or\n      swap1\n      sstore\n      pop\n      0x20\n      dup3\n      add\n      mload\n      dup2\n      0x01\n      add\n      swap1\n      dup2\n      tag_68\n      swap2\n      swap1\n      tag_69\n      jump\t// in\n    tag_68:\n      pop\n      0x40\n      dup3\n      add\n      mload\n      dup2\n      0x02\n      add\n      sstore\n      0x60\n      dup3\n      add\n      mload\n      dup2\n      0x03\n      add\n      sstore\n      pop\n      pop\n        /* \"contracts/ultimate-solidity-course-for-complete-beginners-main/Exercises/17-Twitter-Modifier-Exercise.sol\":943:1255  {... */\n      pop\n        /* \"contracts/ultimate-solidity-course-for-complete-beginners-main/Exercises/17-Twitter-Modifier-Exercise.sol\":893:1255  function createTweet(string memory _tweet) public {... */\n      pop\n      jump\t// out\n        /* \"contracts/ultimate-solidity-course-for-complete-beginners-main/Exercises/17-Twitter-Modifier-Exercise.sol\":600:620  address public owner */\n    tag_36:\n      0x02\n      0x00\n      swap1\n      sload\n      swap1\n      0x0100\n      exp\n      swap1\n      div\n      0xffffffffffffffffffffffffffffffffffffffff\n      and\n      dup2\n      jump\t// out\n        /* \"contracts/ultimate-solidity-course-for-complete-beginners-main/Exercises/17-Twitter-Modifier-Exercise.sol\":1261:1370  function getTweet( uint _i) public view returns (Tweet memory) {... */\n    tag_42:\n        /* \"contracts/ultimate-solidity-course-for-complete-beginners-main/Exercises/17-Twitter-Modifier-Exercise.sol\":1310:1322  Tweet memory */\n      tag_70\n      tag_71\n      jump\t// in\n    tag_70:\n        /* \"contracts/ultimate-solidity-course-for-complete-beginners-main/Exercises/17-Twitter-Modifier-Exercise.sol\":1341:1347  tweets */\n      0x01\n        /* \"contracts/ultimate-solidity-course-for-complete-beginners-main/Exercises/17-Twitter-Modifier-Exercise.sol\":1341:1359  tweets[msg.sender] */\n      0x00\n        /* \"contracts/ultimate-solidity-course-for-complete-beginners-main/Exercises/17-Twitter-Modifier-Exercise.sol\":1348:1358  msg.sender */\n      caller\n        /* \"contracts/ultimate-solidity-course-for-complete-beginners-main/Exercises/17-Twitter-Modifier-Exercise.sol\":1341:1359  tweets[msg.sender] */\n      0xffffffffffffffffffffffffffffffffffffffff\n      and\n      0xffffffffffffffffffffffffffffffffffffffff\n      and\n      dup2\n      mstore\n      0x20\n      add\n      swap1\n      dup2\n      mstore\n      0x20\n      add\n      0x00\n      keccak256\n        /* \"contracts/ultimate-solidity-course-for-complete-beginners-main/Exercises/17-Twitter-Modifier-Exercise.sol\":1360:1362  _i */\n      dup3\n        /* \"contracts/ultimate-solidity-course-for-complete-beginners-main/Exercises/17-Twitter-Modifier-Exercise.sol\":1341:1363  tweets[msg.sender][_i] */\n      dup2\n      sload\n      dup2\n      lt\n      tag_73\n      jumpi\n      tag_74\n      tag_75\n      jump\t// in\n    tag_74:\n    tag_73:\n      swap1\n      0x00\n      mstore\n      keccak256(0x00, 0x20)\n      swap1\n      0x04\n      mul\n      add\n        /* \"contracts/ultimate-solidity-course-for-complete-beginners-main/Exercises/17-Twitter-Modifier-Exercise.sol\":1334:1363  return tweets[msg.sender][_i] */\n      mload(0x40)\n      dup1\n      0x80\n      add\n      0x40\n      mstore\n      swap1\n      dup2\n      0x00\n      dup3\n      add\n      0x00\n      swap1\n      sload\n      swap1\n      0x0100\n      exp\n      swap1\n      div\n      0xffffffffffffffffffffffffffffffffffffffff\n      and\n      0xffffffffffffffffffffffffffffffffffffffff\n      and\n      0xffffffffffffffffffffffffffffffffffffffff\n      and\n      dup2\n      mstore\n      0x20\n      add\n      0x01\n      dup3\n      add\n      dup1\n      sload\n      tag_77\n      swap1\n      tag_48\n      jump\t// in\n    tag_77:\n      dup1\n      0x1f\n      add\n      0x20\n      dup1\n      swap2\n      div\n      mul\n      0x20\n      add\n      mload(0x40)\n      swap1\n      dup2\n      add\n      0x40\n      mstore\n      dup1\n      swap3\n      swap2\n      swap1\n      dup2\n      dup2\n      mstore\n      0x20\n      add\n      dup3\n      dup1\n      sload\n      tag_78\n      swap1\n      tag_48\n      jump\t// in\n    tag_78:\n      dup1\n      iszero\n      tag_79\n      jumpi\n      dup1\n      0x1f\n      lt\n      tag_80\n      jumpi\n      0x0100\n      dup1\n      dup4\n      sload\n      div\n      mul\n      dup4\n      mstore\n      swap2\n      0x20\n      add\n      swap2\n      jump(tag_79)\n    tag_80:\n      dup3\n      add\n      swap2\n      swap1\n      0x00\n      mstore\n      keccak256(0x00, 0x20)\n      swap1\n    tag_81:\n      dup2\n      sload\n      dup2\n      mstore\n      swap1\n      0x01\n      add\n      swap1\n      0x20\n      add\n      dup1\n      dup4\n      gt\n      tag_81\n      jumpi\n      dup3\n      swap1\n      sub\n      0x1f\n      and\n      dup3\n      add\n      swap2\n    tag_79:\n      pop\n      pop\n      pop\n      pop\n      pop\n      dup2\n      mstore\n      0x20\n      add\n      0x02\n      dup3\n      add\n      sload\n      dup2\n      mstore\n      0x20\n      add\n      0x03\n      dup3\n      add\n      sload\n      dup2\n      mstore\n      pop\n      pop\n      swap1\n      pop\n        /* \"contracts/ultimate-solidity-course-for-complete-beginners-main/Exercises/17-Twitter-Modifier-Exercise.sol\":1261:1370  function getTweet( uint _i) public view returns (Tweet memory) {... */\n      swap2\n      swap1\n      pop\n      jump\t// out\n    tag_71:\n      mload(0x40)\n      dup1\n      0x80\n      add\n      0x40\n      mstore\n      dup1\n      and(0xffffffffffffffffffffffffffffffffffffffff, 0x00)\n      dup2\n      mstore\n      0x20\n      add\n      0x60\n      dup2\n      mstore\n      0x20\n      add\n      0x00\n      dup2\n      mstore\n      0x20\n      add\n      0x00\n      dup2\n      mstore\n      pop\n      swap1\n      jump\t// out\n        /* \"#utility.yul\":7:82   */\n    tag_82:\n        /* \"#utility.yul\":40:46   */\n      0x00\n        /* \"#utility.yul\":73:75   */\n      0x40\n        /* \"#utility.yul\":67:76   */\n      mload\n        /* \"#utility.yul\":57:76   */\n      swap1\n      pop\n        /* \"#utility.yul\":7:82   */\n      swap1\n      jump\t// out\n        /* \"#utility.yul\":88:205   */\n    tag_83:\n        /* \"#utility.yul\":197:198   */\n      0x00\n        /* \"#utility.yul\":194:195   */\n      0x00\n        /* \"#utility.yul\":187:199   */\n      revert\n        /* \"#utility.yul\":211:328   */\n    tag_84:\n        /* \"#utility.yul\":320:321   */\n      0x00\n        /* \"#utility.yul\":317:318   */\n      0x00\n        /* \"#utility.yul\":310:322   */\n      revert\n        /* \"#utility.yul\":334:460   */\n    tag_85:\n        /* \"#utility.yul\":371:378   */\n      0x00\n        /* \"#utility.yul\":411:453   */\n      0xffffffffffffffffffffffffffffffffffffffff\n        /* \"#utility.yul\":404:409   */\n      dup3\n        /* \"#utility.yul\":400:454   */\n      and\n        /* \"#utility.yul\":389:454   */\n      swap1\n      pop\n        /* \"#utility.yul\":334:460   */\n      swap2\n      swap1\n      pop\n      jump\t// out\n        /* \"#utility.yul\":466:562   */\n    tag_86:\n        /* \"#utility.yul\":503:510   */\n      0x00\n        /* \"#utility.yul\":532:556   */\n      tag_148\n        /* \"#utility.yul\":550:555   */\n      dup3\n        /* \"#utility.yul\":532:556   */\n      tag_85\n      jump\t// in\n    tag_148:\n        /* \"#utility.yul\":521:556   */\n      swap1\n      pop\n        /* \"#utility.yul\":466:562   */\n      swap2\n      swap1\n      pop\n      jump\t// out\n        /* \"#utility.yul\":568:690   */\n    tag_87:\n        /* \"#utility.yul\":641:665   */\n      tag_150\n        /* \"#utility.yul\":659:664   */\n      dup2\n        /* \"#utility.yul\":641:665   */\n      tag_86\n      jump\t// in\n    tag_150:\n        /* \"#utility.yul\":634:639   */\n      dup2\n        /* \"#utility.yul\":631:666   */\n      eq\n        /* \"#utility.yul\":621:684   */\n      tag_151\n      jumpi\n        /* \"#utility.yul\":680:681   */\n      0x00\n        /* \"#utility.yul\":677:678   */\n      0x00\n        /* \"#utility.yul\":670:682   */\n      revert\n        /* \"#utility.yul\":621:684   */\n    tag_151:\n        /* \"#utility.yul\":568:690   */\n      pop\n      jump\t// out\n        /* \"#utility.yul\":696:835   */\n    tag_88:\n        /* \"#utility.yul\":742:747   */\n      0x00\n        /* \"#utility.yul\":780:786   */\n      dup2\n        /* \"#utility.yul\":767:787   */\n      calldataload\n        /* \"#utility.yul\":758:787   */\n      swap1\n      pop\n        /* \"#utility.yul\":796:829   */\n      tag_153\n        /* \"#utility.yul\":823:828   */\n      dup2\n        /* \"#utility.yul\":796:829   */\n      tag_87\n      jump\t// in\n    tag_153:\n        /* \"#utility.yul\":696:835   */\n      swap3\n      swap2\n      pop\n      pop\n      jump\t// out\n        /* \"#utility.yul\":841:918   */\n    tag_89:\n        /* \"#utility.yul\":878:885   */\n      0x00\n        /* \"#utility.yul\":907:912   */\n      dup2\n        /* \"#utility.yul\":896:912   */\n      swap1\n      pop\n        /* \"#utility.yul\":841:918   */\n      swap2\n      swap1\n      pop\n      jump\t// out\n        /* \"#utility.yul\":924:1046   */\n    tag_90:\n        /* \"#utility.yul\":997:1021   */\n      tag_156\n        /* \"#utility.yul\":1015:1020   */\n      dup2\n        /* \"#utility.yul\":997:1021   */\n      tag_89\n      jump\t// in\n    tag_156:\n        /* \"#utility.yul\":990:995   */\n      dup2\n        /* \"#utility.yul\":987:1022   */\n      eq\n        /* \"#utility.yul\":977:1040   */\n      tag_157\n      jumpi\n        /* \"#utility.yul\":1036:1037   */\n      0x00\n        /* \"#utility.yul\":1033:1034   */\n      0x00\n        /* \"#utility.yul\":1026:1038   */\n      revert\n        /* \"#utility.yul\":977:1040   */\n    tag_157:\n        /* \"#utility.yul\":924:1046   */\n      pop\n      jump\t// out\n        /* \"#utility.yul\":1052:1191   */\n    tag_91:\n        /* \"#utility.yul\":1098:1103   */\n      0x00\n        /* \"#utility.yul\":1136:1142   */\n      dup2\n        /* \"#utility.yul\":1123:1143   */\n      calldataload\n        /* \"#utility.yul\":1114:1143   */\n      swap1\n      pop\n        /* \"#utility.yul\":1152:1185   */\n      tag_159\n        /* \"#utility.yul\":1179:1184   */\n      dup2\n        /* \"#utility.yul\":1152:1185   */\n      tag_90\n      jump\t// in\n    tag_159:\n        /* \"#utility.yul\":1052:1191   */\n      swap3\n      swap2\n      pop\n      pop\n      jump\t// out\n        /* \"#utility.yul\":1197:1671   */\n    tag_13:\n        /* \"#utility.yul\":1265:1271   */\n      0x00\n        /* \"#utility.yul\":1273:1279   */\n      0x00\n        /* \"#utility.yul\":1322:1324   */\n      0x40\n        /* \"#utility.yul\":1310:1319   */\n      dup4\n        /* \"#utility.yul\":1301:1308   */\n      dup6\n        /* \"#utility.yul\":1297:1320   */\n      sub\n        /* \"#utility.yul\":1293:1325   */\n      slt\n        /* \"#utility.yul\":1290:1409   */\n      iszero\n      tag_161\n      jumpi\n        /* \"#utility.yul\":1328:1407   */\n      tag_162\n      tag_83\n      jump\t// in\n    tag_162:\n        /* \"#utility.yul\":1290:1409   */\n    tag_161:\n        /* \"#utility.yul\":1448:1449   */\n      0x00\n        /* \"#utility.yul\":1473:1526   */\n      tag_163\n        /* \"#utility.yul\":1518:1525   */\n      dup6\n        /* \"#utility.yul\":1509:1515   */\n      dup3\n        /* \"#utility.yul\":1498:1507   */\n      dup7\n        /* \"#utility.yul\":1494:1516   */\n      add\n        /* \"#utility.yul\":1473:1526   */\n      tag_88\n      jump\t// in\n    tag_163:\n        /* \"#utility.yul\":1463:1526   */\n      swap3\n      pop\n        /* \"#utility.yul\":1419:1536   */\n      pop\n        /* \"#utility.yul\":1575:1577   */\n      0x20\n        /* \"#utility.yul\":1601:1654   */\n      tag_164\n        /* \"#utility.yul\":1646:1653   */\n      dup6\n        /* \"#utility.yul\":1637:1643   */\n      dup3\n        /* \"#utility.yul\":1626:1635   */\n      dup7\n        /* \"#utility.yul\":1622:1644   */\n      add\n        /* \"#utility.yul\":1601:1654   */\n      tag_91\n      jump\t// in\n    tag_164:\n        /* \"#utility.yul\":1591:1654   */\n      swap2\n      pop\n        /* \"#utility.yul\":1546:1664   */\n      pop\n        /* \"#utility.yul\":1197:1671   */\n      swap3\n      pop\n      swap3\n      swap1\n      pop\n      jump\t// out\n        /* \"#utility.yul\":1677:1795   */\n    tag_92:\n        /* \"#utility.yul\":1764:1788   */\n      tag_166\n        /* \"#utility.yul\":1782:1787   */\n      dup2\n        /* \"#utility.yul\":1764:1788   */\n      tag_86\n      jump\t// in\n    tag_166:\n        /* \"#utility.yul\":1759:1762   */\n      dup3\n        /* \"#utility.yul\":1752:1789   */\n      mstore\n        /* \"#utility.yul\":1677:1795   */\n      pop\n      pop\n      jump\t// out\n        /* \"#utility.yul\":1801:1900   */\n    tag_93:\n        /* \"#utility.yul\":1853:1859   */\n      0x00\n        /* \"#utility.yul\":1887:1892   */\n      dup2\n        /* \"#utility.yul\":1881:1893   */\n      mload\n        /* \"#utility.yul\":1871:1893   */\n      swap1\n      pop\n        /* \"#utility.yul\":1801:1900   */\n      swap2\n      swap1\n      pop\n      jump\t// out\n        /* \"#utility.yul\":1906:2075   */\n    tag_94:\n        /* \"#utility.yul\":1990:2001   */\n      0x00\n        /* \"#utility.yul\":2024:2030   */\n      dup3\n        /* \"#utility.yul\":2019:2022   */\n      dup3\n        /* \"#utility.yul\":2012:2031   */\n      mstore\n        /* \"#utility.yul\":2064:2068   */\n      0x20\n        /* \"#utility.yul\":2059:2062   */\n      dup3\n        /* \"#utility.yul\":2055:2069   */\n      add\n        /* \"#utility.yul\":2040:2069   */\n      swap1\n      pop\n        /* \"#utility.yul\":1906:2075   */\n      swap3\n      swap2\n      pop\n      pop\n      jump\t// out\n        /* \"#utility.yul\":2081:2220   */\n    tag_95:\n        /* \"#utility.yul\":2170:2176   */\n      dup3\n        /* \"#utility.yul\":2165:2168   */\n      dup2\n        /* \"#utility.yul\":2160:2163   */\n      dup4\n        /* \"#utility.yul\":2154:2177   */\n      mcopy\n        /* \"#utility.yul\":2211:2212   */\n      0x00\n        /* \"#utility.yul\":2202:2208   */\n      dup4\n        /* \"#utility.yul\":2197:2200   */\n      dup4\n        /* \"#utility.yul\":2193:2209   */\n      add\n        /* \"#utility.yul\":2186:2213   */\n      mstore\n        /* \"#utility.yul\":2081:2220   */\n      pop\n      pop\n      pop\n      jump\t// out\n        /* \"#utility.yul\":2226:2328   */\n    tag_96:\n        /* \"#utility.yul\":2267:2273   */\n      0x00\n        /* \"#utility.yul\":2318:2320   */\n      0x1f\n        /* \"#utility.yul\":2314:2321   */\n      not\n        /* \"#utility.yul\":2309:2311   */\n      0x1f\n        /* \"#utility.yul\":2302:2307   */\n      dup4\n        /* \"#utility.yul\":2298:2312   */\n      add\n        /* \"#utility.yul\":2294:2322   */\n      and\n        /* \"#utility.yul\":2284:2322   */\n      swap1\n      pop\n        /* \"#utility.yul\":2226:2328   */\n      swap2\n      swap1\n      pop\n      jump\t// out\n        /* \"#utility.yul\":2334:2711   */\n    tag_97:\n        /* \"#utility.yul\":2422:2425   */\n      0x00\n        /* \"#utility.yul\":2450:2489   */\n      tag_172\n        /* \"#utility.yul\":2483:2488   */\n      dup3\n        /* \"#utility.yul\":2450:2489   */\n      tag_93\n      jump\t// in\n    tag_172:\n        /* \"#utility.yul\":2505:2576   */\n      tag_173\n        /* \"#utility.yul\":2569:2575   */\n      dup2\n        /* \"#utility.yul\":2564:2567   */\n      dup6\n        /* \"#utility.yul\":2505:2576   */\n      tag_94\n      jump\t// in\n    tag_173:\n        /* \"#utility.yul\":2498:2576   */\n      swap4\n      pop\n        /* \"#utility.yul\":2585:2650   */\n      tag_174\n        /* \"#utility.yul\":2643:2649   */\n      dup2\n        /* \"#utility.yul\":2638:2641   */\n      dup6\n        /* \"#utility.yul\":2631:2635   */\n      0x20\n        /* \"#utility.yul\":2624:2629   */\n      dup7\n        /* \"#utility.yul\":2620:2636   */\n      add\n        /* \"#utility.yul\":2585:2650   */\n      tag_95\n      jump\t// in\n    tag_174:\n        /* \"#utility.yul\":2675:2704   */\n      tag_175\n        /* \"#utility.yul\":2697:2703   */\n      dup2\n        /* \"#utility.yul\":2675:2704   */\n      tag_96\n      jump\t// in\n    tag_175:\n        /* \"#utility.yul\":2670:2673   */\n      dup5\n        /* \"#utility.yul\":2666:2705   */\n      add\n        /* \"#utility.yul\":2659:2705   */\n      swap2\n      pop\n        /* \"#utility.yul\":2426:2711   */\n      pop\n        /* \"#utility.yul\":2334:2711   */\n      swap3\n      swap2\n      pop\n      pop\n      jump\t// out\n        /* \"#utility.yul\":2717:2835   */\n    tag_98:\n        /* \"#utility.yul\":2804:2828   */\n      tag_177\n        /* \"#utility.yul\":2822:2827   */\n      dup2\n        /* \"#utility.yul\":2804:2828   */\n      tag_89\n      jump\t// in\n    tag_177:\n        /* \"#utility.yul\":2799:2802   */\n      dup3\n        /* \"#utility.yul\":2792:2829   */\n      mstore\n        /* \"#utility.yul\":2717:2835   */\n      pop\n      pop\n      jump\t// out\n        /* \"#utility.yul\":2841:3485   */\n    tag_16:\n        /* \"#utility.yul\":3038:3042   */\n      0x00\n        /* \"#utility.yul\":3076:3079   */\n      0x80\n        /* \"#utility.yul\":3065:3074   */\n      dup3\n        /* \"#utility.yul\":3061:3080   */\n      add\n        /* \"#utility.yul\":3053:3080   */\n      swap1\n      pop\n        /* \"#utility.yul\":3090:3161   */\n      tag_179\n        /* \"#utility.yul\":3158:3159   */\n      0x00\n        /* \"#utility.yul\":3147:3156   */\n      dup4\n        /* \"#utility.yul\":3143:3160   */\n      add\n        /* \"#utility.yul\":3134:3140   */\n      dup8\n        /* \"#utility.yul\":3090:3161   */\n      tag_92\n      jump\t// in\n    tag_179:\n        /* \"#utility.yul\":3208:3217   */\n      dup2\n        /* \"#utility.yul\":3202:3206   */\n      dup2\n        /* \"#utility.yul\":3198:3218   */\n      sub\n        /* \"#utility.yul\":3193:3195   */\n      0x20\n        /* \"#utility.yul\":3182:3191   */\n      dup4\n        /* \"#utility.yul\":3178:3196   */\n      add\n        /* \"#utility.yul\":3171:3219   */\n      mstore\n        /* \"#utility.yul\":3236:3314   */\n      tag_180\n        /* \"#utility.yul\":3309:3313   */\n      dup2\n        /* \"#utility.yul\":3300:3306   */\n      dup7\n        /* \"#utility.yul\":3236:3314   */\n      tag_97\n      jump\t// in\n    tag_180:\n        /* \"#utility.yul\":3228:3314   */\n      swap1\n      pop\n        /* \"#utility.yul\":3324:3396   */\n      tag_181\n        /* \"#utility.yul\":3392:3394   */\n      0x40\n        /* \"#utility.yul\":3381:3390   */\n      dup4\n        /* \"#utility.yul\":3377:3395   */\n      add\n        /* \"#utility.yul\":3368:3374   */\n      dup6\n        /* \"#utility.yul\":3324:3396   */\n      tag_98\n      jump\t// in\n    tag_181:\n        /* \"#utility.yul\":3406:3478   */\n      tag_182\n        /* \"#utility.yul\":3474:3476   */\n      0x60\n        /* \"#utility.yul\":3463:3472   */\n      dup4\n        /* \"#utility.yul\":3459:3477   */\n      add\n        /* \"#utility.yul\":3450:3456   */\n      dup5\n        /* \"#utility.yul\":3406:3478   */\n      tag_98\n      jump\t// in\n    tag_182:\n        /* \"#utility.yul\":2841:3485   */\n      swap6\n      swap5\n      pop\n      pop\n      pop\n      pop\n      pop\n      jump\t// out\n        /* \"#utility.yul\":3491:3820   */\n    tag_19:\n        /* \"#utility.yul\":3550:3556   */\n      0x00\n        /* \"#utility.yul\":3599:3601   */\n      0x20\n        /* \"#utility.yul\":3587:3596   */\n      dup3\n        /* \"#utility.yul\":3578:3585   */\n      dup5\n        /* \"#utility.yul\":3574:3597   */\n      sub\n        /* \"#utility.yul\":3570:3602   */\n      slt\n        /* \"#utility.yul\":3567:3686   */\n      iszero\n      tag_184\n      jumpi\n        /* \"#utility.yul\":3605:3684   */\n      tag_185\n      tag_83\n      jump\t// in\n    tag_185:\n        /* \"#utility.yul\":3567:3686   */\n    tag_184:\n        /* \"#utility.yul\":3725:3726   */\n      0x00\n        /* \"#utility.yul\":3750:3803   */\n      tag_186\n        /* \"#utility.yul\":3795:3802   */\n      dup5\n        /* \"#utility.yul\":3786:3792   */\n      dup3\n        /* \"#utility.yul\":3775:3784   */\n      dup6\n        /* \"#utility.yul\":3771:3793   */\n      add\n        /* \"#utility.yul\":3750:3803   */\n      tag_88\n      jump\t// in\n    tag_186:\n        /* \"#utility.yul\":3740:3803   */\n      swap2\n      pop\n        /* \"#utility.yul\":3696:3813   */\n      pop\n        /* \"#utility.yul\":3491:3820   */\n      swap3\n      swap2\n      pop\n      pop\n      jump\t// out\n        /* \"#utility.yul\":3826:3961   */\n    tag_99:\n        /* \"#utility.yul\":3914:3920   */\n      0x00\n        /* \"#utility.yul\":3948:3953   */\n      dup2\n        /* \"#utility.yul\":3942:3954   */\n      mload\n        /* \"#utility.yul\":3932:3954   */\n      swap1\n      pop\n        /* \"#utility.yul\":3826:3961   */\n      swap2\n      swap1\n      pop\n      jump\t// out\n        /* \"#utility.yul\":3967:4172   */\n    tag_100:\n        /* \"#utility.yul\":4087:4098   */\n      0x00\n        /* \"#utility.yul\":4121:4127   */\n      dup3\n        /* \"#utility.yul\":4116:4119   */\n      dup3\n        /* \"#utility.yul\":4109:4128   */\n      mstore\n        /* \"#utility.yul\":4161:4165   */\n      0x20\n        /* \"#utility.yul\":4156:4159   */\n      dup3\n        /* \"#utility.yul\":4152:4166   */\n      add\n        /* \"#utility.yul\":4137:4166   */\n      swap1\n      pop\n        /* \"#utility.yul\":3967:4172   */\n      swap3\n      swap2\n      pop\n      pop\n      jump\t// out\n        /* \"#utility.yul\":4178:4331   */\n    tag_101:\n        /* \"#utility.yul\":4266:4270   */\n      0x00\n        /* \"#utility.yul\":4289:4292   */\n      dup2\n        /* \"#utility.yul\":4281:4292   */\n      swap1\n      pop\n        /* \"#utility.yul\":4319:4323   */\n      0x20\n        /* \"#utility.yul\":4314:4317   */\n      dup3\n        /* \"#utility.yul\":4310:4324   */\n      add\n        /* \"#utility.yul\":4302:4324   */\n      swap1\n      pop\n        /* \"#utility.yul\":4178:4331   */\n      swap2\n      swap1\n      pop\n      jump\t// out\n        /* \"#utility.yul\":4337:4445   */\n    tag_102:\n        /* \"#utility.yul\":4414:4438   */\n      tag_191\n        /* \"#utility.yul\":4432:4437   */\n      dup2\n        /* \"#utility.yul\":4414:4438   */\n      tag_86\n      jump\t// in\n    tag_191:\n        /* \"#utility.yul\":4409:4412   */\n      dup3\n        /* \"#utility.yul\":4402:4439   */\n      mstore\n        /* \"#utility.yul\":4337:4445   */\n      pop\n      pop\n      jump\t// out\n        /* \"#utility.yul\":4451:4610   */\n    tag_103:\n        /* \"#utility.yul\":4525:4536   */\n      0x00\n        /* \"#utility.yul\":4559:4565   */\n      dup3\n        /* \"#utility.yul\":4554:4557   */\n      dup3\n        /* \"#utility.yul\":4547:4566   */\n      mstore\n        /* \"#utility.yul\":4599:4603   */\n      0x20\n        /* \"#utility.yul\":4594:4597   */\n      dup3\n        /* \"#utility.yul\":4590:4604   */\n      add\n        /* \"#utility.yul\":4575:4604   */\n      swap1\n      pop\n        /* \"#utility.yul\":4451:4610   */\n      swap3\n      swap2\n      pop\n      pop\n      jump\t// out\n        /* \"#utility.yul\":4616:4973   */\n    tag_104:\n        /* \"#utility.yul\":4694:4697   */\n      0x00\n        /* \"#utility.yul\":4722:4761   */\n      tag_194\n        /* \"#utility.yul\":4755:4760   */\n      dup3\n        /* \"#utility.yul\":4722:4761   */\n      tag_93\n      jump\t// in\n    tag_194:\n        /* \"#utility.yul\":4777:4838   */\n      tag_195\n        /* \"#utility.yul\":4831:4837   */\n      dup2\n        /* \"#utility.yul\":4826:4829   */\n      dup6\n        /* \"#utility.yul\":4777:4838   */\n      tag_103\n      jump\t// in\n    tag_195:\n        /* \"#utility.yul\":4770:4838   */\n      swap4\n      pop\n        /* \"#utility.yul\":4847:4912   */\n      tag_196\n        /* \"#utility.yul\":4905:4911   */\n      dup2\n        /* \"#utility.yul\":4900:4903   */\n      dup6\n        /* \"#utility.yul\":4893:4897   */\n      0x20\n        /* \"#utility.yul\":4886:4891   */\n      dup7\n        /* \"#utility.yul\":4882:4898   */\n      add\n        /* \"#utility.yul\":4847:4912   */\n      tag_95\n      jump\t// in\n    tag_196:\n        /* \"#utility.yul\":4937:4966   */\n      tag_197\n        /* \"#utility.yul\":4959:4965   */\n      dup2\n        /* \"#utility.yul\":4937:4966   */\n      tag_96\n      jump\t// in\n    tag_197:\n        /* \"#utility.yul\":4932:4935   */\n      dup5\n        /* \"#utility.yul\":4928:4967   */\n      add\n        /* \"#utility.yul\":4921:4967   */\n      swap2\n      pop\n        /* \"#utility.yul\":4698:4973   */\n      pop\n        /* \"#utility.yul\":4616:4973   */\n      swap3\n      swap2\n      pop\n      pop\n      jump\t// out\n        /* \"#utility.yul\":4979:5087   */\n    tag_105:\n        /* \"#utility.yul\":5056:5080   */\n      tag_199\n        /* \"#utility.yul\":5074:5079   */\n      dup2\n        /* \"#utility.yul\":5056:5080   */\n      tag_89\n      jump\t// in\n    tag_199:\n        /* \"#utility.yul\":5051:5054   */\n      dup3\n        /* \"#utility.yul\":5044:5081   */\n      mstore\n        /* \"#utility.yul\":4979:5087   */\n      pop\n      pop\n      jump\t// out\n        /* \"#utility.yul\":5145:6092   */\n    tag_106:\n        /* \"#utility.yul\":5246:5249   */\n      0x00\n        /* \"#utility.yul\":5282:5286   */\n      0x80\n        /* \"#utility.yul\":5277:5280   */\n      dup4\n        /* \"#utility.yul\":5273:5287   */\n      add\n        /* \"#utility.yul\":5371:5375   */\n      0x00\n        /* \"#utility.yul\":5364:5369   */\n      dup4\n        /* \"#utility.yul\":5360:5376   */\n      add\n        /* \"#utility.yul\":5354:5377   */\n      mload\n        /* \"#utility.yul\":5390:5453   */\n      tag_201\n        /* \"#utility.yul\":5447:5451   */\n      0x00\n        /* \"#utility.yul\":5442:5445   */\n      dup7\n        /* \"#utility.yul\":5438:5452   */\n      add\n        /* \"#utility.yul\":5424:5436   */\n      dup3\n        /* \"#utility.yul\":5390:5453   */\n      tag_102\n      jump\t// in\n    tag_201:\n        /* \"#utility.yul\":5297:5463   */\n      pop\n        /* \"#utility.yul\":5548:5552   */\n      0x20\n        /* \"#utility.yul\":5541:5546   */\n      dup4\n        /* \"#utility.yul\":5537:5553   */\n      add\n        /* \"#utility.yul\":5531:5554   */\n      mload\n        /* \"#utility.yul\":5601:5604   */\n      dup5\n        /* \"#utility.yul\":5595:5599   */\n      dup3\n        /* \"#utility.yul\":5591:5605   */\n      sub\n        /* \"#utility.yul\":5584:5588   */\n      0x20\n        /* \"#utility.yul\":5579:5582   */\n      dup7\n        /* \"#utility.yul\":5575:5589   */\n      add\n        /* \"#utility.yul\":5568:5606   */\n      mstore\n        /* \"#utility.yul\":5627:5700   */\n      tag_202\n        /* \"#utility.yul\":5695:5699   */\n      dup3\n        /* \"#utility.yul\":5681:5693   */\n      dup3\n        /* \"#utility.yul\":5627:5700   */\n      tag_104\n      jump\t// in\n    tag_202:\n        /* \"#utility.yul\":5619:5700   */\n      swap2\n      pop\n        /* \"#utility.yul\":5473:5711   */\n      pop\n        /* \"#utility.yul\":5798:5802   */\n      0x40\n        /* \"#utility.yul\":5791:5796   */\n      dup4\n        /* \"#utility.yul\":5787:5803   */\n      add\n        /* \"#utility.yul\":5781:5804   */\n      mload\n        /* \"#utility.yul\":5817:5880   */\n      tag_203\n        /* \"#utility.yul\":5874:5878   */\n      0x40\n        /* \"#utility.yul\":5869:5872   */\n      dup7\n        /* \"#utility.yul\":5865:5879   */\n      add\n        /* \"#utility.yul\":5851:5863   */\n      dup3\n        /* \"#utility.yul\":5817:5880   */\n      tag_105\n      jump\t// in\n    tag_203:\n        /* \"#utility.yul\":5721:5890   */\n      pop\n        /* \"#utility.yul\":5973:5977   */\n      0x60\n        /* \"#utility.yul\":5966:5971   */\n      dup4\n        /* \"#utility.yul\":5962:5978   */\n      add\n        /* \"#utility.yul\":5956:5979   */\n      mload\n        /* \"#utility.yul\":5992:6055   */\n      tag_204\n        /* \"#utility.yul\":6049:6053   */\n      0x60\n        /* \"#utility.yul\":6044:6047   */\n      dup7\n        /* \"#utility.yul\":6040:6054   */\n      add\n        /* \"#utility.yul\":6026:6038   */\n      dup3\n        /* \"#utility.yul\":5992:6055   */\n      tag_105\n      jump\t// in\n    tag_204:\n        /* \"#utility.yul\":5900:6065   */\n      pop\n        /* \"#utility.yul\":6082:6086   */\n      dup1\n        /* \"#utility.yul\":6075:6086   */\n      swap2\n      pop\n        /* \"#utility.yul\":5251:6092   */\n      pop\n        /* \"#utility.yul\":5145:6092   */\n      swap3\n      swap2\n      pop\n      pop\n      jump\t// out\n        /* \"#utility.yul\":6098:6338   */\n    tag_107:\n        /* \"#utility.yul\":6209:6219   */\n      0x00\n        /* \"#utility.yul\":6244:6332   */\n      tag_206\n        /* \"#utility.yul\":6328:6331   */\n      dup4\n        /* \"#utility.yul\":6320:6326   */\n      dup4\n        /* \"#utility.yul\":6244:6332   */\n      tag_106\n      jump\t// in\n    tag_206:\n        /* \"#utility.yul\":6230:6332   */\n      swap1\n      pop\n        /* \"#utility.yul\":6098:6338   */\n      swap3\n      swap2\n      pop\n      pop\n      jump\t// out\n        /* \"#utility.yul\":6344:6478   */\n    tag_108:\n        /* \"#utility.yul\":6435:6439   */\n      0x00\n        /* \"#utility.yul\":6467:6471   */\n      0x20\n        /* \"#utility.yul\":6462:6465   */\n      dup3\n        /* \"#utility.yul\":6458:6472   */\n      add\n        /* \"#utility.yul\":6450:6472   */\n      swap1\n      pop\n        /* \"#utility.yul\":6344:6478   */\n      swap2\n      swap1\n      pop\n      jump\t// out\n        /* \"#utility.yul\":6540:7619   */\n    tag_109:\n        /* \"#utility.yul\":6701:6704   */\n      0x00\n        /* \"#utility.yul\":6730:6805   */\n      tag_209\n        /* \"#utility.yul\":6799:6804   */\n      dup3\n        /* \"#utility.yul\":6730:6805   */\n      tag_99\n      jump\t// in\n    tag_209:\n        /* \"#utility.yul\":6821:6928   */\n      tag_210\n        /* \"#utility.yul\":6921:6927   */\n      dup2\n        /* \"#utility.yul\":6916:6919   */\n      dup6\n        /* \"#utility.yul\":6821:6928   */\n      tag_100\n      jump\t// in\n    tag_210:\n        /* \"#utility.yul\":6814:6928   */\n      swap4\n      pop\n        /* \"#utility.yul\":6954:6957   */\n      dup4\n        /* \"#utility.yul\":6999:7003   */\n      0x20\n        /* \"#utility.yul\":6991:6997   */\n      dup3\n        /* \"#utility.yul\":6987:7004   */\n      mul\n        /* \"#utility.yul\":6982:6985   */\n      dup6\n        /* \"#utility.yul\":6978:7005   */\n      add\n        /* \"#utility.yul\":7029:7106   */\n      tag_211\n        /* \"#utility.yul\":7100:7105   */\n      dup6\n        /* \"#utility.yul\":7029:7106   */\n      tag_101\n      jump\t// in\n    tag_211:\n        /* \"#utility.yul\":7129:7136   */\n      dup1\n        /* \"#utility.yul\":7160:7161   */\n      0x00\n        /* \"#utility.yul\":7145:7574   */\n    tag_212:\n        /* \"#utility.yul\":7170:7176   */\n      dup6\n        /* \"#utility.yul\":7167:7168   */\n      dup2\n        /* \"#utility.yul\":7164:7177   */\n      lt\n        /* \"#utility.yul\":7145:7574   */\n      iszero\n      tag_214\n      jumpi\n        /* \"#utility.yul\":7241:7250   */\n      dup5\n        /* \"#utility.yul\":7235:7239   */\n      dup5\n        /* \"#utility.yul\":7231:7251   */\n      sub\n        /* \"#utility.yul\":7226:7229   */\n      dup10\n        /* \"#utility.yul\":7219:7252   */\n      mstore\n        /* \"#utility.yul\":7292:7298   */\n      dup2\n        /* \"#utility.yul\":7286:7299   */\n      mload\n        /* \"#utility.yul\":7320:7426   */\n      tag_215\n        /* \"#utility.yul\":7421:7425   */\n      dup6\n        /* \"#utility.yul\":7406:7419   */\n      dup3\n        /* \"#utility.yul\":7320:7426   */\n      tag_107\n      jump\t// in\n    tag_215:\n        /* \"#utility.yul\":7312:7426   */\n      swap5\n      pop\n        /* \"#utility.yul\":7449:7530   */\n      tag_216\n        /* \"#utility.yul\":7523:7529   */\n      dup4\n        /* \"#utility.yul\":7449:7530   */\n      tag_108\n      jump\t// in\n    tag_216:\n        /* \"#utility.yul\":7439:7530   */\n      swap3\n      pop\n        /* \"#utility.yul\":7559:7563   */\n      0x20\n        /* \"#utility.yul\":7554:7557   */\n      dup11\n        /* \"#utility.yul\":7550:7564   */\n      add\n        /* \"#utility.yul\":7543:7564   */\n      swap10\n      pop\n        /* \"#utility.yul\":7205:7574   */\n      pop\n        /* \"#utility.yul\":7192:7193   */\n      0x01\n        /* \"#utility.yul\":7189:7190   */\n      dup2\n        /* \"#utility.yul\":7185:7194   */\n      add\n        /* \"#utility.yul\":7180:7194   */\n      swap1\n      pop\n        /* \"#utility.yul\":7145:7574   */\n      jump(tag_212)\n    tag_214:\n        /* \"#utility.yul\":7149:7163   */\n      pop\n        /* \"#utility.yul\":7590:7594   */\n      dup3\n        /* \"#utility.yul\":7583:7594   */\n      swap8\n      pop\n        /* \"#utility.yul\":7610:7613   */\n      dup8\n        /* \"#utility.yul\":7603:7613   */\n      swap6\n      pop\n        /* \"#utility.yul\":6706:7619   */\n      pop\n      pop\n      pop\n      pop\n      pop\n        /* \"#utility.yul\":6540:7619   */\n      swap3\n      swap2\n      pop\n      pop\n      jump\t// out\n        /* \"#utility.yul\":7625:8082   */\n    tag_22:\n        /* \"#utility.yul\":7810:7814   */\n      0x00\n        /* \"#utility.yul\":7848:7850   */\n      0x20\n        /* \"#utility.yul\":7837:7846   */\n      dup3\n        /* \"#utility.yul\":7833:7851   */\n      add\n        /* \"#utility.yul\":7825:7851   */\n      swap1\n      pop\n        /* \"#utility.yul\":7897:7906   */\n      dup2\n        /* \"#utility.yul\":7891:7895   */\n      dup2\n        /* \"#utility.yul\":7887:7907   */\n      sub\n        /* \"#utility.yul\":7883:7884   */\n      0x00\n        /* \"#utility.yul\":7872:7881   */\n      dup4\n        /* \"#utility.yul\":7868:7885   */\n      add\n        /* \"#utility.yul\":7861:7908   */\n      mstore\n        /* \"#utility.yul\":7925:8075   */\n      tag_218\n        /* \"#utility.yul\":8070:8074   */\n      dup2\n        /* \"#utility.yul\":8061:8067   */\n      dup5\n        /* \"#utility.yul\":7925:8075   */\n      tag_109\n      jump\t// in\n    tag_218:\n        /* \"#utility.yul\":7917:8075   */\n      swap1\n      pop\n        /* \"#utility.yul\":7625:8082   */\n      swap3\n      swap2\n      pop\n      pop\n      jump\t// out\n        /* \"#utility.yul\":8088:8177   */\n    tag_110:\n        /* \"#utility.yul\":8124:8131   */\n      0x00\n        /* \"#utility.yul\":8164:8170   */\n      0xffff\n        /* \"#utility.yul\":8157:8162   */\n      dup3\n        /* \"#utility.yul\":8153:8171   */\n      and\n        /* \"#utility.yul\":8142:8171   */\n      swap1\n      pop\n        /* \"#utility.yul\":8088:8177   */\n      swap2\n      swap1\n      pop\n      jump\t// out\n        /* \"#utility.yul\":8183:8303   */\n    tag_111:\n        /* \"#utility.yul\":8255:8278   */\n      tag_221\n        /* \"#utility.yul\":8272:8277   */\n      dup2\n        /* \"#utility.yul\":8255:8278   */\n      tag_110\n      jump\t// in\n    tag_221:\n        /* \"#utility.yul\":8248:8253   */\n      dup2\n        /* \"#utility.yul\":8245:8279   */\n      eq\n        /* \"#utility.yul\":8235:8297   */\n      tag_222\n      jumpi\n        /* \"#utility.yul\":8293:8294   */\n      0x00\n        /* \"#utility.yul\":8290:8291   */\n      0x00\n        /* \"#utility.yul\":8283:8295   */\n      revert\n        /* \"#utility.yul\":8235:8297   */\n    tag_222:\n        /* \"#utility.yul\":8183:8303   */\n      pop\n      jump\t// out\n        /* \"#utility.yul\":8309:8446   */\n    tag_112:\n        /* \"#utility.yul\":8354:8359   */\n      0x00\n        /* \"#utility.yul\":8392:8398   */\n      dup2\n        /* \"#utility.yul\":8379:8399   */\n      calldataload\n        /* \"#utility.yul\":8370:8399   */\n      swap1\n      pop\n        /* \"#utility.yul\":8408:8440   */\n      tag_224\n        /* \"#utility.yul\":8434:8439   */\n      dup2\n        /* \"#utility.yul\":8408:8440   */\n      tag_111\n      jump\t// in\n    tag_224:\n        /* \"#utility.yul\":8309:8446   */\n      swap3\n      swap2\n      pop\n      pop\n      jump\t// out\n        /* \"#utility.yul\":8452:8779   */\n    tag_25:\n        /* \"#utility.yul\":8510:8516   */\n      0x00\n        /* \"#utility.yul\":8559:8561   */\n      0x20\n        /* \"#utility.yul\":8547:8556   */\n      dup3\n        /* \"#utility.yul\":8538:8545   */\n      dup5\n        /* \"#utility.yul\":8534:8557   */\n      sub\n        /* \"#utility.yul\":8530:8562   */\n      slt\n        /* \"#utility.yul\":8527:8646   */\n      iszero\n      tag_226\n      jumpi\n        /* \"#utility.yul\":8565:8644   */\n      tag_227\n      tag_83\n      jump\t// in\n    tag_227:\n        /* \"#utility.yul\":8527:8646   */\n    tag_226:\n        /* \"#utility.yul\":8685:8686   */\n      0x00\n        /* \"#utility.yul\":8710:8762   */\n      tag_228\n        /* \"#utility.yul\":8754:8761   */\n      dup5\n        /* \"#utility.yul\":8745:8751   */\n      dup3\n        /* \"#utility.yul\":8734:8743   */\n      dup6\n        /* \"#utility.yul\":8730:8752   */\n      add\n        /* \"#utility.yul\":8710:8762   */\n      tag_112\n      jump\t// in\n    tag_228:\n        /* \"#utility.yul\":8700:8762   */\n      swap2\n      pop\n        /* \"#utility.yul\":8656:8772   */\n      pop\n        /* \"#utility.yul\":8452:8779   */\n      swap3\n      swap2\n      pop\n      pop\n      jump\t// out\n        /* \"#utility.yul\":8785:8900   */\n    tag_113:\n        /* \"#utility.yul\":8870:8893   */\n      tag_230\n        /* \"#utility.yul\":8887:8892   */\n      dup2\n        /* \"#utility.yul\":8870:8893   */\n      tag_110\n      jump\t// in\n    tag_230:\n        /* \"#utility.yul\":8865:8868   */\n      dup3\n        /* \"#utility.yul\":8858:8894   */\n      mstore\n        /* \"#utility.yul\":8785:8900   */\n      pop\n      pop\n      jump\t// out\n        /* \"#utility.yul\":8906:9124   */\n    tag_30:\n        /* \"#utility.yul\":8997:9001   */\n      0x00\n        /* \"#utility.yul\":9035:9037   */\n      0x20\n        /* \"#utility.yul\":9024:9033   */\n      dup3\n        /* \"#utility.yul\":9020:9038   */\n      add\n        /* \"#utility.yul\":9012:9038   */\n      swap1\n      pop\n        /* \"#utility.yul\":9048:9117   */\n      tag_232\n        /* \"#utility.yul\":9114:9115   */\n      0x00\n        /* \"#utility.yul\":9103:9112   */\n      dup4\n        /* \"#utility.yul\":9099:9116   */\n      add\n        /* \"#utility.yul\":9090:9096   */\n      dup5\n        /* \"#utility.yul\":9048:9117   */\n      tag_113\n      jump\t// in\n    tag_232:\n        /* \"#utility.yul\":8906:9124   */\n      swap3\n      swap2\n      pop\n      pop\n      jump\t// out\n        /* \"#utility.yul\":9130:9247   */\n    tag_114:\n        /* \"#utility.yul\":9239:9240   */\n      0x00\n        /* \"#utility.yul\":9236:9237   */\n      0x00\n        /* \"#utility.yul\":9229:9241   */\n      revert\n        /* \"#utility.yul\":9253:9370   */\n    tag_115:\n        /* \"#utility.yul\":9362:9363   */\n      0x00\n        /* \"#utility.yul\":9359:9360   */\n      0x00\n        /* \"#utility.yul\":9352:9364   */\n      revert\n        /* \"#utility.yul\":9376:9556   */\n    tag_116:\n        /* \"#utility.yul\":9424:9501   */\n      0x4e487b7100000000000000000000000000000000000000000000000000000000\n        /* \"#utility.yul\":9421:9422   */\n      0x00\n        /* \"#utility.yul\":9414:9502   */\n      mstore\n        /* \"#utility.yul\":9521:9525   */\n      0x41\n        /* \"#utility.yul\":9518:9519   */\n      0x04\n        /* \"#utility.yul\":9511:9526   */\n      mstore\n        /* \"#utility.yul\":9545:9549   */\n      0x24\n        /* \"#utility.yul\":9542:9543   */\n      0x00\n        /* \"#utility.yul\":9535:9550   */\n      revert\n        /* \"#utility.yul\":9562:9843   */\n    tag_117:\n        /* \"#utility.yul\":9645:9672   */\n      tag_237\n        /* \"#utility.yul\":9667:9671   */\n      dup3\n        /* \"#utility.yul\":9645:9672   */\n      tag_96\n      jump\t// in\n    tag_237:\n        /* \"#utility.yul\":9637:9643   */\n      dup2\n        /* \"#utility.yul\":9633:9673   */\n      add\n        /* \"#utility.yul\":9775:9781   */\n      dup2\n        /* \"#utility.yul\":9763:9773   */\n      dup2\n        /* \"#utility.yul\":9760:9782   */\n      lt\n        /* \"#utility.yul\":9739:9757   */\n      0xffffffffffffffff\n        /* \"#utility.yul\":9727:9737   */\n      dup3\n        /* \"#utility.yul\":9724:9758   */\n      gt\n        /* \"#utility.yul\":9721:9783   */\n      or\n        /* \"#utility.yul\":9718:9806   */\n      iszero\n      tag_238\n      jumpi\n        /* \"#utility.yul\":9786:9804   */\n      tag_239\n      tag_116\n      jump\t// in\n    tag_239:\n        /* \"#utility.yul\":9718:9806   */\n    tag_238:\n        /* \"#utility.yul\":9826:9836   */\n      dup1\n        /* \"#utility.yul\":9822:9824   */\n      0x40\n        /* \"#utility.yul\":9815:9837   */\n      mstore\n        /* \"#utility.yul\":9605:9843   */\n      pop\n        /* \"#utility.yul\":9562:9843   */\n      pop\n      pop\n      jump\t// out\n        /* \"#utility.yul\":9849:9978   */\n    tag_118:\n        /* \"#utility.yul\":9883:9889   */\n      0x00\n        /* \"#utility.yul\":9910:9930   */\n      tag_241\n      tag_82\n      jump\t// in\n    tag_241:\n        /* \"#utility.yul\":9900:9930   */\n      swap1\n      pop\n        /* \"#utility.yul\":9939:9972   */\n      tag_242\n        /* \"#utility.yul\":9967:9971   */\n      dup3\n        /* \"#utility.yul\":9959:9965   */\n      dup3\n        /* \"#utility.yul\":9939:9972   */\n      tag_117\n      jump\t// in\n    tag_242:\n        /* \"#utility.yul\":9849:9978   */\n      swap2\n      swap1\n      pop\n      jump\t// out\n        /* \"#utility.yul\":9984:10292   */\n    tag_119:\n        /* \"#utility.yul\":10046:10050   */\n      0x00\n        /* \"#utility.yul\":10136:10154   */\n      0xffffffffffffffff\n        /* \"#utility.yul\":10128:10134   */\n      dup3\n        /* \"#utility.yul\":10125:10155   */\n      gt\n        /* \"#utility.yul\":10122:10178   */\n      iszero\n      tag_244\n      jumpi\n        /* \"#utility.yul\":10158:10176   */\n      tag_245\n      tag_116\n      jump\t// in\n    tag_245:\n        /* \"#utility.yul\":10122:10178   */\n    tag_244:\n        /* \"#utility.yul\":10196:10225   */\n      tag_246\n        /* \"#utility.yul\":10218:10224   */\n      dup3\n        /* \"#utility.yul\":10196:10225   */\n      tag_96\n      jump\t// in\n    tag_246:\n        /* \"#utility.yul\":10188:10225   */\n      swap1\n      pop\n        /* \"#utility.yul\":10280:10284   */\n      0x20\n        /* \"#utility.yul\":10274:10278   */\n      dup2\n        /* \"#utility.yul\":10270:10285   */\n      add\n        /* \"#utility.yul\":10262:10285   */\n      swap1\n      pop\n        /* \"#utility.yul\":9984:10292   */\n      swap2\n      swap1\n      pop\n      jump\t// out\n        /* \"#utility.yul\":10298:10446   */\n    tag_120:\n        /* \"#utility.yul\":10396:10402   */\n      dup3\n        /* \"#utility.yul\":10391:10394   */\n      dup2\n        /* \"#utility.yul\":10386:10389   */\n      dup4\n        /* \"#utility.yul\":10373:10403   */\n      calldatacopy\n        /* \"#utility.yul\":10437:10438   */\n      0x00\n        /* \"#utility.yul\":10428:10434   */\n      dup4\n        /* \"#utility.yul\":10423:10426   */\n      dup4\n        /* \"#utility.yul\":10419:10435   */\n      add\n        /* \"#utility.yul\":10412:10439   */\n      mstore\n        /* \"#utility.yul\":10298:10446   */\n      pop\n      pop\n      pop\n      jump\t// out\n        /* \"#utility.yul\":10452:10877   */\n    tag_121:\n        /* \"#utility.yul\":10530:10535   */\n      0x00\n        /* \"#utility.yul\":10555:10621   */\n      tag_249\n        /* \"#utility.yul\":10571:10620   */\n      tag_250\n        /* \"#utility.yul\":10613:10619   */\n      dup5\n        /* \"#utility.yul\":10571:10620   */\n      tag_119\n      jump\t// in\n    tag_250:\n        /* \"#utility.yul\":10555:10621   */\n      tag_118\n      jump\t// in\n    tag_249:\n        /* \"#utility.yul\":10546:10621   */\n      swap1\n      pop\n        /* \"#utility.yul\":10644:10650   */\n      dup3\n        /* \"#utility.yul\":10637:10642   */\n      dup2\n        /* \"#utility.yul\":10630:10651   */\n      mstore\n        /* \"#utility.yul\":10682:10686   */\n      0x20\n        /* \"#utility.yul\":10675:10680   */\n      dup2\n        /* \"#utility.yul\":10671:10687   */\n      add\n        /* \"#utility.yul\":10720:10723   */\n      dup5\n        /* \"#utility.yul\":10711:10717   */\n      dup5\n        /* \"#utility.yul\":10706:10709   */\n      dup5\n        /* \"#utility.yul\":10702:10718   */\n      add\n        /* \"#utility.yul\":10699:10724   */\n      gt\n        /* \"#utility.yul\":10696:10808   */\n      iszero\n      tag_251\n      jumpi\n        /* \"#utility.yul\":10727:10806   */\n      tag_252\n      tag_115\n      jump\t// in\n    tag_252:\n        /* \"#utility.yul\":10696:10808   */\n    tag_251:\n        /* \"#utility.yul\":10817:10871   */\n      tag_253\n        /* \"#utility.yul\":10864:10870   */\n      dup5\n        /* \"#utility.yul\":10859:10862   */\n      dup3\n        /* \"#utility.yul\":10854:10857   */\n      dup6\n        /* \"#utility.yul\":10817:10871   */\n      tag_120\n      jump\t// in\n    tag_253:\n        /* \"#utility.yul\":10536:10877   */\n      pop\n        /* \"#utility.yul\":10452:10877   */\n      swap4\n      swap3\n      pop\n      pop\n      pop\n      jump\t// out\n        /* \"#utility.yul\":10897:11237   */\n    tag_122:\n        /* \"#utility.yul\":10953:10958   */\n      0x00\n        /* \"#utility.yul\":11002:11005   */\n      dup3\n        /* \"#utility.yul\":10995:10999   */\n      0x1f\n        /* \"#utility.yul\":10987:10993   */\n      dup4\n        /* \"#utility.yul\":10983:11000   */\n      add\n        /* \"#utility.yul\":10979:11006   */\n      slt\n        /* \"#utility.yul\":10969:11091   */\n      tag_255\n      jumpi\n        /* \"#utility.yul\":11010:11089   */\n      tag_256\n      tag_114\n      jump\t// in\n    tag_256:\n        /* \"#utility.yul\":10969:11091   */\n    tag_255:\n        /* \"#utility.yul\":11127:11133   */\n      dup2\n        /* \"#utility.yul\":11114:11134   */\n      calldataload\n        /* \"#utility.yul\":11152:11231   */\n      tag_257\n        /* \"#utility.yul\":11227:11230   */\n      dup5\n        /* \"#utility.yul\":11219:11225   */\n      dup3\n        /* \"#utility.yul\":11212:11216   */\n      0x20\n        /* \"#utility.yul\":11204:11210   */\n      dup7\n        /* \"#utility.yul\":11200:11217   */\n      add\n        /* \"#utility.yul\":11152:11231   */\n      tag_121\n      jump\t// in\n    tag_257:\n        /* \"#utility.yul\":11143:11231   */\n      swap2\n      pop\n        /* \"#utility.yul\":10959:11237   */\n      pop\n        /* \"#utility.yul\":10897:11237   */\n      swap3\n      swap2\n      pop\n      pop\n      jump\t// out\n        /* \"#utility.yul\":11243:11752   */\n    tag_33:\n        /* \"#utility.yul\":11312:11318   */\n      0x00\n        /* \"#utility.yul\":11361:11363   */\n      0x20\n        /* \"#utility.yul\":11349:11358   */\n      dup3\n        /* \"#utility.yul\":11340:11347   */\n      dup5\n        /* \"#utility.yul\":11336:11359   */\n      sub\n        /* \"#utility.yul\":11332:11364   */\n      slt\n        /* \"#utility.yul\":11329:11448   */\n      iszero\n      tag_259\n      jumpi\n        /* \"#utility.yul\":11367:11446   */\n      tag_260\n      tag_83\n      jump\t// in\n    tag_260:\n        /* \"#utility.yul\":11329:11448   */\n    tag_259:\n        /* \"#utility.yul\":11515:11516   */\n      0x00\n        /* \"#utility.yul\":11504:11513   */\n      dup3\n        /* \"#utility.yul\":11500:11517   */\n      add\n        /* \"#utility.yul\":11487:11518   */\n      calldataload\n        /* \"#utility.yul\":11545:11563   */\n      0xffffffffffffffff\n        /* \"#utility.yul\":11537:11543   */\n      dup2\n        /* \"#utility.yul\":11534:11564   */\n      gt\n        /* \"#utility.yul\":11531:11648   */\n      iszero\n      tag_261\n      jumpi\n        /* \"#utility.yul\":11567:11646   */\n      tag_262\n      tag_84\n      jump\t// in\n    tag_262:\n        /* \"#utility.yul\":11531:11648   */\n    tag_261:\n        /* \"#utility.yul\":11672:11735   */\n      tag_263\n        /* \"#utility.yul\":11727:11734   */\n      dup5\n        /* \"#utility.yul\":11718:11724   */\n      dup3\n        /* \"#utility.yul\":11707:11716   */\n      dup6\n        /* \"#utility.yul\":11703:11725   */\n      add\n        /* \"#utility.yul\":11672:11735   */\n      tag_122\n      jump\t// in\n    tag_263:\n        /* \"#utility.yul\":11662:11735   */\n      swap2\n      pop\n        /* \"#utility.yul\":11458:11745   */\n      pop\n        /* \"#utility.yul\":11243:11752   */\n      swap3\n      swap2\n      pop\n      pop\n      jump\t// out\n        /* \"#utility.yul\":11758:11980   */\n    tag_38:\n        /* \"#utility.yul\":11851:11855   */\n      0x00\n        /* \"#utility.yul\":11889:11891   */\n      0x20\n        /* \"#utility.yul\":11878:11887   */\n      dup3\n        /* \"#utility.yul\":11874:11892   */\n      add\n        /* \"#utility.yul\":11866:11892   */\n      swap1\n      pop\n        /* \"#utility.yul\":11902:11973   */\n      tag_265\n        /* \"#utility.yul\":11970:11971   */\n      0x00\n        /* \"#utility.yul\":11959:11968   */\n      dup4\n        /* \"#utility.yul\":11955:11972   */\n      add\n        /* \"#utility.yul\":11946:11952   */\n      dup5\n        /* \"#utility.yul\":11902:11973   */\n      tag_92\n      jump\t// in\n    tag_265:\n        /* \"#utility.yul\":11758:11980   */\n      swap3\n      swap2\n      pop\n      pop\n      jump\t// out\n        /* \"#utility.yul\":11986:12315   */\n    tag_41:\n        /* \"#utility.yul\":12045:12051   */\n      0x00\n        /* \"#utility.yul\":12094:12096   */\n      0x20\n        /* \"#utility.yul\":12082:12091   */\n      dup3\n        /* \"#utility.yul\":12073:12080   */\n      dup5\n        /* \"#utility.yul\":12069:12092   */\n      sub\n        /* \"#utility.yul\":12065:12097   */\n      slt\n        /* \"#utility.yul\":12062:12181   */\n      iszero\n      tag_267\n      jumpi\n        /* \"#utility.yul\":12100:12179   */\n      tag_268\n      tag_83\n      jump\t// in\n    tag_268:\n        /* \"#utility.yul\":12062:12181   */\n    tag_267:\n        /* \"#utility.yul\":12220:12221   */\n      0x00\n        /* \"#utility.yul\":12245:12298   */\n      tag_269\n        /* \"#utility.yul\":12290:12297   */\n      dup5\n        /* \"#utility.yul\":12281:12287   */\n      dup3\n        /* \"#utility.yul\":12270:12279   */\n      dup6\n        /* \"#utility.yul\":12266:12288   */\n      add\n        /* \"#utility.yul\":12245:12298   */\n      tag_91\n      jump\t// in\n    tag_269:\n        /* \"#utility.yul\":12235:12298   */\n      swap2\n      pop\n        /* \"#utility.yul\":12191:12308   */\n      pop\n        /* \"#utility.yul\":11986:12315   */\n      swap3\n      swap2\n      pop\n      pop\n      jump\t// out\n        /* \"#utility.yul\":12373:13330   */\n    tag_123:\n        /* \"#utility.yul\":12484:12487   */\n      0x00\n        /* \"#utility.yul\":12520:12524   */\n      0x80\n        /* \"#utility.yul\":12515:12518   */\n      dup4\n        /* \"#utility.yul\":12511:12525   */\n      add\n        /* \"#utility.yul\":12609:12613   */\n      0x00\n        /* \"#utility.yul\":12602:12607   */\n      dup4\n        /* \"#utility.yul\":12598:12614   */\n      add\n        /* \"#utility.yul\":12592:12615   */\n      mload\n        /* \"#utility.yul\":12628:12691   */\n      tag_271\n        /* \"#utility.yul\":12685:12689   */\n      0x00\n        /* \"#utility.yul\":12680:12683   */\n      dup7\n        /* \"#utility.yul\":12676:12690   */\n      add\n        /* \"#utility.yul\":12662:12674   */\n      dup3\n        /* \"#utility.yul\":12628:12691   */\n      tag_102\n      jump\t// in\n    tag_271:\n        /* \"#utility.yul\":12535:12701   */\n      pop\n        /* \"#utility.yul\":12786:12790   */\n      0x20\n        /* \"#utility.yul\":12779:12784   */\n      dup4\n        /* \"#utility.yul\":12775:12791   */\n      add\n        /* \"#utility.yul\":12769:12792   */\n      mload\n        /* \"#utility.yul\":12839:12842   */\n      dup5\n        /* \"#utility.yul\":12833:12837   */\n      dup3\n        /* \"#utility.yul\":12829:12843   */\n      sub\n        /* \"#utility.yul\":12822:12826   */\n      0x20\n        /* \"#utility.yul\":12817:12820   */\n      dup7\n        /* \"#utility.yul\":12813:12827   */\n      add\n        /* \"#utility.yul\":12806:12844   */\n      mstore\n        /* \"#utility.yul\":12865:12938   */\n      tag_272\n        /* \"#utility.yul\":12933:12937   */\n      dup3\n        /* \"#utility.yul\":12919:12931   */\n      dup3\n        /* \"#utility.yul\":12865:12938   */\n      tag_104\n      jump\t// in\n    tag_272:\n        /* \"#utility.yul\":12857:12938   */\n      swap2\n      pop\n        /* \"#utility.yul\":12711:12949   */\n      pop\n        /* \"#utility.yul\":13036:13040   */\n      0x40\n        /* \"#utility.yul\":13029:13034   */\n      dup4\n        /* \"#utility.yul\":13025:13041   */\n      add\n        /* \"#utility.yul\":13019:13042   */\n      mload\n        /* \"#utility.yul\":13055:13118   */\n      tag_273\n        /* \"#utility.yul\":13112:13116   */\n      0x40\n        /* \"#utility.yul\":13107:13110   */\n      dup7\n        /* \"#utility.yul\":13103:13117   */\n      add\n        /* \"#utility.yul\":13089:13101   */\n      dup3\n        /* \"#utility.yul\":13055:13118   */\n      tag_105\n      jump\t// in\n    tag_273:\n        /* \"#utility.yul\":12959:13128   */\n      pop\n        /* \"#utility.yul\":13211:13215   */\n      0x60\n        /* \"#utility.yul\":13204:13209   */\n      dup4\n        /* \"#utility.yul\":13200:13216   */\n      add\n        /* \"#utility.yul\":13194:13217   */\n      mload\n        /* \"#utility.yul\":13230:13293   */\n      tag_274\n        /* \"#utility.yul\":13287:13291   */\n      0x60\n        /* \"#utility.yul\":13282:13285   */\n      dup7\n        /* \"#utility.yul\":13278:13292   */\n      add\n        /* \"#utility.yul\":13264:13276   */\n      dup3\n        /* \"#utility.yul\":13230:13293   */\n      tag_105\n      jump\t// in\n    tag_274:\n        /* \"#utility.yul\":13138:13303   */\n      pop\n        /* \"#utility.yul\":13320:13324   */\n      dup1\n        /* \"#utility.yul\":13313:13324   */\n      swap2\n      pop\n        /* \"#utility.yul\":12489:13330   */\n      pop\n        /* \"#utility.yul\":12373:13330   */\n      swap3\n      swap2\n      pop\n      pop\n      jump\t// out\n        /* \"#utility.yul\":13336:13693   */\n    tag_44:\n        /* \"#utility.yul\":13471:13475   */\n      0x00\n        /* \"#utility.yul\":13509:13511   */\n      0x20\n        /* \"#utility.yul\":13498:13507   */\n      dup3\n        /* \"#utility.yul\":13494:13512   */\n      add\n        /* \"#utility.yul\":13486:13512   */\n      swap1\n      pop\n        /* \"#utility.yul\":13558:13567   */\n      dup2\n        /* \"#utility.yul\":13552:13556   */\n      dup2\n        /* \"#utility.yul\":13548:13568   */\n      sub\n        /* \"#utility.yul\":13544:13545   */\n      0x00\n        /* \"#utility.yul\":13533:13542   */\n      dup4\n        /* \"#utility.yul\":13529:13546   */\n      add\n        /* \"#utility.yul\":13522:13569   */\n      mstore\n        /* \"#utility.yul\":13586:13686   */\n      tag_276\n        /* \"#utility.yul\":13681:13685   */\n      dup2\n        /* \"#utility.yul\":13672:13678   */\n      dup5\n        /* \"#utility.yul\":13586:13686   */\n      tag_123\n      jump\t// in\n    tag_276:\n        /* \"#utility.yul\":13578:13686   */\n      swap1\n      pop\n        /* \"#utility.yul\":13336:13693   */\n      swap3\n      swap2\n      pop\n      pop\n      jump\t// out\n        /* \"#utility.yul\":13699:13879   */\n    tag_124:\n        /* \"#utility.yul\":13747:13824   */\n      0x4e487b7100000000000000000000000000000000000000000000000000000000\n        /* \"#utility.yul\":13744:13745   */\n      0x00\n        /* \"#utility.yul\":13737:13825   */\n      mstore\n        /* \"#utility.yul\":13844:13848   */\n      0x22\n        /* \"#utility.yul\":13841:13842   */\n      0x04\n        /* \"#utility.yul\":13834:13849   */\n      mstore\n        /* \"#utility.yul\":13868:13872   */\n      0x24\n        /* \"#utility.yul\":13865:13866   */\n      0x00\n        /* \"#utility.yul\":13858:13873   */\n      revert\n        /* \"#utility.yul\":13885:14205   */\n    tag_48:\n        /* \"#utility.yul\":13929:13935   */\n      0x00\n        /* \"#utility.yul\":13966:13967   */\n      0x02\n        /* \"#utility.yul\":13960:13964   */\n      dup3\n        /* \"#utility.yul\":13956:13968   */\n      div\n        /* \"#utility.yul\":13946:13968   */\n      swap1\n      pop\n        /* \"#utility.yul\":14013:14014   */\n      0x01\n        /* \"#utility.yul\":14007:14011   */\n      dup3\n        /* \"#utility.yul\":14003:14015   */\n      and\n        /* \"#utility.yul\":14034:14052   */\n      dup1\n        /* \"#utility.yul\":14024:14105   */\n      tag_279\n      jumpi\n        /* \"#utility.yul\":14090:14094   */\n      0x7f\n        /* \"#utility.yul\":14082:14088   */\n      dup3\n        /* \"#utility.yul\":14078:14095   */\n      and\n        /* \"#utility.yul\":14068:14095   */\n      swap2\n      pop\n        /* \"#utility.yul\":14024:14105   */\n    tag_279:\n        /* \"#utility.yul\":14152:14154   */\n      0x20\n        /* \"#utility.yul\":14144:14150   */\n      dup3\n        /* \"#utility.yul\":14141:14155   */\n      lt\n        /* \"#utility.yul\":14121:14139   */\n      dup2\n        /* \"#utility.yul\":14118:14156   */\n      sub\n        /* \"#utility.yul\":14115:14199   */\n      tag_280\n      jumpi\n        /* \"#utility.yul\":14171:14189   */\n      tag_281\n      tag_124\n      jump\t// in\n    tag_281:\n        /* \"#utility.yul\":14115:14199   */\n    tag_280:\n        /* \"#utility.yul\":13936:14205   */\n      pop\n        /* \"#utility.yul\":13885:14205   */\n      swap2\n      swap1\n      pop\n      jump\t// out\n        /* \"#utility.yul\":14211:14383   */\n    tag_125:\n        /* \"#utility.yul\":14351:14375   */\n      0x547765657420697320746f6f206c6f6e672062726f2100000000000000000000\n        /* \"#utility.yul\":14347:14348   */\n      0x00\n        /* \"#utility.yul\":14339:14345   */\n      dup3\n        /* \"#utility.yul\":14335:14349   */\n      add\n        /* \"#utility.yul\":14328:14376   */\n      mstore\n        /* \"#utility.yul\":14211:14383   */\n      pop\n      jump\t// out\n        /* \"#utility.yul\":14389:14755   */\n    tag_126:\n        /* \"#utility.yul\":14531:14534   */\n      0x00\n        /* \"#utility.yul\":14552:14619   */\n      tag_284\n        /* \"#utility.yul\":14616:14618   */\n      0x16\n        /* \"#utility.yul\":14611:14614   */\n      dup4\n        /* \"#utility.yul\":14552:14619   */\n      tag_94\n      jump\t// in\n    tag_284:\n        /* \"#utility.yul\":14545:14619   */\n      swap2\n      pop\n        /* \"#utility.yul\":14628:14721   */\n      tag_285\n        /* \"#utility.yul\":14717:14720   */\n      dup3\n        /* \"#utility.yul\":14628:14721   */\n      tag_125\n      jump\t// in\n    tag_285:\n        /* \"#utility.yul\":14746:14748   */\n      0x20\n        /* \"#utility.yul\":14741:14744   */\n      dup3\n        /* \"#utility.yul\":14737:14749   */\n      add\n        /* \"#utility.yul\":14730:14749   */\n      swap1\n      pop\n        /* \"#utility.yul\":14389:14755   */\n      swap2\n      swap1\n      pop\n      jump\t// out\n        /* \"#utility.yul\":14761:15180   */\n    tag_66:\n        /* \"#utility.yul\":14927:14931   */\n      0x00\n        /* \"#utility.yul\":14965:14967   */\n      0x20\n        /* \"#utility.yul\":14954:14963   */\n      dup3\n        /* \"#utility.yul\":14950:14968   */\n      add\n        /* \"#utility.yul\":14942:14968   */\n      swap1\n      pop\n        /* \"#utility.yul\":15014:15023   */\n      dup2\n        /* \"#utility.yul\":15008:15012   */\n      dup2\n        /* \"#utility.yul\":15004:15024   */\n      sub\n        /* \"#utility.yul\":15000:15001   */\n      0x00\n        /* \"#utility.yul\":14989:14998   */\n      dup4\n        /* \"#utility.yul\":14985:15002   */\n      add\n        /* \"#utility.yul\":14978:15025   */\n      mstore\n        /* \"#utility.yul\":15042:15173   */\n      tag_287\n        /* \"#utility.yul\":15168:15172   */\n      dup2\n        /* \"#utility.yul\":15042:15173   */\n      tag_126\n      jump\t// in\n    tag_287:\n        /* \"#utility.yul\":15034:15173   */\n      swap1\n      pop\n        /* \"#utility.yul\":14761:15180   */\n      swap2\n      swap1\n      pop\n      jump\t// out\n        /* \"#utility.yul\":15186:15327   */\n    tag_127:\n        /* \"#utility.yul\":15235:15239   */\n      0x00\n        /* \"#utility.yul\":15258:15261   */\n      dup2\n        /* \"#utility.yul\":15250:15261   */\n      swap1\n      pop\n        /* \"#utility.yul\":15281:15284   */\n      dup2\n        /* \"#utility.yul\":15278:15279   */\n      0x00\n        /* \"#utility.yul\":15271:15285   */\n      mstore\n        /* \"#utility.yul\":15315:15319   */\n      0x20\n        /* \"#utility.yul\":15312:15313   */\n      0x00\n        /* \"#utility.yul\":15302:15320   */\n      keccak256\n        /* \"#utility.yul\":15294:15320   */\n      swap1\n      pop\n        /* \"#utility.yul\":15186:15327   */\n      swap2\n      swap1\n      pop\n      jump\t// out\n        /* \"#utility.yul\":15333:15426   */\n    tag_128:\n        /* \"#utility.yul\":15370:15376   */\n      0x00\n        /* \"#utility.yul\":15417:15419   */\n      0x20\n        /* \"#utility.yul\":15412:15414   */\n      0x1f\n        /* \"#utility.yul\":15405:15410   */\n      dup4\n        /* \"#utility.yul\":15401:15415   */\n      add\n        /* \"#utility.yul\":15397:15420   */\n      div\n        /* \"#utility.yul\":15387:15420   */\n      swap1\n      pop\n        /* \"#utility.yul\":15333:15426   */\n      swap2\n      swap1\n      pop\n      jump\t// out\n        /* \"#utility.yul\":15432:15539   */\n    tag_129:\n        /* \"#utility.yul\":15476:15484   */\n      0x00\n        /* \"#utility.yul\":15526:15531   */\n      dup3\n        /* \"#utility.yul\":15520:15524   */\n      dup3\n        /* \"#utility.yul\":15516:15532   */\n      shl\n        /* \"#utility.yul\":15495:15532   */\n      swap1\n      pop\n        /* \"#utility.yul\":15432:15539   */\n      swap3\n      swap2\n      pop\n      pop\n      jump\t// out\n        /* \"#utility.yul\":15545:15938   */\n    tag_130:\n        /* \"#utility.yul\":15614:15620   */\n      0x00\n        /* \"#utility.yul\":15664:15665   */\n      0x08\n        /* \"#utility.yul\":15652:15662   */\n      dup4\n        /* \"#utility.yul\":15648:15666   */\n      mul\n        /* \"#utility.yul\":15687:15784   */\n      tag_292\n        /* \"#utility.yul\":15717:15783   */\n      0xffffffffffffffffffffffffffffffffffffffffffffffffffffffffffffffff\n        /* \"#utility.yul\":15706:15715   */\n      dup3\n        /* \"#utility.yul\":15687:15784   */\n      tag_129\n      jump\t// in\n    tag_292:\n        /* \"#utility.yul\":15805:15844   */\n      tag_293\n        /* \"#utility.yul\":15835:15843   */\n      dup7\n        /* \"#utility.yul\":15824:15833   */\n      dup4\n        /* \"#utility.yul\":15805:15844   */\n      tag_129\n      jump\t// in\n    tag_293:\n        /* \"#utility.yul\":15793:15844   */\n      swap6\n      pop\n        /* \"#utility.yul\":15877:15881   */\n      dup1\n        /* \"#utility.yul\":15873:15882   */\n      not\n        /* \"#utility.yul\":15866:15871   */\n      dup5\n        /* \"#utility.yul\":15862:15883   */\n      and\n        /* \"#utility.yul\":15853:15883   */\n      swap4\n      pop\n        /* \"#utility.yul\":15926:15930   */\n      dup1\n        /* \"#utility.yul\":15916:15924   */\n      dup7\n        /* \"#utility.yul\":15912:15931   */\n      and\n        /* \"#utility.yul\":15905:15910   */\n      dup5\n        /* \"#utility.yul\":15902:15932   */\n      or\n        /* \"#utility.yul\":15892:15932   */\n      swap3\n      pop\n        /* \"#utility.yul\":15621:15938   */\n      pop\n      pop\n        /* \"#utility.yul\":15545:15938   */\n      swap4\n      swap3\n      pop\n      pop\n      pop\n      jump\t// out\n        /* \"#utility.yul\":15944:16004   */\n    tag_131:\n        /* \"#utility.yul\":15972:15975   */\n      0x00\n        /* \"#utility.yul\":15993:15998   */\n      dup2\n        /* \"#utility.yul\":15986:15998   */\n      swap1\n      pop\n        /* \"#utility.yul\":15944:16004   */\n      swap2\n      swap1\n      pop\n      jump\t// out\n        /* \"#utility.yul\":16010:16152   */\n    tag_132:\n        /* \"#utility.yul\":16060:16069   */\n      0x00\n        /* \"#utility.yul\":16093:16146   */\n      tag_296\n        /* \"#utility.yul\":16111:16145   */\n      tag_297\n        /* \"#utility.yul\":16120:16144   */\n      tag_298\n        /* \"#utility.yul\":16138:16143   */\n      dup5\n        /* \"#utility.yul\":16120:16144   */\n      tag_89\n      jump\t// in\n    tag_298:\n        /* \"#utility.yul\":16111:16145   */\n      tag_131\n      jump\t// in\n    tag_297:\n        /* \"#utility.yul\":16093:16146   */\n      tag_89\n      jump\t// in\n    tag_296:\n        /* \"#utility.yul\":16080:16146   */\n      swap1\n      pop\n        /* \"#utility.yul\":16010:16152   */\n      swap2\n      swap1\n      pop\n      jump\t// out\n        /* \"#utility.yul\":16158:16233   */\n    tag_133:\n        /* \"#utility.yul\":16201:16204   */\n      0x00\n        /* \"#utility.yul\":16222:16227   */\n      dup2\n        /* \"#utility.yul\":16215:16227   */\n      swap1\n      pop\n        /* \"#utility.yul\":16158:16233   */\n      swap2\n      swap1\n      pop\n      jump\t// out\n        /* \"#utility.yul\":16239:16508   */\n    tag_134:\n        /* \"#utility.yul\":16349:16388   */\n      tag_301\n        /* \"#utility.yul\":16380:16387   */\n      dup4\n        /* \"#utility.yul\":16349:16388   */\n      tag_132\n      jump\t// in\n    tag_301:\n        /* \"#utility.yul\":16410:16501   */\n      tag_302\n        /* \"#utility.yul\":16459:16500   */\n      tag_303\n        /* \"#utility.yul\":16483:16499   */\n      dup3\n        /* \"#utility.yul\":16459:16500   */\n      tag_133\n      jump\t// in\n    tag_303:\n        /* \"#utility.yul\":16451:16457   */\n      dup5\n        /* \"#utility.yul\":16444:16448   */\n      dup5\n        /* \"#utility.yul\":16438:16449   */\n      sload\n        /* \"#utility.yul\":16410:16501   */\n      tag_130\n      jump\t// in\n    tag_302:\n        /* \"#utility.yul\":16404:16408   */\n      dup3\n        /* \"#utility.yul\":16397:16502   */\n      sstore\n        /* \"#utility.yul\":16315:16508   */\n      pop\n        /* \"#utility.yul\":16239:16508   */\n      pop\n      pop\n      pop\n      jump\t// out\n        /* \"#utility.yul\":16514:16587   */\n    tag_135:\n        /* \"#utility.yul\":16559:16562   */\n      0x00\n        /* \"#utility.yul\":16580:16581   */\n      0x00\n        /* \"#utility.yul\":16573:16581   */\n      swap1\n      pop\n        /* \"#utility.yul\":16514:16587   */\n      swap1\n      jump\t// out\n        /* \"#utility.yul\":16593:16782   */\n    tag_136:\n        /* \"#utility.yul\":16670:16702   */\n      tag_306\n      tag_135\n      jump\t// in\n    tag_306:\n        /* \"#utility.yul\":16711:16776   */\n      tag_307\n        /* \"#utility.yul\":16769:16775   */\n      dup2\n        /* \"#utility.yul\":16761:16767   */\n      dup5\n        /* \"#utility.yul\":16755:16759   */\n      dup5\n        /* \"#utility.yul\":16711:16776   */\n      tag_134\n      jump\t// in\n    tag_307:\n        /* \"#utility.yul\":16646:16782   */\n      pop\n        /* \"#utility.yul\":16593:16782   */\n      pop\n      pop\n      jump\t// out\n        /* \"#utility.yul\":16788:16974   */\n    tag_137:\n        /* \"#utility.yul\":16848:16968   */\n    tag_309:\n        /* \"#utility.yul\":16865:16868   */\n      dup2\n        /* \"#utility.yul\":16858:16863   */\n      dup2\n        /* \"#utility.yul\":16855:16869   */\n      lt\n        /* \"#utility.yul\":16848:16968   */\n      iszero\n      tag_311\n      jumpi\n        /* \"#utility.yul\":16919:16958   */\n      tag_312\n        /* \"#utility.yul\":16956:16957   */\n      0x00\n        /* \"#utility.yul\":16949:16954   */\n      dup3\n        /* \"#utility.yul\":16919:16958   */\n      tag_136\n      jump\t// in\n    tag_312:\n        /* \"#utility.yul\":16892:16893   */\n      0x01\n        /* \"#utility.yul\":16885:16890   */\n      dup2\n        /* \"#utility.yul\":16881:16894   */\n      add\n        /* \"#utility.yul\":16872:16894   */\n      swap1\n      pop\n        /* \"#utility.yul\":16848:16968   */\n      jump(tag_309)\n    tag_311:\n        /* \"#utility.yul\":16788:16974   */\n      pop\n      pop\n      jump\t// out\n        /* \"#utility.yul\":16980:17523   */\n    tag_138:\n        /* \"#utility.yul\":17081:17083   */\n      0x1f\n        /* \"#utility.yul\":17076:17079   */\n      dup3\n        /* \"#utility.yul\":17073:17084   */\n      gt\n        /* \"#utility.yul\":17070:17516   */\n      iszero\n      tag_314\n      jumpi\n        /* \"#utility.yul\":17115:17153   */\n      tag_315\n        /* \"#utility.yul\":17147:17152   */\n      dup2\n        /* \"#utility.yul\":17115:17153   */\n      tag_127\n      jump\t// in\n    tag_315:\n        /* \"#utility.yul\":17199:17228   */\n      tag_316\n        /* \"#utility.yul\":17217:17227   */\n      dup5\n        /* \"#utility.yul\":17199:17228   */\n      tag_128\n      jump\t// in\n    tag_316:\n        /* \"#utility.yul\":17189:17197   */\n      dup2\n        /* \"#utility.yul\":17185:17229   */\n      add\n        /* \"#utility.yul\":17382:17384   */\n      0x20\n        /* \"#utility.yul\":17370:17380   */\n      dup6\n        /* \"#utility.yul\":17367:17385   */\n      lt\n        /* \"#utility.yul\":17364:17413   */\n      iszero\n      tag_317\n      jumpi\n        /* \"#utility.yul\":17403:17411   */\n      dup2\n        /* \"#utility.yul\":17388:17411   */\n      swap1\n      pop\n        /* \"#utility.yul\":17364:17413   */\n    tag_317:\n        /* \"#utility.yul\":17426:17506   */\n      tag_318\n        /* \"#utility.yul\":17482:17504   */\n      tag_319\n        /* \"#utility.yul\":17500:17503   */\n      dup6\n        /* \"#utility.yul\":17482:17504   */\n      tag_128\n      jump\t// in\n    tag_319:\n        /* \"#utility.yul\":17472:17480   */\n      dup4\n        /* \"#utility.yul\":17468:17505   */\n      add\n        /* \"#utility.yul\":17455:17466   */\n      dup3\n        /* \"#utility.yul\":17426:17506   */\n      tag_137\n      jump\t// in\n    tag_318:\n        /* \"#utility.yul\":17085:17516   */\n      pop\n      pop\n        /* \"#utility.yul\":17070:17516   */\n    tag_314:\n        /* \"#utility.yul\":16980:17523   */\n      pop\n      pop\n      pop\n      jump\t// out\n        /* \"#utility.yul\":17529:17646   */\n    tag_139:\n        /* \"#utility.yul\":17583:17591   */\n      0x00\n        /* \"#utility.yul\":17633:17638   */\n      dup3\n        /* \"#utility.yul\":17627:17631   */\n      dup3\n        /* \"#utility.yul\":17623:17639   */\n      shr\n        /* \"#utility.yul\":17602:17639   */\n      swap1\n      pop\n        /* \"#utility.yul\":17529:17646   */\n      swap3\n      swap2\n      pop\n      pop\n      jump\t// out\n        /* \"#utility.yul\":17652:17821   */\n    tag_140:\n        /* \"#utility.yul\":17696:17702   */\n      0x00\n        /* \"#utility.yul\":17729:17780   */\n      tag_322\n        /* \"#utility.yul\":17777:17778   */\n      0x00\n        /* \"#utility.yul\":17773:17779   */\n      not\n        /* \"#utility.yul\":17765:17770   */\n      dup5\n        /* \"#utility.yul\":17762:17763   */\n      0x08\n        /* \"#utility.yul\":17758:17771   */\n      mul\n        /* \"#utility.yul\":17729:17780   */\n      tag_139\n      jump\t// in\n    tag_322:\n        /* \"#utility.yul\":17725:17781   */\n      not\n        /* \"#utility.yul\":17810:17814   */\n      dup1\n        /* \"#utility.yul\":17804:17808   */\n      dup4\n        /* \"#utility.yul\":17800:17815   */\n      and\n        /* \"#utility.yul\":17790:17815   */\n      swap2\n      pop\n        /* \"#utility.yul\":17703:17821   */\n      pop\n        /* \"#utility.yul\":17652:17821   */\n      swap3\n      swap2\n      pop\n      pop\n      jump\t// out\n        /* \"#utility.yul\":17826:18121   */\n    tag_141:\n        /* \"#utility.yul\":17902:17906   */\n      0x00\n        /* \"#utility.yul\":18048:18077   */\n      tag_324\n        /* \"#utility.yul\":18073:18076   */\n      dup4\n        /* \"#utility.yul\":18067:18071   */\n      dup4\n        /* \"#utility.yul\":18048:18077   */\n      tag_140\n      jump\t// in\n    tag_324:\n        /* \"#utility.yul\":18040:18077   */\n      swap2\n      pop\n        /* \"#utility.yul\":18110:18113   */\n      dup3\n        /* \"#utility.yul\":18107:18108   */\n      0x02\n        /* \"#utility.yul\":18103:18114   */\n      mul\n        /* \"#utility.yul\":18097:18101   */\n      dup3\n        /* \"#utility.yul\":18094:18115   */\n      or\n        /* \"#utility.yul\":18086:18115   */\n      swap1\n      pop\n        /* \"#utility.yul\":17826:18121   */\n      swap3\n      swap2\n      pop\n      pop\n      jump\t// out\n        /* \"#utility.yul\":18126:19521   */\n    tag_69:\n        /* \"#utility.yul\":18243:18280   */\n      tag_326\n        /* \"#utility.yul\":18276:18279   */\n      dup3\n        /* \"#utility.yul\":18243:18280   */\n      tag_93\n      jump\t// in\n    tag_326:\n        /* \"#utility.yul\":18345:18363   */\n      0xffffffffffffffff\n        /* \"#utility.yul\":18337:18343   */\n      dup2\n        /* \"#utility.yul\":18334:18364   */\n      gt\n        /* \"#utility.yul\":18331:18387   */\n      iszero\n      tag_327\n      jumpi\n        /* \"#utility.yul\":18367:18385   */\n      tag_328\n      tag_116\n      jump\t// in\n    tag_328:\n        /* \"#utility.yul\":18331:18387   */\n    tag_327:\n        /* \"#utility.yul\":18411:18449   */\n      tag_329\n        /* \"#utility.yul\":18443:18447   */\n      dup3\n        /* \"#utility.yul\":18437:18448   */\n      sload\n        /* \"#utility.yul\":18411:18449   */\n      tag_48\n      jump\t// in\n    tag_329:\n        /* \"#utility.yul\":18496:18563   */\n      tag_330\n        /* \"#utility.yul\":18556:18562   */\n      dup3\n        /* \"#utility.yul\":18548:18554   */\n      dup3\n        /* \"#utility.yul\":18542:18546   */\n      dup6\n        /* \"#utility.yul\":18496:18563   */\n      tag_138\n      jump\t// in\n    tag_330:\n        /* \"#utility.yul\":18590:18591   */\n      0x00\n        /* \"#utility.yul\":18614:18618   */\n      0x20\n        /* \"#utility.yul\":18601:18618   */\n      swap1\n      pop\n        /* \"#utility.yul\":18646:18648   */\n      0x1f\n        /* \"#utility.yul\":18638:18644   */\n      dup4\n        /* \"#utility.yul\":18635:18649   */\n      gt\n        /* \"#utility.yul\":18663:18664   */\n      0x01\n        /* \"#utility.yul\":18658:19276   */\n      dup2\n      eq\n      tag_332\n      jumpi\n        /* \"#utility.yul\":19320:19321   */\n      0x00\n        /* \"#utility.yul\":19337:19343   */\n      dup5\n        /* \"#utility.yul\":19334:19411   */\n      iszero\n      tag_333\n      jumpi\n        /* \"#utility.yul\":19386:19395   */\n      dup3\n        /* \"#utility.yul\":19381:19384   */\n      dup8\n        /* \"#utility.yul\":19377:19396   */\n      add\n        /* \"#utility.yul\":19371:19397   */\n      mload\n        /* \"#utility.yul\":19362:19397   */\n      swap1\n      pop\n        /* \"#utility.yul\":19334:19411   */\n    tag_333:\n        /* \"#utility.yul\":19437:19504   */\n      tag_334\n        /* \"#utility.yul\":19497:19503   */\n      dup6\n        /* \"#utility.yul\":19490:19495   */\n      dup3\n        /* \"#utility.yul\":19437:19504   */\n      tag_141\n      jump\t// in\n    tag_334:\n        /* \"#utility.yul\":19431:19435   */\n      dup7\n        /* \"#utility.yul\":19424:19505   */\n      sstore\n        /* \"#utility.yul\":19293:19515   */\n      pop\n        /* \"#utility.yul\":18628:19515   */\n      jump(tag_331)\n        /* \"#utility.yul\":18658:19276   */\n    tag_332:\n        /* \"#utility.yul\":18710:18714   */\n      0x1f\n        /* \"#utility.yul\":18706:18715   */\n      not\n        /* \"#utility.yul\":18698:18704   */\n      dup5\n        /* \"#utility.yul\":18694:18716   */\n      and\n        /* \"#utility.yul\":18744:18781   */\n      tag_335\n        /* \"#utility.yul\":18776:18780   */\n      dup7\n        /* \"#utility.yul\":18744:18781   */\n      tag_127\n      jump\t// in\n    tag_335:\n        /* \"#utility.yul\":18803:18804   */\n      0x00\n        /* \"#utility.yul\":18817:19025   */\n    tag_336:\n        /* \"#utility.yul\":18831:18838   */\n      dup3\n        /* \"#utility.yul\":18828:18829   */\n      dup2\n        /* \"#utility.yul\":18825:18839   */\n      lt\n        /* \"#utility.yul\":18817:19025   */\n      iszero\n      tag_338\n      jumpi\n        /* \"#utility.yul\":18910:18919   */\n      dup5\n        /* \"#utility.yul\":18905:18908   */\n      dup10\n        /* \"#utility.yul\":18901:18920   */\n      add\n        /* \"#utility.yul\":18895:18921   */\n      mload\n        /* \"#utility.yul\":18887:18893   */\n      dup3\n        /* \"#utility.yul\":18880:18922   */\n      sstore\n        /* \"#utility.yul\":18961:18962   */\n      0x01\n        /* \"#utility.yul\":18953:18959   */\n      dup3\n        /* \"#utility.yul\":18949:18963   */\n      add\n        /* \"#utility.yul\":18939:18963   */\n      swap2\n      pop\n        /* \"#utility.yul\":19008:19010   */\n      0x20\n        /* \"#utility.yul\":18997:19006   */\n      dup6\n        /* \"#utility.yul\":18993:19011   */\n      add\n        /* \"#utility.yul\":18980:19011   */\n      swap5\n      pop\n        /* \"#utility.yul\":18854:18858   */\n      0x20\n        /* \"#utility.yul\":18851:18852   */\n      dup2\n        /* \"#utility.yul\":18847:18859   */\n      add\n        /* \"#utility.yul\":18842:18859   */\n      swap1\n      pop\n        /* \"#utility.yul\":18817:19025   */\n      jump(tag_336)\n    tag_338:\n        /* \"#utility.yul\":19053:19059   */\n      dup7\n        /* \"#utility.yul\":19044:19051   */\n      dup4\n        /* \"#utility.yul\":19041:19060   */\n      lt\n        /* \"#utility.yul\":19038:19217   */\n      iszero\n      tag_339\n      jumpi\n        /* \"#utility.yul\":19111:19120   */\n      dup5\n        /* \"#utility.yul\":19106:19109   */\n      dup10\n        /* \"#utility.yul\":19102:19121   */\n      add\n        /* \"#utility.yul\":19096:19122   */\n      mload\n        /* \"#utility.yul\":19154:19202   */\n      tag_340\n        /* \"#utility.yul\":19196:19200   */\n      0x1f\n        /* \"#utility.yul\":19188:19194   */\n      dup10\n        /* \"#utility.yul\":19184:19201   */\n      and\n        /* \"#utility.yul\":19173:19182   */\n      dup3\n        /* \"#utility.yul\":19154:19202   */\n      tag_140\n      jump\t// in\n    tag_340:\n        /* \"#utility.yul\":19146:19152   */\n      dup4\n        /* \"#utility.yul\":19139:19203   */\n      sstore\n        /* \"#utility.yul\":19061:19217   */\n      pop\n        /* \"#utility.yul\":19038:19217   */\n    tag_339:\n        /* \"#utility.yul\":19263:19264   */\n      0x01\n        /* \"#utility.yul\":19259:19260   */\n      0x02\n        /* \"#utility.yul\":19251:19257   */\n      dup9\n        /* \"#utility.yul\":19247:19261   */\n      mul\n        /* \"#utility.yul\":19243:19265   */\n      add\n        /* \"#utility.yul\":19237:19241   */\n      dup9\n        /* \"#utility.yul\":19230:19266   */\n      sstore\n        /* \"#utility.yul\":18665:19276   */\n      pop\n      pop\n      pop\n        /* \"#utility.yul\":18628:19515   */\n    tag_331:\n      pop\n        /* \"#utility.yul\":18218:19521   */\n      pop\n      pop\n      pop\n        /* \"#utility.yul\":18126:19521   */\n      pop\n      pop\n      jump\t// out\n        /* \"#utility.yul\":19527:19707   */\n    tag_75:\n        /* \"#utility.yul\":19575:19652   */\n      0x4e487b7100000000000000000000000000000000000000000000000000000000\n        /* \"#utility.yul\":19572:19573   */\n      0x00\n        /* \"#utility.yul\":19565:19653   */\n      mstore\n        /* \"#utility.yul\":19672:19676   */\n      0x32\n        /* \"#utility.yul\":19669:19670   */\n      0x04\n        /* \"#utility.yul\":19662:19677   */\n      mstore\n        /* \"#utility.yul\":19696:19700   */\n      0x24\n        /* \"#utility.yul\":19693:19694   */\n      0x00\n        /* \"#utility.yul\":19686:19701   */\n      revert\n\n    auxdata: 0xa26469706673582212207fd688fbaa0889511bfe4392f78680c9bf41f4eecc555d02a5484cb0136737f164736f6c634300081e0033\n}\n",
				"bytecode": {
					"linkReferences": {},
					"object": "60806040526101185f5f6101000a81548161ffff021916908361ffff160217905550348015602b575f5ffd5b503360025f6101000a81548173ffffffffffffffffffffffffffffffffffffffff021916908373ffffffffffffffffffffffffffffffffffffffff16021790555061113f806100795f395ff3fe608060405234801561000f575f5ffd5b506004361061007b575f3560e01c80636eb10797116100595780636eb10797146100fe5780637c9cd2bc1461011c5780638da5cb5b14610138578063c3ad5ecb146101565761007b565b806305a1b4a91461007f57806312e7ee1c146100b257806358bfa4ab146100e2575b5f5ffd5b61009960048036038101906100949190610805565b610186565b6040516100a994939291906108d1565b60405180910390f35b6100cc60048036038101906100c7919061091b565b610271565b6040516100d99190610ac7565b60405180910390f35b6100fc60048036038101906100f79190610b1e565b610402565b005b610106610420565b6040516101139190610b58565b60405180910390f35b61013660048036038101906101319190610c9d565b610432565b005b61014061059a565b60405161014d9190610ce4565b60405180910390f35b610170600480360381019061016b9190610cfd565b6105bf565b60405161017d9190610d88565b60405180910390f35b6001602052815f5260405f20818154811061019f575f80fd5b905f5260205f2090600402015f9150915050805f015f9054906101000a900473ffffffffffffffffffffffffffffffffffffffff16908060010180546101e490610dd5565b80601f016020809104026020016040519081016040528092919081815260200182805461021090610dd5565b801561025b5780601f106102325761010080835404028352916020019161025b565b820191905f5260205f20905b81548152906001019060200180831161023e57829003601f168201915b5050505050908060020154908060030154905084565b606060015f8373ffffffffffffffffffffffffffffffffffffffff1673ffffffffffffffffffffffffffffffffffffffff1681526020019081526020015f20805480602002602001604051908101604052809291908181526020015f905b828210156103f7578382905f5260205f2090600402016040518060800160405290815f82015f9054906101000a900473ffffffffffffffffffffffffffffffffffffffff1673ffffffffffffffffffffffffffffffffffffffff1673ffffffffffffffffffffffffffffffffffffffff16815260200160018201805461035490610dd5565b80601f016020809104026020016040519081016040528092919081815260200182805461038090610dd5565b80156103cb5780601f106103a2576101008083540402835291602001916103cb565b820191905f5260205f20905b8154815290600101906020018083116103ae57829003601f168201915b5050505050815260200160028201548152602001600382015481525050815260200190600101906102cf565b505050509050919050565b805f5f6101000a81548161ffff021916908361ffff16021790555050565b5f5f9054906101000a900461ffff1681565b5f5f9054906101000a900461ffff1661ffff1681511115610488576040517f08c379a000000000000000000000000000000000000000000000000000000000815260040161047f90610e4f565b60405180910390fd5b5f60405180608001604052803373ffffffffffffffffffffffffffffffffffffffff1681526020018381526020014281526020015f815250905060015f3373ffffffffffffffffffffffffffffffffffffffff1673ffffffffffffffffffffffffffffffffffffffff1681526020019081526020015f2081908060018154018082558091505060019003905f5260205f2090600402015f909190919091505f820151815f015f6101000a81548173ffffffffffffffffffffffffffffffffffffffff021916908373ffffffffffffffffffffffffffffffffffffffff160217905550602082015181600101908161057f919061100d565b50604082015181600201556060820151816003015550505050565b60025f9054906101000a900473ffffffffffffffffffffffffffffffffffffffff1681565b6105c761072c565b60015f3373ffffffffffffffffffffffffffffffffffffffff1673ffffffffffffffffffffffffffffffffffffffff1681526020019081526020015f208281548110610616576106156110dc565b5b905f5260205f2090600402016040518060800160405290815f82015f9054906101000a900473ffffffffffffffffffffffffffffffffffffffff1673ffffffffffffffffffffffffffffffffffffffff1673ffffffffffffffffffffffffffffffffffffffff16815260200160018201805461069190610dd5565b80601f01602080910402602001604051908101604052809291908181526020018280546106bd90610dd5565b80156107085780601f106106df57610100808354040283529160200191610708565b820191905f5260205f20905b8154815290600101906020018083116106eb57829003601f168201915b50505050508152602001600282015481526020016003820154815250509050919050565b60405180608001604052805f73ffffffffffffffffffffffffffffffffffffffff168152602001606081526020015f81526020015f81525090565b5f604051905090565b5f5ffd5b5f5ffd5b5f73ffffffffffffffffffffffffffffffffffffffff82169050919050565b5f6107a182610778565b9050919050565b6107b181610797565b81146107bb575f5ffd5b50565b5f813590506107cc816107a8565b92915050565b5f819050919050565b6107e4816107d2565b81146107ee575f5ffd5b50565b5f813590506107ff816107db565b92915050565b5f5f6040838503121561081b5761081a610770565b5b5f610828858286016107be565b9250506020610839858286016107f1565b9150509250929050565b61084c81610797565b82525050565b5f81519050919050565b5f82825260208201905092915050565b8281835e5f83830152505050565b5f601f19601f8301169050919050565b5f61089482610852565b61089e818561085c565b93506108ae81856020860161086c565b6108b78161087a565b840191505092915050565b6108cb816107d2565b82525050565b5f6080820190506108e45f830187610843565b81810360208301526108f6818661088a565b905061090560408301856108c2565b61091260608301846108c2565b95945050505050565b5f602082840312156109305761092f610770565b5b5f61093d848285016107be565b91505092915050565b5f81519050919050565b5f82825260208201905092915050565b5f819050602082019050919050565b61097881610797565b82525050565b5f82825260208201905092915050565b5f61099882610852565b6109a2818561097e565b93506109b281856020860161086c565b6109bb8161087a565b840191505092915050565b6109cf816107d2565b82525050565b5f608083015f8301516109ea5f86018261096f565b5060208301518482036020860152610a02828261098e565b9150506040830151610a1760408601826109c6565b506060830151610a2a60608601826109c6565b508091505092915050565b5f610a4083836109d5565b905092915050565b5f602082019050919050565b5f610a5e82610946565b610a688185610950565b935083602082028501610a7a85610960565b805f5b85811015610ab55784840389528151610a968582610a35565b9450610aa183610a48565b925060208a01995050600181019050610a7d565b50829750879550505050505092915050565b5f6020820190508181035f830152610adf8184610a54565b905092915050565b5f61ffff82169050919050565b610afd81610ae7565b8114610b07575f5ffd5b50565b5f81359050610b1881610af4565b92915050565b5f60208284031215610b3357610b32610770565b5b5f610b4084828501610b0a565b91505092915050565b610b5281610ae7565b82525050565b5f602082019050610b6b5f830184610b49565b92915050565b5f5ffd5b5f5ffd5b7f4e487b71000000000000000000000000000000000000000000000000000000005f52604160045260245ffd5b610baf8261087a565b810181811067ffffffffffffffff82111715610bce57610bcd610b79565b5b80604052505050565b5f610be0610767565b9050610bec8282610ba6565b919050565b5f67ffffffffffffffff821115610c0b57610c0a610b79565b5b610c148261087a565b9050602081019050919050565b828183375f83830152505050565b5f610c41610c3c84610bf1565b610bd7565b905082815260208101848484011115610c5d57610c5c610b75565b5b610c68848285610c21565b509392505050565b5f82601f830112610c8457610c83610b71565b5b8135610c94848260208601610c2f565b91505092915050565b5f60208284031215610cb257610cb1610770565b5b5f82013567ffffffffffffffff811115610ccf57610cce610774565b5b610cdb84828501610c70565b91505092915050565b5f602082019050610cf75f830184610843565b92915050565b5f60208284031215610d1257610d11610770565b5b5f610d1f848285016107f1565b91505092915050565b5f608083015f830151610d3d5f86018261096f565b5060208301518482036020860152610d55828261098e565b9150506040830151610d6a60408601826109c6565b506060830151610d7d60608601826109c6565b508091505092915050565b5f6020820190508181035f830152610da08184610d28565b905092915050565b7f4e487b71000000000000000000000000000000000000000000000000000000005f52602260045260245ffd5b5f6002820490506001821680610dec57607f821691505b602082108103610dff57610dfe610da8565b5b50919050565b7f547765657420697320746f6f206c6f6e672062726f21000000000000000000005f82015250565b5f610e3960168361085c565b9150610e4482610e05565b602082019050919050565b5f6020820190508181035f830152610e6681610e2d565b9050919050565b5f819050815f5260205f209050919050565b5f6020601f8301049050919050565b5f82821b905092915050565b5f60088302610ec97fffffffffffffffffffffffffffffffffffffffffffffffffffffffffffffffff82610e8e565b610ed38683610e8e565b95508019841693508086168417925050509392505050565b5f819050919050565b5f610f0e610f09610f04846107d2565b610eeb565b6107d2565b9050919050565b5f819050919050565b610f2783610ef4565b610f3b610f3382610f15565b848454610e9a565b825550505050565b5f5f905090565b610f52610f43565b610f5d818484610f1e565b505050565b5b81811015610f8057610f755f82610f4a565b600181019050610f63565b5050565b601f821115610fc557610f9681610e6d565b610f9f84610e7f565b81016020851015610fae578190505b610fc2610fba85610e7f565b830182610f62565b50505b505050565b5f82821c905092915050565b5f610fe55f1984600802610fca565b1980831691505092915050565b5f610ffd8383610fd6565b9150826002028217905092915050565b61101682610852565b67ffffffffffffffff81111561102f5761102e610b79565b5b6110398254610dd5565b611044828285610f84565b5f60209050601f831160018114611075575f8415611063578287015190505b61106d8582610ff2565b8655506110d4565b601f19841661108386610e6d565b5f5b828110156110aa57848901518255600182019150602085019450602081019050611085565b868310156110c757848901516110c3601f891682610fd6565b8355505b6001600288020188555050505b505050505050565b7f4e487b71000000000000000000000000000000000000000000000000000000005f52603260045260245ffdfea26469706673582212207fd688fbaa0889511bfe4392f78680c9bf41f4eecc555d02a5484cb0136737f164736f6c634300081e0033",
					"opcodes": "PUSH1 0x80 PUSH1 0x40 MSTORE PUSH2 0x118 PUSH0 PUSH0 PUSH2 0x100 EXP DUP2 SLOAD DUP2 PUSH2 0xFFFF MUL NOT AND SWAP1 DUP4 PUSH2 0xFFFF AND MUL OR SWAP1 SSTORE POP CALLVALUE DUP1 ISZERO PUSH1 0x2B JUMPI PUSH0 PUSH0 REVERT JUMPDEST POP CALLER PUSH1 0x2 PUSH0 PUSH2 0x100 EXP DUP2 SLOAD DUP2 PUSH20 0xFFFFFFFFFFFFFFFFFFFFFFFFFFFFFFFFFFFFFFFF MUL NOT AND SWAP1 DUP4 PUSH20 0xFFFFFFFFFFFFFFFFFFFFFFFFFFFFFFFFFFFFFFFF AND MUL OR SWAP1 SSTORE POP PUSH2 0x113F DUP1 PUSH2 0x79 PUSH0 CODECOPY PUSH0 RETURN INVALID PUSH1 0x80 PUSH1 0x40 MSTORE CALLVALUE DUP1 ISZERO PUSH2 0xF JUMPI PUSH0 PUSH0 REVERT JUMPDEST POP PUSH1 0x4 CALLDATASIZE LT PUSH2 0x7B JUMPI PUSH0 CALLDATALOAD PUSH1 0xE0 SHR DUP1 PUSH4 0x6EB10797 GT PUSH2 0x59 JUMPI DUP1 PUSH4 0x6EB10797 EQ PUSH2 0xFE JUMPI DUP1 PUSH4 0x7C9CD2BC EQ PUSH2 0x11C JUMPI DUP1 PUSH4 0x8DA5CB5B EQ PUSH2 0x138 JUMPI DUP1 PUSH4 0xC3AD5ECB EQ PUSH2 0x156 JUMPI PUSH2 0x7B JUMP JUMPDEST DUP1 PUSH4 0x5A1B4A9 EQ PUSH2 0x7F JUMPI DUP1 PUSH4 0x12E7EE1C EQ PUSH2 0xB2 JUMPI DUP1 PUSH4 0x58BFA4AB EQ PUSH2 0xE2 JUMPI JUMPDEST PUSH0 PUSH0 REVERT JUMPDEST PUSH2 0x99 PUSH1 0x4 DUP1 CALLDATASIZE SUB DUP2 ADD SWAP1 PUSH2 0x94 SWAP2 SWAP1 PUSH2 0x805 JUMP JUMPDEST PUSH2 0x186 JUMP JUMPDEST PUSH1 0x40 MLOAD PUSH2 0xA9 SWAP5 SWAP4 SWAP3 SWAP2 SWAP1 PUSH2 0x8D1 JUMP JUMPDEST PUSH1 0x40 MLOAD DUP1 SWAP2 SUB SWAP1 RETURN JUMPDEST PUSH2 0xCC PUSH1 0x4 DUP1 CALLDATASIZE SUB DUP2 ADD SWAP1 PUSH2 0xC7 SWAP2 SWAP1 PUSH2 0x91B JUMP JUMPDEST PUSH2 0x271 JUMP JUMPDEST PUSH1 0x40 MLOAD PUSH2 0xD9 SWAP2 SWAP1 PUSH2 0xAC7 JUMP JUMPDEST PUSH1 0x40 MLOAD DUP1 SWAP2 SUB SWAP1 RETURN JUMPDEST PUSH2 0xFC PUSH1 0x4 DUP1 CALLDATASIZE SUB DUP2 ADD SWAP1 PUSH2 0xF7 SWAP2 SWAP1 PUSH2 0xB1E JUMP JUMPDEST PUSH2 0x402 JUMP JUMPDEST STOP JUMPDEST PUSH2 0x106 PUSH2 0x420 JUMP JUMPDEST PUSH1 0x40 MLOAD PUSH2 0x113 SWAP2 SWAP1 PUSH2 0xB58 JUMP JUMPDEST PUSH1 0x40 MLOAD DUP1 SWAP2 SUB SWAP1 RETURN JUMPDEST PUSH2 0x136 PUSH1 0x4 DUP1 CALLDATASIZE SUB DUP2 ADD SWAP1 PUSH2 0x131 SWAP2 SWAP1 PUSH2 0xC9D JUMP JUMPDEST PUSH2 0x432 JUMP JUMPDEST STOP JUMPDEST PUSH2 0x140 PUSH2 0x59A JUMP JUMPDEST PUSH1 0x40 MLOAD PUSH2 0x14D SWAP2 SWAP1 PUSH2 0xCE4 JUMP JUMPDEST PUSH1 0x40 MLOAD DUP1 SWAP2 SUB SWAP1 RETURN JUMPDEST PUSH2 0x170 PUSH1 0x4 DUP1 CALLDATASIZE SUB DUP2 ADD SWAP1 PUSH2 0x16B SWAP2 SWAP1 PUSH2 0xCFD JUMP JUMPDEST PUSH2 0x5BF JUMP JUMPDEST PUSH1 0x40 MLOAD PUSH2 0x17D SWAP2 SWAP1 PUSH2 0xD88 JUMP JUMPDEST PUSH1 0x40 MLOAD DUP1 SWAP2 SUB SWAP1 RETURN JUMPDEST PUSH1 0x1 PUSH1 0x20 MSTORE DUP2 PUSH0 MSTORE PUSH1 0x40 PUSH0 KECCAK256 DUP2 DUP2 SLOAD DUP2 LT PUSH2 0x19F JUMPI PUSH0 DUP1 REVERT JUMPDEST SWAP1 PUSH0 MSTORE PUSH1 0x20 PUSH0 KECCAK256 SWAP1 PUSH1 0x4 MUL ADD PUSH0 SWAP2 POP SWAP2 POP POP DUP1 PUSH0 ADD PUSH0 SWAP1 SLOAD SWAP1 PUSH2 0x100 EXP SWAP1 DIV PUSH20 0xFFFFFFFFFFFFFFFFFFFFFFFFFFFFFFFFFFFFFFFF AND SWAP1 DUP1 PUSH1 0x1 ADD DUP1 SLOAD PUSH2 0x1E4 SWAP1 PUSH2 0xDD5 JUMP JUMPDEST DUP1 PUSH1 0x1F ADD PUSH1 0x20 DUP1 SWAP2 DIV MUL PUSH1 0x20 ADD PUSH1 0x40 MLOAD SWAP1 DUP2 ADD PUSH1 0x40 MSTORE DUP1 SWAP3 SWAP2 SWAP1 DUP2 DUP2 MSTORE PUSH1 0x20 ADD DUP3 DUP1 SLOAD PUSH2 0x210 SWAP1 PUSH2 0xDD5 JUMP JUMPDEST DUP1 ISZERO PUSH2 0x25B JUMPI DUP1 PUSH1 0x1F LT PUSH2 0x232 JUMPI PUSH2 0x100 DUP1 DUP4 SLOAD DIV MUL DUP4 MSTORE SWAP2 PUSH1 0x20 ADD SWAP2 PUSH2 0x25B JUMP JUMPDEST DUP3 ADD SWAP2 SWAP1 PUSH0 MSTORE PUSH1 0x20 PUSH0 KECCAK256 SWAP1 JUMPDEST DUP2 SLOAD DUP2 MSTORE SWAP1 PUSH1 0x1 ADD SWAP1 PUSH1 0x20 ADD DUP1 DUP4 GT PUSH2 0x23E JUMPI DUP3 SWAP1 SUB PUSH1 0x1F AND DUP3 ADD SWAP2 JUMPDEST POP POP POP POP POP SWAP1 DUP1 PUSH1 0x2 ADD SLOAD SWAP1 DUP1 PUSH1 0x3 ADD SLOAD SWAP1 POP DUP5 JUMP JUMPDEST PUSH1 0x60 PUSH1 0x1 PUSH0 DUP4 PUSH20 0xFFFFFFFFFFFFFFFFFFFFFFFFFFFFFFFFFFFFFFFF AND PUSH20 0xFFFFFFFFFFFFFFFFFFFFFFFFFFFFFFFFFFFFFFFF AND DUP2 MSTORE PUSH1 0x20 ADD SWAP1 DUP2 MSTORE PUSH1 0x20 ADD PUSH0 KECCAK256 DUP1 SLOAD DUP1 PUSH1 0x20 MUL PUSH1 0x20 ADD PUSH1 0x40 MLOAD SWAP1 DUP2 ADD PUSH1 0x40 MSTORE DUP1 SWAP3 SWAP2 SWAP1 DUP2 DUP2 MSTORE PUSH1 0x20 ADD PUSH0 SWAP1 JUMPDEST DUP3 DUP3 LT ISZERO PUSH2 0x3F7 JUMPI DUP4 DUP3 SWAP1 PUSH0 MSTORE PUSH1 0x20 PUSH0 KECCAK256 SWAP1 PUSH1 0x4 MUL ADD PUSH1 0x40 MLOAD DUP1 PUSH1 0x80 ADD PUSH1 0x40 MSTORE SWAP1 DUP2 PUSH0 DUP3 ADD PUSH0 SWAP1 SLOAD SWAP1 PUSH2 0x100 EXP SWAP1 DIV PUSH20 0xFFFFFFFFFFFFFFFFFFFFFFFFFFFFFFFFFFFFFFFF AND PUSH20 0xFFFFFFFFFFFFFFFFFFFFFFFFFFFFFFFFFFFFFFFF AND PUSH20 0xFFFFFFFFFFFFFFFFFFFFFFFFFFFFFFFFFFFFFFFF AND DUP2 MSTORE PUSH1 0x20 ADD PUSH1 0x1 DUP3 ADD DUP1 SLOAD PUSH2 0x354 SWAP1 PUSH2 0xDD5 JUMP JUMPDEST DUP1 PUSH1 0x1F ADD PUSH1 0x20 DUP1 SWAP2 DIV MUL PUSH1 0x20 ADD PUSH1 0x40 MLOAD SWAP1 DUP2 ADD PUSH1 0x40 MSTORE DUP1 SWAP3 SWAP2 SWAP1 DUP2 DUP2 MSTORE PUSH1 0x20 ADD DUP3 DUP1 SLOAD PUSH2 0x380 SWAP1 PUSH2 0xDD5 JUMP JUMPDEST DUP1 ISZERO PUSH2 0x3CB JUMPI DUP1 PUSH1 0x1F LT PUSH2 0x3A2 JUMPI PUSH2 0x100 DUP1 DUP4 SLOAD DIV MUL DUP4 MSTORE SWAP2 PUSH1 0x20 ADD SWAP2 PUSH2 0x3CB JUMP JUMPDEST DUP3 ADD SWAP2 SWAP1 PUSH0 MSTORE PUSH1 0x20 PUSH0 KECCAK256 SWAP1 JUMPDEST DUP2 SLOAD DUP2 MSTORE SWAP1 PUSH1 0x1 ADD SWAP1 PUSH1 0x20 ADD DUP1 DUP4 GT PUSH2 0x3AE JUMPI DUP3 SWAP1 SUB PUSH1 0x1F AND DUP3 ADD SWAP2 JUMPDEST POP POP POP POP POP DUP2 MSTORE PUSH1 0x20 ADD PUSH1 0x2 DUP3 ADD SLOAD DUP2 MSTORE PUSH1 0x20 ADD PUSH1 0x3 DUP3 ADD SLOAD DUP2 MSTORE POP POP DUP2 MSTORE PUSH1 0x20 ADD SWAP1 PUSH1 0x1 ADD SWAP1 PUSH2 0x2CF JUMP JUMPDEST POP POP POP POP SWAP1 POP SWAP2 SWAP1 POP JUMP JUMPDEST DUP1 PUSH0 PUSH0 PUSH2 0x100 EXP DUP2 SLOAD DUP2 PUSH2 0xFFFF MUL NOT AND SWAP1 DUP4 PUSH2 0xFFFF AND MUL OR SWAP1 SSTORE POP POP JUMP JUMPDEST PUSH0 PUSH0 SWAP1 SLOAD SWAP1 PUSH2 0x100 EXP SWAP1 DIV PUSH2 0xFFFF AND DUP2 JUMP JUMPDEST PUSH0 PUSH0 SWAP1 SLOAD SWAP1 PUSH2 0x100 EXP SWAP1 DIV PUSH2 0xFFFF AND PUSH2 0xFFFF AND DUP2 MLOAD GT ISZERO PUSH2 0x488 JUMPI PUSH1 0x40 MLOAD PUSH32 0x8C379A000000000000000000000000000000000000000000000000000000000 DUP2 MSTORE PUSH1 0x4 ADD PUSH2 0x47F SWAP1 PUSH2 0xE4F JUMP JUMPDEST PUSH1 0x40 MLOAD DUP1 SWAP2 SUB SWAP1 REVERT JUMPDEST PUSH0 PUSH1 0x40 MLOAD DUP1 PUSH1 0x80 ADD PUSH1 0x40 MSTORE DUP1 CALLER PUSH20 0xFFFFFFFFFFFFFFFFFFFFFFFFFFFFFFFFFFFFFFFF AND DUP2 MSTORE PUSH1 0x20 ADD DUP4 DUP2 MSTORE PUSH1 0x20 ADD TIMESTAMP DUP2 MSTORE PUSH1 0x20 ADD PUSH0 DUP2 MSTORE POP SWAP1 POP PUSH1 0x1 PUSH0 CALLER PUSH20 0xFFFFFFFFFFFFFFFFFFFFFFFFFFFFFFFFFFFFFFFF AND PUSH20 0xFFFFFFFFFFFFFFFFFFFFFFFFFFFFFFFFFFFFFFFF AND DUP2 MSTORE PUSH1 0x20 ADD SWAP1 DUP2 MSTORE PUSH1 0x20 ADD PUSH0 KECCAK256 DUP2 SWAP1 DUP1 PUSH1 0x1 DUP2 SLOAD ADD DUP1 DUP3 SSTORE DUP1 SWAP2 POP POP PUSH1 0x1 SWAP1 SUB SWAP1 PUSH0 MSTORE PUSH1 0x20 PUSH0 KECCAK256 SWAP1 PUSH1 0x4 MUL ADD PUSH0 SWAP1 SWAP2 SWAP1 SWAP2 SWAP1 SWAP2 POP PUSH0 DUP3 ADD MLOAD DUP2 PUSH0 ADD PUSH0 PUSH2 0x100 EXP DUP2 SLOAD DUP2 PUSH20 0xFFFFFFFFFFFFFFFFFFFFFFFFFFFFFFFFFFFFFFFF MUL NOT AND SWAP1 DUP4 PUSH20 0xFFFFFFFFFFFFFFFFFFFFFFFFFFFFFFFFFFFFFFFF AND MUL OR SWAP1 SSTORE POP PUSH1 0x20 DUP3 ADD MLOAD DUP2 PUSH1 0x1 ADD SWAP1 DUP2 PUSH2 0x57F SWAP2 SWAP1 PUSH2 0x100D JUMP JUMPDEST POP PUSH1 0x40 DUP3 ADD MLOAD DUP2 PUSH1 0x2 ADD SSTORE PUSH1 0x60 DUP3 ADD MLOAD DUP2 PUSH1 0x3 ADD SSTORE POP POP POP POP JUMP JUMPDEST PUSH1 0x2 PUSH0 SWAP1 SLOAD SWAP1 PUSH2 0x100 EXP SWAP1 DIV PUSH20 0xFFFFFFFFFFFFFFFFFFFFFFFFFFFFFFFFFFFFFFFF AND DUP2 JUMP JUMPDEST PUSH2 0x5C7 PUSH2 0x72C JUMP JUMPDEST PUSH1 0x1 PUSH0 CALLER PUSH20 0xFFFFFFFFFFFFFFFFFFFFFFFFFFFFFFFFFFFFFFFF AND PUSH20 0xFFFFFFFFFFFFFFFFFFFFFFFFFFFFFFFFFFFFFFFF AND DUP2 MSTORE PUSH1 0x20 ADD SWAP1 DUP2 MSTORE PUSH1 0x20 ADD PUSH0 KECCAK256 DUP3 DUP2 SLOAD DUP2 LT PUSH2 0x616 JUMPI PUSH2 0x615 PUSH2 0x10DC JUMP JUMPDEST JUMPDEST SWAP1 PUSH0 MSTORE PUSH1 0x20 PUSH0 KECCAK256 SWAP1 PUSH1 0x4 MUL ADD PUSH1 0x40 MLOAD DUP1 PUSH1 0x80 ADD PUSH1 0x40 MSTORE SWAP1 DUP2 PUSH0 DUP3 ADD PUSH0 SWAP1 SLOAD SWAP1 PUSH2 0x100 EXP SWAP1 DIV PUSH20 0xFFFFFFFFFFFFFFFFFFFFFFFFFFFFFFFFFFFFFFFF AND PUSH20 0xFFFFFFFFFFFFFFFFFFFFFFFFFFFFFFFFFFFFFFFF AND PUSH20 0xFFFFFFFFFFFFFFFFFFFFFFFFFFFFFFFFFFFFFFFF AND DUP2 MSTORE PUSH1 0x20 ADD PUSH1 0x1 DUP3 ADD DUP1 SLOAD PUSH2 0x691 SWAP1 PUSH2 0xDD5 JUMP JUMPDEST DUP1 PUSH1 0x1F ADD PUSH1 0x20 DUP1 SWAP2 DIV MUL PUSH1 0x20 ADD PUSH1 0x40 MLOAD SWAP1 DUP2 ADD PUSH1 0x40 MSTORE DUP1 SWAP3 SWAP2 SWAP1 DUP2 DUP2 MSTORE PUSH1 0x20 ADD DUP3 DUP1 SLOAD PUSH2 0x6BD SWAP1 PUSH2 0xDD5 JUMP JUMPDEST DUP1 ISZERO PUSH2 0x708 JUMPI DUP1 PUSH1 0x1F LT PUSH2 0x6DF JUMPI PUSH2 0x100 DUP1 DUP4 SLOAD DIV MUL DUP4 MSTORE SWAP2 PUSH1 0x20 ADD SWAP2 PUSH2 0x708 JUMP JUMPDEST DUP3 ADD SWAP2 SWAP1 PUSH0 MSTORE PUSH1 0x20 PUSH0 KECCAK256 SWAP1 JUMPDEST DUP2 SLOAD DUP2 MSTORE SWAP1 PUSH1 0x1 ADD SWAP1 PUSH1 0x20 ADD DUP1 DUP4 GT PUSH2 0x6EB JUMPI DUP3 SWAP1 SUB PUSH1 0x1F AND DUP3 ADD SWAP2 JUMPDEST POP POP POP POP POP DUP2 MSTORE PUSH1 0x20 ADD PUSH1 0x2 DUP3 ADD SLOAD DUP2 MSTORE PUSH1 0x20 ADD PUSH1 0x3 DUP3 ADD SLOAD DUP2 MSTORE POP POP SWAP1 POP SWAP2 SWAP1 POP JUMP JUMPDEST PUSH1 0x40 MLOAD DUP1 PUSH1 0x80 ADD PUSH1 0x40 MSTORE DUP1 PUSH0 PUSH20 0xFFFFFFFFFFFFFFFFFFFFFFFFFFFFFFFFFFFFFFFF AND DUP2 MSTORE PUSH1 0x20 ADD PUSH1 0x60 DUP2 MSTORE PUSH1 0x20 ADD PUSH0 DUP2 MSTORE PUSH1 0x20 ADD PUSH0 DUP2 MSTORE POP SWAP1 JUMP JUMPDEST PUSH0 PUSH1 0x40 MLOAD SWAP1 POP SWAP1 JUMP JUMPDEST PUSH0 PUSH0 REVERT JUMPDEST PUSH0 PUSH0 REVERT JUMPDEST PUSH0 PUSH20 0xFFFFFFFFFFFFFFFFFFFFFFFFFFFFFFFFFFFFFFFF DUP3 AND SWAP1 POP SWAP2 SWAP1 POP JUMP JUMPDEST PUSH0 PUSH2 0x7A1 DUP3 PUSH2 0x778 JUMP JUMPDEST SWAP1 POP SWAP2 SWAP1 POP JUMP JUMPDEST PUSH2 0x7B1 DUP2 PUSH2 0x797 JUMP JUMPDEST DUP2 EQ PUSH2 0x7BB JUMPI PUSH0 PUSH0 REVERT JUMPDEST POP JUMP JUMPDEST PUSH0 DUP2 CALLDATALOAD SWAP1 POP PUSH2 0x7CC DUP2 PUSH2 0x7A8 JUMP JUMPDEST SWAP3 SWAP2 POP POP JUMP JUMPDEST PUSH0 DUP2 SWAP1 POP SWAP2 SWAP1 POP JUMP JUMPDEST PUSH2 0x7E4 DUP2 PUSH2 0x7D2 JUMP JUMPDEST DUP2 EQ PUSH2 0x7EE JUMPI PUSH0 PUSH0 REVERT JUMPDEST POP JUMP JUMPDEST PUSH0 DUP2 CALLDATALOAD SWAP1 POP PUSH2 0x7FF DUP2 PUSH2 0x7DB JUMP JUMPDEST SWAP3 SWAP2 POP POP JUMP JUMPDEST PUSH0 PUSH0 PUSH1 0x40 DUP4 DUP6 SUB SLT ISZERO PUSH2 0x81B JUMPI PUSH2 0x81A PUSH2 0x770 JUMP JUMPDEST JUMPDEST PUSH0 PUSH2 0x828 DUP6 DUP3 DUP7 ADD PUSH2 0x7BE JUMP JUMPDEST SWAP3 POP POP PUSH1 0x20 PUSH2 0x839 DUP6 DUP3 DUP7 ADD PUSH2 0x7F1 JUMP JUMPDEST SWAP2 POP POP SWAP3 POP SWAP3 SWAP1 POP JUMP JUMPDEST PUSH2 0x84C DUP2 PUSH2 0x797 JUMP JUMPDEST DUP3 MSTORE POP POP JUMP JUMPDEST PUSH0 DUP2 MLOAD SWAP1 POP SWAP2 SWAP1 POP JUMP JUMPDEST PUSH0 DUP3 DUP3 MSTORE PUSH1 0x20 DUP3 ADD SWAP1 POP SWAP3 SWAP2 POP POP JUMP JUMPDEST DUP3 DUP2 DUP4 MCOPY PUSH0 DUP4 DUP4 ADD MSTORE POP POP POP JUMP JUMPDEST PUSH0 PUSH1 0x1F NOT PUSH1 0x1F DUP4 ADD AND SWAP1 POP SWAP2 SWAP1 POP JUMP JUMPDEST PUSH0 PUSH2 0x894 DUP3 PUSH2 0x852 JUMP JUMPDEST PUSH2 0x89E DUP2 DUP6 PUSH2 0x85C JUMP JUMPDEST SWAP4 POP PUSH2 0x8AE DUP2 DUP6 PUSH1 0x20 DUP7 ADD PUSH2 0x86C JUMP JUMPDEST PUSH2 0x8B7 DUP2 PUSH2 0x87A JUMP JUMPDEST DUP5 ADD SWAP2 POP POP SWAP3 SWAP2 POP POP JUMP JUMPDEST PUSH2 0x8CB DUP2 PUSH2 0x7D2 JUMP JUMPDEST DUP3 MSTORE POP POP JUMP JUMPDEST PUSH0 PUSH1 0x80 DUP3 ADD SWAP1 POP PUSH2 0x8E4 PUSH0 DUP4 ADD DUP8 PUSH2 0x843 JUMP JUMPDEST DUP2 DUP2 SUB PUSH1 0x20 DUP4 ADD MSTORE PUSH2 0x8F6 DUP2 DUP7 PUSH2 0x88A JUMP JUMPDEST SWAP1 POP PUSH2 0x905 PUSH1 0x40 DUP4 ADD DUP6 PUSH2 0x8C2 JUMP JUMPDEST PUSH2 0x912 PUSH1 0x60 DUP4 ADD DUP5 PUSH2 0x8C2 JUMP JUMPDEST SWAP6 SWAP5 POP POP POP POP POP JUMP JUMPDEST PUSH0 PUSH1 0x20 DUP3 DUP5 SUB SLT ISZERO PUSH2 0x930 JUMPI PUSH2 0x92F PUSH2 0x770 JUMP JUMPDEST JUMPDEST PUSH0 PUSH2 0x93D DUP5 DUP3 DUP6 ADD PUSH2 0x7BE JUMP JUMPDEST SWAP2 POP POP SWAP3 SWAP2 POP POP JUMP JUMPDEST PUSH0 DUP2 MLOAD SWAP1 POP SWAP2 SWAP1 POP JUMP JUMPDEST PUSH0 DUP3 DUP3 MSTORE PUSH1 0x20 DUP3 ADD SWAP1 POP SWAP3 SWAP2 POP POP JUMP JUMPDEST PUSH0 DUP2 SWAP1 POP PUSH1 0x20 DUP3 ADD SWAP1 POP SWAP2 SWAP1 POP JUMP JUMPDEST PUSH2 0x978 DUP2 PUSH2 0x797 JUMP JUMPDEST DUP3 MSTORE POP POP JUMP JUMPDEST PUSH0 DUP3 DUP3 MSTORE PUSH1 0x20 DUP3 ADD SWAP1 POP SWAP3 SWAP2 POP POP JUMP JUMPDEST PUSH0 PUSH2 0x998 DUP3 PUSH2 0x852 JUMP JUMPDEST PUSH2 0x9A2 DUP2 DUP6 PUSH2 0x97E JUMP JUMPDEST SWAP4 POP PUSH2 0x9B2 DUP2 DUP6 PUSH1 0x20 DUP7 ADD PUSH2 0x86C JUMP JUMPDEST PUSH2 0x9BB DUP2 PUSH2 0x87A JUMP JUMPDEST DUP5 ADD SWAP2 POP POP SWAP3 SWAP2 POP POP JUMP JUMPDEST PUSH2 0x9CF DUP2 PUSH2 0x7D2 JUMP JUMPDEST DUP3 MSTORE POP POP JUMP JUMPDEST PUSH0 PUSH1 0x80 DUP4 ADD PUSH0 DUP4 ADD MLOAD PUSH2 0x9EA PUSH0 DUP7 ADD DUP3 PUSH2 0x96F JUMP JUMPDEST POP PUSH1 0x20 DUP4 ADD MLOAD DUP5 DUP3 SUB PUSH1 0x20 DUP7 ADD MSTORE PUSH2 0xA02 DUP3 DUP3 PUSH2 0x98E JUMP JUMPDEST SWAP2 POP POP PUSH1 0x40 DUP4 ADD MLOAD PUSH2 0xA17 PUSH1 0x40 DUP7 ADD DUP3 PUSH2 0x9C6 JUMP JUMPDEST POP PUSH1 0x60 DUP4 ADD MLOAD PUSH2 0xA2A PUSH1 0x60 DUP7 ADD DUP3 PUSH2 0x9C6 JUMP JUMPDEST POP DUP1 SWAP2 POP POP SWAP3 SWAP2 POP POP JUMP JUMPDEST PUSH0 PUSH2 0xA40 DUP4 DUP4 PUSH2 0x9D5 JUMP JUMPDEST SWAP1 POP SWAP3 SWAP2 POP POP JUMP JUMPDEST PUSH0 PUSH1 0x20 DUP3 ADD SWAP1 POP SWAP2 SWAP1 POP JUMP JUMPDEST PUSH0 PUSH2 0xA5E DUP3 PUSH2 0x946 JUMP JUMPDEST PUSH2 0xA68 DUP2 DUP6 PUSH2 0x950 JUMP JUMPDEST SWAP4 POP DUP4 PUSH1 0x20 DUP3 MUL DUP6 ADD PUSH2 0xA7A DUP6 PUSH2 0x960 JUMP JUMPDEST DUP1 PUSH0 JUMPDEST DUP6 DUP2 LT ISZERO PUSH2 0xAB5 JUMPI DUP5 DUP5 SUB DUP10 MSTORE DUP2 MLOAD PUSH2 0xA96 DUP6 DUP3 PUSH2 0xA35 JUMP JUMPDEST SWAP5 POP PUSH2 0xAA1 DUP4 PUSH2 0xA48 JUMP JUMPDEST SWAP3 POP PUSH1 0x20 DUP11 ADD SWAP10 POP POP PUSH1 0x1 DUP2 ADD SWAP1 POP PUSH2 0xA7D JUMP JUMPDEST POP DUP3 SWAP8 POP DUP8 SWAP6 POP POP POP POP POP POP SWAP3 SWAP2 POP POP JUMP JUMPDEST PUSH0 PUSH1 0x20 DUP3 ADD SWAP1 POP DUP2 DUP2 SUB PUSH0 DUP4 ADD MSTORE PUSH2 0xADF DUP2 DUP5 PUSH2 0xA54 JUMP JUMPDEST SWAP1 POP SWAP3 SWAP2 POP POP JUMP JUMPDEST PUSH0 PUSH2 0xFFFF DUP3 AND SWAP1 POP SWAP2 SWAP1 POP JUMP JUMPDEST PUSH2 0xAFD DUP2 PUSH2 0xAE7 JUMP JUMPDEST DUP2 EQ PUSH2 0xB07 JUMPI PUSH0 PUSH0 REVERT JUMPDEST POP JUMP JUMPDEST PUSH0 DUP2 CALLDATALOAD SWAP1 POP PUSH2 0xB18 DUP2 PUSH2 0xAF4 JUMP JUMPDEST SWAP3 SWAP2 POP POP JUMP JUMPDEST PUSH0 PUSH1 0x20 DUP3 DUP5 SUB SLT ISZERO PUSH2 0xB33 JUMPI PUSH2 0xB32 PUSH2 0x770 JUMP JUMPDEST JUMPDEST PUSH0 PUSH2 0xB40 DUP5 DUP3 DUP6 ADD PUSH2 0xB0A JUMP JUMPDEST SWAP2 POP POP SWAP3 SWAP2 POP POP JUMP JUMPDEST PUSH2 0xB52 DUP2 PUSH2 0xAE7 JUMP JUMPDEST DUP3 MSTORE POP POP JUMP JUMPDEST PUSH0 PUSH1 0x20 DUP3 ADD SWAP1 POP PUSH2 0xB6B PUSH0 DUP4 ADD DUP5 PUSH2 0xB49 JUMP JUMPDEST SWAP3 SWAP2 POP POP JUMP JUMPDEST PUSH0 PUSH0 REVERT JUMPDEST PUSH0 PUSH0 REVERT JUMPDEST PUSH32 0x4E487B7100000000000000000000000000000000000000000000000000000000 PUSH0 MSTORE PUSH1 0x41 PUSH1 0x4 MSTORE PUSH1 0x24 PUSH0 REVERT JUMPDEST PUSH2 0xBAF DUP3 PUSH2 0x87A JUMP JUMPDEST DUP2 ADD DUP2 DUP2 LT PUSH8 0xFFFFFFFFFFFFFFFF DUP3 GT OR ISZERO PUSH2 0xBCE JUMPI PUSH2 0xBCD PUSH2 0xB79 JUMP JUMPDEST JUMPDEST DUP1 PUSH1 0x40 MSTORE POP POP POP JUMP JUMPDEST PUSH0 PUSH2 0xBE0 PUSH2 0x767 JUMP JUMPDEST SWAP1 POP PUSH2 0xBEC DUP3 DUP3 PUSH2 0xBA6 JUMP JUMPDEST SWAP2 SWAP1 POP JUMP JUMPDEST PUSH0 PUSH8 0xFFFFFFFFFFFFFFFF DUP3 GT ISZERO PUSH2 0xC0B JUMPI PUSH2 0xC0A PUSH2 0xB79 JUMP JUMPDEST JUMPDEST PUSH2 0xC14 DUP3 PUSH2 0x87A JUMP JUMPDEST SWAP1 POP PUSH1 0x20 DUP2 ADD SWAP1 POP SWAP2 SWAP1 POP JUMP JUMPDEST DUP3 DUP2 DUP4 CALLDATACOPY PUSH0 DUP4 DUP4 ADD MSTORE POP POP POP JUMP JUMPDEST PUSH0 PUSH2 0xC41 PUSH2 0xC3C DUP5 PUSH2 0xBF1 JUMP JUMPDEST PUSH2 0xBD7 JUMP JUMPDEST SWAP1 POP DUP3 DUP2 MSTORE PUSH1 0x20 DUP2 ADD DUP5 DUP5 DUP5 ADD GT ISZERO PUSH2 0xC5D JUMPI PUSH2 0xC5C PUSH2 0xB75 JUMP JUMPDEST JUMPDEST PUSH2 0xC68 DUP5 DUP3 DUP6 PUSH2 0xC21 JUMP JUMPDEST POP SWAP4 SWAP3 POP POP POP JUMP JUMPDEST PUSH0 DUP3 PUSH1 0x1F DUP4 ADD SLT PUSH2 0xC84 JUMPI PUSH2 0xC83 PUSH2 0xB71 JUMP JUMPDEST JUMPDEST DUP2 CALLDATALOAD PUSH2 0xC94 DUP5 DUP3 PUSH1 0x20 DUP7 ADD PUSH2 0xC2F JUMP JUMPDEST SWAP2 POP POP SWAP3 SWAP2 POP POP JUMP JUMPDEST PUSH0 PUSH1 0x20 DUP3 DUP5 SUB SLT ISZERO PUSH2 0xCB2 JUMPI PUSH2 0xCB1 PUSH2 0x770 JUMP JUMPDEST JUMPDEST PUSH0 DUP3 ADD CALLDATALOAD PUSH8 0xFFFFFFFFFFFFFFFF DUP2 GT ISZERO PUSH2 0xCCF JUMPI PUSH2 0xCCE PUSH2 0x774 JUMP JUMPDEST JUMPDEST PUSH2 0xCDB DUP5 DUP3 DUP6 ADD PUSH2 0xC70 JUMP JUMPDEST SWAP2 POP POP SWAP3 SWAP2 POP POP JUMP JUMPDEST PUSH0 PUSH1 0x20 DUP3 ADD SWAP1 POP PUSH2 0xCF7 PUSH0 DUP4 ADD DUP5 PUSH2 0x843 JUMP JUMPDEST SWAP3 SWAP2 POP POP JUMP JUMPDEST PUSH0 PUSH1 0x20 DUP3 DUP5 SUB SLT ISZERO PUSH2 0xD12 JUMPI PUSH2 0xD11 PUSH2 0x770 JUMP JUMPDEST JUMPDEST PUSH0 PUSH2 0xD1F DUP5 DUP3 DUP6 ADD PUSH2 0x7F1 JUMP JUMPDEST SWAP2 POP POP SWAP3 SWAP2 POP POP JUMP JUMPDEST PUSH0 PUSH1 0x80 DUP4 ADD PUSH0 DUP4 ADD MLOAD PUSH2 0xD3D PUSH0 DUP7 ADD DUP3 PUSH2 0x96F JUMP JUMPDEST POP PUSH1 0x20 DUP4 ADD MLOAD DUP5 DUP3 SUB PUSH1 0x20 DUP7 ADD MSTORE PUSH2 0xD55 DUP3 DUP3 PUSH2 0x98E JUMP JUMPDEST SWAP2 POP POP PUSH1 0x40 DUP4 ADD MLOAD PUSH2 0xD6A PUSH1 0x40 DUP7 ADD DUP3 PUSH2 0x9C6 JUMP JUMPDEST POP PUSH1 0x60 DUP4 ADD MLOAD PUSH2 0xD7D PUSH1 0x60 DUP7 ADD DUP3 PUSH2 0x9C6 JUMP JUMPDEST POP DUP1 SWAP2 POP POP SWAP3 SWAP2 POP POP JUMP JUMPDEST PUSH0 PUSH1 0x20 DUP3 ADD SWAP1 POP DUP2 DUP2 SUB PUSH0 DUP4 ADD MSTORE PUSH2 0xDA0 DUP2 DUP5 PUSH2 0xD28 JUMP JUMPDEST SWAP1 POP SWAP3 SWAP2 POP POP JUMP JUMPDEST PUSH32 0x4E487B7100000000000000000000000000000000000000000000000000000000 PUSH0 MSTORE PUSH1 0x22 PUSH1 0x4 MSTORE PUSH1 0x24 PUSH0 REVERT JUMPDEST PUSH0 PUSH1 0x2 DUP3 DIV SWAP1 POP PUSH1 0x1 DUP3 AND DUP1 PUSH2 0xDEC JUMPI PUSH1 0x7F DUP3 AND SWAP2 POP JUMPDEST PUSH1 0x20 DUP3 LT DUP2 SUB PUSH2 0xDFF JUMPI PUSH2 0xDFE PUSH2 0xDA8 JUMP JUMPDEST JUMPDEST POP SWAP2 SWAP1 POP JUMP JUMPDEST PUSH32 0x547765657420697320746F6F206C6F6E672062726F2100000000000000000000 PUSH0 DUP3 ADD MSTORE POP JUMP JUMPDEST PUSH0 PUSH2 0xE39 PUSH1 0x16 DUP4 PUSH2 0x85C JUMP JUMPDEST SWAP2 POP PUSH2 0xE44 DUP3 PUSH2 0xE05 JUMP JUMPDEST PUSH1 0x20 DUP3 ADD SWAP1 POP SWAP2 SWAP1 POP JUMP JUMPDEST PUSH0 PUSH1 0x20 DUP3 ADD SWAP1 POP DUP2 DUP2 SUB PUSH0 DUP4 ADD MSTORE PUSH2 0xE66 DUP2 PUSH2 0xE2D JUMP JUMPDEST SWAP1 POP SWAP2 SWAP1 POP JUMP JUMPDEST PUSH0 DUP2 SWAP1 POP DUP2 PUSH0 MSTORE PUSH1 0x20 PUSH0 KECCAK256 SWAP1 POP SWAP2 SWAP1 POP JUMP JUMPDEST PUSH0 PUSH1 0x20 PUSH1 0x1F DUP4 ADD DIV SWAP1 POP SWAP2 SWAP1 POP JUMP JUMPDEST PUSH0 DUP3 DUP3 SHL SWAP1 POP SWAP3 SWAP2 POP POP JUMP JUMPDEST PUSH0 PUSH1 0x8 DUP4 MUL PUSH2 0xEC9 PUSH32 0xFFFFFFFFFFFFFFFFFFFFFFFFFFFFFFFFFFFFFFFFFFFFFFFFFFFFFFFFFFFFFFFF DUP3 PUSH2 0xE8E JUMP JUMPDEST PUSH2 0xED3 DUP7 DUP4 PUSH2 0xE8E JUMP JUMPDEST SWAP6 POP DUP1 NOT DUP5 AND SWAP4 POP DUP1 DUP7 AND DUP5 OR SWAP3 POP POP POP SWAP4 SWAP3 POP POP POP JUMP JUMPDEST PUSH0 DUP2 SWAP1 POP SWAP2 SWAP1 POP JUMP JUMPDEST PUSH0 PUSH2 0xF0E PUSH2 0xF09 PUSH2 0xF04 DUP5 PUSH2 0x7D2 JUMP JUMPDEST PUSH2 0xEEB JUMP JUMPDEST PUSH2 0x7D2 JUMP JUMPDEST SWAP1 POP SWAP2 SWAP1 POP JUMP JUMPDEST PUSH0 DUP2 SWAP1 POP SWAP2 SWAP1 POP JUMP JUMPDEST PUSH2 0xF27 DUP4 PUSH2 0xEF4 JUMP JUMPDEST PUSH2 0xF3B PUSH2 0xF33 DUP3 PUSH2 0xF15 JUMP JUMPDEST DUP5 DUP5 SLOAD PUSH2 0xE9A JUMP JUMPDEST DUP3 SSTORE POP POP POP POP JUMP JUMPDEST PUSH0 PUSH0 SWAP1 POP SWAP1 JUMP JUMPDEST PUSH2 0xF52 PUSH2 0xF43 JUMP JUMPDEST PUSH2 0xF5D DUP2 DUP5 DUP5 PUSH2 0xF1E JUMP JUMPDEST POP POP POP JUMP JUMPDEST JUMPDEST DUP2 DUP2 LT ISZERO PUSH2 0xF80 JUMPI PUSH2 0xF75 PUSH0 DUP3 PUSH2 0xF4A JUMP JUMPDEST PUSH1 0x1 DUP2 ADD SWAP1 POP PUSH2 0xF63 JUMP JUMPDEST POP POP JUMP JUMPDEST PUSH1 0x1F DUP3 GT ISZERO PUSH2 0xFC5 JUMPI PUSH2 0xF96 DUP2 PUSH2 0xE6D JUMP JUMPDEST PUSH2 0xF9F DUP5 PUSH2 0xE7F JUMP JUMPDEST DUP2 ADD PUSH1 0x20 DUP6 LT ISZERO PUSH2 0xFAE JUMPI DUP2 SWAP1 POP JUMPDEST PUSH2 0xFC2 PUSH2 0xFBA DUP6 PUSH2 0xE7F JUMP JUMPDEST DUP4 ADD DUP3 PUSH2 0xF62 JUMP JUMPDEST POP POP JUMPDEST POP POP POP JUMP JUMPDEST PUSH0 DUP3 DUP3 SHR SWAP1 POP SWAP3 SWAP2 POP POP JUMP JUMPDEST PUSH0 PUSH2 0xFE5 PUSH0 NOT DUP5 PUSH1 0x8 MUL PUSH2 0xFCA JUMP JUMPDEST NOT DUP1 DUP4 AND SWAP2 POP POP SWAP3 SWAP2 POP POP JUMP JUMPDEST PUSH0 PUSH2 0xFFD DUP4 DUP4 PUSH2 0xFD6 JUMP JUMPDEST SWAP2 POP DUP3 PUSH1 0x2 MUL DUP3 OR SWAP1 POP SWAP3 SWAP2 POP POP JUMP JUMPDEST PUSH2 0x1016 DUP3 PUSH2 0x852 JUMP JUMPDEST PUSH8 0xFFFFFFFFFFFFFFFF DUP2 GT ISZERO PUSH2 0x102F JUMPI PUSH2 0x102E PUSH2 0xB79 JUMP JUMPDEST JUMPDEST PUSH2 0x1039 DUP3 SLOAD PUSH2 0xDD5 JUMP JUMPDEST PUSH2 0x1044 DUP3 DUP3 DUP6 PUSH2 0xF84 JUMP JUMPDEST PUSH0 PUSH1 0x20 SWAP1 POP PUSH1 0x1F DUP4 GT PUSH1 0x1 DUP2 EQ PUSH2 0x1075 JUMPI PUSH0 DUP5 ISZERO PUSH2 0x1063 JUMPI DUP3 DUP8 ADD MLOAD SWAP1 POP JUMPDEST PUSH2 0x106D DUP6 DUP3 PUSH2 0xFF2 JUMP JUMPDEST DUP7 SSTORE POP PUSH2 0x10D4 JUMP JUMPDEST PUSH1 0x1F NOT DUP5 AND PUSH2 0x1083 DUP7 PUSH2 0xE6D JUMP JUMPDEST PUSH0 JUMPDEST DUP3 DUP2 LT ISZERO PUSH2 0x10AA JUMPI DUP5 DUP10 ADD MLOAD DUP3 SSTORE PUSH1 0x1 DUP3 ADD SWAP2 POP PUSH1 0x20 DUP6 ADD SWAP5 POP PUSH1 0x20 DUP2 ADD SWAP1 POP PUSH2 0x1085 JUMP JUMPDEST DUP7 DUP4 LT ISZERO PUSH2 0x10C7 JUMPI DUP5 DUP10 ADD MLOAD PUSH2 0x10C3 PUSH1 0x1F DUP10 AND DUP3 PUSH2 0xFD6 JUMP JUMPDEST DUP4 SSTORE POP JUMPDEST PUSH1 0x1 PUSH1 0x2 DUP9 MUL ADD DUP9 SSTORE POP POP POP JUMPDEST POP POP POP POP POP POP JUMP JUMPDEST PUSH32 0x4E487B7100000000000000000000000000000000000000000000000000000000 PUSH0 MSTORE PUSH1 0x32 PUSH1 0x4 MSTORE PUSH1 0x24 PUSH0 REVERT INVALID LOG2 PUSH5 0x6970667358 0x22 SLT KECCAK256 PUSH32 0xD688FBAA0889511BFE4392F78680C9BF41F4EECC555D02A5484CB0136737F164 PUSH20 0x6F6C634300081E00330000000000000000000000 "
				},
				"gasEstimates": {
					"creation": {
						"codeDepositCost": "883000",
						"executionCost": "49444",
						"totalCost": "932444"
					},
					"external": {
						"MAX_TWEET_LENGTH()": "2465",
						"changeTweetLength(uint16)": "24717",
						"createTweet(string)": "infinite",
						"getAllTweets(address)": "infinite",
						"getTweet(uint256)": "infinite",
						"owner()": "2552",
						"tweets(address,uint256)": "infinite"
					}
				},
				"methodIdentifiers": {
					"MAX_TWEET_LENGTH()": "6eb10797",
					"changeTweetLength(uint16)": "58bfa4ab",
					"createTweet(string)": "7c9cd2bc",
					"getAllTweets(address)": "12e7ee1c",
					"getTweet(uint256)": "c3ad5ecb",
					"owner()": "8da5cb5b",
					"tweets(address,uint256)": "05a1b4a9"
				}
			},
			"storageLayout": {
				"storage": [
					{
						"astId": 4,
						"contract": "contracts/ultimate-solidity-course-for-complete-beginners-main/Exercises/17-Twitter-Modifier-Exercise.sol:Twitter",
						"label": "MAX_TWEET_LENGTH",
						"offset": 0,
						"slot": "0",
						"type": "t_uint16"
					},
					{
						"astId": 19,
						"contract": "contracts/ultimate-solidity-course-for-complete-beginners-main/Exercises/17-Twitter-Modifier-Exercise.sol:Twitter",
						"label": "tweets",
						"offset": 0,
						"slot": "1",
						"type": "t_mapping(t_address,t_array(t_struct(Tweet)13_storage)dyn_storage)"
					},
					{
						"astId": 21,
						"contract": "contracts/ultimate-solidity-course-for-complete-beginners-main/Exercises/17-Twitter-Modifier-Exercise.sol:Twitter",
						"label": "owner",
						"offset": 0,
						"slot": "2",
						"type": "t_address"
					}
				],
				"types": {
					"t_address": {
						"encoding": "inplace",
						"label": "address",
						"numberOfBytes": "20"
					},
					"t_array(t_struct(Tweet)13_storage)dyn_storage": {
						"base": "t_struct(Tweet)13_storage",
						"encoding": "dynamic_array",
						"label": "struct Twitter.Tweet[]",
						"numberOfBytes": "32"
					},
					"t_mapping(t_address,t_array(t_struct(Tweet)13_storage)dyn_storage)": {
						"encoding": "mapping",
						"key": "t_address",
						"label": "mapping(address => struct Twitter.Tweet[])",
						"numberOfBytes": "32",
						"value": "t_array(t_struct(Tweet)13_storage)dyn_storage"
					},
					"t_string_storage": {
						"encoding": "bytes",
						"label": "string",
						"numberOfBytes": "32"
					},
					"t_struct(Tweet)13_storage": {
						"encoding": "inplace",
						"label": "struct Twitter.Tweet",
						"members": [
							{
								"astId": 6,
								"contract": "contracts/ultimate-solidity-course-for-complete-beginners-main/Exercises/17-Twitter-Modifier-Exercise.sol:Twitter",
								"label": "author",
								"offset": 0,
								"slot": "0",
								"type": "t_address"
							},
							{
								"astId": 8,
								"contract": "contracts/ultimate-solidity-course-for-complete-beginners-main/Exercises/17-Twitter-Modifier-Exercise.sol:Twitter",
								"label": "content",
								"offset": 0,
								"slot": "1",
								"type": "t_string_storage"
							},
							{
								"astId": 10,
								"contract": "contracts/ultimate-solidity-course-for-complete-beginners-main/Exercises/17-Twitter-Modifier-Exercise.sol:Twitter",
								"label": "timestamp",
								"offset": 0,
								"slot": "2",
								"type": "t_uint256"
							},
							{
								"astId": 12,
								"contract": "contracts/ultimate-solidity-course-for-complete-beginners-main/Exercises/17-Twitter-Modifier-Exercise.sol:Twitter",
								"label": "likes",
								"offset": 0,
								"slot": "3",
								"type": "t_uint256"
							}
						],
						"numberOfBytes": "128"
					},
					"t_uint16": {
						"encoding": "inplace",
						"label": "uint16",
						"numberOfBytes": "2"
					},
					"t_uint256": {
						"encoding": "inplace",
						"label": "uint256",
						"numberOfBytes": "32"
					}
				}
			},
			"userdoc": {
				"kind": "user",
				"methods": {},
				"version": 1
			}
		}
	}
}